{
	"contracts/struct.sol": {
		"Twitter": {
			"abi": [
				{
					"inputs": [
						{
							"internalType": "string",
							"name": "_tweet",
							"type": "string"
						}
					],
					"name": "CreateTweet",
					"outputs": [],
					"stateMutability": "nonpayable",
					"type": "function"
				},
				{
					"inputs": [
						{
							"internalType": "address",
							"name": "_owner",
							"type": "address"
						}
					],
					"name": "GetAllTweet",
					"outputs": [
						{
							"components": [
								{
									"internalType": "address",
									"name": "author",
									"type": "address"
								},
								{
									"internalType": "string",
									"name": "content",
									"type": "string"
								},
								{
									"internalType": "uint256",
									"name": "timestamp",
									"type": "uint256"
								},
								{
									"internalType": "uint256",
									"name": "likes",
									"type": "uint256"
								}
							],
							"internalType": "struct Twitter.Tweet[]",
							"name": "",
							"type": "tuple[]"
						}
					],
					"stateMutability": "view",
					"type": "function"
				},
				{
					"inputs": [
						{
							"internalType": "address",
							"name": "_owner",
							"type": "address"
						},
						{
							"internalType": "uint256",
							"name": "_i",
							"type": "uint256"
						}
					],
					"name": "GetTweet",
					"outputs": [
						{
							"components": [
								{
									"internalType": "address",
									"name": "author",
									"type": "address"
								},
								{
									"internalType": "string",
									"name": "content",
									"type": "string"
								},
								{
									"internalType": "uint256",
									"name": "timestamp",
									"type": "uint256"
								},
								{
									"internalType": "uint256",
									"name": "likes",
									"type": "uint256"
								}
							],
							"internalType": "struct Twitter.Tweet",
							"name": "",
							"type": "tuple"
						}
					],
					"stateMutability": "view",
					"type": "function"
				},
				{
					"inputs": [
						{
							"internalType": "address",
							"name": "",
							"type": "address"
						},
						{
							"internalType": "uint256",
							"name": "",
							"type": "uint256"
						}
					],
					"name": "tweets",
					"outputs": [
						{
							"internalType": "address",
							"name": "author",
							"type": "address"
						},
						{
							"internalType": "string",
							"name": "content",
							"type": "string"
						},
						{
							"internalType": "uint256",
							"name": "timestamp",
							"type": "uint256"
						},
						{
							"internalType": "uint256",
							"name": "likes",
							"type": "uint256"
						}
					],
					"stateMutability": "view",
					"type": "function"
				}
			],
			"devdoc": {
				"kind": "dev",
				"methods": {},
				"version": 1
			},
			"evm": {
				"assembly": "    /* \"contracts/struct.sol\":177:978  contract Twitter ... */\n  mstore(0x40, 0x80)\n  callvalue\n  dup1\n  iszero\n  tag_1\n  jumpi\n  0x00\n  dup1\n  revert\ntag_1:\n  pop\n  dataSize(sub_0)\n  dup1\n  dataOffset(sub_0)\n  0x00\n  codecopy\n  0x00\n  return\nstop\n\nsub_0: assembly {\n        /* \"contracts/struct.sol\":177:978  contract Twitter ... */\n      mstore(0x40, 0x80)\n      callvalue\n      dup1\n      iszero\n      tag_1\n      jumpi\n      0x00\n      dup1\n      revert\n    tag_1:\n      pop\n      jumpi(tag_2, lt(calldatasize, 0x04))\n      shr(0xe0, calldataload(0x00))\n      dup1\n      0x05a1b4a9\n      eq\n      tag_3\n      jumpi\n      dup1\n      0x2a1f1d06\n      eq\n      tag_4\n      jumpi\n      dup1\n      0x37f36a4c\n      eq\n      tag_5\n      jumpi\n      dup1\n      0x49e5fdee\n      eq\n      tag_6\n      jumpi\n    tag_2:\n      0x00\n      dup1\n      revert\n        /* \"contracts/struct.sol\":340:380  mapping (address=>Tweet[]) public tweets */\n    tag_3:\n      tag_7\n      0x04\n      dup1\n      calldatasize\n      sub\n      dup2\n      add\n      swap1\n      tag_8\n      swap2\n      swap1\n      tag_9\n      jump\t// in\n    tag_8:\n      tag_10\n      jump\t// in\n    tag_7:\n      mload(0x40)\n      tag_11\n      swap5\n      swap4\n      swap3\n      swap2\n      swap1\n      tag_12\n      jump\t// in\n    tag_11:\n      mload(0x40)\n      dup1\n      swap2\n      sub\n      swap1\n      return\n        /* \"contracts/struct.sol\":389:711  function CreateTweet(string memory _tweet) public ... */\n    tag_4:\n      tag_13\n      0x04\n      dup1\n      calldatasize\n      sub\n      dup2\n      add\n      swap1\n      tag_14\n      swap2\n      swap1\n      tag_15\n      jump\t// in\n    tag_14:\n      tag_16\n      jump\t// in\n    tag_13:\n      stop\n        /* \"contracts/struct.sol\":719:846  function GetTweet(address _owner, uint _i) public view returns (Tweet memory)... */\n    tag_5:\n      tag_17\n      0x04\n      dup1\n      calldatasize\n      sub\n      dup2\n      add\n      swap1\n      tag_18\n      swap2\n      swap1\n      tag_9\n      jump\t// in\n    tag_18:\n      tag_19\n      jump\t// in\n    tag_17:\n      mload(0x40)\n      tag_20\n      swap2\n      swap1\n      tag_21\n      jump\t// in\n    tag_20:\n      mload(0x40)\n      dup1\n      swap2\n      sub\n      swap1\n      return\n        /* \"contracts/struct.sol\":854:973  function GetAllTweet(address _owner) public view returns (Tweet[] memory)... */\n    tag_6:\n      tag_22\n      0x04\n      dup1\n      calldatasize\n      sub\n      dup2\n      add\n      swap1\n      tag_23\n      swap2\n      swap1\n      tag_24\n      jump\t// in\n    tag_23:\n      tag_25\n      jump\t// in\n    tag_22:\n      mload(0x40)\n      tag_26\n      swap2\n      swap1\n      tag_27\n      jump\t// in\n    tag_26:\n      mload(0x40)\n      dup1\n      swap2\n      sub\n      swap1\n      return\n        /* \"contracts/struct.sol\":340:380  mapping (address=>Tweet[]) public tweets */\n    tag_10:\n      mstore(0x20, 0x00)\n      dup2\n      0x00\n      mstore\n      keccak256(0x00, 0x40)\n      dup2\n      dup2\n      sload\n      dup2\n      lt\n      tag_28\n      jumpi\n      0x00\n      dup1\n      revert\n    tag_28:\n      swap1\n      0x00\n      mstore\n      keccak256(0x00, 0x20)\n      swap1\n      0x04\n      mul\n      add\n      0x00\n      swap2\n      pop\n      swap2\n      pop\n      pop\n      dup1\n      0x00\n      add\n      0x00\n      swap1\n      sload\n      swap1\n      0x0100\n      exp\n      swap1\n      div\n      0xffffffffffffffffffffffffffffffffffffffff\n      and\n      swap1\n      dup1\n      0x01\n      add\n      dup1\n      sload\n      tag_30\n      swap1\n      tag_31\n      jump\t// in\n    tag_30:\n      dup1\n      0x1f\n      add\n      0x20\n      dup1\n      swap2\n      div\n      mul\n      0x20\n      add\n      mload(0x40)\n      swap1\n      dup2\n      add\n      0x40\n      mstore\n      dup1\n      swap3\n      swap2\n      swap1\n      dup2\n      dup2\n      mstore\n      0x20\n      add\n      dup3\n      dup1\n      sload\n      tag_32\n      swap1\n      tag_31\n      jump\t// in\n    tag_32:\n      dup1\n      iszero\n      tag_33\n      jumpi\n      dup1\n      0x1f\n      lt\n      tag_34\n      jumpi\n      0x0100\n      dup1\n      dup4\n      sload\n      div\n      mul\n      dup4\n      mstore\n      swap2\n      0x20\n      add\n      swap2\n      jump(tag_33)\n    tag_34:\n      dup3\n      add\n      swap2\n      swap1\n      0x00\n      mstore\n      keccak256(0x00, 0x20)\n      swap1\n    tag_35:\n      dup2\n      sload\n      dup2\n      mstore\n      swap1\n      0x01\n      add\n      swap1\n      0x20\n      add\n      dup1\n      dup4\n      gt\n      tag_35\n      jumpi\n      dup3\n      swap1\n      sub\n      0x1f\n      and\n      dup3\n      add\n      swap2\n    tag_33:\n      pop\n      pop\n      pop\n      pop\n      pop\n      swap1\n      dup1\n      0x02\n      add\n      sload\n      swap1\n      dup1\n      0x03\n      add\n      sload\n      swap1\n      pop\n      dup5\n      jump\t// out\n        /* \"contracts/struct.sol\":389:711  function CreateTweet(string memory _tweet) public ... */\n    tag_16:\n        /* \"contracts/struct.sol\":456:477  Tweet memory newTweet */\n      0x00\n        /* \"contracts/struct.sol\":480:659  Tweet(... */\n      mload(0x40)\n      dup1\n      0x80\n      add\n      0x40\n      mstore\n      dup1\n        /* \"contracts/struct.sol\":527:537  msg.sender */\n      caller\n        /* \"contracts/struct.sol\":480:659  Tweet(... */\n      0xffffffffffffffffffffffffffffffffffffffff\n      and\n      dup2\n      mstore\n      0x20\n      add\n        /* \"contracts/struct.sol\":565:571  _tweet */\n      dup4\n        /* \"contracts/struct.sol\":480:659  Tweet(... */\n      dup2\n      mstore\n      0x20\n      add\n        /* \"contracts/struct.sol\":601:616  block.timestamp */\n      timestamp\n        /* \"contracts/struct.sol\":480:659  Tweet(... */\n      dup2\n      mstore\n      0x20\n      add\n        /* \"contracts/struct.sol\":642:643  0 */\n      0x00\n        /* \"contracts/struct.sol\":480:659  Tweet(... */\n      dup2\n      mstore\n      pop\n        /* \"contracts/struct.sol\":456:659  Tweet memory newTweet = Tweet(... */\n      swap1\n      pop\n        /* \"contracts/struct.sol\":670:676  tweets */\n      0x00\n        /* \"contracts/struct.sol\":670:688  tweets[msg.sender] */\n      dup1\n        /* \"contracts/struct.sol\":677:687  msg.sender */\n      caller\n        /* \"contracts/struct.sol\":670:688  tweets[msg.sender] */\n      0xffffffffffffffffffffffffffffffffffffffff\n      and\n      0xffffffffffffffffffffffffffffffffffffffff\n      and\n      dup2\n      mstore\n      0x20\n      add\n      swap1\n      dup2\n      mstore\n      0x20\n      add\n      0x00\n      keccak256\n        /* \"contracts/struct.sol\":694:702  newTweet */\n      dup2\n        /* \"contracts/struct.sol\":670:703  tweets[msg.sender].push(newTweet) */\n      swap1\n      dup1\n      0x01\n      dup2\n      sload\n      add\n      dup1\n      dup3\n      sstore\n      dup1\n      swap2\n      pop\n      pop\n      0x01\n      swap1\n      sub\n      swap1\n      0x00\n      mstore\n      keccak256(0x00, 0x20)\n      swap1\n      0x04\n      mul\n      add\n      0x00\n      swap1\n      swap2\n      swap1\n      swap2\n      swap1\n      swap2\n      pop\n      0x00\n      dup3\n      add\n      mload\n      dup2\n      0x00\n      add\n      exp(0x0100, 0x00)\n      dup2\n      sload\n      dup2\n      0xffffffffffffffffffffffffffffffffffffffff\n      mul\n      not\n      and\n      swap1\n      dup4\n      0xffffffffffffffffffffffffffffffffffffffff\n      and\n      mul\n      or\n      swap1\n      sstore\n      pop\n      0x20\n      dup3\n      add\n      mload\n      dup2\n      0x01\n      add\n      swap1\n      dup2\n      tag_38\n      swap2\n      swap1\n      tag_39\n      jump\t// in\n    tag_38:\n      pop\n      0x40\n      dup3\n      add\n      mload\n      dup2\n      0x02\n      add\n      sstore\n      0x60\n      dup3\n      add\n      mload\n      dup2\n      0x03\n      add\n      sstore\n      pop\n      pop\n        /* \"contracts/struct.sol\":445:711  {... */\n      pop\n        /* \"contracts/struct.sol\":389:711  function CreateTweet(string memory _tweet) public ... */\n      pop\n      jump\t// out\n        /* \"contracts/struct.sol\":719:846  function GetTweet(address _owner, uint _i) public view returns (Tweet memory)... */\n    tag_19:\n        /* \"contracts/struct.sol\":783:795  Tweet memory */\n      tag_40\n      tag_41\n      jump\t// in\n    tag_40:\n        /* \"contracts/struct.sol\":820:826  tweets */\n      0x00\n        /* \"contracts/struct.sol\":820:834  tweets[_owner] */\n      dup1\n        /* \"contracts/struct.sol\":827:833  _owner */\n      dup5\n        /* \"contracts/struct.sol\":820:834  tweets[_owner] */\n      0xffffffffffffffffffffffffffffffffffffffff\n      and\n      0xffffffffffffffffffffffffffffffffffffffff\n      and\n      dup2\n      mstore\n      0x20\n      add\n      swap1\n      dup2\n      mstore\n      0x20\n      add\n      0x00\n      keccak256\n        /* \"contracts/struct.sol\":835:837  _i */\n      dup3\n        /* \"contracts/struct.sol\":820:838  tweets[_owner][_i] */\n      dup2\n      sload\n      dup2\n      lt\n      tag_43\n      jumpi\n      tag_44\n      tag_45\n      jump\t// in\n    tag_44:\n    tag_43:\n      swap1\n      0x00\n      mstore\n      keccak256(0x00, 0x20)\n      swap1\n      0x04\n      mul\n      add\n        /* \"contracts/struct.sol\":813:838  return tweets[_owner][_i] */\n      mload(0x40)\n      dup1\n      0x80\n      add\n      0x40\n      mstore\n      swap1\n      dup2\n      0x00\n      dup3\n      add\n      0x00\n      swap1\n      sload\n      swap1\n      0x0100\n      exp\n      swap1\n      div\n      0xffffffffffffffffffffffffffffffffffffffff\n      and\n      0xffffffffffffffffffffffffffffffffffffffff\n      and\n      0xffffffffffffffffffffffffffffffffffffffff\n      and\n      dup2\n      mstore\n      0x20\n      add\n      0x01\n      dup3\n      add\n      dup1\n      sload\n      tag_47\n      swap1\n      tag_31\n      jump\t// in\n    tag_47:\n      dup1\n      0x1f\n      add\n      0x20\n      dup1\n      swap2\n      div\n      mul\n      0x20\n      add\n      mload(0x40)\n      swap1\n      dup2\n      add\n      0x40\n      mstore\n      dup1\n      swap3\n      swap2\n      swap1\n      dup2\n      dup2\n      mstore\n      0x20\n      add\n      dup3\n      dup1\n      sload\n      tag_48\n      swap1\n      tag_31\n      jump\t// in\n    tag_48:\n      dup1\n      iszero\n      tag_49\n      jumpi\n      dup1\n      0x1f\n      lt\n      tag_50\n      jumpi\n      0x0100\n      dup1\n      dup4\n      sload\n      div\n      mul\n      dup4\n      mstore\n      swap2\n      0x20\n      add\n      swap2\n      jump(tag_49)\n    tag_50:\n      dup3\n      add\n      swap2\n      swap1\n      0x00\n      mstore\n      keccak256(0x00, 0x20)\n      swap1\n    tag_51:\n      dup2\n      sload\n      dup2\n      mstore\n      swap1\n      0x01\n      add\n      swap1\n      0x20\n      add\n      dup1\n      dup4\n      gt\n      tag_51\n      jumpi\n      dup3\n      swap1\n      sub\n      0x1f\n      and\n      dup3\n      add\n      swap2\n    tag_49:\n      pop\n      pop\n      pop\n      pop\n      pop\n      dup2\n      mstore\n      0x20\n      add\n      0x02\n      dup3\n      add\n      sload\n      dup2\n      mstore\n      0x20\n      add\n      0x03\n      dup3\n      add\n      sload\n      dup2\n      mstore\n      pop\n      pop\n      swap1\n      pop\n        /* \"contracts/struct.sol\":719:846  function GetTweet(address _owner, uint _i) public view returns (Tweet memory)... */\n      swap3\n      swap2\n      pop\n      pop\n      jump\t// out\n        /* \"contracts/struct.sol\":854:973  function GetAllTweet(address _owner) public view returns (Tweet[] memory)... */\n    tag_25:\n        /* \"contracts/struct.sol\":912:926  Tweet[] memory */\n      0x60\n        /* \"contracts/struct.sol\":951:957  tweets */\n      0x00\n        /* \"contracts/struct.sol\":951:965  tweets[_owner] */\n      dup1\n        /* \"contracts/struct.sol\":958:964  _owner */\n      dup4\n        /* \"contracts/struct.sol\":951:965  tweets[_owner] */\n      0xffffffffffffffffffffffffffffffffffffffff\n      and\n      0xffffffffffffffffffffffffffffffffffffffff\n      and\n      dup2\n      mstore\n      0x20\n      add\n      swap1\n      dup2\n      mstore\n      0x20\n      add\n      0x00\n      keccak256\n        /* \"contracts/struct.sol\":944:965  return tweets[_owner] */\n      dup1\n      sload\n      dup1\n      0x20\n      mul\n      0x20\n      add\n      mload(0x40)\n      swap1\n      dup2\n      add\n      0x40\n      mstore\n      dup1\n      swap3\n      swap2\n      swap1\n      dup2\n      dup2\n      mstore\n      0x20\n      add\n      0x00\n      swap1\n    tag_53:\n      dup3\n      dup3\n      lt\n      iszero\n      tag_54\n      jumpi\n      dup4\n      dup3\n      swap1\n      0x00\n      mstore\n      keccak256(0x00, 0x20)\n      swap1\n      0x04\n      mul\n      add\n      mload(0x40)\n      dup1\n      0x80\n      add\n      0x40\n      mstore\n      swap1\n      dup2\n      0x00\n      dup3\n      add\n      0x00\n      swap1\n      sload\n      swap1\n      0x0100\n      exp\n      swap1\n      div\n      0xffffffffffffffffffffffffffffffffffffffff\n      and\n      0xffffffffffffffffffffffffffffffffffffffff\n      and\n      0xffffffffffffffffffffffffffffffffffffffff\n      and\n      dup2\n      mstore\n      0x20\n      add\n      0x01\n      dup3\n      add\n      dup1\n      sload\n      tag_56\n      swap1\n      tag_31\n      jump\t// in\n    tag_56:\n      dup1\n      0x1f\n      add\n      0x20\n      dup1\n      swap2\n      div\n      mul\n      0x20\n      add\n      mload(0x40)\n      swap1\n      dup2\n      add\n      0x40\n      mstore\n      dup1\n      swap3\n      swap2\n      swap1\n      dup2\n      dup2\n      mstore\n      0x20\n      add\n      dup3\n      dup1\n      sload\n      tag_57\n      swap1\n      tag_31\n      jump\t// in\n    tag_57:\n      dup1\n      iszero\n      tag_58\n      jumpi\n      dup1\n      0x1f\n      lt\n      tag_59\n      jumpi\n      0x0100\n      dup1\n      dup4\n      sload\n      div\n      mul\n      dup4\n      mstore\n      swap2\n      0x20\n      add\n      swap2\n      jump(tag_58)\n    tag_59:\n      dup3\n      add\n      swap2\n      swap1\n      0x00\n      mstore\n      keccak256(0x00, 0x20)\n      swap1\n    tag_60:\n      dup2\n      sload\n      dup2\n      mstore\n      swap1\n      0x01\n      add\n      swap1\n      0x20\n      add\n      dup1\n      dup4\n      gt\n      tag_60\n      jumpi\n      dup3\n      swap1\n      sub\n      0x1f\n      and\n      dup3\n      add\n      swap2\n    tag_58:\n      pop\n      pop\n      pop\n      pop\n      pop\n      dup2\n      mstore\n      0x20\n      add\n      0x02\n      dup3\n      add\n      sload\n      dup2\n      mstore\n      0x20\n      add\n      0x03\n      dup3\n      add\n      sload\n      dup2\n      mstore\n      pop\n      pop\n      dup2\n      mstore\n      0x20\n      add\n      swap1\n      0x01\n      add\n      swap1\n      jump(tag_53)\n    tag_54:\n      pop\n      pop\n      pop\n      pop\n      swap1\n      pop\n        /* \"contracts/struct.sol\":854:973  function GetAllTweet(address _owner) public view returns (Tweet[] memory)... */\n      swap2\n      swap1\n      pop\n      jump\t// out\n    tag_41:\n      mload(0x40)\n      dup1\n      0x80\n      add\n      0x40\n      mstore\n      dup1\n      and(0xffffffffffffffffffffffffffffffffffffffff, 0x00)\n      dup2\n      mstore\n      0x20\n      add\n      0x60\n      dup2\n      mstore\n      0x20\n      add\n      0x00\n      dup2\n      mstore\n      0x20\n      add\n      0x00\n      dup2\n      mstore\n      pop\n      swap1\n      jump\t// out\n        /* \"#utility.yul\":7:82   */\n    tag_61:\n        /* \"#utility.yul\":40:46   */\n      0x00\n        /* \"#utility.yul\":73:75   */\n      0x40\n        /* \"#utility.yul\":67:76   */\n      mload\n        /* \"#utility.yul\":57:76   */\n      swap1\n      pop\n        /* \"#utility.yul\":7:82   */\n      swap1\n      jump\t// out\n        /* \"#utility.yul\":88:205   */\n    tag_62:\n        /* \"#utility.yul\":197:198   */\n      0x00\n        /* \"#utility.yul\":194:195   */\n      dup1\n        /* \"#utility.yul\":187:199   */\n      revert\n        /* \"#utility.yul\":211:328   */\n    tag_63:\n        /* \"#utility.yul\":320:321   */\n      0x00\n        /* \"#utility.yul\":317:318   */\n      dup1\n        /* \"#utility.yul\":310:322   */\n      revert\n        /* \"#utility.yul\":334:460   */\n    tag_64:\n        /* \"#utility.yul\":371:378   */\n      0x00\n        /* \"#utility.yul\":411:453   */\n      0xffffffffffffffffffffffffffffffffffffffff\n        /* \"#utility.yul\":404:409   */\n      dup3\n        /* \"#utility.yul\":400:454   */\n      and\n        /* \"#utility.yul\":389:454   */\n      swap1\n      pop\n        /* \"#utility.yul\":334:460   */\n      swap2\n      swap1\n      pop\n      jump\t// out\n        /* \"#utility.yul\":466:562   */\n    tag_65:\n        /* \"#utility.yul\":503:510   */\n      0x00\n        /* \"#utility.yul\":532:556   */\n      tag_121\n        /* \"#utility.yul\":550:555   */\n      dup3\n        /* \"#utility.yul\":532:556   */\n      tag_64\n      jump\t// in\n    tag_121:\n        /* \"#utility.yul\":521:556   */\n      swap1\n      pop\n        /* \"#utility.yul\":466:562   */\n      swap2\n      swap1\n      pop\n      jump\t// out\n        /* \"#utility.yul\":568:690   */\n    tag_66:\n        /* \"#utility.yul\":641:665   */\n      tag_123\n        /* \"#utility.yul\":659:664   */\n      dup2\n        /* \"#utility.yul\":641:665   */\n      tag_65\n      jump\t// in\n    tag_123:\n        /* \"#utility.yul\":634:639   */\n      dup2\n        /* \"#utility.yul\":631:666   */\n      eq\n        /* \"#utility.yul\":621:684   */\n      tag_124\n      jumpi\n        /* \"#utility.yul\":680:681   */\n      0x00\n        /* \"#utility.yul\":677:678   */\n      dup1\n        /* \"#utility.yul\":670:682   */\n      revert\n        /* \"#utility.yul\":621:684   */\n    tag_124:\n        /* \"#utility.yul\":568:690   */\n      pop\n      jump\t// out\n        /* \"#utility.yul\":696:835   */\n    tag_67:\n        /* \"#utility.yul\":742:747   */\n      0x00\n        /* \"#utility.yul\":780:786   */\n      dup2\n        /* \"#utility.yul\":767:787   */\n      calldataload\n        /* \"#utility.yul\":758:787   */\n      swap1\n      pop\n        /* \"#utility.yul\":796:829   */\n      tag_126\n        /* \"#utility.yul\":823:828   */\n      dup2\n        /* \"#utility.yul\":796:829   */\n      tag_66\n      jump\t// in\n    tag_126:\n        /* \"#utility.yul\":696:835   */\n      swap3\n      swap2\n      pop\n      pop\n      jump\t// out\n        /* \"#utility.yul\":841:918   */\n    tag_68:\n        /* \"#utility.yul\":878:885   */\n      0x00\n        /* \"#utility.yul\":907:912   */\n      dup2\n        /* \"#utility.yul\":896:912   */\n      swap1\n      pop\n        /* \"#utility.yul\":841:918   */\n      swap2\n      swap1\n      pop\n      jump\t// out\n        /* \"#utility.yul\":924:1046   */\n    tag_69:\n        /* \"#utility.yul\":997:1021   */\n      tag_129\n        /* \"#utility.yul\":1015:1020   */\n      dup2\n        /* \"#utility.yul\":997:1021   */\n      tag_68\n      jump\t// in\n    tag_129:\n        /* \"#utility.yul\":990:995   */\n      dup2\n        /* \"#utility.yul\":987:1022   */\n      eq\n        /* \"#utility.yul\":977:1040   */\n      tag_130\n      jumpi\n        /* \"#utility.yul\":1036:1037   */\n      0x00\n        /* \"#utility.yul\":1033:1034   */\n      dup1\n        /* \"#utility.yul\":1026:1038   */\n      revert\n        /* \"#utility.yul\":977:1040   */\n    tag_130:\n        /* \"#utility.yul\":924:1046   */\n      pop\n      jump\t// out\n        /* \"#utility.yul\":1052:1191   */\n    tag_70:\n        /* \"#utility.yul\":1098:1103   */\n      0x00\n        /* \"#utility.yul\":1136:1142   */\n      dup2\n        /* \"#utility.yul\":1123:1143   */\n      calldataload\n        /* \"#utility.yul\":1114:1143   */\n      swap1\n      pop\n        /* \"#utility.yul\":1152:1185   */\n      tag_132\n        /* \"#utility.yul\":1179:1184   */\n      dup2\n        /* \"#utility.yul\":1152:1185   */\n      tag_69\n      jump\t// in\n    tag_132:\n        /* \"#utility.yul\":1052:1191   */\n      swap3\n      swap2\n      pop\n      pop\n      jump\t// out\n        /* \"#utility.yul\":1197:1671   */\n    tag_9:\n        /* \"#utility.yul\":1265:1271   */\n      0x00\n        /* \"#utility.yul\":1273:1279   */\n      dup1\n        /* \"#utility.yul\":1322:1324   */\n      0x40\n        /* \"#utility.yul\":1310:1319   */\n      dup4\n        /* \"#utility.yul\":1301:1308   */\n      dup6\n        /* \"#utility.yul\":1297:1320   */\n      sub\n        /* \"#utility.yul\":1293:1325   */\n      slt\n        /* \"#utility.yul\":1290:1409   */\n      iszero\n      tag_134\n      jumpi\n        /* \"#utility.yul\":1328:1407   */\n      tag_135\n      tag_62\n      jump\t// in\n    tag_135:\n        /* \"#utility.yul\":1290:1409   */\n    tag_134:\n        /* \"#utility.yul\":1448:1449   */\n      0x00\n        /* \"#utility.yul\":1473:1526   */\n      tag_136\n        /* \"#utility.yul\":1518:1525   */\n      dup6\n        /* \"#utility.yul\":1509:1515   */\n      dup3\n        /* \"#utility.yul\":1498:1507   */\n      dup7\n        /* \"#utility.yul\":1494:1516   */\n      add\n        /* \"#utility.yul\":1473:1526   */\n      tag_67\n      jump\t// in\n    tag_136:\n        /* \"#utility.yul\":1463:1526   */\n      swap3\n      pop\n        /* \"#utility.yul\":1419:1536   */\n      pop\n        /* \"#utility.yul\":1575:1577   */\n      0x20\n        /* \"#utility.yul\":1601:1654   */\n      tag_137\n        /* \"#utility.yul\":1646:1653   */\n      dup6\n        /* \"#utility.yul\":1637:1643   */\n      dup3\n        /* \"#utility.yul\":1626:1635   */\n      dup7\n        /* \"#utility.yul\":1622:1644   */\n      add\n        /* \"#utility.yul\":1601:1654   */\n      tag_70\n      jump\t// in\n    tag_137:\n        /* \"#utility.yul\":1591:1654   */\n      swap2\n      pop\n        /* \"#utility.yul\":1546:1664   */\n      pop\n        /* \"#utility.yul\":1197:1671   */\n      swap3\n      pop\n      swap3\n      swap1\n      pop\n      jump\t// out\n        /* \"#utility.yul\":1677:1795   */\n    tag_71:\n        /* \"#utility.yul\":1764:1788   */\n      tag_139\n        /* \"#utility.yul\":1782:1787   */\n      dup2\n        /* \"#utility.yul\":1764:1788   */\n      tag_65\n      jump\t// in\n    tag_139:\n        /* \"#utility.yul\":1759:1762   */\n      dup3\n        /* \"#utility.yul\":1752:1789   */\n      mstore\n        /* \"#utility.yul\":1677:1795   */\n      pop\n      pop\n      jump\t// out\n        /* \"#utility.yul\":1801:1900   */\n    tag_72:\n        /* \"#utility.yul\":1853:1859   */\n      0x00\n        /* \"#utility.yul\":1887:1892   */\n      dup2\n        /* \"#utility.yul\":1881:1893   */\n      mload\n        /* \"#utility.yul\":1871:1893   */\n      swap1\n      pop\n        /* \"#utility.yul\":1801:1900   */\n      swap2\n      swap1\n      pop\n      jump\t// out\n        /* \"#utility.yul\":1906:2075   */\n    tag_73:\n        /* \"#utility.yul\":1990:2001   */\n      0x00\n        /* \"#utility.yul\":2024:2030   */\n      dup3\n        /* \"#utility.yul\":2019:2022   */\n      dup3\n        /* \"#utility.yul\":2012:2031   */\n      mstore\n        /* \"#utility.yul\":2064:2068   */\n      0x20\n        /* \"#utility.yul\":2059:2062   */\n      dup3\n        /* \"#utility.yul\":2055:2069   */\n      add\n        /* \"#utility.yul\":2040:2069   */\n      swap1\n      pop\n        /* \"#utility.yul\":1906:2075   */\n      swap3\n      swap2\n      pop\n      pop\n      jump\t// out\n        /* \"#utility.yul\":2081:2327   */\n    tag_74:\n        /* \"#utility.yul\":2162:2163   */\n      0x00\n        /* \"#utility.yul\":2172:2285   */\n    tag_143:\n        /* \"#utility.yul\":2186:2192   */\n      dup4\n        /* \"#utility.yul\":2183:2184   */\n      dup2\n        /* \"#utility.yul\":2180:2193   */\n      lt\n        /* \"#utility.yul\":2172:2285   */\n      iszero\n      tag_145\n      jumpi\n        /* \"#utility.yul\":2271:2272   */\n      dup1\n        /* \"#utility.yul\":2266:2269   */\n      dup3\n        /* \"#utility.yul\":2262:2273   */\n      add\n        /* \"#utility.yul\":2256:2274   */\n      mload\n        /* \"#utility.yul\":2252:2253   */\n      dup2\n        /* \"#utility.yul\":2247:2250   */\n      dup5\n        /* \"#utility.yul\":2243:2254   */\n      add\n        /* \"#utility.yul\":2236:2275   */\n      mstore\n        /* \"#utility.yul\":2208:2210   */\n      0x20\n        /* \"#utility.yul\":2205:2206   */\n      dup2\n        /* \"#utility.yul\":2201:2211   */\n      add\n        /* \"#utility.yul\":2196:2211   */\n      swap1\n      pop\n        /* \"#utility.yul\":2172:2285   */\n      jump(tag_143)\n    tag_145:\n        /* \"#utility.yul\":2319:2320   */\n      0x00\n        /* \"#utility.yul\":2310:2316   */\n      dup5\n        /* \"#utility.yul\":2305:2308   */\n      dup5\n        /* \"#utility.yul\":2301:2317   */\n      add\n        /* \"#utility.yul\":2294:2321   */\n      mstore\n        /* \"#utility.yul\":2143:2327   */\n      pop\n        /* \"#utility.yul\":2081:2327   */\n      pop\n      pop\n      pop\n      jump\t// out\n        /* \"#utility.yul\":2333:2435   */\n    tag_75:\n        /* \"#utility.yul\":2374:2380   */\n      0x00\n        /* \"#utility.yul\":2425:2427   */\n      0x1f\n        /* \"#utility.yul\":2421:2428   */\n      not\n        /* \"#utility.yul\":2416:2418   */\n      0x1f\n        /* \"#utility.yul\":2409:2414   */\n      dup4\n        /* \"#utility.yul\":2405:2419   */\n      add\n        /* \"#utility.yul\":2401:2429   */\n      and\n        /* \"#utility.yul\":2391:2429   */\n      swap1\n      pop\n        /* \"#utility.yul\":2333:2435   */\n      swap2\n      swap1\n      pop\n      jump\t// out\n        /* \"#utility.yul\":2441:2818   */\n    tag_76:\n        /* \"#utility.yul\":2529:2532   */\n      0x00\n        /* \"#utility.yul\":2557:2596   */\n      tag_148\n        /* \"#utility.yul\":2590:2595   */\n      dup3\n        /* \"#utility.yul\":2557:2596   */\n      tag_72\n      jump\t// in\n    tag_148:\n        /* \"#utility.yul\":2612:2683   */\n      tag_149\n        /* \"#utility.yul\":2676:2682   */\n      dup2\n        /* \"#utility.yul\":2671:2674   */\n      dup6\n        /* \"#utility.yul\":2612:2683   */\n      tag_73\n      jump\t// in\n    tag_149:\n        /* \"#utility.yul\":2605:2683   */\n      swap4\n      pop\n        /* \"#utility.yul\":2692:2757   */\n      tag_150\n        /* \"#utility.yul\":2750:2756   */\n      dup2\n        /* \"#utility.yul\":2745:2748   */\n      dup6\n        /* \"#utility.yul\":2738:2742   */\n      0x20\n        /* \"#utility.yul\":2731:2736   */\n      dup7\n        /* \"#utility.yul\":2727:2743   */\n      add\n        /* \"#utility.yul\":2692:2757   */\n      tag_74\n      jump\t// in\n    tag_150:\n        /* \"#utility.yul\":2782:2811   */\n      tag_151\n        /* \"#utility.yul\":2804:2810   */\n      dup2\n        /* \"#utility.yul\":2782:2811   */\n      tag_75\n      jump\t// in\n    tag_151:\n        /* \"#utility.yul\":2777:2780   */\n      dup5\n        /* \"#utility.yul\":2773:2812   */\n      add\n        /* \"#utility.yul\":2766:2812   */\n      swap2\n      pop\n        /* \"#utility.yul\":2533:2818   */\n      pop\n        /* \"#utility.yul\":2441:2818   */\n      swap3\n      swap2\n      pop\n      pop\n      jump\t// out\n        /* \"#utility.yul\":2824:2942   */\n    tag_77:\n        /* \"#utility.yul\":2911:2935   */\n      tag_153\n        /* \"#utility.yul\":2929:2934   */\n      dup2\n        /* \"#utility.yul\":2911:2935   */\n      tag_68\n      jump\t// in\n    tag_153:\n        /* \"#utility.yul\":2906:2909   */\n      dup3\n        /* \"#utility.yul\":2899:2936   */\n      mstore\n        /* \"#utility.yul\":2824:2942   */\n      pop\n      pop\n      jump\t// out\n        /* \"#utility.yul\":2948:3592   */\n    tag_12:\n        /* \"#utility.yul\":3145:3149   */\n      0x00\n        /* \"#utility.yul\":3183:3186   */\n      0x80\n        /* \"#utility.yul\":3172:3181   */\n      dup3\n        /* \"#utility.yul\":3168:3187   */\n      add\n        /* \"#utility.yul\":3160:3187   */\n      swap1\n      pop\n        /* \"#utility.yul\":3197:3268   */\n      tag_155\n        /* \"#utility.yul\":3265:3266   */\n      0x00\n        /* \"#utility.yul\":3254:3263   */\n      dup4\n        /* \"#utility.yul\":3250:3267   */\n      add\n        /* \"#utility.yul\":3241:3247   */\n      dup8\n        /* \"#utility.yul\":3197:3268   */\n      tag_71\n      jump\t// in\n    tag_155:\n        /* \"#utility.yul\":3315:3324   */\n      dup2\n        /* \"#utility.yul\":3309:3313   */\n      dup2\n        /* \"#utility.yul\":3305:3325   */\n      sub\n        /* \"#utility.yul\":3300:3302   */\n      0x20\n        /* \"#utility.yul\":3289:3298   */\n      dup4\n        /* \"#utility.yul\":3285:3303   */\n      add\n        /* \"#utility.yul\":3278:3326   */\n      mstore\n        /* \"#utility.yul\":3343:3421   */\n      tag_156\n        /* \"#utility.yul\":3416:3420   */\n      dup2\n        /* \"#utility.yul\":3407:3413   */\n      dup7\n        /* \"#utility.yul\":3343:3421   */\n      tag_76\n      jump\t// in\n    tag_156:\n        /* \"#utility.yul\":3335:3421   */\n      swap1\n      pop\n        /* \"#utility.yul\":3431:3503   */\n      tag_157\n        /* \"#utility.yul\":3499:3501   */\n      0x40\n        /* \"#utility.yul\":3488:3497   */\n      dup4\n        /* \"#utility.yul\":3484:3502   */\n      add\n        /* \"#utility.yul\":3475:3481   */\n      dup6\n        /* \"#utility.yul\":3431:3503   */\n      tag_77\n      jump\t// in\n    tag_157:\n        /* \"#utility.yul\":3513:3585   */\n      tag_158\n        /* \"#utility.yul\":3581:3583   */\n      0x60\n        /* \"#utility.yul\":3570:3579   */\n      dup4\n        /* \"#utility.yul\":3566:3584   */\n      add\n        /* \"#utility.yul\":3557:3563   */\n      dup5\n        /* \"#utility.yul\":3513:3585   */\n      tag_77\n      jump\t// in\n    tag_158:\n        /* \"#utility.yul\":2948:3592   */\n      swap6\n      swap5\n      pop\n      pop\n      pop\n      pop\n      pop\n      jump\t// out\n        /* \"#utility.yul\":3598:3715   */\n    tag_78:\n        /* \"#utility.yul\":3707:3708   */\n      0x00\n        /* \"#utility.yul\":3704:3705   */\n      dup1\n        /* \"#utility.yul\":3697:3709   */\n      revert\n        /* \"#utility.yul\":3721:3838   */\n    tag_79:\n        /* \"#utility.yul\":3830:3831   */\n      0x00\n        /* \"#utility.yul\":3827:3828   */\n      dup1\n        /* \"#utility.yul\":3820:3832   */\n      revert\n        /* \"#utility.yul\":3844:4024   */\n    tag_80:\n        /* \"#utility.yul\":3892:3969   */\n      0x4e487b7100000000000000000000000000000000000000000000000000000000\n        /* \"#utility.yul\":3889:3890   */\n      0x00\n        /* \"#utility.yul\":3882:3970   */\n      mstore\n        /* \"#utility.yul\":3989:3993   */\n      0x41\n        /* \"#utility.yul\":3986:3987   */\n      0x04\n        /* \"#utility.yul\":3979:3994   */\n      mstore\n        /* \"#utility.yul\":4013:4017   */\n      0x24\n        /* \"#utility.yul\":4010:4011   */\n      0x00\n        /* \"#utility.yul\":4003:4018   */\n      revert\n        /* \"#utility.yul\":4030:4311   */\n    tag_81:\n        /* \"#utility.yul\":4113:4140   */\n      tag_163\n        /* \"#utility.yul\":4135:4139   */\n      dup3\n        /* \"#utility.yul\":4113:4140   */\n      tag_75\n      jump\t// in\n    tag_163:\n        /* \"#utility.yul\":4105:4111   */\n      dup2\n        /* \"#utility.yul\":4101:4141   */\n      add\n        /* \"#utility.yul\":4243:4249   */\n      dup2\n        /* \"#utility.yul\":4231:4241   */\n      dup2\n        /* \"#utility.yul\":4228:4250   */\n      lt\n        /* \"#utility.yul\":4207:4225   */\n      0xffffffffffffffff\n        /* \"#utility.yul\":4195:4205   */\n      dup3\n        /* \"#utility.yul\":4192:4226   */\n      gt\n        /* \"#utility.yul\":4189:4251   */\n      or\n        /* \"#utility.yul\":4186:4274   */\n      iszero\n      tag_164\n      jumpi\n        /* \"#utility.yul\":4254:4272   */\n      tag_165\n      tag_80\n      jump\t// in\n    tag_165:\n        /* \"#utility.yul\":4186:4274   */\n    tag_164:\n        /* \"#utility.yul\":4294:4304   */\n      dup1\n        /* \"#utility.yul\":4290:4292   */\n      0x40\n        /* \"#utility.yul\":4283:4305   */\n      mstore\n        /* \"#utility.yul\":4073:4311   */\n      pop\n        /* \"#utility.yul\":4030:4311   */\n      pop\n      pop\n      jump\t// out\n        /* \"#utility.yul\":4317:4446   */\n    tag_82:\n        /* \"#utility.yul\":4351:4357   */\n      0x00\n        /* \"#utility.yul\":4378:4398   */\n      tag_167\n      tag_61\n      jump\t// in\n    tag_167:\n        /* \"#utility.yul\":4368:4398   */\n      swap1\n      pop\n        /* \"#utility.yul\":4407:4440   */\n      tag_168\n        /* \"#utility.yul\":4435:4439   */\n      dup3\n        /* \"#utility.yul\":4427:4433   */\n      dup3\n        /* \"#utility.yul\":4407:4440   */\n      tag_81\n      jump\t// in\n    tag_168:\n        /* \"#utility.yul\":4317:4446   */\n      swap2\n      swap1\n      pop\n      jump\t// out\n        /* \"#utility.yul\":4452:4760   */\n    tag_83:\n        /* \"#utility.yul\":4514:4518   */\n      0x00\n        /* \"#utility.yul\":4604:4622   */\n      0xffffffffffffffff\n        /* \"#utility.yul\":4596:4602   */\n      dup3\n        /* \"#utility.yul\":4593:4623   */\n      gt\n        /* \"#utility.yul\":4590:4646   */\n      iszero\n      tag_170\n      jumpi\n        /* \"#utility.yul\":4626:4644   */\n      tag_171\n      tag_80\n      jump\t// in\n    tag_171:\n        /* \"#utility.yul\":4590:4646   */\n    tag_170:\n        /* \"#utility.yul\":4664:4693   */\n      tag_172\n        /* \"#utility.yul\":4686:4692   */\n      dup3\n        /* \"#utility.yul\":4664:4693   */\n      tag_75\n      jump\t// in\n    tag_172:\n        /* \"#utility.yul\":4656:4693   */\n      swap1\n      pop\n        /* \"#utility.yul\":4748:4752   */\n      0x20\n        /* \"#utility.yul\":4742:4746   */\n      dup2\n        /* \"#utility.yul\":4738:4753   */\n      add\n        /* \"#utility.yul\":4730:4753   */\n      swap1\n      pop\n        /* \"#utility.yul\":4452:4760   */\n      swap2\n      swap1\n      pop\n      jump\t// out\n        /* \"#utility.yul\":4766:4912   */\n    tag_84:\n        /* \"#utility.yul\":4863:4869   */\n      dup3\n        /* \"#utility.yul\":4858:4861   */\n      dup2\n        /* \"#utility.yul\":4853:4856   */\n      dup4\n        /* \"#utility.yul\":4840:4870   */\n      calldatacopy\n        /* \"#utility.yul\":4904:4905   */\n      0x00\n        /* \"#utility.yul\":4895:4901   */\n      dup4\n        /* \"#utility.yul\":4890:4893   */\n      dup4\n        /* \"#utility.yul\":4886:4902   */\n      add\n        /* \"#utility.yul\":4879:4906   */\n      mstore\n        /* \"#utility.yul\":4766:4912   */\n      pop\n      pop\n      pop\n      jump\t// out\n        /* \"#utility.yul\":4918:5343   */\n    tag_85:\n        /* \"#utility.yul\":4996:5001   */\n      0x00\n        /* \"#utility.yul\":5021:5087   */\n      tag_175\n        /* \"#utility.yul\":5037:5086   */\n      tag_176\n        /* \"#utility.yul\":5079:5085   */\n      dup5\n        /* \"#utility.yul\":5037:5086   */\n      tag_83\n      jump\t// in\n    tag_176:\n        /* \"#utility.yul\":5021:5087   */\n      tag_82\n      jump\t// in\n    tag_175:\n        /* \"#utility.yul\":5012:5087   */\n      swap1\n      pop\n        /* \"#utility.yul\":5110:5116   */\n      dup3\n        /* \"#utility.yul\":5103:5108   */\n      dup2\n        /* \"#utility.yul\":5096:5117   */\n      mstore\n        /* \"#utility.yul\":5148:5152   */\n      0x20\n        /* \"#utility.yul\":5141:5146   */\n      dup2\n        /* \"#utility.yul\":5137:5153   */\n      add\n        /* \"#utility.yul\":5186:5189   */\n      dup5\n        /* \"#utility.yul\":5177:5183   */\n      dup5\n        /* \"#utility.yul\":5172:5175   */\n      dup5\n        /* \"#utility.yul\":5168:5184   */\n      add\n        /* \"#utility.yul\":5165:5190   */\n      gt\n        /* \"#utility.yul\":5162:5274   */\n      iszero\n      tag_177\n      jumpi\n        /* \"#utility.yul\":5193:5272   */\n      tag_178\n      tag_79\n      jump\t// in\n    tag_178:\n        /* \"#utility.yul\":5162:5274   */\n    tag_177:\n        /* \"#utility.yul\":5283:5337   */\n      tag_179\n        /* \"#utility.yul\":5330:5336   */\n      dup5\n        /* \"#utility.yul\":5325:5328   */\n      dup3\n        /* \"#utility.yul\":5320:5323   */\n      dup6\n        /* \"#utility.yul\":5283:5337   */\n      tag_84\n      jump\t// in\n    tag_179:\n        /* \"#utility.yul\":5002:5343   */\n      pop\n        /* \"#utility.yul\":4918:5343   */\n      swap4\n      swap3\n      pop\n      pop\n      pop\n      jump\t// out\n        /* \"#utility.yul\":5363:5703   */\n    tag_86:\n        /* \"#utility.yul\":5419:5424   */\n      0x00\n        /* \"#utility.yul\":5468:5471   */\n      dup3\n        /* \"#utility.yul\":5461:5465   */\n      0x1f\n        /* \"#utility.yul\":5453:5459   */\n      dup4\n        /* \"#utility.yul\":5449:5466   */\n      add\n        /* \"#utility.yul\":5445:5472   */\n      slt\n        /* \"#utility.yul\":5435:5557   */\n      tag_181\n      jumpi\n        /* \"#utility.yul\":5476:5555   */\n      tag_182\n      tag_78\n      jump\t// in\n    tag_182:\n        /* \"#utility.yul\":5435:5557   */\n    tag_181:\n        /* \"#utility.yul\":5593:5599   */\n      dup2\n        /* \"#utility.yul\":5580:5600   */\n      calldataload\n        /* \"#utility.yul\":5618:5697   */\n      tag_183\n        /* \"#utility.yul\":5693:5696   */\n      dup5\n        /* \"#utility.yul\":5685:5691   */\n      dup3\n        /* \"#utility.yul\":5678:5682   */\n      0x20\n        /* \"#utility.yul\":5670:5676   */\n      dup7\n        /* \"#utility.yul\":5666:5683   */\n      add\n        /* \"#utility.yul\":5618:5697   */\n      tag_85\n      jump\t// in\n    tag_183:\n        /* \"#utility.yul\":5609:5697   */\n      swap2\n      pop\n        /* \"#utility.yul\":5425:5703   */\n      pop\n        /* \"#utility.yul\":5363:5703   */\n      swap3\n      swap2\n      pop\n      pop\n      jump\t// out\n        /* \"#utility.yul\":5709:6218   */\n    tag_15:\n        /* \"#utility.yul\":5778:5784   */\n      0x00\n        /* \"#utility.yul\":5827:5829   */\n      0x20\n        /* \"#utility.yul\":5815:5824   */\n      dup3\n        /* \"#utility.yul\":5806:5813   */\n      dup5\n        /* \"#utility.yul\":5802:5825   */\n      sub\n        /* \"#utility.yul\":5798:5830   */\n      slt\n        /* \"#utility.yul\":5795:5914   */\n      iszero\n      tag_185\n      jumpi\n        /* \"#utility.yul\":5833:5912   */\n      tag_186\n      tag_62\n      jump\t// in\n    tag_186:\n        /* \"#utility.yul\":5795:5914   */\n    tag_185:\n        /* \"#utility.yul\":5981:5982   */\n      0x00\n        /* \"#utility.yul\":5970:5979   */\n      dup3\n        /* \"#utility.yul\":5966:5983   */\n      add\n        /* \"#utility.yul\":5953:5984   */\n      calldataload\n        /* \"#utility.yul\":6011:6029   */\n      0xffffffffffffffff\n        /* \"#utility.yul\":6003:6009   */\n      dup2\n        /* \"#utility.yul\":6000:6030   */\n      gt\n        /* \"#utility.yul\":5997:6114   */\n      iszero\n      tag_187\n      jumpi\n        /* \"#utility.yul\":6033:6112   */\n      tag_188\n      tag_63\n      jump\t// in\n    tag_188:\n        /* \"#utility.yul\":5997:6114   */\n    tag_187:\n        /* \"#utility.yul\":6138:6201   */\n      tag_189\n        /* \"#utility.yul\":6193:6200   */\n      dup5\n        /* \"#utility.yul\":6184:6190   */\n      dup3\n        /* \"#utility.yul\":6173:6182   */\n      dup6\n        /* \"#utility.yul\":6169:6191   */\n      add\n        /* \"#utility.yul\":6138:6201   */\n      tag_86\n      jump\t// in\n    tag_189:\n        /* \"#utility.yul\":6128:6201   */\n      swap2\n      pop\n        /* \"#utility.yul\":5924:6211   */\n      pop\n        /* \"#utility.yul\":5709:6218   */\n      swap3\n      swap2\n      pop\n      pop\n      jump\t// out\n        /* \"#utility.yul\":6224:6332   */\n    tag_87:\n        /* \"#utility.yul\":6301:6325   */\n      tag_191\n        /* \"#utility.yul\":6319:6324   */\n      dup2\n        /* \"#utility.yul\":6301:6325   */\n      tag_65\n      jump\t// in\n    tag_191:\n        /* \"#utility.yul\":6296:6299   */\n      dup3\n        /* \"#utility.yul\":6289:6326   */\n      mstore\n        /* \"#utility.yul\":6224:6332   */\n      pop\n      pop\n      jump\t// out\n        /* \"#utility.yul\":6338:6497   */\n    tag_88:\n        /* \"#utility.yul\":6412:6423   */\n      0x00\n        /* \"#utility.yul\":6446:6452   */\n      dup3\n        /* \"#utility.yul\":6441:6444   */\n      dup3\n        /* \"#utility.yul\":6434:6453   */\n      mstore\n        /* \"#utility.yul\":6486:6490   */\n      0x20\n        /* \"#utility.yul\":6481:6484   */\n      dup3\n        /* \"#utility.yul\":6477:6491   */\n      add\n        /* \"#utility.yul\":6462:6491   */\n      swap1\n      pop\n        /* \"#utility.yul\":6338:6497   */\n      swap3\n      swap2\n      pop\n      pop\n      jump\t// out\n        /* \"#utility.yul\":6503:6860   */\n    tag_89:\n        /* \"#utility.yul\":6581:6584   */\n      0x00\n        /* \"#utility.yul\":6609:6648   */\n      tag_194\n        /* \"#utility.yul\":6642:6647   */\n      dup3\n        /* \"#utility.yul\":6609:6648   */\n      tag_72\n      jump\t// in\n    tag_194:\n        /* \"#utility.yul\":6664:6725   */\n      tag_195\n        /* \"#utility.yul\":6718:6724   */\n      dup2\n        /* \"#utility.yul\":6713:6716   */\n      dup6\n        /* \"#utility.yul\":6664:6725   */\n      tag_88\n      jump\t// in\n    tag_195:\n        /* \"#utility.yul\":6657:6725   */\n      swap4\n      pop\n        /* \"#utility.yul\":6734:6799   */\n      tag_196\n        /* \"#utility.yul\":6792:6798   */\n      dup2\n        /* \"#utility.yul\":6787:6790   */\n      dup6\n        /* \"#utility.yul\":6780:6784   */\n      0x20\n        /* \"#utility.yul\":6773:6778   */\n      dup7\n        /* \"#utility.yul\":6769:6785   */\n      add\n        /* \"#utility.yul\":6734:6799   */\n      tag_74\n      jump\t// in\n    tag_196:\n        /* \"#utility.yul\":6824:6853   */\n      tag_197\n        /* \"#utility.yul\":6846:6852   */\n      dup2\n        /* \"#utility.yul\":6824:6853   */\n      tag_75\n      jump\t// in\n    tag_197:\n        /* \"#utility.yul\":6819:6822   */\n      dup5\n        /* \"#utility.yul\":6815:6854   */\n      add\n        /* \"#utility.yul\":6808:6854   */\n      swap2\n      pop\n        /* \"#utility.yul\":6585:6860   */\n      pop\n        /* \"#utility.yul\":6503:6860   */\n      swap3\n      swap2\n      pop\n      pop\n      jump\t// out\n        /* \"#utility.yul\":6866:6974   */\n    tag_90:\n        /* \"#utility.yul\":6943:6967   */\n      tag_199\n        /* \"#utility.yul\":6961:6966   */\n      dup2\n        /* \"#utility.yul\":6943:6967   */\n      tag_68\n      jump\t// in\n    tag_199:\n        /* \"#utility.yul\":6938:6941   */\n      dup3\n        /* \"#utility.yul\":6931:6968   */\n      mstore\n        /* \"#utility.yul\":6866:6974   */\n      pop\n      pop\n      jump\t// out\n        /* \"#utility.yul\":7032:7989   */\n    tag_91:\n        /* \"#utility.yul\":7143:7146   */\n      0x00\n        /* \"#utility.yul\":7179:7183   */\n      0x80\n        /* \"#utility.yul\":7174:7177   */\n      dup4\n        /* \"#utility.yul\":7170:7184   */\n      add\n        /* \"#utility.yul\":7268:7272   */\n      0x00\n        /* \"#utility.yul\":7261:7266   */\n      dup4\n        /* \"#utility.yul\":7257:7273   */\n      add\n        /* \"#utility.yul\":7251:7274   */\n      mload\n        /* \"#utility.yul\":7287:7350   */\n      tag_201\n        /* \"#utility.yul\":7344:7348   */\n      0x00\n        /* \"#utility.yul\":7339:7342   */\n      dup7\n        /* \"#utility.yul\":7335:7349   */\n      add\n        /* \"#utility.yul\":7321:7333   */\n      dup3\n        /* \"#utility.yul\":7287:7350   */\n      tag_87\n      jump\t// in\n    tag_201:\n        /* \"#utility.yul\":7194:7360   */\n      pop\n        /* \"#utility.yul\":7445:7449   */\n      0x20\n        /* \"#utility.yul\":7438:7443   */\n      dup4\n        /* \"#utility.yul\":7434:7450   */\n      add\n        /* \"#utility.yul\":7428:7451   */\n      mload\n        /* \"#utility.yul\":7498:7501   */\n      dup5\n        /* \"#utility.yul\":7492:7496   */\n      dup3\n        /* \"#utility.yul\":7488:7502   */\n      sub\n        /* \"#utility.yul\":7481:7485   */\n      0x20\n        /* \"#utility.yul\":7476:7479   */\n      dup7\n        /* \"#utility.yul\":7472:7486   */\n      add\n        /* \"#utility.yul\":7465:7503   */\n      mstore\n        /* \"#utility.yul\":7524:7597   */\n      tag_202\n        /* \"#utility.yul\":7592:7596   */\n      dup3\n        /* \"#utility.yul\":7578:7590   */\n      dup3\n        /* \"#utility.yul\":7524:7597   */\n      tag_89\n      jump\t// in\n    tag_202:\n        /* \"#utility.yul\":7516:7597   */\n      swap2\n      pop\n        /* \"#utility.yul\":7370:7608   */\n      pop\n        /* \"#utility.yul\":7695:7699   */\n      0x40\n        /* \"#utility.yul\":7688:7693   */\n      dup4\n        /* \"#utility.yul\":7684:7700   */\n      add\n        /* \"#utility.yul\":7678:7701   */\n      mload\n        /* \"#utility.yul\":7714:7777   */\n      tag_203\n        /* \"#utility.yul\":7771:7775   */\n      0x40\n        /* \"#utility.yul\":7766:7769   */\n      dup7\n        /* \"#utility.yul\":7762:7776   */\n      add\n        /* \"#utility.yul\":7748:7760   */\n      dup3\n        /* \"#utility.yul\":7714:7777   */\n      tag_90\n      jump\t// in\n    tag_203:\n        /* \"#utility.yul\":7618:7787   */\n      pop\n        /* \"#utility.yul\":7870:7874   */\n      0x60\n        /* \"#utility.yul\":7863:7868   */\n      dup4\n        /* \"#utility.yul\":7859:7875   */\n      add\n        /* \"#utility.yul\":7853:7876   */\n      mload\n        /* \"#utility.yul\":7889:7952   */\n      tag_204\n        /* \"#utility.yul\":7946:7950   */\n      0x60\n        /* \"#utility.yul\":7941:7944   */\n      dup7\n        /* \"#utility.yul\":7937:7951   */\n      add\n        /* \"#utility.yul\":7923:7935   */\n      dup3\n        /* \"#utility.yul\":7889:7952   */\n      tag_90\n      jump\t// in\n    tag_204:\n        /* \"#utility.yul\":7797:7962   */\n      pop\n        /* \"#utility.yul\":7979:7983   */\n      dup1\n        /* \"#utility.yul\":7972:7983   */\n      swap2\n      pop\n        /* \"#utility.yul\":7148:7989   */\n      pop\n        /* \"#utility.yul\":7032:7989   */\n      swap3\n      swap2\n      pop\n      pop\n      jump\t// out\n        /* \"#utility.yul\":7995:8352   */\n    tag_21:\n        /* \"#utility.yul\":8130:8134   */\n      0x00\n        /* \"#utility.yul\":8168:8170   */\n      0x20\n        /* \"#utility.yul\":8157:8166   */\n      dup3\n        /* \"#utility.yul\":8153:8171   */\n      add\n        /* \"#utility.yul\":8145:8171   */\n      swap1\n      pop\n        /* \"#utility.yul\":8217:8226   */\n      dup2\n        /* \"#utility.yul\":8211:8215   */\n      dup2\n        /* \"#utility.yul\":8207:8227   */\n      sub\n        /* \"#utility.yul\":8203:8204   */\n      0x00\n        /* \"#utility.yul\":8192:8201   */\n      dup4\n        /* \"#utility.yul\":8188:8205   */\n      add\n        /* \"#utility.yul\":8181:8228   */\n      mstore\n        /* \"#utility.yul\":8245:8345   */\n      tag_206\n        /* \"#utility.yul\":8340:8344   */\n      dup2\n        /* \"#utility.yul\":8331:8337   */\n      dup5\n        /* \"#utility.yul\":8245:8345   */\n      tag_91\n      jump\t// in\n    tag_206:\n        /* \"#utility.yul\":8237:8345   */\n      swap1\n      pop\n        /* \"#utility.yul\":7995:8352   */\n      swap3\n      swap2\n      pop\n      pop\n      jump\t// out\n        /* \"#utility.yul\":8358:8687   */\n    tag_24:\n        /* \"#utility.yul\":8417:8423   */\n      0x00\n        /* \"#utility.yul\":8466:8468   */\n      0x20\n        /* \"#utility.yul\":8454:8463   */\n      dup3\n        /* \"#utility.yul\":8445:8452   */\n      dup5\n        /* \"#utility.yul\":8441:8464   */\n      sub\n        /* \"#utility.yul\":8437:8469   */\n      slt\n        /* \"#utility.yul\":8434:8553   */\n      iszero\n      tag_208\n      jumpi\n        /* \"#utility.yul\":8472:8551   */\n      tag_209\n      tag_62\n      jump\t// in\n    tag_209:\n        /* \"#utility.yul\":8434:8553   */\n    tag_208:\n        /* \"#utility.yul\":8592:8593   */\n      0x00\n        /* \"#utility.yul\":8617:8670   */\n      tag_210\n        /* \"#utility.yul\":8662:8669   */\n      dup5\n        /* \"#utility.yul\":8653:8659   */\n      dup3\n        /* \"#utility.yul\":8642:8651   */\n      dup6\n        /* \"#utility.yul\":8638:8660   */\n      add\n        /* \"#utility.yul\":8617:8670   */\n      tag_67\n      jump\t// in\n    tag_210:\n        /* \"#utility.yul\":8607:8670   */\n      swap2\n      pop\n        /* \"#utility.yul\":8563:8680   */\n      pop\n        /* \"#utility.yul\":8358:8687   */\n      swap3\n      swap2\n      pop\n      pop\n      jump\t// out\n        /* \"#utility.yul\":8693:8828   */\n    tag_92:\n        /* \"#utility.yul\":8781:8787   */\n      0x00\n        /* \"#utility.yul\":8815:8820   */\n      dup2\n        /* \"#utility.yul\":8809:8821   */\n      mload\n        /* \"#utility.yul\":8799:8821   */\n      swap1\n      pop\n        /* \"#utility.yul\":8693:8828   */\n      swap2\n      swap1\n      pop\n      jump\t// out\n        /* \"#utility.yul\":8834:9039   */\n    tag_93:\n        /* \"#utility.yul\":8954:8965   */\n      0x00\n        /* \"#utility.yul\":8988:8994   */\n      dup3\n        /* \"#utility.yul\":8983:8986   */\n      dup3\n        /* \"#utility.yul\":8976:8995   */\n      mstore\n        /* \"#utility.yul\":9028:9032   */\n      0x20\n        /* \"#utility.yul\":9023:9026   */\n      dup3\n        /* \"#utility.yul\":9019:9033   */\n      add\n        /* \"#utility.yul\":9004:9033   */\n      swap1\n      pop\n        /* \"#utility.yul\":8834:9039   */\n      swap3\n      swap2\n      pop\n      pop\n      jump\t// out\n        /* \"#utility.yul\":9045:9198   */\n    tag_94:\n        /* \"#utility.yul\":9133:9137   */\n      0x00\n        /* \"#utility.yul\":9156:9159   */\n      dup2\n        /* \"#utility.yul\":9148:9159   */\n      swap1\n      pop\n        /* \"#utility.yul\":9186:9190   */\n      0x20\n        /* \"#utility.yul\":9181:9184   */\n      dup3\n        /* \"#utility.yul\":9177:9191   */\n      add\n        /* \"#utility.yul\":9169:9191   */\n      swap1\n      pop\n        /* \"#utility.yul\":9045:9198   */\n      swap2\n      swap1\n      pop\n      jump\t// out\n        /* \"#utility.yul\":9256:10203   */\n    tag_95:\n        /* \"#utility.yul\":9357:9360   */\n      0x00\n        /* \"#utility.yul\":9393:9397   */\n      0x80\n        /* \"#utility.yul\":9388:9391   */\n      dup4\n        /* \"#utility.yul\":9384:9398   */\n      add\n        /* \"#utility.yul\":9482:9486   */\n      0x00\n        /* \"#utility.yul\":9475:9480   */\n      dup4\n        /* \"#utility.yul\":9471:9487   */\n      add\n        /* \"#utility.yul\":9465:9488   */\n      mload\n        /* \"#utility.yul\":9501:9564   */\n      tag_215\n        /* \"#utility.yul\":9558:9562   */\n      0x00\n        /* \"#utility.yul\":9553:9556   */\n      dup7\n        /* \"#utility.yul\":9549:9563   */\n      add\n        /* \"#utility.yul\":9535:9547   */\n      dup3\n        /* \"#utility.yul\":9501:9564   */\n      tag_87\n      jump\t// in\n    tag_215:\n        /* \"#utility.yul\":9408:9574   */\n      pop\n        /* \"#utility.yul\":9659:9663   */\n      0x20\n        /* \"#utility.yul\":9652:9657   */\n      dup4\n        /* \"#utility.yul\":9648:9664   */\n      add\n        /* \"#utility.yul\":9642:9665   */\n      mload\n        /* \"#utility.yul\":9712:9715   */\n      dup5\n        /* \"#utility.yul\":9706:9710   */\n      dup3\n        /* \"#utility.yul\":9702:9716   */\n      sub\n        /* \"#utility.yul\":9695:9699   */\n      0x20\n        /* \"#utility.yul\":9690:9693   */\n      dup7\n        /* \"#utility.yul\":9686:9700   */\n      add\n        /* \"#utility.yul\":9679:9717   */\n      mstore\n        /* \"#utility.yul\":9738:9811   */\n      tag_216\n        /* \"#utility.yul\":9806:9810   */\n      dup3\n        /* \"#utility.yul\":9792:9804   */\n      dup3\n        /* \"#utility.yul\":9738:9811   */\n      tag_89\n      jump\t// in\n    tag_216:\n        /* \"#utility.yul\":9730:9811   */\n      swap2\n      pop\n        /* \"#utility.yul\":9584:9822   */\n      pop\n        /* \"#utility.yul\":9909:9913   */\n      0x40\n        /* \"#utility.yul\":9902:9907   */\n      dup4\n        /* \"#utility.yul\":9898:9914   */\n      add\n        /* \"#utility.yul\":9892:9915   */\n      mload\n        /* \"#utility.yul\":9928:9991   */\n      tag_217\n        /* \"#utility.yul\":9985:9989   */\n      0x40\n        /* \"#utility.yul\":9980:9983   */\n      dup7\n        /* \"#utility.yul\":9976:9990   */\n      add\n        /* \"#utility.yul\":9962:9974   */\n      dup3\n        /* \"#utility.yul\":9928:9991   */\n      tag_90\n      jump\t// in\n    tag_217:\n        /* \"#utility.yul\":9832:10001   */\n      pop\n        /* \"#utility.yul\":10084:10088   */\n      0x60\n        /* \"#utility.yul\":10077:10082   */\n      dup4\n        /* \"#utility.yul\":10073:10089   */\n      add\n        /* \"#utility.yul\":10067:10090   */\n      mload\n        /* \"#utility.yul\":10103:10166   */\n      tag_218\n        /* \"#utility.yul\":10160:10164   */\n      0x60\n        /* \"#utility.yul\":10155:10158   */\n      dup7\n        /* \"#utility.yul\":10151:10165   */\n      add\n        /* \"#utility.yul\":10137:10149   */\n      dup3\n        /* \"#utility.yul\":10103:10166   */\n      tag_90\n      jump\t// in\n    tag_218:\n        /* \"#utility.yul\":10011:10176   */\n      pop\n        /* \"#utility.yul\":10193:10197   */\n      dup1\n        /* \"#utility.yul\":10186:10197   */\n      swap2\n      pop\n        /* \"#utility.yul\":9362:10203   */\n      pop\n        /* \"#utility.yul\":9256:10203   */\n      swap3\n      swap2\n      pop\n      pop\n      jump\t// out\n        /* \"#utility.yul\":10209:10449   */\n    tag_96:\n        /* \"#utility.yul\":10320:10330   */\n      0x00\n        /* \"#utility.yul\":10355:10443   */\n      tag_220\n        /* \"#utility.yul\":10439:10442   */\n      dup4\n        /* \"#utility.yul\":10431:10437   */\n      dup4\n        /* \"#utility.yul\":10355:10443   */\n      tag_95\n      jump\t// in\n    tag_220:\n        /* \"#utility.yul\":10341:10443   */\n      swap1\n      pop\n        /* \"#utility.yul\":10209:10449   */\n      swap3\n      swap2\n      pop\n      pop\n      jump\t// out\n        /* \"#utility.yul\":10455:10589   */\n    tag_97:\n        /* \"#utility.yul\":10546:10550   */\n      0x00\n        /* \"#utility.yul\":10578:10582   */\n      0x20\n        /* \"#utility.yul\":10573:10576   */\n      dup3\n        /* \"#utility.yul\":10569:10583   */\n      add\n        /* \"#utility.yul\":10561:10583   */\n      swap1\n      pop\n        /* \"#utility.yul\":10455:10589   */\n      swap2\n      swap1\n      pop\n      jump\t// out\n        /* \"#utility.yul\":10651:11730   */\n    tag_98:\n        /* \"#utility.yul\":10812:10815   */\n      0x00\n        /* \"#utility.yul\":10841:10916   */\n      tag_223\n        /* \"#utility.yul\":10910:10915   */\n      dup3\n        /* \"#utility.yul\":10841:10916   */\n      tag_92\n      jump\t// in\n    tag_223:\n        /* \"#utility.yul\":10932:11039   */\n      tag_224\n        /* \"#utility.yul\":11032:11038   */\n      dup2\n        /* \"#utility.yul\":11027:11030   */\n      dup6\n        /* \"#utility.yul\":10932:11039   */\n      tag_93\n      jump\t// in\n    tag_224:\n        /* \"#utility.yul\":10925:11039   */\n      swap4\n      pop\n        /* \"#utility.yul\":11065:11068   */\n      dup4\n        /* \"#utility.yul\":11110:11114   */\n      0x20\n        /* \"#utility.yul\":11102:11108   */\n      dup3\n        /* \"#utility.yul\":11098:11115   */\n      mul\n        /* \"#utility.yul\":11093:11096   */\n      dup6\n        /* \"#utility.yul\":11089:11116   */\n      add\n        /* \"#utility.yul\":11140:11217   */\n      tag_225\n        /* \"#utility.yul\":11211:11216   */\n      dup6\n        /* \"#utility.yul\":11140:11217   */\n      tag_94\n      jump\t// in\n    tag_225:\n        /* \"#utility.yul\":11240:11247   */\n      dup1\n        /* \"#utility.yul\":11271:11272   */\n      0x00\n        /* \"#utility.yul\":11256:11685   */\n    tag_226:\n        /* \"#utility.yul\":11281:11287   */\n      dup6\n        /* \"#utility.yul\":11278:11279   */\n      dup2\n        /* \"#utility.yul\":11275:11288   */\n      lt\n        /* \"#utility.yul\":11256:11685   */\n      iszero\n      tag_228\n      jumpi\n        /* \"#utility.yul\":11352:11361   */\n      dup5\n        /* \"#utility.yul\":11346:11350   */\n      dup5\n        /* \"#utility.yul\":11342:11362   */\n      sub\n        /* \"#utility.yul\":11337:11340   */\n      dup10\n        /* \"#utility.yul\":11330:11363   */\n      mstore\n        /* \"#utility.yul\":11403:11409   */\n      dup2\n        /* \"#utility.yul\":11397:11410   */\n      mload\n        /* \"#utility.yul\":11431:11537   */\n      tag_229\n        /* \"#utility.yul\":11532:11536   */\n      dup6\n        /* \"#utility.yul\":11517:11530   */\n      dup3\n        /* \"#utility.yul\":11431:11537   */\n      tag_96\n      jump\t// in\n    tag_229:\n        /* \"#utility.yul\":11423:11537   */\n      swap5\n      pop\n        /* \"#utility.yul\":11560:11641   */\n      tag_230\n        /* \"#utility.yul\":11634:11640   */\n      dup4\n        /* \"#utility.yul\":11560:11641   */\n      tag_97\n      jump\t// in\n    tag_230:\n        /* \"#utility.yul\":11550:11641   */\n      swap3\n      pop\n        /* \"#utility.yul\":11670:11674   */\n      0x20\n        /* \"#utility.yul\":11665:11668   */\n      dup11\n        /* \"#utility.yul\":11661:11675   */\n      add\n        /* \"#utility.yul\":11654:11675   */\n      swap10\n      pop\n        /* \"#utility.yul\":11316:11685   */\n      pop\n        /* \"#utility.yul\":11303:11304   */\n      0x01\n        /* \"#utility.yul\":11300:11301   */\n      dup2\n        /* \"#utility.yul\":11296:11305   */\n      add\n        /* \"#utility.yul\":11291:11305   */\n      swap1\n      pop\n        /* \"#utility.yul\":11256:11685   */\n      jump(tag_226)\n    tag_228:\n        /* \"#utility.yul\":11260:11274   */\n      pop\n        /* \"#utility.yul\":11701:11705   */\n      dup3\n        /* \"#utility.yul\":11694:11705   */\n      swap8\n      pop\n        /* \"#utility.yul\":11721:11724   */\n      dup8\n        /* \"#utility.yul\":11714:11724   */\n      swap6\n      pop\n        /* \"#utility.yul\":10817:11730   */\n      pop\n      pop\n      pop\n      pop\n      pop\n        /* \"#utility.yul\":10651:11730   */\n      swap3\n      swap2\n      pop\n      pop\n      jump\t// out\n        /* \"#utility.yul\":11736:12193   */\n    tag_27:\n        /* \"#utility.yul\":11921:11925   */\n      0x00\n        /* \"#utility.yul\":11959:11961   */\n      0x20\n        /* \"#utility.yul\":11948:11957   */\n      dup3\n        /* \"#utility.yul\":11944:11962   */\n      add\n        /* \"#utility.yul\":11936:11962   */\n      swap1\n      pop\n        /* \"#utility.yul\":12008:12017   */\n      dup2\n        /* \"#utility.yul\":12002:12006   */\n      dup2\n        /* \"#utility.yul\":11998:12018   */\n      sub\n        /* \"#utility.yul\":11994:11995   */\n      0x00\n        /* \"#utility.yul\":11983:11992   */\n      dup4\n        /* \"#utility.yul\":11979:11996   */\n      add\n        /* \"#utility.yul\":11972:12019   */\n      mstore\n        /* \"#utility.yul\":12036:12186   */\n      tag_232\n        /* \"#utility.yul\":12181:12185   */\n      dup2\n        /* \"#utility.yul\":12172:12178   */\n      dup5\n        /* \"#utility.yul\":12036:12186   */\n      tag_98\n      jump\t// in\n    tag_232:\n        /* \"#utility.yul\":12028:12186   */\n      swap1\n      pop\n        /* \"#utility.yul\":11736:12193   */\n      swap3\n      swap2\n      pop\n      pop\n      jump\t// out\n        /* \"#utility.yul\":12199:12379   */\n    tag_99:\n        /* \"#utility.yul\":12247:12324   */\n      0x4e487b7100000000000000000000000000000000000000000000000000000000\n        /* \"#utility.yul\":12244:12245   */\n      0x00\n        /* \"#utility.yul\":12237:12325   */\n      mstore\n        /* \"#utility.yul\":12344:12348   */\n      0x22\n        /* \"#utility.yul\":12341:12342   */\n      0x04\n        /* \"#utility.yul\":12334:12349   */\n      mstore\n        /* \"#utility.yul\":12368:12372   */\n      0x24\n        /* \"#utility.yul\":12365:12366   */\n      0x00\n        /* \"#utility.yul\":12358:12373   */\n      revert\n        /* \"#utility.yul\":12385:12705   */\n    tag_31:\n        /* \"#utility.yul\":12429:12435   */\n      0x00\n        /* \"#utility.yul\":12466:12467   */\n      0x02\n        /* \"#utility.yul\":12460:12464   */\n      dup3\n        /* \"#utility.yul\":12456:12468   */\n      div\n        /* \"#utility.yul\":12446:12468   */\n      swap1\n      pop\n        /* \"#utility.yul\":12513:12514   */\n      0x01\n        /* \"#utility.yul\":12507:12511   */\n      dup3\n        /* \"#utility.yul\":12503:12515   */\n      and\n        /* \"#utility.yul\":12534:12552   */\n      dup1\n        /* \"#utility.yul\":12524:12605   */\n      tag_235\n      jumpi\n        /* \"#utility.yul\":12590:12594   */\n      0x7f\n        /* \"#utility.yul\":12582:12588   */\n      dup3\n        /* \"#utility.yul\":12578:12595   */\n      and\n        /* \"#utility.yul\":12568:12595   */\n      swap2\n      pop\n        /* \"#utility.yul\":12524:12605   */\n    tag_235:\n        /* \"#utility.yul\":12652:12654   */\n      0x20\n        /* \"#utility.yul\":12644:12650   */\n      dup3\n        /* \"#utility.yul\":12641:12655   */\n      lt\n        /* \"#utility.yul\":12621:12639   */\n      dup2\n        /* \"#utility.yul\":12618:12656   */\n      sub\n        /* \"#utility.yul\":12615:12699   */\n      tag_236\n      jumpi\n        /* \"#utility.yul\":12671:12689   */\n      tag_237\n      tag_99\n      jump\t// in\n    tag_237:\n        /* \"#utility.yul\":12615:12699   */\n    tag_236:\n        /* \"#utility.yul\":12436:12705   */\n      pop\n        /* \"#utility.yul\":12385:12705   */\n      swap2\n      swap1\n      pop\n      jump\t// out\n        /* \"#utility.yul\":12711:12852   */\n    tag_100:\n        /* \"#utility.yul\":12760:12764   */\n      0x00\n        /* \"#utility.yul\":12783:12786   */\n      dup2\n        /* \"#utility.yul\":12775:12786   */\n      swap1\n      pop\n        /* \"#utility.yul\":12806:12809   */\n      dup2\n        /* \"#utility.yul\":12803:12804   */\n      0x00\n        /* \"#utility.yul\":12796:12810   */\n      mstore\n        /* \"#utility.yul\":12840:12844   */\n      0x20\n        /* \"#utility.yul\":12837:12838   */\n      0x00\n        /* \"#utility.yul\":12827:12845   */\n      keccak256\n        /* \"#utility.yul\":12819:12845   */\n      swap1\n      pop\n        /* \"#utility.yul\":12711:12852   */\n      swap2\n      swap1\n      pop\n      jump\t// out\n        /* \"#utility.yul\":12858:12951   */\n    tag_101:\n        /* \"#utility.yul\":12895:12901   */\n      0x00\n        /* \"#utility.yul\":12942:12944   */\n      0x20\n        /* \"#utility.yul\":12937:12939   */\n      0x1f\n        /* \"#utility.yul\":12930:12935   */\n      dup4\n        /* \"#utility.yul\":12926:12940   */\n      add\n        /* \"#utility.yul\":12922:12945   */\n      div\n        /* \"#utility.yul\":12912:12945   */\n      swap1\n      pop\n        /* \"#utility.yul\":12858:12951   */\n      swap2\n      swap1\n      pop\n      jump\t// out\n        /* \"#utility.yul\":12957:13064   */\n    tag_102:\n        /* \"#utility.yul\":13001:13009   */\n      0x00\n        /* \"#utility.yul\":13051:13056   */\n      dup3\n        /* \"#utility.yul\":13045:13049   */\n      dup3\n        /* \"#utility.yul\":13041:13057   */\n      shl\n        /* \"#utility.yul\":13020:13057   */\n      swap1\n      pop\n        /* \"#utility.yul\":12957:13064   */\n      swap3\n      swap2\n      pop\n      pop\n      jump\t// out\n        /* \"#utility.yul\":13070:13463   */\n    tag_103:\n        /* \"#utility.yul\":13139:13145   */\n      0x00\n        /* \"#utility.yul\":13189:13190   */\n      0x08\n        /* \"#utility.yul\":13177:13187   */\n      dup4\n        /* \"#utility.yul\":13173:13191   */\n      mul\n        /* \"#utility.yul\":13212:13309   */\n      tag_242\n        /* \"#utility.yul\":13242:13308   */\n      0xffffffffffffffffffffffffffffffffffffffffffffffffffffffffffffffff\n        /* \"#utility.yul\":13231:13240   */\n      dup3\n        /* \"#utility.yul\":13212:13309   */\n      tag_102\n      jump\t// in\n    tag_242:\n        /* \"#utility.yul\":13330:13369   */\n      tag_243\n        /* \"#utility.yul\":13360:13368   */\n      dup7\n        /* \"#utility.yul\":13349:13358   */\n      dup4\n        /* \"#utility.yul\":13330:13369   */\n      tag_102\n      jump\t// in\n    tag_243:\n        /* \"#utility.yul\":13318:13369   */\n      swap6\n      pop\n        /* \"#utility.yul\":13402:13406   */\n      dup1\n        /* \"#utility.yul\":13398:13407   */\n      not\n        /* \"#utility.yul\":13391:13396   */\n      dup5\n        /* \"#utility.yul\":13387:13408   */\n      and\n        /* \"#utility.yul\":13378:13408   */\n      swap4\n      pop\n        /* \"#utility.yul\":13451:13455   */\n      dup1\n        /* \"#utility.yul\":13441:13449   */\n      dup7\n        /* \"#utility.yul\":13437:13456   */\n      and\n        /* \"#utility.yul\":13430:13435   */\n      dup5\n        /* \"#utility.yul\":13427:13457   */\n      or\n        /* \"#utility.yul\":13417:13457   */\n      swap3\n      pop\n        /* \"#utility.yul\":13146:13463   */\n      pop\n      pop\n        /* \"#utility.yul\":13070:13463   */\n      swap4\n      swap3\n      pop\n      pop\n      pop\n      jump\t// out\n        /* \"#utility.yul\":13469:13529   */\n    tag_104:\n        /* \"#utility.yul\":13497:13500   */\n      0x00\n        /* \"#utility.yul\":13518:13523   */\n      dup2\n        /* \"#utility.yul\":13511:13523   */\n      swap1\n      pop\n        /* \"#utility.yul\":13469:13529   */\n      swap2\n      swap1\n      pop\n      jump\t// out\n        /* \"#utility.yul\":13535:13677   */\n    tag_105:\n        /* \"#utility.yul\":13585:13594   */\n      0x00\n        /* \"#utility.yul\":13618:13671   */\n      tag_246\n        /* \"#utility.yul\":13636:13670   */\n      tag_247\n        /* \"#utility.yul\":13645:13669   */\n      tag_248\n        /* \"#utility.yul\":13663:13668   */\n      dup5\n        /* \"#utility.yul\":13645:13669   */\n      tag_68\n      jump\t// in\n    tag_248:\n        /* \"#utility.yul\":13636:13670   */\n      tag_104\n      jump\t// in\n    tag_247:\n        /* \"#utility.yul\":13618:13671   */\n      tag_68\n      jump\t// in\n    tag_246:\n        /* \"#utility.yul\":13605:13671   */\n      swap1\n      pop\n        /* \"#utility.yul\":13535:13677   */\n      swap2\n      swap1\n      pop\n      jump\t// out\n        /* \"#utility.yul\":13683:13758   */\n    tag_106:\n        /* \"#utility.yul\":13726:13729   */\n      0x00\n        /* \"#utility.yul\":13747:13752   */\n      dup2\n        /* \"#utility.yul\":13740:13752   */\n      swap1\n      pop\n        /* \"#utility.yul\":13683:13758   */\n      swap2\n      swap1\n      pop\n      jump\t// out\n        /* \"#utility.yul\":13764:14033   */\n    tag_107:\n        /* \"#utility.yul\":13874:13913   */\n      tag_251\n        /* \"#utility.yul\":13905:13912   */\n      dup4\n        /* \"#utility.yul\":13874:13913   */\n      tag_105\n      jump\t// in\n    tag_251:\n        /* \"#utility.yul\":13935:14026   */\n      tag_252\n        /* \"#utility.yul\":13984:14025   */\n      tag_253\n        /* \"#utility.yul\":14008:14024   */\n      dup3\n        /* \"#utility.yul\":13984:14025   */\n      tag_106\n      jump\t// in\n    tag_253:\n        /* \"#utility.yul\":13976:13982   */\n      dup5\n        /* \"#utility.yul\":13969:13973   */\n      dup5\n        /* \"#utility.yul\":13963:13974   */\n      sload\n        /* \"#utility.yul\":13935:14026   */\n      tag_103\n      jump\t// in\n    tag_252:\n        /* \"#utility.yul\":13929:13933   */\n      dup3\n        /* \"#utility.yul\":13922:14027   */\n      sstore\n        /* \"#utility.yul\":13840:14033   */\n      pop\n        /* \"#utility.yul\":13764:14033   */\n      pop\n      pop\n      pop\n      jump\t// out\n        /* \"#utility.yul\":14039:14112   */\n    tag_108:\n        /* \"#utility.yul\":14084:14087   */\n      0x00\n        /* \"#utility.yul\":14039:14112   */\n      swap1\n      jump\t// out\n        /* \"#utility.yul\":14118:14307   */\n    tag_109:\n        /* \"#utility.yul\":14195:14227   */\n      tag_256\n      tag_108\n      jump\t// in\n    tag_256:\n        /* \"#utility.yul\":14236:14301   */\n      tag_257\n        /* \"#utility.yul\":14294:14300   */\n      dup2\n        /* \"#utility.yul\":14286:14292   */\n      dup5\n        /* \"#utility.yul\":14280:14284   */\n      dup5\n        /* \"#utility.yul\":14236:14301   */\n      tag_107\n      jump\t// in\n    tag_257:\n        /* \"#utility.yul\":14171:14307   */\n      pop\n        /* \"#utility.yul\":14118:14307   */\n      pop\n      pop\n      jump\t// out\n        /* \"#utility.yul\":14313:14499   */\n    tag_110:\n        /* \"#utility.yul\":14373:14493   */\n    tag_259:\n        /* \"#utility.yul\":14390:14393   */\n      dup2\n        /* \"#utility.yul\":14383:14388   */\n      dup2\n        /* \"#utility.yul\":14380:14394   */\n      lt\n        /* \"#utility.yul\":14373:14493   */\n      iszero\n      tag_261\n      jumpi\n        /* \"#utility.yul\":14444:14483   */\n      tag_262\n        /* \"#utility.yul\":14481:14482   */\n      0x00\n        /* \"#utility.yul\":14474:14479   */\n      dup3\n        /* \"#utility.yul\":14444:14483   */\n      tag_109\n      jump\t// in\n    tag_262:\n        /* \"#utility.yul\":14417:14418   */\n      0x01\n        /* \"#utility.yul\":14410:14415   */\n      dup2\n        /* \"#utility.yul\":14406:14419   */\n      add\n        /* \"#utility.yul\":14397:14419   */\n      swap1\n      pop\n        /* \"#utility.yul\":14373:14493   */\n      jump(tag_259)\n    tag_261:\n        /* \"#utility.yul\":14313:14499   */\n      pop\n      pop\n      jump\t// out\n        /* \"#utility.yul\":14505:15048   */\n    tag_111:\n        /* \"#utility.yul\":14606:14608   */\n      0x1f\n        /* \"#utility.yul\":14601:14604   */\n      dup3\n        /* \"#utility.yul\":14598:14609   */\n      gt\n        /* \"#utility.yul\":14595:15041   */\n      iszero\n      tag_264\n      jumpi\n        /* \"#utility.yul\":14640:14678   */\n      tag_265\n        /* \"#utility.yul\":14672:14677   */\n      dup2\n        /* \"#utility.yul\":14640:14678   */\n      tag_100\n      jump\t// in\n    tag_265:\n        /* \"#utility.yul\":14724:14753   */\n      tag_266\n        /* \"#utility.yul\":14742:14752   */\n      dup5\n        /* \"#utility.yul\":14724:14753   */\n      tag_101\n      jump\t// in\n    tag_266:\n        /* \"#utility.yul\":14714:14722   */\n      dup2\n        /* \"#utility.yul\":14710:14754   */\n      add\n        /* \"#utility.yul\":14907:14909   */\n      0x20\n        /* \"#utility.yul\":14895:14905   */\n      dup6\n        /* \"#utility.yul\":14892:14910   */\n      lt\n        /* \"#utility.yul\":14889:14938   */\n      iszero\n      tag_267\n      jumpi\n        /* \"#utility.yul\":14928:14936   */\n      dup2\n        /* \"#utility.yul\":14913:14936   */\n      swap1\n      pop\n        /* \"#utility.yul\":14889:14938   */\n    tag_267:\n        /* \"#utility.yul\":14951:15031   */\n      tag_268\n        /* \"#utility.yul\":15007:15029   */\n      tag_269\n        /* \"#utility.yul\":15025:15028   */\n      dup6\n        /* \"#utility.yul\":15007:15029   */\n      tag_101\n      jump\t// in\n    tag_269:\n        /* \"#utility.yul\":14997:15005   */\n      dup4\n        /* \"#utility.yul\":14993:15030   */\n      add\n        /* \"#utility.yul\":14980:14991   */\n      dup3\n        /* \"#utility.yul\":14951:15031   */\n      tag_110\n      jump\t// in\n    tag_268:\n        /* \"#utility.yul\":14610:15041   */\n      pop\n      pop\n        /* \"#utility.yul\":14595:15041   */\n    tag_264:\n        /* \"#utility.yul\":14505:15048   */\n      pop\n      pop\n      pop\n      jump\t// out\n        /* \"#utility.yul\":15054:15171   */\n    tag_112:\n        /* \"#utility.yul\":15108:15116   */\n      0x00\n        /* \"#utility.yul\":15158:15163   */\n      dup3\n        /* \"#utility.yul\":15152:15156   */\n      dup3\n        /* \"#utility.yul\":15148:15164   */\n      shr\n        /* \"#utility.yul\":15127:15164   */\n      swap1\n      pop\n        /* \"#utility.yul\":15054:15171   */\n      swap3\n      swap2\n      pop\n      pop\n      jump\t// out\n        /* \"#utility.yul\":15177:15346   */\n    tag_113:\n        /* \"#utility.yul\":15221:15227   */\n      0x00\n        /* \"#utility.yul\":15254:15305   */\n      tag_272\n        /* \"#utility.yul\":15302:15303   */\n      0x00\n        /* \"#utility.yul\":15298:15304   */\n      not\n        /* \"#utility.yul\":15290:15295   */\n      dup5\n        /* \"#utility.yul\":15287:15288   */\n      0x08\n        /* \"#utility.yul\":15283:15296   */\n      mul\n        /* \"#utility.yul\":15254:15305   */\n      tag_112\n      jump\t// in\n    tag_272:\n        /* \"#utility.yul\":15250:15306   */\n      not\n        /* \"#utility.yul\":15335:15339   */\n      dup1\n        /* \"#utility.yul\":15329:15333   */\n      dup4\n        /* \"#utility.yul\":15325:15340   */\n      and\n        /* \"#utility.yul\":15315:15340   */\n      swap2\n      pop\n        /* \"#utility.yul\":15228:15346   */\n      pop\n        /* \"#utility.yul\":15177:15346   */\n      swap3\n      swap2\n      pop\n      pop\n      jump\t// out\n        /* \"#utility.yul\":15351:15646   */\n    tag_114:\n        /* \"#utility.yul\":15427:15431   */\n      0x00\n        /* \"#utility.yul\":15573:15602   */\n      tag_274\n        /* \"#utility.yul\":15598:15601   */\n      dup4\n        /* \"#utility.yul\":15592:15596   */\n      dup4\n        /* \"#utility.yul\":15573:15602   */\n      tag_113\n      jump\t// in\n    tag_274:\n        /* \"#utility.yul\":15565:15602   */\n      swap2\n      pop\n        /* \"#utility.yul\":15635:15638   */\n      dup3\n        /* \"#utility.yul\":15632:15633   */\n      0x02\n        /* \"#utility.yul\":15628:15639   */\n      mul\n        /* \"#utility.yul\":15622:15626   */\n      dup3\n        /* \"#utility.yul\":15619:15640   */\n      or\n        /* \"#utility.yul\":15611:15640   */\n      swap1\n      pop\n        /* \"#utility.yul\":15351:15646   */\n      swap3\n      swap2\n      pop\n      pop\n      jump\t// out\n        /* \"#utility.yul\":15651:17046   */\n    tag_39:\n        /* \"#utility.yul\":15768:15805   */\n      tag_276\n        /* \"#utility.yul\":15801:15804   */\n      dup3\n        /* \"#utility.yul\":15768:15805   */\n      tag_72\n      jump\t// in\n    tag_276:\n        /* \"#utility.yul\":15870:15888   */\n      0xffffffffffffffff\n        /* \"#utility.yul\":15862:15868   */\n      dup2\n        /* \"#utility.yul\":15859:15889   */\n      gt\n        /* \"#utility.yul\":15856:15912   */\n      iszero\n      tag_277\n      jumpi\n        /* \"#utility.yul\":15892:15910   */\n      tag_278\n      tag_80\n      jump\t// in\n    tag_278:\n        /* \"#utility.yul\":15856:15912   */\n    tag_277:\n        /* \"#utility.yul\":15936:15974   */\n      tag_279\n        /* \"#utility.yul\":15968:15972   */\n      dup3\n        /* \"#utility.yul\":15962:15973   */\n      sload\n        /* \"#utility.yul\":15936:15974   */\n      tag_31\n      jump\t// in\n    tag_279:\n        /* \"#utility.yul\":16021:16088   */\n      tag_280\n        /* \"#utility.yul\":16081:16087   */\n      dup3\n        /* \"#utility.yul\":16073:16079   */\n      dup3\n        /* \"#utility.yul\":16067:16071   */\n      dup6\n        /* \"#utility.yul\":16021:16088   */\n      tag_111\n      jump\t// in\n    tag_280:\n        /* \"#utility.yul\":16115:16116   */\n      0x00\n        /* \"#utility.yul\":16139:16143   */\n      0x20\n        /* \"#utility.yul\":16126:16143   */\n      swap1\n      pop\n        /* \"#utility.yul\":16171:16173   */\n      0x1f\n        /* \"#utility.yul\":16163:16169   */\n      dup4\n        /* \"#utility.yul\":16160:16174   */\n      gt\n        /* \"#utility.yul\":16188:16189   */\n      0x01\n        /* \"#utility.yul\":16183:16801   */\n      dup2\n      eq\n      tag_282\n      jumpi\n        /* \"#utility.yul\":16845:16846   */\n      0x00\n        /* \"#utility.yul\":16862:16868   */\n      dup5\n        /* \"#utility.yul\":16859:16936   */\n      iszero\n      tag_283\n      jumpi\n        /* \"#utility.yul\":16911:16920   */\n      dup3\n        /* \"#utility.yul\":16906:16909   */\n      dup8\n        /* \"#utility.yul\":16902:16921   */\n      add\n        /* \"#utility.yul\":16896:16922   */\n      mload\n        /* \"#utility.yul\":16887:16922   */\n      swap1\n      pop\n        /* \"#utility.yul\":16859:16936   */\n    tag_283:\n        /* \"#utility.yul\":16962:17029   */\n      tag_284\n        /* \"#utility.yul\":17022:17028   */\n      dup6\n        /* \"#utility.yul\":17015:17020   */\n      dup3\n        /* \"#utility.yul\":16962:17029   */\n      tag_114\n      jump\t// in\n    tag_284:\n        /* \"#utility.yul\":16956:16960   */\n      dup7\n        /* \"#utility.yul\":16949:17030   */\n      sstore\n        /* \"#utility.yul\":16818:17040   */\n      pop\n        /* \"#utility.yul\":16153:17040   */\n      jump(tag_281)\n        /* \"#utility.yul\":16183:16801   */\n    tag_282:\n        /* \"#utility.yul\":16235:16239   */\n      0x1f\n        /* \"#utility.yul\":16231:16240   */\n      not\n        /* \"#utility.yul\":16223:16229   */\n      dup5\n        /* \"#utility.yul\":16219:16241   */\n      and\n        /* \"#utility.yul\":16269:16306   */\n      tag_285\n        /* \"#utility.yul\":16301:16305   */\n      dup7\n        /* \"#utility.yul\":16269:16306   */\n      tag_100\n      jump\t// in\n    tag_285:\n        /* \"#utility.yul\":16328:16329   */\n      0x00\n        /* \"#utility.yul\":16342:16550   */\n    tag_286:\n        /* \"#utility.yul\":16356:16363   */\n      dup3\n        /* \"#utility.yul\":16353:16354   */\n      dup2\n        /* \"#utility.yul\":16350:16364   */\n      lt\n        /* \"#utility.yul\":16342:16550   */\n      iszero\n      tag_288\n      jumpi\n        /* \"#utility.yul\":16435:16444   */\n      dup5\n        /* \"#utility.yul\":16430:16433   */\n      dup10\n        /* \"#utility.yul\":16426:16445   */\n      add\n        /* \"#utility.yul\":16420:16446   */\n      mload\n        /* \"#utility.yul\":16412:16418   */\n      dup3\n        /* \"#utility.yul\":16405:16447   */\n      sstore\n        /* \"#utility.yul\":16486:16487   */\n      0x01\n        /* \"#utility.yul\":16478:16484   */\n      dup3\n        /* \"#utility.yul\":16474:16488   */\n      add\n        /* \"#utility.yul\":16464:16488   */\n      swap2\n      pop\n        /* \"#utility.yul\":16533:16535   */\n      0x20\n        /* \"#utility.yul\":16522:16531   */\n      dup6\n        /* \"#utility.yul\":16518:16536   */\n      add\n        /* \"#utility.yul\":16505:16536   */\n      swap5\n      pop\n        /* \"#utility.yul\":16379:16383   */\n      0x20\n        /* \"#utility.yul\":16376:16377   */\n      dup2\n        /* \"#utility.yul\":16372:16384   */\n      add\n        /* \"#utility.yul\":16367:16384   */\n      swap1\n      pop\n        /* \"#utility.yul\":16342:16550   */\n      jump(tag_286)\n    tag_288:\n        /* \"#utility.yul\":16578:16584   */\n      dup7\n        /* \"#utility.yul\":16569:16576   */\n      dup4\n        /* \"#utility.yul\":16566:16585   */\n      lt\n        /* \"#utility.yul\":16563:16742   */\n      iszero\n      tag_289\n      jumpi\n        /* \"#utility.yul\":16636:16645   */\n      dup5\n        /* \"#utility.yul\":16631:16634   */\n      dup10\n        /* \"#utility.yul\":16627:16646   */\n      add\n        /* \"#utility.yul\":16621:16647   */\n      mload\n        /* \"#utility.yul\":16679:16727   */\n      tag_290\n        /* \"#utility.yul\":16721:16725   */\n      0x1f\n        /* \"#utility.yul\":16713:16719   */\n      dup10\n        /* \"#utility.yul\":16709:16726   */\n      and\n        /* \"#utility.yul\":16698:16707   */\n      dup3\n        /* \"#utility.yul\":16679:16727   */\n      tag_113\n      jump\t// in\n    tag_290:\n        /* \"#utility.yul\":16671:16677   */\n      dup4\n        /* \"#utility.yul\":16664:16728   */\n      sstore\n        /* \"#utility.yul\":16586:16742   */\n      pop\n        /* \"#utility.yul\":16563:16742   */\n    tag_289:\n        /* \"#utility.yul\":16788:16789   */\n      0x01\n        /* \"#utility.yul\":16784:16785   */\n      0x02\n        /* \"#utility.yul\":16776:16782   */\n      dup9\n        /* \"#utility.yul\":16772:16786   */\n      mul\n        /* \"#utility.yul\":16768:16790   */\n      add\n        /* \"#utility.yul\":16762:16766   */\n      dup9\n        /* \"#utility.yul\":16755:16791   */\n      sstore\n        /* \"#utility.yul\":16190:16801   */\n      pop\n      pop\n      pop\n        /* \"#utility.yul\":16153:17040   */\n    tag_281:\n      pop\n        /* \"#utility.yul\":15743:17046   */\n      pop\n      pop\n      pop\n        /* \"#utility.yul\":15651:17046   */\n      pop\n      pop\n      jump\t// out\n        /* \"#utility.yul\":17052:17232   */\n    tag_45:\n        /* \"#utility.yul\":17100:17177   */\n      0x4e487b7100000000000000000000000000000000000000000000000000000000\n        /* \"#utility.yul\":17097:17098   */\n      0x00\n        /* \"#utility.yul\":17090:17178   */\n      mstore\n        /* \"#utility.yul\":17197:17201   */\n      0x32\n        /* \"#utility.yul\":17194:17195   */\n      0x04\n        /* \"#utility.yul\":17187:17202   */\n      mstore\n        /* \"#utility.yul\":17221:17225   */\n      0x24\n        /* \"#utility.yul\":17218:17219   */\n      0x00\n        /* \"#utility.yul\":17211:17226   */\n      revert\n\n    auxdata: 0xa2646970667358221220a37544aaafbd98285dfd15ba98e5bc9910f8091c516accb51559787b930b6da464736f6c63430008160033\n}\n",
				"bytecode": {
					"linkReferences": {},
					"object": "608060405234801561000f575f80fd5b50610ee98061001d5f395ff3fe608060405234801561000f575f80fd5b506004361061004a575f3560e01c806305a1b4a91461004e5780632a1f1d061461008157806337f36a4c1461009d57806349e5fdee146100cd575b5f80fd5b610068600480360381019061006391906106ce565b6100fd565b60405161007894939291906107b4565b60405180910390f35b61009b6004803603810190610096919061092a565b6101e7565b005b6100b760048036038101906100b291906106ce565b6102f8565b6040516100c49190610a37565b60405180910390f35b6100e760048036038101906100e29190610a57565b610465565b6040516100f49190610b9d565b60405180910390f35b5f602052815f5260405f208181548110610115575f80fd5b905f5260205f2090600402015f9150915050805f015f9054906101000a900473ffffffffffffffffffffffffffffffffffffffff169080600101805461015a90610bea565b80601f016020809104026020016040519081016040528092919081815260200182805461018690610bea565b80156101d15780601f106101a8576101008083540402835291602001916101d1565b820191905f5260205f20905b8154815290600101906020018083116101b457829003601f168201915b5050505050908060020154908060030154905084565b5f60405180608001604052803373ffffffffffffffffffffffffffffffffffffffff1681526020018381526020014281526020015f81525090505f803373ffffffffffffffffffffffffffffffffffffffff1673ffffffffffffffffffffffffffffffffffffffff1681526020019081526020015f2081908060018154018082558091505060019003905f5260205f2090600402015f909190919091505f820151815f015f6101000a81548173ffffffffffffffffffffffffffffffffffffffff021916908373ffffffffffffffffffffffffffffffffffffffff16021790555060208201518160010190816102dd9190610db7565b50604082015181600201556060820151816003015550505050565b6103006105f5565b5f808473ffffffffffffffffffffffffffffffffffffffff1673ffffffffffffffffffffffffffffffffffffffff1681526020019081526020015f20828154811061034e5761034d610e86565b5b905f5260205f2090600402016040518060800160405290815f82015f9054906101000a900473ffffffffffffffffffffffffffffffffffffffff1673ffffffffffffffffffffffffffffffffffffffff1673ffffffffffffffffffffffffffffffffffffffff1681526020016001820180546103c990610bea565b80601f01602080910402602001604051908101604052809291908181526020018280546103f590610bea565b80156104405780601f1061041757610100808354040283529160200191610440565b820191905f5260205f20905b81548152906001019060200180831161042357829003601f168201915b5050505050815260200160028201548152602001600382015481525050905092915050565b60605f808373ffffffffffffffffffffffffffffffffffffffff1673ffffffffffffffffffffffffffffffffffffffff1681526020019081526020015f20805480602002602001604051908101604052809291908181526020015f905b828210156105ea578382905f5260205f2090600402016040518060800160405290815f82015f9054906101000a900473ffffffffffffffffffffffffffffffffffffffff1673ffffffffffffffffffffffffffffffffffffffff1673ffffffffffffffffffffffffffffffffffffffff16815260200160018201805461054790610bea565b80601f016020809104026020016040519081016040528092919081815260200182805461057390610bea565b80156105be5780601f10610595576101008083540402835291602001916105be565b820191905f5260205f20905b8154815290600101906020018083116105a157829003601f168201915b5050505050815260200160028201548152602001600382015481525050815260200190600101906104c2565b505050509050919050565b60405180608001604052805f73ffffffffffffffffffffffffffffffffffffffff168152602001606081526020015f81526020015f81525090565b5f604051905090565b5f80fd5b5f80fd5b5f73ffffffffffffffffffffffffffffffffffffffff82169050919050565b5f61066a82610641565b9050919050565b61067a81610660565b8114610684575f80fd5b50565b5f8135905061069581610671565b92915050565b5f819050919050565b6106ad8161069b565b81146106b7575f80fd5b50565b5f813590506106c8816106a4565b92915050565b5f80604083850312156106e4576106e3610639565b5b5f6106f185828601610687565b9250506020610702858286016106ba565b9150509250929050565b61071581610660565b82525050565b5f81519050919050565b5f82825260208201905092915050565b5f5b83811015610752578082015181840152602081019050610737565b5f8484015250505050565b5f601f19601f8301169050919050565b5f6107778261071b565b6107818185610725565b9350610791818560208601610735565b61079a8161075d565b840191505092915050565b6107ae8161069b565b82525050565b5f6080820190506107c75f83018761070c565b81810360208301526107d9818661076d565b90506107e860408301856107a5565b6107f560608301846107a5565b95945050505050565b5f80fd5b5f80fd5b7f4e487b71000000000000000000000000000000000000000000000000000000005f52604160045260245ffd5b61083c8261075d565b810181811067ffffffffffffffff8211171561085b5761085a610806565b5b80604052505050565b5f61086d610630565b90506108798282610833565b919050565b5f67ffffffffffffffff82111561089857610897610806565b5b6108a18261075d565b9050602081019050919050565b828183375f83830152505050565b5f6108ce6108c98461087e565b610864565b9050828152602081018484840111156108ea576108e9610802565b5b6108f58482856108ae565b509392505050565b5f82601f830112610911576109106107fe565b5b81356109218482602086016108bc565b91505092915050565b5f6020828403121561093f5761093e610639565b5b5f82013567ffffffffffffffff81111561095c5761095b61063d565b5b610968848285016108fd565b91505092915050565b61097a81610660565b82525050565b5f82825260208201905092915050565b5f61099a8261071b565b6109a48185610980565b93506109b4818560208601610735565b6109bd8161075d565b840191505092915050565b6109d18161069b565b82525050565b5f608083015f8301516109ec5f860182610971565b5060208301518482036020860152610a048282610990565b9150506040830151610a1960408601826109c8565b506060830151610a2c60608601826109c8565b508091505092915050565b5f6020820190508181035f830152610a4f81846109d7565b905092915050565b5f60208284031215610a6c57610a6b610639565b5b5f610a7984828501610687565b91505092915050565b5f81519050919050565b5f82825260208201905092915050565b5f819050602082019050919050565b5f608083015f830151610ac05f860182610971565b5060208301518482036020860152610ad88282610990565b9150506040830151610aed60408601826109c8565b506060830151610b0060608601826109c8565b508091505092915050565b5f610b168383610aab565b905092915050565b5f602082019050919050565b5f610b3482610a82565b610b3e8185610a8c565b935083602082028501610b5085610a9c565b805f5b85811015610b8b5784840389528151610b6c8582610b0b565b9450610b7783610b1e565b925060208a01995050600181019050610b53565b50829750879550505050505092915050565b5f6020820190508181035f830152610bb58184610b2a565b905092915050565b7f4e487b71000000000000000000000000000000000000000000000000000000005f52602260045260245ffd5b5f6002820490506001821680610c0157607f821691505b602082108103610c1457610c13610bbd565b5b50919050565b5f819050815f5260205f209050919050565b5f6020601f8301049050919050565b5f82821b905092915050565b5f60088302610c767fffffffffffffffffffffffffffffffffffffffffffffffffffffffffffffffff82610c3b565b610c808683610c3b565b95508019841693508086168417925050509392505050565b5f819050919050565b5f610cbb610cb6610cb18461069b565b610c98565b61069b565b9050919050565b5f819050919050565b610cd483610ca1565b610ce8610ce082610cc2565b848454610c47565b825550505050565b5f90565b610cfc610cf0565b610d07818484610ccb565b505050565b5b81811015610d2a57610d1f5f82610cf4565b600181019050610d0d565b5050565b601f821115610d6f57610d4081610c1a565b610d4984610c2c565b81016020851015610d58578190505b610d6c610d6485610c2c565b830182610d0c565b50505b505050565b5f82821c905092915050565b5f610d8f5f1984600802610d74565b1980831691505092915050565b5f610da78383610d80565b9150826002028217905092915050565b610dc08261071b565b67ffffffffffffffff811115610dd957610dd8610806565b5b610de38254610bea565b610dee828285610d2e565b5f60209050601f831160018114610e1f575f8415610e0d578287015190505b610e178582610d9c565b865550610e7e565b601f198416610e2d86610c1a565b5f5b82811015610e5457848901518255600182019150602085019450602081019050610e2f565b86831015610e715784890151610e6d601f891682610d80565b8355505b6001600288020188555050505b505050505050565b7f4e487b71000000000000000000000000000000000000000000000000000000005f52603260045260245ffdfea2646970667358221220a37544aaafbd98285dfd15ba98e5bc9910f8091c516accb51559787b930b6da464736f6c63430008160033",
					"opcodes": "PUSH1 0x80 PUSH1 0x40 MSTORE CALLVALUE DUP1 ISZERO PUSH2 0xF JUMPI PUSH0 DUP1 REVERT JUMPDEST POP PUSH2 0xEE9 DUP1 PUSH2 0x1D PUSH0 CODECOPY PUSH0 RETURN INVALID PUSH1 0x80 PUSH1 0x40 MSTORE CALLVALUE DUP1 ISZERO PUSH2 0xF JUMPI PUSH0 DUP1 REVERT JUMPDEST POP PUSH1 0x4 CALLDATASIZE LT PUSH2 0x4A JUMPI PUSH0 CALLDATALOAD PUSH1 0xE0 SHR DUP1 PUSH4 0x5A1B4A9 EQ PUSH2 0x4E JUMPI DUP1 PUSH4 0x2A1F1D06 EQ PUSH2 0x81 JUMPI DUP1 PUSH4 0x37F36A4C EQ PUSH2 0x9D JUMPI DUP1 PUSH4 0x49E5FDEE EQ PUSH2 0xCD JUMPI JUMPDEST PUSH0 DUP1 REVERT JUMPDEST PUSH2 0x68 PUSH1 0x4 DUP1 CALLDATASIZE SUB DUP2 ADD SWAP1 PUSH2 0x63 SWAP2 SWAP1 PUSH2 0x6CE JUMP JUMPDEST PUSH2 0xFD JUMP JUMPDEST PUSH1 0x40 MLOAD PUSH2 0x78 SWAP5 SWAP4 SWAP3 SWAP2 SWAP1 PUSH2 0x7B4 JUMP JUMPDEST PUSH1 0x40 MLOAD DUP1 SWAP2 SUB SWAP1 RETURN JUMPDEST PUSH2 0x9B PUSH1 0x4 DUP1 CALLDATASIZE SUB DUP2 ADD SWAP1 PUSH2 0x96 SWAP2 SWAP1 PUSH2 0x92A JUMP JUMPDEST PUSH2 0x1E7 JUMP JUMPDEST STOP JUMPDEST PUSH2 0xB7 PUSH1 0x4 DUP1 CALLDATASIZE SUB DUP2 ADD SWAP1 PUSH2 0xB2 SWAP2 SWAP1 PUSH2 0x6CE JUMP JUMPDEST PUSH2 0x2F8 JUMP JUMPDEST PUSH1 0x40 MLOAD PUSH2 0xC4 SWAP2 SWAP1 PUSH2 0xA37 JUMP JUMPDEST PUSH1 0x40 MLOAD DUP1 SWAP2 SUB SWAP1 RETURN JUMPDEST PUSH2 0xE7 PUSH1 0x4 DUP1 CALLDATASIZE SUB DUP2 ADD SWAP1 PUSH2 0xE2 SWAP2 SWAP1 PUSH2 0xA57 JUMP JUMPDEST PUSH2 0x465 JUMP JUMPDEST PUSH1 0x40 MLOAD PUSH2 0xF4 SWAP2 SWAP1 PUSH2 0xB9D JUMP JUMPDEST PUSH1 0x40 MLOAD DUP1 SWAP2 SUB SWAP1 RETURN JUMPDEST PUSH0 PUSH1 0x20 MSTORE DUP2 PUSH0 MSTORE PUSH1 0x40 PUSH0 KECCAK256 DUP2 DUP2 SLOAD DUP2 LT PUSH2 0x115 JUMPI PUSH0 DUP1 REVERT JUMPDEST SWAP1 PUSH0 MSTORE PUSH1 0x20 PUSH0 KECCAK256 SWAP1 PUSH1 0x4 MUL ADD PUSH0 SWAP2 POP SWAP2 POP POP DUP1 PUSH0 ADD PUSH0 SWAP1 SLOAD SWAP1 PUSH2 0x100 EXP SWAP1 DIV PUSH20 0xFFFFFFFFFFFFFFFFFFFFFFFFFFFFFFFFFFFFFFFF AND SWAP1 DUP1 PUSH1 0x1 ADD DUP1 SLOAD PUSH2 0x15A SWAP1 PUSH2 0xBEA JUMP JUMPDEST DUP1 PUSH1 0x1F ADD PUSH1 0x20 DUP1 SWAP2 DIV MUL PUSH1 0x20 ADD PUSH1 0x40 MLOAD SWAP1 DUP2 ADD PUSH1 0x40 MSTORE DUP1 SWAP3 SWAP2 SWAP1 DUP2 DUP2 MSTORE PUSH1 0x20 ADD DUP3 DUP1 SLOAD PUSH2 0x186 SWAP1 PUSH2 0xBEA JUMP JUMPDEST DUP1 ISZERO PUSH2 0x1D1 JUMPI DUP1 PUSH1 0x1F LT PUSH2 0x1A8 JUMPI PUSH2 0x100 DUP1 DUP4 SLOAD DIV MUL DUP4 MSTORE SWAP2 PUSH1 0x20 ADD SWAP2 PUSH2 0x1D1 JUMP JUMPDEST DUP3 ADD SWAP2 SWAP1 PUSH0 MSTORE PUSH1 0x20 PUSH0 KECCAK256 SWAP1 JUMPDEST DUP2 SLOAD DUP2 MSTORE SWAP1 PUSH1 0x1 ADD SWAP1 PUSH1 0x20 ADD DUP1 DUP4 GT PUSH2 0x1B4 JUMPI DUP3 SWAP1 SUB PUSH1 0x1F AND DUP3 ADD SWAP2 JUMPDEST POP POP POP POP POP SWAP1 DUP1 PUSH1 0x2 ADD SLOAD SWAP1 DUP1 PUSH1 0x3 ADD SLOAD SWAP1 POP DUP5 JUMP JUMPDEST PUSH0 PUSH1 0x40 MLOAD DUP1 PUSH1 0x80 ADD PUSH1 0x40 MSTORE DUP1 CALLER PUSH20 0xFFFFFFFFFFFFFFFFFFFFFFFFFFFFFFFFFFFFFFFF AND DUP2 MSTORE PUSH1 0x20 ADD DUP4 DUP2 MSTORE PUSH1 0x20 ADD TIMESTAMP DUP2 MSTORE PUSH1 0x20 ADD PUSH0 DUP2 MSTORE POP SWAP1 POP PUSH0 DUP1 CALLER PUSH20 0xFFFFFFFFFFFFFFFFFFFFFFFFFFFFFFFFFFFFFFFF AND PUSH20 0xFFFFFFFFFFFFFFFFFFFFFFFFFFFFFFFFFFFFFFFF AND DUP2 MSTORE PUSH1 0x20 ADD SWAP1 DUP2 MSTORE PUSH1 0x20 ADD PUSH0 KECCAK256 DUP2 SWAP1 DUP1 PUSH1 0x1 DUP2 SLOAD ADD DUP1 DUP3 SSTORE DUP1 SWAP2 POP POP PUSH1 0x1 SWAP1 SUB SWAP1 PUSH0 MSTORE PUSH1 0x20 PUSH0 KECCAK256 SWAP1 PUSH1 0x4 MUL ADD PUSH0 SWAP1 SWAP2 SWAP1 SWAP2 SWAP1 SWAP2 POP PUSH0 DUP3 ADD MLOAD DUP2 PUSH0 ADD PUSH0 PUSH2 0x100 EXP DUP2 SLOAD DUP2 PUSH20 0xFFFFFFFFFFFFFFFFFFFFFFFFFFFFFFFFFFFFFFFF MUL NOT AND SWAP1 DUP4 PUSH20 0xFFFFFFFFFFFFFFFFFFFFFFFFFFFFFFFFFFFFFFFF AND MUL OR SWAP1 SSTORE POP PUSH1 0x20 DUP3 ADD MLOAD DUP2 PUSH1 0x1 ADD SWAP1 DUP2 PUSH2 0x2DD SWAP2 SWAP1 PUSH2 0xDB7 JUMP JUMPDEST POP PUSH1 0x40 DUP3 ADD MLOAD DUP2 PUSH1 0x2 ADD SSTORE PUSH1 0x60 DUP3 ADD MLOAD DUP2 PUSH1 0x3 ADD SSTORE POP POP POP POP JUMP JUMPDEST PUSH2 0x300 PUSH2 0x5F5 JUMP JUMPDEST PUSH0 DUP1 DUP5 PUSH20 0xFFFFFFFFFFFFFFFFFFFFFFFFFFFFFFFFFFFFFFFF AND PUSH20 0xFFFFFFFFFFFFFFFFFFFFFFFFFFFFFFFFFFFFFFFF AND DUP2 MSTORE PUSH1 0x20 ADD SWAP1 DUP2 MSTORE PUSH1 0x20 ADD PUSH0 KECCAK256 DUP3 DUP2 SLOAD DUP2 LT PUSH2 0x34E JUMPI PUSH2 0x34D PUSH2 0xE86 JUMP JUMPDEST JUMPDEST SWAP1 PUSH0 MSTORE PUSH1 0x20 PUSH0 KECCAK256 SWAP1 PUSH1 0x4 MUL ADD PUSH1 0x40 MLOAD DUP1 PUSH1 0x80 ADD PUSH1 0x40 MSTORE SWAP1 DUP2 PUSH0 DUP3 ADD PUSH0 SWAP1 SLOAD SWAP1 PUSH2 0x100 EXP SWAP1 DIV PUSH20 0xFFFFFFFFFFFFFFFFFFFFFFFFFFFFFFFFFFFFFFFF AND PUSH20 0xFFFFFFFFFFFFFFFFFFFFFFFFFFFFFFFFFFFFFFFF AND PUSH20 0xFFFFFFFFFFFFFFFFFFFFFFFFFFFFFFFFFFFFFFFF AND DUP2 MSTORE PUSH1 0x20 ADD PUSH1 0x1 DUP3 ADD DUP1 SLOAD PUSH2 0x3C9 SWAP1 PUSH2 0xBEA JUMP JUMPDEST DUP1 PUSH1 0x1F ADD PUSH1 0x20 DUP1 SWAP2 DIV MUL PUSH1 0x20 ADD PUSH1 0x40 MLOAD SWAP1 DUP2 ADD PUSH1 0x40 MSTORE DUP1 SWAP3 SWAP2 SWAP1 DUP2 DUP2 MSTORE PUSH1 0x20 ADD DUP3 DUP1 SLOAD PUSH2 0x3F5 SWAP1 PUSH2 0xBEA JUMP JUMPDEST DUP1 ISZERO PUSH2 0x440 JUMPI DUP1 PUSH1 0x1F LT PUSH2 0x417 JUMPI PUSH2 0x100 DUP1 DUP4 SLOAD DIV MUL DUP4 MSTORE SWAP2 PUSH1 0x20 ADD SWAP2 PUSH2 0x440 JUMP JUMPDEST DUP3 ADD SWAP2 SWAP1 PUSH0 MSTORE PUSH1 0x20 PUSH0 KECCAK256 SWAP1 JUMPDEST DUP2 SLOAD DUP2 MSTORE SWAP1 PUSH1 0x1 ADD SWAP1 PUSH1 0x20 ADD DUP1 DUP4 GT PUSH2 0x423 JUMPI DUP3 SWAP1 SUB PUSH1 0x1F AND DUP3 ADD SWAP2 JUMPDEST POP POP POP POP POP DUP2 MSTORE PUSH1 0x20 ADD PUSH1 0x2 DUP3 ADD SLOAD DUP2 MSTORE PUSH1 0x20 ADD PUSH1 0x3 DUP3 ADD SLOAD DUP2 MSTORE POP POP SWAP1 POP SWAP3 SWAP2 POP POP JUMP JUMPDEST PUSH1 0x60 PUSH0 DUP1 DUP4 PUSH20 0xFFFFFFFFFFFFFFFFFFFFFFFFFFFFFFFFFFFFFFFF AND PUSH20 0xFFFFFFFFFFFFFFFFFFFFFFFFFFFFFFFFFFFFFFFF AND DUP2 MSTORE PUSH1 0x20 ADD SWAP1 DUP2 MSTORE PUSH1 0x20 ADD PUSH0 KECCAK256 DUP1 SLOAD DUP1 PUSH1 0x20 MUL PUSH1 0x20 ADD PUSH1 0x40 MLOAD SWAP1 DUP2 ADD PUSH1 0x40 MSTORE DUP1 SWAP3 SWAP2 SWAP1 DUP2 DUP2 MSTORE PUSH1 0x20 ADD PUSH0 SWAP1 JUMPDEST DUP3 DUP3 LT ISZERO PUSH2 0x5EA JUMPI DUP4 DUP3 SWAP1 PUSH0 MSTORE PUSH1 0x20 PUSH0 KECCAK256 SWAP1 PUSH1 0x4 MUL ADD PUSH1 0x40 MLOAD DUP1 PUSH1 0x80 ADD PUSH1 0x40 MSTORE SWAP1 DUP2 PUSH0 DUP3 ADD PUSH0 SWAP1 SLOAD SWAP1 PUSH2 0x100 EXP SWAP1 DIV PUSH20 0xFFFFFFFFFFFFFFFFFFFFFFFFFFFFFFFFFFFFFFFF AND PUSH20 0xFFFFFFFFFFFFFFFFFFFFFFFFFFFFFFFFFFFFFFFF AND PUSH20 0xFFFFFFFFFFFFFFFFFFFFFFFFFFFFFFFFFFFFFFFF AND DUP2 MSTORE PUSH1 0x20 ADD PUSH1 0x1 DUP3 ADD DUP1 SLOAD PUSH2 0x547 SWAP1 PUSH2 0xBEA JUMP JUMPDEST DUP1 PUSH1 0x1F ADD PUSH1 0x20 DUP1 SWAP2 DIV MUL PUSH1 0x20 ADD PUSH1 0x40 MLOAD SWAP1 DUP2 ADD PUSH1 0x40 MSTORE DUP1 SWAP3 SWAP2 SWAP1 DUP2 DUP2 MSTORE PUSH1 0x20 ADD DUP3 DUP1 SLOAD PUSH2 0x573 SWAP1 PUSH2 0xBEA JUMP JUMPDEST DUP1 ISZERO PUSH2 0x5BE JUMPI DUP1 PUSH1 0x1F LT PUSH2 0x595 JUMPI PUSH2 0x100 DUP1 DUP4 SLOAD DIV MUL DUP4 MSTORE SWAP2 PUSH1 0x20 ADD SWAP2 PUSH2 0x5BE JUMP JUMPDEST DUP3 ADD SWAP2 SWAP1 PUSH0 MSTORE PUSH1 0x20 PUSH0 KECCAK256 SWAP1 JUMPDEST DUP2 SLOAD DUP2 MSTORE SWAP1 PUSH1 0x1 ADD SWAP1 PUSH1 0x20 ADD DUP1 DUP4 GT PUSH2 0x5A1 JUMPI DUP3 SWAP1 SUB PUSH1 0x1F AND DUP3 ADD SWAP2 JUMPDEST POP POP POP POP POP DUP2 MSTORE PUSH1 0x20 ADD PUSH1 0x2 DUP3 ADD SLOAD DUP2 MSTORE PUSH1 0x20 ADD PUSH1 0x3 DUP3 ADD SLOAD DUP2 MSTORE POP POP DUP2 MSTORE PUSH1 0x20 ADD SWAP1 PUSH1 0x1 ADD SWAP1 PUSH2 0x4C2 JUMP JUMPDEST POP POP POP POP SWAP1 POP SWAP2 SWAP1 POP JUMP JUMPDEST PUSH1 0x40 MLOAD DUP1 PUSH1 0x80 ADD PUSH1 0x40 MSTORE DUP1 PUSH0 PUSH20 0xFFFFFFFFFFFFFFFFFFFFFFFFFFFFFFFFFFFFFFFF AND DUP2 MSTORE PUSH1 0x20 ADD PUSH1 0x60 DUP2 MSTORE PUSH1 0x20 ADD PUSH0 DUP2 MSTORE PUSH1 0x20 ADD PUSH0 DUP2 MSTORE POP SWAP1 JUMP JUMPDEST PUSH0 PUSH1 0x40 MLOAD SWAP1 POP SWAP1 JUMP JUMPDEST PUSH0 DUP1 REVERT JUMPDEST PUSH0 DUP1 REVERT JUMPDEST PUSH0 PUSH20 0xFFFFFFFFFFFFFFFFFFFFFFFFFFFFFFFFFFFFFFFF DUP3 AND SWAP1 POP SWAP2 SWAP1 POP JUMP JUMPDEST PUSH0 PUSH2 0x66A DUP3 PUSH2 0x641 JUMP JUMPDEST SWAP1 POP SWAP2 SWAP1 POP JUMP JUMPDEST PUSH2 0x67A DUP2 PUSH2 0x660 JUMP JUMPDEST DUP2 EQ PUSH2 0x684 JUMPI PUSH0 DUP1 REVERT JUMPDEST POP JUMP JUMPDEST PUSH0 DUP2 CALLDATALOAD SWAP1 POP PUSH2 0x695 DUP2 PUSH2 0x671 JUMP JUMPDEST SWAP3 SWAP2 POP POP JUMP JUMPDEST PUSH0 DUP2 SWAP1 POP SWAP2 SWAP1 POP JUMP JUMPDEST PUSH2 0x6AD DUP2 PUSH2 0x69B JUMP JUMPDEST DUP2 EQ PUSH2 0x6B7 JUMPI PUSH0 DUP1 REVERT JUMPDEST POP JUMP JUMPDEST PUSH0 DUP2 CALLDATALOAD SWAP1 POP PUSH2 0x6C8 DUP2 PUSH2 0x6A4 JUMP JUMPDEST SWAP3 SWAP2 POP POP JUMP JUMPDEST PUSH0 DUP1 PUSH1 0x40 DUP4 DUP6 SUB SLT ISZERO PUSH2 0x6E4 JUMPI PUSH2 0x6E3 PUSH2 0x639 JUMP JUMPDEST JUMPDEST PUSH0 PUSH2 0x6F1 DUP6 DUP3 DUP7 ADD PUSH2 0x687 JUMP JUMPDEST SWAP3 POP POP PUSH1 0x20 PUSH2 0x702 DUP6 DUP3 DUP7 ADD PUSH2 0x6BA JUMP JUMPDEST SWAP2 POP POP SWAP3 POP SWAP3 SWAP1 POP JUMP JUMPDEST PUSH2 0x715 DUP2 PUSH2 0x660 JUMP JUMPDEST DUP3 MSTORE POP POP JUMP JUMPDEST PUSH0 DUP2 MLOAD SWAP1 POP SWAP2 SWAP1 POP JUMP JUMPDEST PUSH0 DUP3 DUP3 MSTORE PUSH1 0x20 DUP3 ADD SWAP1 POP SWAP3 SWAP2 POP POP JUMP JUMPDEST PUSH0 JUMPDEST DUP4 DUP2 LT ISZERO PUSH2 0x752 JUMPI DUP1 DUP3 ADD MLOAD DUP2 DUP5 ADD MSTORE PUSH1 0x20 DUP2 ADD SWAP1 POP PUSH2 0x737 JUMP JUMPDEST PUSH0 DUP5 DUP5 ADD MSTORE POP POP POP POP JUMP JUMPDEST PUSH0 PUSH1 0x1F NOT PUSH1 0x1F DUP4 ADD AND SWAP1 POP SWAP2 SWAP1 POP JUMP JUMPDEST PUSH0 PUSH2 0x777 DUP3 PUSH2 0x71B JUMP JUMPDEST PUSH2 0x781 DUP2 DUP6 PUSH2 0x725 JUMP JUMPDEST SWAP4 POP PUSH2 0x791 DUP2 DUP6 PUSH1 0x20 DUP7 ADD PUSH2 0x735 JUMP JUMPDEST PUSH2 0x79A DUP2 PUSH2 0x75D JUMP JUMPDEST DUP5 ADD SWAP2 POP POP SWAP3 SWAP2 POP POP JUMP JUMPDEST PUSH2 0x7AE DUP2 PUSH2 0x69B JUMP JUMPDEST DUP3 MSTORE POP POP JUMP JUMPDEST PUSH0 PUSH1 0x80 DUP3 ADD SWAP1 POP PUSH2 0x7C7 PUSH0 DUP4 ADD DUP8 PUSH2 0x70C JUMP JUMPDEST DUP2 DUP2 SUB PUSH1 0x20 DUP4 ADD MSTORE PUSH2 0x7D9 DUP2 DUP7 PUSH2 0x76D JUMP JUMPDEST SWAP1 POP PUSH2 0x7E8 PUSH1 0x40 DUP4 ADD DUP6 PUSH2 0x7A5 JUMP JUMPDEST PUSH2 0x7F5 PUSH1 0x60 DUP4 ADD DUP5 PUSH2 0x7A5 JUMP JUMPDEST SWAP6 SWAP5 POP POP POP POP POP JUMP JUMPDEST PUSH0 DUP1 REVERT JUMPDEST PUSH0 DUP1 REVERT JUMPDEST PUSH32 0x4E487B7100000000000000000000000000000000000000000000000000000000 PUSH0 MSTORE PUSH1 0x41 PUSH1 0x4 MSTORE PUSH1 0x24 PUSH0 REVERT JUMPDEST PUSH2 0x83C DUP3 PUSH2 0x75D JUMP JUMPDEST DUP2 ADD DUP2 DUP2 LT PUSH8 0xFFFFFFFFFFFFFFFF DUP3 GT OR ISZERO PUSH2 0x85B JUMPI PUSH2 0x85A PUSH2 0x806 JUMP JUMPDEST JUMPDEST DUP1 PUSH1 0x40 MSTORE POP POP POP JUMP JUMPDEST PUSH0 PUSH2 0x86D PUSH2 0x630 JUMP JUMPDEST SWAP1 POP PUSH2 0x879 DUP3 DUP3 PUSH2 0x833 JUMP JUMPDEST SWAP2 SWAP1 POP JUMP JUMPDEST PUSH0 PUSH8 0xFFFFFFFFFFFFFFFF DUP3 GT ISZERO PUSH2 0x898 JUMPI PUSH2 0x897 PUSH2 0x806 JUMP JUMPDEST JUMPDEST PUSH2 0x8A1 DUP3 PUSH2 0x75D JUMP JUMPDEST SWAP1 POP PUSH1 0x20 DUP2 ADD SWAP1 POP SWAP2 SWAP1 POP JUMP JUMPDEST DUP3 DUP2 DUP4 CALLDATACOPY PUSH0 DUP4 DUP4 ADD MSTORE POP POP POP JUMP JUMPDEST PUSH0 PUSH2 0x8CE PUSH2 0x8C9 DUP5 PUSH2 0x87E JUMP JUMPDEST PUSH2 0x864 JUMP JUMPDEST SWAP1 POP DUP3 DUP2 MSTORE PUSH1 0x20 DUP2 ADD DUP5 DUP5 DUP5 ADD GT ISZERO PUSH2 0x8EA JUMPI PUSH2 0x8E9 PUSH2 0x802 JUMP JUMPDEST JUMPDEST PUSH2 0x8F5 DUP5 DUP3 DUP6 PUSH2 0x8AE JUMP JUMPDEST POP SWAP4 SWAP3 POP POP POP JUMP JUMPDEST PUSH0 DUP3 PUSH1 0x1F DUP4 ADD SLT PUSH2 0x911 JUMPI PUSH2 0x910 PUSH2 0x7FE JUMP JUMPDEST JUMPDEST DUP2 CALLDATALOAD PUSH2 0x921 DUP5 DUP3 PUSH1 0x20 DUP7 ADD PUSH2 0x8BC JUMP JUMPDEST SWAP2 POP POP SWAP3 SWAP2 POP POP JUMP JUMPDEST PUSH0 PUSH1 0x20 DUP3 DUP5 SUB SLT ISZERO PUSH2 0x93F JUMPI PUSH2 0x93E PUSH2 0x639 JUMP JUMPDEST JUMPDEST PUSH0 DUP3 ADD CALLDATALOAD PUSH8 0xFFFFFFFFFFFFFFFF DUP2 GT ISZERO PUSH2 0x95C JUMPI PUSH2 0x95B PUSH2 0x63D JUMP JUMPDEST JUMPDEST PUSH2 0x968 DUP5 DUP3 DUP6 ADD PUSH2 0x8FD JUMP JUMPDEST SWAP2 POP POP SWAP3 SWAP2 POP POP JUMP JUMPDEST PUSH2 0x97A DUP2 PUSH2 0x660 JUMP JUMPDEST DUP3 MSTORE POP POP JUMP JUMPDEST PUSH0 DUP3 DUP3 MSTORE PUSH1 0x20 DUP3 ADD SWAP1 POP SWAP3 SWAP2 POP POP JUMP JUMPDEST PUSH0 PUSH2 0x99A DUP3 PUSH2 0x71B JUMP JUMPDEST PUSH2 0x9A4 DUP2 DUP6 PUSH2 0x980 JUMP JUMPDEST SWAP4 POP PUSH2 0x9B4 DUP2 DUP6 PUSH1 0x20 DUP7 ADD PUSH2 0x735 JUMP JUMPDEST PUSH2 0x9BD DUP2 PUSH2 0x75D JUMP JUMPDEST DUP5 ADD SWAP2 POP POP SWAP3 SWAP2 POP POP JUMP JUMPDEST PUSH2 0x9D1 DUP2 PUSH2 0x69B JUMP JUMPDEST DUP3 MSTORE POP POP JUMP JUMPDEST PUSH0 PUSH1 0x80 DUP4 ADD PUSH0 DUP4 ADD MLOAD PUSH2 0x9EC PUSH0 DUP7 ADD DUP3 PUSH2 0x971 JUMP JUMPDEST POP PUSH1 0x20 DUP4 ADD MLOAD DUP5 DUP3 SUB PUSH1 0x20 DUP7 ADD MSTORE PUSH2 0xA04 DUP3 DUP3 PUSH2 0x990 JUMP JUMPDEST SWAP2 POP POP PUSH1 0x40 DUP4 ADD MLOAD PUSH2 0xA19 PUSH1 0x40 DUP7 ADD DUP3 PUSH2 0x9C8 JUMP JUMPDEST POP PUSH1 0x60 DUP4 ADD MLOAD PUSH2 0xA2C PUSH1 0x60 DUP7 ADD DUP3 PUSH2 0x9C8 JUMP JUMPDEST POP DUP1 SWAP2 POP POP SWAP3 SWAP2 POP POP JUMP JUMPDEST PUSH0 PUSH1 0x20 DUP3 ADD SWAP1 POP DUP2 DUP2 SUB PUSH0 DUP4 ADD MSTORE PUSH2 0xA4F DUP2 DUP5 PUSH2 0x9D7 JUMP JUMPDEST SWAP1 POP SWAP3 SWAP2 POP POP JUMP JUMPDEST PUSH0 PUSH1 0x20 DUP3 DUP5 SUB SLT ISZERO PUSH2 0xA6C JUMPI PUSH2 0xA6B PUSH2 0x639 JUMP JUMPDEST JUMPDEST PUSH0 PUSH2 0xA79 DUP5 DUP3 DUP6 ADD PUSH2 0x687 JUMP JUMPDEST SWAP2 POP POP SWAP3 SWAP2 POP POP JUMP JUMPDEST PUSH0 DUP2 MLOAD SWAP1 POP SWAP2 SWAP1 POP JUMP JUMPDEST PUSH0 DUP3 DUP3 MSTORE PUSH1 0x20 DUP3 ADD SWAP1 POP SWAP3 SWAP2 POP POP JUMP JUMPDEST PUSH0 DUP2 SWAP1 POP PUSH1 0x20 DUP3 ADD SWAP1 POP SWAP2 SWAP1 POP JUMP JUMPDEST PUSH0 PUSH1 0x80 DUP4 ADD PUSH0 DUP4 ADD MLOAD PUSH2 0xAC0 PUSH0 DUP7 ADD DUP3 PUSH2 0x971 JUMP JUMPDEST POP PUSH1 0x20 DUP4 ADD MLOAD DUP5 DUP3 SUB PUSH1 0x20 DUP7 ADD MSTORE PUSH2 0xAD8 DUP3 DUP3 PUSH2 0x990 JUMP JUMPDEST SWAP2 POP POP PUSH1 0x40 DUP4 ADD MLOAD PUSH2 0xAED PUSH1 0x40 DUP7 ADD DUP3 PUSH2 0x9C8 JUMP JUMPDEST POP PUSH1 0x60 DUP4 ADD MLOAD PUSH2 0xB00 PUSH1 0x60 DUP7 ADD DUP3 PUSH2 0x9C8 JUMP JUMPDEST POP DUP1 SWAP2 POP POP SWAP3 SWAP2 POP POP JUMP JUMPDEST PUSH0 PUSH2 0xB16 DUP4 DUP4 PUSH2 0xAAB JUMP JUMPDEST SWAP1 POP SWAP3 SWAP2 POP POP JUMP JUMPDEST PUSH0 PUSH1 0x20 DUP3 ADD SWAP1 POP SWAP2 SWAP1 POP JUMP JUMPDEST PUSH0 PUSH2 0xB34 DUP3 PUSH2 0xA82 JUMP JUMPDEST PUSH2 0xB3E DUP2 DUP6 PUSH2 0xA8C JUMP JUMPDEST SWAP4 POP DUP4 PUSH1 0x20 DUP3 MUL DUP6 ADD PUSH2 0xB50 DUP6 PUSH2 0xA9C JUMP JUMPDEST DUP1 PUSH0 JUMPDEST DUP6 DUP2 LT ISZERO PUSH2 0xB8B JUMPI DUP5 DUP5 SUB DUP10 MSTORE DUP2 MLOAD PUSH2 0xB6C DUP6 DUP3 PUSH2 0xB0B JUMP JUMPDEST SWAP5 POP PUSH2 0xB77 DUP4 PUSH2 0xB1E JUMP JUMPDEST SWAP3 POP PUSH1 0x20 DUP11 ADD SWAP10 POP POP PUSH1 0x1 DUP2 ADD SWAP1 POP PUSH2 0xB53 JUMP JUMPDEST POP DUP3 SWAP8 POP DUP8 SWAP6 POP POP POP POP POP POP SWAP3 SWAP2 POP POP JUMP JUMPDEST PUSH0 PUSH1 0x20 DUP3 ADD SWAP1 POP DUP2 DUP2 SUB PUSH0 DUP4 ADD MSTORE PUSH2 0xBB5 DUP2 DUP5 PUSH2 0xB2A JUMP JUMPDEST SWAP1 POP SWAP3 SWAP2 POP POP JUMP JUMPDEST PUSH32 0x4E487B7100000000000000000000000000000000000000000000000000000000 PUSH0 MSTORE PUSH1 0x22 PUSH1 0x4 MSTORE PUSH1 0x24 PUSH0 REVERT JUMPDEST PUSH0 PUSH1 0x2 DUP3 DIV SWAP1 POP PUSH1 0x1 DUP3 AND DUP1 PUSH2 0xC01 JUMPI PUSH1 0x7F DUP3 AND SWAP2 POP JUMPDEST PUSH1 0x20 DUP3 LT DUP2 SUB PUSH2 0xC14 JUMPI PUSH2 0xC13 PUSH2 0xBBD JUMP JUMPDEST JUMPDEST POP SWAP2 SWAP1 POP JUMP JUMPDEST PUSH0 DUP2 SWAP1 POP DUP2 PUSH0 MSTORE PUSH1 0x20 PUSH0 KECCAK256 SWAP1 POP SWAP2 SWAP1 POP JUMP JUMPDEST PUSH0 PUSH1 0x20 PUSH1 0x1F DUP4 ADD DIV SWAP1 POP SWAP2 SWAP1 POP JUMP JUMPDEST PUSH0 DUP3 DUP3 SHL SWAP1 POP SWAP3 SWAP2 POP POP JUMP JUMPDEST PUSH0 PUSH1 0x8 DUP4 MUL PUSH2 0xC76 PUSH32 0xFFFFFFFFFFFFFFFFFFFFFFFFFFFFFFFFFFFFFFFFFFFFFFFFFFFFFFFFFFFFFFFF DUP3 PUSH2 0xC3B JUMP JUMPDEST PUSH2 0xC80 DUP7 DUP4 PUSH2 0xC3B JUMP JUMPDEST SWAP6 POP DUP1 NOT DUP5 AND SWAP4 POP DUP1 DUP7 AND DUP5 OR SWAP3 POP POP POP SWAP4 SWAP3 POP POP POP JUMP JUMPDEST PUSH0 DUP2 SWAP1 POP SWAP2 SWAP1 POP JUMP JUMPDEST PUSH0 PUSH2 0xCBB PUSH2 0xCB6 PUSH2 0xCB1 DUP5 PUSH2 0x69B JUMP JUMPDEST PUSH2 0xC98 JUMP JUMPDEST PUSH2 0x69B JUMP JUMPDEST SWAP1 POP SWAP2 SWAP1 POP JUMP JUMPDEST PUSH0 DUP2 SWAP1 POP SWAP2 SWAP1 POP JUMP JUMPDEST PUSH2 0xCD4 DUP4 PUSH2 0xCA1 JUMP JUMPDEST PUSH2 0xCE8 PUSH2 0xCE0 DUP3 PUSH2 0xCC2 JUMP JUMPDEST DUP5 DUP5 SLOAD PUSH2 0xC47 JUMP JUMPDEST DUP3 SSTORE POP POP POP POP JUMP JUMPDEST PUSH0 SWAP1 JUMP JUMPDEST PUSH2 0xCFC PUSH2 0xCF0 JUMP JUMPDEST PUSH2 0xD07 DUP2 DUP5 DUP5 PUSH2 0xCCB JUMP JUMPDEST POP POP POP JUMP JUMPDEST JUMPDEST DUP2 DUP2 LT ISZERO PUSH2 0xD2A JUMPI PUSH2 0xD1F PUSH0 DUP3 PUSH2 0xCF4 JUMP JUMPDEST PUSH1 0x1 DUP2 ADD SWAP1 POP PUSH2 0xD0D JUMP JUMPDEST POP POP JUMP JUMPDEST PUSH1 0x1F DUP3 GT ISZERO PUSH2 0xD6F JUMPI PUSH2 0xD40 DUP2 PUSH2 0xC1A JUMP JUMPDEST PUSH2 0xD49 DUP5 PUSH2 0xC2C JUMP JUMPDEST DUP2 ADD PUSH1 0x20 DUP6 LT ISZERO PUSH2 0xD58 JUMPI DUP2 SWAP1 POP JUMPDEST PUSH2 0xD6C PUSH2 0xD64 DUP6 PUSH2 0xC2C JUMP JUMPDEST DUP4 ADD DUP3 PUSH2 0xD0C JUMP JUMPDEST POP POP JUMPDEST POP POP POP JUMP JUMPDEST PUSH0 DUP3 DUP3 SHR SWAP1 POP SWAP3 SWAP2 POP POP JUMP JUMPDEST PUSH0 PUSH2 0xD8F PUSH0 NOT DUP5 PUSH1 0x8 MUL PUSH2 0xD74 JUMP JUMPDEST NOT DUP1 DUP4 AND SWAP2 POP POP SWAP3 SWAP2 POP POP JUMP JUMPDEST PUSH0 PUSH2 0xDA7 DUP4 DUP4 PUSH2 0xD80 JUMP JUMPDEST SWAP2 POP DUP3 PUSH1 0x2 MUL DUP3 OR SWAP1 POP SWAP3 SWAP2 POP POP JUMP JUMPDEST PUSH2 0xDC0 DUP3 PUSH2 0x71B JUMP JUMPDEST PUSH8 0xFFFFFFFFFFFFFFFF DUP2 GT ISZERO PUSH2 0xDD9 JUMPI PUSH2 0xDD8 PUSH2 0x806 JUMP JUMPDEST JUMPDEST PUSH2 0xDE3 DUP3 SLOAD PUSH2 0xBEA JUMP JUMPDEST PUSH2 0xDEE DUP3 DUP3 DUP6 PUSH2 0xD2E JUMP JUMPDEST PUSH0 PUSH1 0x20 SWAP1 POP PUSH1 0x1F DUP4 GT PUSH1 0x1 DUP2 EQ PUSH2 0xE1F JUMPI PUSH0 DUP5 ISZERO PUSH2 0xE0D JUMPI DUP3 DUP8 ADD MLOAD SWAP1 POP JUMPDEST PUSH2 0xE17 DUP6 DUP3 PUSH2 0xD9C JUMP JUMPDEST DUP7 SSTORE POP PUSH2 0xE7E JUMP JUMPDEST PUSH1 0x1F NOT DUP5 AND PUSH2 0xE2D DUP7 PUSH2 0xC1A JUMP JUMPDEST PUSH0 JUMPDEST DUP3 DUP2 LT ISZERO PUSH2 0xE54 JUMPI DUP5 DUP10 ADD MLOAD DUP3 SSTORE PUSH1 0x1 DUP3 ADD SWAP2 POP PUSH1 0x20 DUP6 ADD SWAP5 POP PUSH1 0x20 DUP2 ADD SWAP1 POP PUSH2 0xE2F JUMP JUMPDEST DUP7 DUP4 LT ISZERO PUSH2 0xE71 JUMPI DUP5 DUP10 ADD MLOAD PUSH2 0xE6D PUSH1 0x1F DUP10 AND DUP3 PUSH2 0xD80 JUMP JUMPDEST DUP4 SSTORE POP JUMPDEST PUSH1 0x1 PUSH1 0x2 DUP9 MUL ADD DUP9 SSTORE POP POP POP JUMPDEST POP POP POP POP POP POP JUMP JUMPDEST PUSH32 0x4E487B7100000000000000000000000000000000000000000000000000000000 PUSH0 MSTORE PUSH1 0x32 PUSH1 0x4 MSTORE PUSH1 0x24 PUSH0 REVERT INVALID LOG2 PUSH5 0x6970667358 0x22 SLT KECCAK256 LOG3 PUSH22 0x44AAAFBD98285DFD15BA98E5BC9910F8091C516ACCB5 ISZERO MSIZE PUSH25 0x7B930B6DA464736F6C63430008160033000000000000000000 "
				},
				"gasEstimates": {
					"creation": {
						"codeDepositCost": "763400",
						"executionCost": "797",
						"totalCost": "764197"
					},
					"external": {
						"CreateTweet(string)": "infinite",
						"GetAllTweet(address)": "infinite",
						"GetTweet(address,uint256)": "infinite",
						"tweets(address,uint256)": "infinite"
					}
				},
				"methodIdentifiers": {
					"CreateTweet(string)": "2a1f1d06",
					"GetAllTweet(address)": "49e5fdee",
					"GetTweet(address,uint256)": "37f36a4c",
					"tweets(address,uint256)": "05a1b4a9"
				}
			},
			"storageLayout": {
				"storage": [
					{
						"astId": 16,
						"contract": "contracts/struct.sol:Twitter",
						"label": "tweets",
						"offset": 0,
						"slot": "0",
						"type": "t_mapping(t_address,t_array(t_struct(Tweet)10_storage)dyn_storage)"
					}
				],
				"types": {
					"t_address": {
						"encoding": "inplace",
						"label": "address",
						"numberOfBytes": "20"
					},
					"t_array(t_struct(Tweet)10_storage)dyn_storage": {
						"base": "t_struct(Tweet)10_storage",
						"encoding": "dynamic_array",
						"label": "struct Twitter.Tweet[]",
						"numberOfBytes": "32"
					},
					"t_mapping(t_address,t_array(t_struct(Tweet)10_storage)dyn_storage)": {
						"encoding": "mapping",
						"key": "t_address",
						"label": "mapping(address => struct Twitter.Tweet[])",
						"numberOfBytes": "32",
						"value": "t_array(t_struct(Tweet)10_storage)dyn_storage"
					},
					"t_string_storage": {
						"encoding": "bytes",
						"label": "string",
						"numberOfBytes": "32"
					},
					"t_struct(Tweet)10_storage": {
						"encoding": "inplace",
						"label": "struct Twitter.Tweet",
						"members": [
							{
								"astId": 3,
								"contract": "contracts/struct.sol:Twitter",
								"label": "author",
								"offset": 0,
								"slot": "0",
								"type": "t_address"
							},
							{
								"astId": 5,
								"contract": "contracts/struct.sol:Twitter",
								"label": "content",
								"offset": 0,
								"slot": "1",
								"type": "t_string_storage"
							},
							{
								"astId": 7,
								"contract": "contracts/struct.sol:Twitter",
								"label": "timestamp",
								"offset": 0,
								"slot": "2",
								"type": "t_uint256"
							},
							{
								"astId": 9,
								"contract": "contracts/struct.sol:Twitter",
								"label": "likes",
								"offset": 0,
								"slot": "3",
								"type": "t_uint256"
							}
						],
						"numberOfBytes": "128"
					},
					"t_uint256": {
						"encoding": "inplace",
						"label": "uint256",
						"numberOfBytes": "32"
					}
				}
			},
			"userdoc": {
				"kind": "user",
				"methods": {},
				"version": 1
			}
		}
	}
}