{
	"contracts/tweetArray.sol": {
		"TweetOfArray": {
			"abi": [
				{
					"inputs": [
						{
							"internalType": "string",
							"name": "_tweet",
							"type": "string"
						}
					],
					"name": "CreateTweets",
					"outputs": [],
					"stateMutability": "nonpayable",
					"type": "function"
				},
				{
					"inputs": [
						{
							"internalType": "address",
							"name": "_owner",
							"type": "address"
						}
					],
					"name": "GetAllTweets",
					"outputs": [
						{
							"internalType": "string[]",
							"name": "",
							"type": "string[]"
						}
					],
					"stateMutability": "view",
					"type": "function"
				},
				{
					"inputs": [
						{
							"internalType": "address",
							"name": "_owner",
							"type": "address"
						},
						{
							"internalType": "uint256",
							"name": "_id",
							"type": "uint256"
						}
					],
					"name": "GetTweet",
					"outputs": [
						{
							"internalType": "string",
							"name": "",
							"type": "string"
						}
					],
					"stateMutability": "view",
					"type": "function"
				},
				{
					"inputs": [
						{
							"internalType": "address",
							"name": "",
							"type": "address"
						},
						{
							"internalType": "uint256",
							"name": "",
							"type": "uint256"
						}
					],
					"name": "tweets",
					"outputs": [
						{
							"internalType": "string",
							"name": "",
							"type": "string"
						}
					],
					"stateMutability": "view",
					"type": "function"
				}
			],
			"devdoc": {
				"kind": "dev",
				"methods": {},
				"version": 1
			},
			"evm": {
				"assembly": "    /* \"contracts/tweetArray.sol\":58:494  contract TweetOfArray{... */\n  mstore(0x40, 0x80)\n  callvalue\n  dup1\n  iszero\n  tag_1\n  jumpi\n  0x00\n  dup1\n  revert\ntag_1:\n  pop\n  dataSize(sub_0)\n  dup1\n  dataOffset(sub_0)\n  0x00\n  codecopy\n  0x00\n  return\nstop\n\nsub_0: assembly {\n        /* \"contracts/tweetArray.sol\":58:494  contract TweetOfArray{... */\n      mstore(0x40, 0x80)\n      callvalue\n      dup1\n      iszero\n      tag_1\n      jumpi\n      0x00\n      dup1\n      revert\n    tag_1:\n      pop\n      jumpi(tag_2, lt(calldatasize, 0x04))\n      shr(0xe0, calldataload(0x00))\n      dup1\n      0x015b8c45\n      eq\n      tag_3\n      jumpi\n      dup1\n      0x05a1b4a9\n      eq\n      tag_4\n      jumpi\n      dup1\n      0x1b3f3bec\n      eq\n      tag_5\n      jumpi\n      dup1\n      0x37f36a4c\n      eq\n      tag_6\n      jumpi\n    tag_2:\n      0x00\n      dup1\n      revert\n        /* \"contracts/tweetArray.sol\":376:491  function GetAllTweets(address _owner) public view returns (string[] memory){... */\n    tag_3:\n      tag_7\n      0x04\n      dup1\n      calldatasize\n      sub\n      dup2\n      add\n      swap1\n      tag_8\n      swap2\n      swap1\n      tag_9\n      jump\t// in\n    tag_8:\n      tag_10\n      jump\t// in\n    tag_7:\n      mload(0x40)\n      tag_11\n      swap2\n      swap1\n      tag_12\n      jump\t// in\n    tag_11:\n      mload(0x40)\n      dup1\n      swap2\n      sub\n      swap1\n      return\n        /* \"contracts/tweetArray.sol\":86:126  mapping(address=>string[]) public tweets */\n    tag_4:\n      tag_13\n      0x04\n      dup1\n      calldatasize\n      sub\n      dup2\n      add\n      swap1\n      tag_14\n      swap2\n      swap1\n      tag_15\n      jump\t// in\n    tag_14:\n      tag_16\n      jump\t// in\n    tag_13:\n      mload(0x40)\n      tag_17\n      swap2\n      swap1\n      tag_18\n      jump\t// in\n    tag_17:\n      mload(0x40)\n      dup1\n      swap2\n      sub\n      swap1\n      return\n        /* \"contracts/tweetArray.sol\":133:234  function CreateTweets(string memory _tweet) public {... */\n    tag_5:\n      tag_19\n      0x04\n      dup1\n      calldatasize\n      sub\n      dup2\n      add\n      swap1\n      tag_20\n      swap2\n      swap1\n      tag_21\n      jump\t// in\n    tag_20:\n      tag_22\n      jump\t// in\n    tag_19:\n      stop\n        /* \"contracts/tweetArray.sol\":240:370  function GetTweet(address _owner, uint _id) public view returns (string memory)... */\n    tag_6:\n      tag_23\n      0x04\n      dup1\n      calldatasize\n      sub\n      dup2\n      add\n      swap1\n      tag_24\n      swap2\n      swap1\n      tag_15\n      jump\t// in\n    tag_24:\n      tag_25\n      jump\t// in\n    tag_23:\n      mload(0x40)\n      tag_26\n      swap2\n      swap1\n      tag_18\n      jump\t// in\n    tag_26:\n      mload(0x40)\n      dup1\n      swap2\n      sub\n      swap1\n      return\n        /* \"contracts/tweetArray.sol\":376:491  function GetAllTweets(address _owner) public view returns (string[] memory){... */\n    tag_10:\n        /* \"contracts/tweetArray.sol\":435:450  string[] memory */\n      0x60\n        /* \"contracts/tweetArray.sol\":469:475  tweets */\n      0x00\n        /* \"contracts/tweetArray.sol\":469:483  tweets[_owner] */\n      dup1\n        /* \"contracts/tweetArray.sol\":476:482  _owner */\n      dup4\n        /* \"contracts/tweetArray.sol\":469:483  tweets[_owner] */\n      0xffffffffffffffffffffffffffffffffffffffff\n      and\n      0xffffffffffffffffffffffffffffffffffffffff\n      and\n      dup2\n      mstore\n      0x20\n      add\n      swap1\n      dup2\n      mstore\n      0x20\n      add\n      0x00\n      keccak256\n        /* \"contracts/tweetArray.sol\":462:483  return tweets[_owner] */\n      dup1\n      sload\n      dup1\n      0x20\n      mul\n      0x20\n      add\n      mload(0x40)\n      swap1\n      dup2\n      add\n      0x40\n      mstore\n      dup1\n      swap3\n      swap2\n      swap1\n      dup2\n      dup2\n      mstore\n      0x20\n      add\n      0x00\n      swap1\n    tag_28:\n      dup3\n      dup3\n      lt\n      iszero\n      tag_29\n      jumpi\n      dup4\n      dup3\n      swap1\n      0x00\n      mstore\n      keccak256(0x00, 0x20)\n      add\n      dup1\n      sload\n      tag_31\n      swap1\n      tag_32\n      jump\t// in\n    tag_31:\n      dup1\n      0x1f\n      add\n      0x20\n      dup1\n      swap2\n      div\n      mul\n      0x20\n      add\n      mload(0x40)\n      swap1\n      dup2\n      add\n      0x40\n      mstore\n      dup1\n      swap3\n      swap2\n      swap1\n      dup2\n      dup2\n      mstore\n      0x20\n      add\n      dup3\n      dup1\n      sload\n      tag_33\n      swap1\n      tag_32\n      jump\t// in\n    tag_33:\n      dup1\n      iszero\n      tag_34\n      jumpi\n      dup1\n      0x1f\n      lt\n      tag_35\n      jumpi\n      0x0100\n      dup1\n      dup4\n      sload\n      div\n      mul\n      dup4\n      mstore\n      swap2\n      0x20\n      add\n      swap2\n      jump(tag_34)\n    tag_35:\n      dup3\n      add\n      swap2\n      swap1\n      0x00\n      mstore\n      keccak256(0x00, 0x20)\n      swap1\n    tag_36:\n      dup2\n      sload\n      dup2\n      mstore\n      swap1\n      0x01\n      add\n      swap1\n      0x20\n      add\n      dup1\n      dup4\n      gt\n      tag_36\n      jumpi\n      dup3\n      swap1\n      sub\n      0x1f\n      and\n      dup3\n      add\n      swap2\n    tag_34:\n      pop\n      pop\n      pop\n      pop\n      pop\n      dup2\n      mstore\n      0x20\n      add\n      swap1\n      0x01\n      add\n      swap1\n      jump(tag_28)\n    tag_29:\n      pop\n      pop\n      pop\n      pop\n      swap1\n      pop\n        /* \"contracts/tweetArray.sol\":376:491  function GetAllTweets(address _owner) public view returns (string[] memory){... */\n      swap2\n      swap1\n      pop\n      jump\t// out\n        /* \"contracts/tweetArray.sol\":86:126  mapping(address=>string[]) public tweets */\n    tag_16:\n      mstore(0x20, 0x00)\n      dup2\n      0x00\n      mstore\n      keccak256(0x00, 0x40)\n      dup2\n      dup2\n      sload\n      dup2\n      lt\n      tag_37\n      jumpi\n      0x00\n      dup1\n      revert\n    tag_37:\n      swap1\n      0x00\n      mstore\n      keccak256(0x00, 0x20)\n      add\n      0x00\n      swap2\n      pop\n      swap2\n      pop\n      pop\n      dup1\n      sload\n      tag_39\n      swap1\n      tag_32\n      jump\t// in\n    tag_39:\n      dup1\n      0x1f\n      add\n      0x20\n      dup1\n      swap2\n      div\n      mul\n      0x20\n      add\n      mload(0x40)\n      swap1\n      dup2\n      add\n      0x40\n      mstore\n      dup1\n      swap3\n      swap2\n      swap1\n      dup2\n      dup2\n      mstore\n      0x20\n      add\n      dup3\n      dup1\n      sload\n      tag_40\n      swap1\n      tag_32\n      jump\t// in\n    tag_40:\n      dup1\n      iszero\n      tag_41\n      jumpi\n      dup1\n      0x1f\n      lt\n      tag_42\n      jumpi\n      0x0100\n      dup1\n      dup4\n      sload\n      div\n      mul\n      dup4\n      mstore\n      swap2\n      0x20\n      add\n      swap2\n      jump(tag_41)\n    tag_42:\n      dup3\n      add\n      swap2\n      swap1\n      0x00\n      mstore\n      keccak256(0x00, 0x20)\n      swap1\n    tag_43:\n      dup2\n      sload\n      dup2\n      mstore\n      swap1\n      0x01\n      add\n      swap1\n      0x20\n      add\n      dup1\n      dup4\n      gt\n      tag_43\n      jumpi\n      dup3\n      swap1\n      sub\n      0x1f\n      and\n      dup3\n      add\n      swap2\n    tag_41:\n      pop\n      pop\n      pop\n      pop\n      pop\n      dup2\n      jump\t// out\n        /* \"contracts/tweetArray.sol\":133:234  function CreateTweets(string memory _tweet) public {... */\n    tag_22:\n        /* \"contracts/tweetArray.sol\":195:201  tweets */\n      0x00\n        /* \"contracts/tweetArray.sol\":195:213  tweets[msg.sender] */\n      dup1\n        /* \"contracts/tweetArray.sol\":202:212  msg.sender */\n      caller\n        /* \"contracts/tweetArray.sol\":195:213  tweets[msg.sender] */\n      0xffffffffffffffffffffffffffffffffffffffff\n      and\n      0xffffffffffffffffffffffffffffffffffffffff\n      and\n      dup2\n      mstore\n      0x20\n      add\n      swap1\n      dup2\n      mstore\n      0x20\n      add\n      0x00\n      keccak256\n        /* \"contracts/tweetArray.sol\":219:225  _tweet */\n      dup2\n        /* \"contracts/tweetArray.sol\":195:226  tweets[msg.sender].push(_tweet) */\n      swap1\n      dup1\n      0x01\n      dup2\n      sload\n      add\n      dup1\n      dup3\n      sstore\n      dup1\n      swap2\n      pop\n      pop\n      0x01\n      swap1\n      sub\n      swap1\n      0x00\n      mstore\n      keccak256(0x00, 0x20)\n      add\n      0x00\n      swap1\n      swap2\n      swap1\n      swap2\n      swap1\n      swap2\n      pop\n      swap1\n      dup2\n      tag_46\n      swap2\n      swap1\n      tag_47\n      jump\t// in\n    tag_46:\n      pop\n        /* \"contracts/tweetArray.sol\":133:234  function CreateTweets(string memory _tweet) public {... */\n      pop\n      jump\t// out\n        /* \"contracts/tweetArray.sol\":240:370  function GetTweet(address _owner, uint _id) public view returns (string memory)... */\n    tag_25:\n        /* \"contracts/tweetArray.sol\":305:318  string memory */\n      0x60\n        /* \"contracts/tweetArray.sol\":343:349  tweets */\n      0x00\n        /* \"contracts/tweetArray.sol\":343:357  tweets[_owner] */\n      dup1\n        /* \"contracts/tweetArray.sol\":350:356  _owner */\n      dup5\n        /* \"contracts/tweetArray.sol\":343:357  tweets[_owner] */\n      0xffffffffffffffffffffffffffffffffffffffff\n      and\n      0xffffffffffffffffffffffffffffffffffffffff\n      and\n      dup2\n      mstore\n      0x20\n      add\n      swap1\n      dup2\n      mstore\n      0x20\n      add\n      0x00\n      keccak256\n        /* \"contracts/tweetArray.sol\":358:361  _id */\n      dup3\n        /* \"contracts/tweetArray.sol\":343:362  tweets[_owner][_id] */\n      dup2\n      sload\n      dup2\n      lt\n      tag_49\n      jumpi\n      tag_50\n      tag_51\n      jump\t// in\n    tag_50:\n    tag_49:\n      swap1\n      0x00\n      mstore\n      keccak256(0x00, 0x20)\n      add\n        /* \"contracts/tweetArray.sol\":336:362  return tweets[_owner][_id] */\n      dup1\n      sload\n      tag_53\n      swap1\n      tag_32\n      jump\t// in\n    tag_53:\n      dup1\n      0x1f\n      add\n      0x20\n      dup1\n      swap2\n      div\n      mul\n      0x20\n      add\n      mload(0x40)\n      swap1\n      dup2\n      add\n      0x40\n      mstore\n      dup1\n      swap3\n      swap2\n      swap1\n      dup2\n      dup2\n      mstore\n      0x20\n      add\n      dup3\n      dup1\n      sload\n      tag_54\n      swap1\n      tag_32\n      jump\t// in\n    tag_54:\n      dup1\n      iszero\n      tag_55\n      jumpi\n      dup1\n      0x1f\n      lt\n      tag_56\n      jumpi\n      0x0100\n      dup1\n      dup4\n      sload\n      div\n      mul\n      dup4\n      mstore\n      swap2\n      0x20\n      add\n      swap2\n      jump(tag_55)\n    tag_56:\n      dup3\n      add\n      swap2\n      swap1\n      0x00\n      mstore\n      keccak256(0x00, 0x20)\n      swap1\n    tag_57:\n      dup2\n      sload\n      dup2\n      mstore\n      swap1\n      0x01\n      add\n      swap1\n      0x20\n      add\n      dup1\n      dup4\n      gt\n      tag_57\n      jumpi\n      dup3\n      swap1\n      sub\n      0x1f\n      and\n      dup3\n      add\n      swap2\n    tag_55:\n      pop\n      pop\n      pop\n      pop\n      pop\n      swap1\n      pop\n        /* \"contracts/tweetArray.sol\":240:370  function GetTweet(address _owner, uint _id) public view returns (string memory)... */\n      swap3\n      swap2\n      pop\n      pop\n      jump\t// out\n        /* \"#utility.yul\":7:82   */\n    tag_58:\n        /* \"#utility.yul\":40:46   */\n      0x00\n        /* \"#utility.yul\":73:75   */\n      0x40\n        /* \"#utility.yul\":67:76   */\n      mload\n        /* \"#utility.yul\":57:76   */\n      swap1\n      pop\n        /* \"#utility.yul\":7:82   */\n      swap1\n      jump\t// out\n        /* \"#utility.yul\":88:205   */\n    tag_59:\n        /* \"#utility.yul\":197:198   */\n      0x00\n        /* \"#utility.yul\":194:195   */\n      dup1\n        /* \"#utility.yul\":187:199   */\n      revert\n        /* \"#utility.yul\":211:328   */\n    tag_60:\n        /* \"#utility.yul\":320:321   */\n      0x00\n        /* \"#utility.yul\":317:318   */\n      dup1\n        /* \"#utility.yul\":310:322   */\n      revert\n        /* \"#utility.yul\":334:460   */\n    tag_61:\n        /* \"#utility.yul\":371:378   */\n      0x00\n        /* \"#utility.yul\":411:453   */\n      0xffffffffffffffffffffffffffffffffffffffff\n        /* \"#utility.yul\":404:409   */\n      dup3\n        /* \"#utility.yul\":400:454   */\n      and\n        /* \"#utility.yul\":389:454   */\n      swap1\n      pop\n        /* \"#utility.yul\":334:460   */\n      swap2\n      swap1\n      pop\n      jump\t// out\n        /* \"#utility.yul\":466:562   */\n    tag_62:\n        /* \"#utility.yul\":503:510   */\n      0x00\n        /* \"#utility.yul\":532:556   */\n      tag_112\n        /* \"#utility.yul\":550:555   */\n      dup3\n        /* \"#utility.yul\":532:556   */\n      tag_61\n      jump\t// in\n    tag_112:\n        /* \"#utility.yul\":521:556   */\n      swap1\n      pop\n        /* \"#utility.yul\":466:562   */\n      swap2\n      swap1\n      pop\n      jump\t// out\n        /* \"#utility.yul\":568:690   */\n    tag_63:\n        /* \"#utility.yul\":641:665   */\n      tag_114\n        /* \"#utility.yul\":659:664   */\n      dup2\n        /* \"#utility.yul\":641:665   */\n      tag_62\n      jump\t// in\n    tag_114:\n        /* \"#utility.yul\":634:639   */\n      dup2\n        /* \"#utility.yul\":631:666   */\n      eq\n        /* \"#utility.yul\":621:684   */\n      tag_115\n      jumpi\n        /* \"#utility.yul\":680:681   */\n      0x00\n        /* \"#utility.yul\":677:678   */\n      dup1\n        /* \"#utility.yul\":670:682   */\n      revert\n        /* \"#utility.yul\":621:684   */\n    tag_115:\n        /* \"#utility.yul\":568:690   */\n      pop\n      jump\t// out\n        /* \"#utility.yul\":696:835   */\n    tag_64:\n        /* \"#utility.yul\":742:747   */\n      0x00\n        /* \"#utility.yul\":780:786   */\n      dup2\n        /* \"#utility.yul\":767:787   */\n      calldataload\n        /* \"#utility.yul\":758:787   */\n      swap1\n      pop\n        /* \"#utility.yul\":796:829   */\n      tag_117\n        /* \"#utility.yul\":823:828   */\n      dup2\n        /* \"#utility.yul\":796:829   */\n      tag_63\n      jump\t// in\n    tag_117:\n        /* \"#utility.yul\":696:835   */\n      swap3\n      swap2\n      pop\n      pop\n      jump\t// out\n        /* \"#utility.yul\":841:1170   */\n    tag_9:\n        /* \"#utility.yul\":900:906   */\n      0x00\n        /* \"#utility.yul\":949:951   */\n      0x20\n        /* \"#utility.yul\":937:946   */\n      dup3\n        /* \"#utility.yul\":928:935   */\n      dup5\n        /* \"#utility.yul\":924:947   */\n      sub\n        /* \"#utility.yul\":920:952   */\n      slt\n        /* \"#utility.yul\":917:1036   */\n      iszero\n      tag_119\n      jumpi\n        /* \"#utility.yul\":955:1034   */\n      tag_120\n      tag_59\n      jump\t// in\n    tag_120:\n        /* \"#utility.yul\":917:1036   */\n    tag_119:\n        /* \"#utility.yul\":1075:1076   */\n      0x00\n        /* \"#utility.yul\":1100:1153   */\n      tag_121\n        /* \"#utility.yul\":1145:1152   */\n      dup5\n        /* \"#utility.yul\":1136:1142   */\n      dup3\n        /* \"#utility.yul\":1125:1134   */\n      dup6\n        /* \"#utility.yul\":1121:1143   */\n      add\n        /* \"#utility.yul\":1100:1153   */\n      tag_64\n      jump\t// in\n    tag_121:\n        /* \"#utility.yul\":1090:1153   */\n      swap2\n      pop\n        /* \"#utility.yul\":1046:1163   */\n      pop\n        /* \"#utility.yul\":841:1170   */\n      swap3\n      swap2\n      pop\n      pop\n      jump\t// out\n        /* \"#utility.yul\":1176:1300   */\n    tag_65:\n        /* \"#utility.yul\":1253:1259   */\n      0x00\n        /* \"#utility.yul\":1287:1292   */\n      dup2\n        /* \"#utility.yul\":1281:1293   */\n      mload\n        /* \"#utility.yul\":1271:1293   */\n      swap1\n      pop\n        /* \"#utility.yul\":1176:1300   */\n      swap2\n      swap1\n      pop\n      jump\t// out\n        /* \"#utility.yul\":1306:1500   */\n    tag_66:\n        /* \"#utility.yul\":1415:1426   */\n      0x00\n        /* \"#utility.yul\":1449:1455   */\n      dup3\n        /* \"#utility.yul\":1444:1447   */\n      dup3\n        /* \"#utility.yul\":1437:1456   */\n      mstore\n        /* \"#utility.yul\":1489:1493   */\n      0x20\n        /* \"#utility.yul\":1484:1487   */\n      dup3\n        /* \"#utility.yul\":1480:1494   */\n      add\n        /* \"#utility.yul\":1465:1494   */\n      swap1\n      pop\n        /* \"#utility.yul\":1306:1500   */\n      swap3\n      swap2\n      pop\n      pop\n      jump\t// out\n        /* \"#utility.yul\":1506:1648   */\n    tag_67:\n        /* \"#utility.yul\":1583:1587   */\n      0x00\n        /* \"#utility.yul\":1606:1609   */\n      dup2\n        /* \"#utility.yul\":1598:1609   */\n      swap1\n      pop\n        /* \"#utility.yul\":1636:1640   */\n      0x20\n        /* \"#utility.yul\":1631:1634   */\n      dup3\n        /* \"#utility.yul\":1627:1641   */\n      add\n        /* \"#utility.yul\":1619:1641   */\n      swap1\n      pop\n        /* \"#utility.yul\":1506:1648   */\n      swap2\n      swap1\n      pop\n      jump\t// out\n        /* \"#utility.yul\":1654:1753   */\n    tag_68:\n        /* \"#utility.yul\":1706:1712   */\n      0x00\n        /* \"#utility.yul\":1740:1745   */\n      dup2\n        /* \"#utility.yul\":1734:1746   */\n      mload\n        /* \"#utility.yul\":1724:1746   */\n      swap1\n      pop\n        /* \"#utility.yul\":1654:1753   */\n      swap2\n      swap1\n      pop\n      jump\t// out\n        /* \"#utility.yul\":1759:1918   */\n    tag_69:\n        /* \"#utility.yul\":1833:1844   */\n      0x00\n        /* \"#utility.yul\":1867:1873   */\n      dup3\n        /* \"#utility.yul\":1862:1865   */\n      dup3\n        /* \"#utility.yul\":1855:1874   */\n      mstore\n        /* \"#utility.yul\":1907:1911   */\n      0x20\n        /* \"#utility.yul\":1902:1905   */\n      dup3\n        /* \"#utility.yul\":1898:1912   */\n      add\n        /* \"#utility.yul\":1883:1912   */\n      swap1\n      pop\n        /* \"#utility.yul\":1759:1918   */\n      swap3\n      swap2\n      pop\n      pop\n      jump\t// out\n        /* \"#utility.yul\":1924:2170   */\n    tag_70:\n        /* \"#utility.yul\":2005:2006   */\n      0x00\n        /* \"#utility.yul\":2015:2128   */\n    tag_128:\n        /* \"#utility.yul\":2029:2035   */\n      dup4\n        /* \"#utility.yul\":2026:2027   */\n      dup2\n        /* \"#utility.yul\":2023:2036   */\n      lt\n        /* \"#utility.yul\":2015:2128   */\n      iszero\n      tag_130\n      jumpi\n        /* \"#utility.yul\":2114:2115   */\n      dup1\n        /* \"#utility.yul\":2109:2112   */\n      dup3\n        /* \"#utility.yul\":2105:2116   */\n      add\n        /* \"#utility.yul\":2099:2117   */\n      mload\n        /* \"#utility.yul\":2095:2096   */\n      dup2\n        /* \"#utility.yul\":2090:2093   */\n      dup5\n        /* \"#utility.yul\":2086:2097   */\n      add\n        /* \"#utility.yul\":2079:2118   */\n      mstore\n        /* \"#utility.yul\":2051:2053   */\n      0x20\n        /* \"#utility.yul\":2048:2049   */\n      dup2\n        /* \"#utility.yul\":2044:2054   */\n      add\n        /* \"#utility.yul\":2039:2054   */\n      swap1\n      pop\n        /* \"#utility.yul\":2015:2128   */\n      jump(tag_128)\n    tag_130:\n        /* \"#utility.yul\":2162:2163   */\n      0x00\n        /* \"#utility.yul\":2153:2159   */\n      dup5\n        /* \"#utility.yul\":2148:2151   */\n      dup5\n        /* \"#utility.yul\":2144:2160   */\n      add\n        /* \"#utility.yul\":2137:2164   */\n      mstore\n        /* \"#utility.yul\":1986:2170   */\n      pop\n        /* \"#utility.yul\":1924:2170   */\n      pop\n      pop\n      pop\n      jump\t// out\n        /* \"#utility.yul\":2176:2278   */\n    tag_71:\n        /* \"#utility.yul\":2217:2223   */\n      0x00\n        /* \"#utility.yul\":2268:2270   */\n      0x1f\n        /* \"#utility.yul\":2264:2271   */\n      not\n        /* \"#utility.yul\":2259:2261   */\n      0x1f\n        /* \"#utility.yul\":2252:2257   */\n      dup4\n        /* \"#utility.yul\":2248:2262   */\n      add\n        /* \"#utility.yul\":2244:2272   */\n      and\n        /* \"#utility.yul\":2234:2272   */\n      swap1\n      pop\n        /* \"#utility.yul\":2176:2278   */\n      swap2\n      swap1\n      pop\n      jump\t// out\n        /* \"#utility.yul\":2284:2641   */\n    tag_72:\n        /* \"#utility.yul\":2362:2365   */\n      0x00\n        /* \"#utility.yul\":2390:2429   */\n      tag_133\n        /* \"#utility.yul\":2423:2428   */\n      dup3\n        /* \"#utility.yul\":2390:2429   */\n      tag_68\n      jump\t// in\n    tag_133:\n        /* \"#utility.yul\":2445:2506   */\n      tag_134\n        /* \"#utility.yul\":2499:2505   */\n      dup2\n        /* \"#utility.yul\":2494:2497   */\n      dup6\n        /* \"#utility.yul\":2445:2506   */\n      tag_69\n      jump\t// in\n    tag_134:\n        /* \"#utility.yul\":2438:2506   */\n      swap4\n      pop\n        /* \"#utility.yul\":2515:2580   */\n      tag_135\n        /* \"#utility.yul\":2573:2579   */\n      dup2\n        /* \"#utility.yul\":2568:2571   */\n      dup6\n        /* \"#utility.yul\":2561:2565   */\n      0x20\n        /* \"#utility.yul\":2554:2559   */\n      dup7\n        /* \"#utility.yul\":2550:2566   */\n      add\n        /* \"#utility.yul\":2515:2580   */\n      tag_70\n      jump\t// in\n    tag_135:\n        /* \"#utility.yul\":2605:2634   */\n      tag_136\n        /* \"#utility.yul\":2627:2633   */\n      dup2\n        /* \"#utility.yul\":2605:2634   */\n      tag_71\n      jump\t// in\n    tag_136:\n        /* \"#utility.yul\":2600:2603   */\n      dup5\n        /* \"#utility.yul\":2596:2635   */\n      add\n        /* \"#utility.yul\":2589:2635   */\n      swap2\n      pop\n        /* \"#utility.yul\":2366:2641   */\n      pop\n        /* \"#utility.yul\":2284:2641   */\n      swap3\n      swap2\n      pop\n      pop\n      jump\t// out\n        /* \"#utility.yul\":2647:2843   */\n    tag_73:\n        /* \"#utility.yul\":2736:2746   */\n      0x00\n        /* \"#utility.yul\":2771:2837   */\n      tag_138\n        /* \"#utility.yul\":2833:2836   */\n      dup4\n        /* \"#utility.yul\":2825:2831   */\n      dup4\n        /* \"#utility.yul\":2771:2837   */\n      tag_72\n      jump\t// in\n    tag_138:\n        /* \"#utility.yul\":2757:2837   */\n      swap1\n      pop\n        /* \"#utility.yul\":2647:2843   */\n      swap3\n      swap2\n      pop\n      pop\n      jump\t// out\n        /* \"#utility.yul\":2849:2972   */\n    tag_74:\n        /* \"#utility.yul\":2929:2933   */\n      0x00\n        /* \"#utility.yul\":2961:2965   */\n      0x20\n        /* \"#utility.yul\":2956:2959   */\n      dup3\n        /* \"#utility.yul\":2952:2966   */\n      add\n        /* \"#utility.yul\":2944:2966   */\n      swap1\n      pop\n        /* \"#utility.yul\":2849:2972   */\n      swap2\n      swap1\n      pop\n      jump\t// out\n        /* \"#utility.yul\":3006:3997   */\n    tag_75:\n        /* \"#utility.yul\":3145:3148   */\n      0x00\n        /* \"#utility.yul\":3174:3238   */\n      tag_141\n        /* \"#utility.yul\":3232:3237   */\n      dup3\n        /* \"#utility.yul\":3174:3238   */\n      tag_65\n      jump\t// in\n    tag_141:\n        /* \"#utility.yul\":3254:3350   */\n      tag_142\n        /* \"#utility.yul\":3343:3349   */\n      dup2\n        /* \"#utility.yul\":3338:3341   */\n      dup6\n        /* \"#utility.yul\":3254:3350   */\n      tag_66\n      jump\t// in\n    tag_142:\n        /* \"#utility.yul\":3247:3350   */\n      swap4\n      pop\n        /* \"#utility.yul\":3376:3379   */\n      dup4\n        /* \"#utility.yul\":3421:3425   */\n      0x20\n        /* \"#utility.yul\":3413:3419   */\n      dup3\n        /* \"#utility.yul\":3409:3426   */\n      mul\n        /* \"#utility.yul\":3404:3407   */\n      dup6\n        /* \"#utility.yul\":3400:3427   */\n      add\n        /* \"#utility.yul\":3451:3517   */\n      tag_143\n        /* \"#utility.yul\":3511:3516   */\n      dup6\n        /* \"#utility.yul\":3451:3517   */\n      tag_67\n      jump\t// in\n    tag_143:\n        /* \"#utility.yul\":3540:3547   */\n      dup1\n        /* \"#utility.yul\":3571:3572   */\n      0x00\n        /* \"#utility.yul\":3556:3952   */\n    tag_144:\n        /* \"#utility.yul\":3581:3587   */\n      dup6\n        /* \"#utility.yul\":3578:3579   */\n      dup2\n        /* \"#utility.yul\":3575:3588   */\n      lt\n        /* \"#utility.yul\":3556:3952   */\n      iszero\n      tag_146\n      jumpi\n        /* \"#utility.yul\":3652:3661   */\n      dup5\n        /* \"#utility.yul\":3646:3650   */\n      dup5\n        /* \"#utility.yul\":3642:3662   */\n      sub\n        /* \"#utility.yul\":3637:3640   */\n      dup10\n        /* \"#utility.yul\":3630:3663   */\n      mstore\n        /* \"#utility.yul\":3703:3709   */\n      dup2\n        /* \"#utility.yul\":3697:3710   */\n      mload\n        /* \"#utility.yul\":3731:3815   */\n      tag_147\n        /* \"#utility.yul\":3810:3814   */\n      dup6\n        /* \"#utility.yul\":3795:3808   */\n      dup3\n        /* \"#utility.yul\":3731:3815   */\n      tag_73\n      jump\t// in\n    tag_147:\n        /* \"#utility.yul\":3723:3815   */\n      swap5\n      pop\n        /* \"#utility.yul\":3838:3908   */\n      tag_148\n        /* \"#utility.yul\":3901:3907   */\n      dup4\n        /* \"#utility.yul\":3838:3908   */\n      tag_74\n      jump\t// in\n    tag_148:\n        /* \"#utility.yul\":3828:3908   */\n      swap3\n      pop\n        /* \"#utility.yul\":3937:3941   */\n      0x20\n        /* \"#utility.yul\":3932:3935   */\n      dup11\n        /* \"#utility.yul\":3928:3942   */\n      add\n        /* \"#utility.yul\":3921:3942   */\n      swap10\n      pop\n        /* \"#utility.yul\":3616:3952   */\n      pop\n        /* \"#utility.yul\":3603:3604   */\n      0x01\n        /* \"#utility.yul\":3600:3601   */\n      dup2\n        /* \"#utility.yul\":3596:3605   */\n      add\n        /* \"#utility.yul\":3591:3605   */\n      swap1\n      pop\n        /* \"#utility.yul\":3556:3952   */\n      jump(tag_144)\n    tag_146:\n        /* \"#utility.yul\":3560:3574   */\n      pop\n        /* \"#utility.yul\":3968:3972   */\n      dup3\n        /* \"#utility.yul\":3961:3972   */\n      swap8\n      pop\n        /* \"#utility.yul\":3988:3991   */\n      dup8\n        /* \"#utility.yul\":3981:3991   */\n      swap6\n      pop\n        /* \"#utility.yul\":3150:3997   */\n      pop\n      pop\n      pop\n      pop\n      pop\n        /* \"#utility.yul\":3006:3997   */\n      swap3\n      swap2\n      pop\n      pop\n      jump\t// out\n        /* \"#utility.yul\":4003:4416   */\n    tag_12:\n        /* \"#utility.yul\":4166:4170   */\n      0x00\n        /* \"#utility.yul\":4204:4206   */\n      0x20\n        /* \"#utility.yul\":4193:4202   */\n      dup3\n        /* \"#utility.yul\":4189:4207   */\n      add\n        /* \"#utility.yul\":4181:4207   */\n      swap1\n      pop\n        /* \"#utility.yul\":4253:4262   */\n      dup2\n        /* \"#utility.yul\":4247:4251   */\n      dup2\n        /* \"#utility.yul\":4243:4263   */\n      sub\n        /* \"#utility.yul\":4239:4240   */\n      0x00\n        /* \"#utility.yul\":4228:4237   */\n      dup4\n        /* \"#utility.yul\":4224:4241   */\n      add\n        /* \"#utility.yul\":4217:4264   */\n      mstore\n        /* \"#utility.yul\":4281:4409   */\n      tag_150\n        /* \"#utility.yul\":4404:4408   */\n      dup2\n        /* \"#utility.yul\":4395:4401   */\n      dup5\n        /* \"#utility.yul\":4281:4409   */\n      tag_75\n      jump\t// in\n    tag_150:\n        /* \"#utility.yul\":4273:4409   */\n      swap1\n      pop\n        /* \"#utility.yul\":4003:4416   */\n      swap3\n      swap2\n      pop\n      pop\n      jump\t// out\n        /* \"#utility.yul\":4422:4499   */\n    tag_76:\n        /* \"#utility.yul\":4459:4466   */\n      0x00\n        /* \"#utility.yul\":4488:4493   */\n      dup2\n        /* \"#utility.yul\":4477:4493   */\n      swap1\n      pop\n        /* \"#utility.yul\":4422:4499   */\n      swap2\n      swap1\n      pop\n      jump\t// out\n        /* \"#utility.yul\":4505:4627   */\n    tag_77:\n        /* \"#utility.yul\":4578:4602   */\n      tag_153\n        /* \"#utility.yul\":4596:4601   */\n      dup2\n        /* \"#utility.yul\":4578:4602   */\n      tag_76\n      jump\t// in\n    tag_153:\n        /* \"#utility.yul\":4571:4576   */\n      dup2\n        /* \"#utility.yul\":4568:4603   */\n      eq\n        /* \"#utility.yul\":4558:4621   */\n      tag_154\n      jumpi\n        /* \"#utility.yul\":4617:4618   */\n      0x00\n        /* \"#utility.yul\":4614:4615   */\n      dup1\n        /* \"#utility.yul\":4607:4619   */\n      revert\n        /* \"#utility.yul\":4558:4621   */\n    tag_154:\n        /* \"#utility.yul\":4505:4627   */\n      pop\n      jump\t// out\n        /* \"#utility.yul\":4633:4772   */\n    tag_78:\n        /* \"#utility.yul\":4679:4684   */\n      0x00\n        /* \"#utility.yul\":4717:4723   */\n      dup2\n        /* \"#utility.yul\":4704:4724   */\n      calldataload\n        /* \"#utility.yul\":4695:4724   */\n      swap1\n      pop\n        /* \"#utility.yul\":4733:4766   */\n      tag_156\n        /* \"#utility.yul\":4760:4765   */\n      dup2\n        /* \"#utility.yul\":4733:4766   */\n      tag_77\n      jump\t// in\n    tag_156:\n        /* \"#utility.yul\":4633:4772   */\n      swap3\n      swap2\n      pop\n      pop\n      jump\t// out\n        /* \"#utility.yul\":4778:5252   */\n    tag_15:\n        /* \"#utility.yul\":4846:4852   */\n      0x00\n        /* \"#utility.yul\":4854:4860   */\n      dup1\n        /* \"#utility.yul\":4903:4905   */\n      0x40\n        /* \"#utility.yul\":4891:4900   */\n      dup4\n        /* \"#utility.yul\":4882:4889   */\n      dup6\n        /* \"#utility.yul\":4878:4901   */\n      sub\n        /* \"#utility.yul\":4874:4906   */\n      slt\n        /* \"#utility.yul\":4871:4990   */\n      iszero\n      tag_158\n      jumpi\n        /* \"#utility.yul\":4909:4988   */\n      tag_159\n      tag_59\n      jump\t// in\n    tag_159:\n        /* \"#utility.yul\":4871:4990   */\n    tag_158:\n        /* \"#utility.yul\":5029:5030   */\n      0x00\n        /* \"#utility.yul\":5054:5107   */\n      tag_160\n        /* \"#utility.yul\":5099:5106   */\n      dup6\n        /* \"#utility.yul\":5090:5096   */\n      dup3\n        /* \"#utility.yul\":5079:5088   */\n      dup7\n        /* \"#utility.yul\":5075:5097   */\n      add\n        /* \"#utility.yul\":5054:5107   */\n      tag_64\n      jump\t// in\n    tag_160:\n        /* \"#utility.yul\":5044:5107   */\n      swap3\n      pop\n        /* \"#utility.yul\":5000:5117   */\n      pop\n        /* \"#utility.yul\":5156:5158   */\n      0x20\n        /* \"#utility.yul\":5182:5235   */\n      tag_161\n        /* \"#utility.yul\":5227:5234   */\n      dup6\n        /* \"#utility.yul\":5218:5224   */\n      dup3\n        /* \"#utility.yul\":5207:5216   */\n      dup7\n        /* \"#utility.yul\":5203:5225   */\n      add\n        /* \"#utility.yul\":5182:5235   */\n      tag_78\n      jump\t// in\n    tag_161:\n        /* \"#utility.yul\":5172:5235   */\n      swap2\n      pop\n        /* \"#utility.yul\":5127:5245   */\n      pop\n        /* \"#utility.yul\":4778:5252   */\n      swap3\n      pop\n      swap3\n      swap1\n      pop\n      jump\t// out\n        /* \"#utility.yul\":5258:5427   */\n    tag_79:\n        /* \"#utility.yul\":5342:5353   */\n      0x00\n        /* \"#utility.yul\":5376:5382   */\n      dup3\n        /* \"#utility.yul\":5371:5374   */\n      dup3\n        /* \"#utility.yul\":5364:5383   */\n      mstore\n        /* \"#utility.yul\":5416:5420   */\n      0x20\n        /* \"#utility.yul\":5411:5414   */\n      dup3\n        /* \"#utility.yul\":5407:5421   */\n      add\n        /* \"#utility.yul\":5392:5421   */\n      swap1\n      pop\n        /* \"#utility.yul\":5258:5427   */\n      swap3\n      swap2\n      pop\n      pop\n      jump\t// out\n        /* \"#utility.yul\":5433:5810   */\n    tag_80:\n        /* \"#utility.yul\":5521:5524   */\n      0x00\n        /* \"#utility.yul\":5549:5588   */\n      tag_164\n        /* \"#utility.yul\":5582:5587   */\n      dup3\n        /* \"#utility.yul\":5549:5588   */\n      tag_68\n      jump\t// in\n    tag_164:\n        /* \"#utility.yul\":5604:5675   */\n      tag_165\n        /* \"#utility.yul\":5668:5674   */\n      dup2\n        /* \"#utility.yul\":5663:5666   */\n      dup6\n        /* \"#utility.yul\":5604:5675   */\n      tag_79\n      jump\t// in\n    tag_165:\n        /* \"#utility.yul\":5597:5675   */\n      swap4\n      pop\n        /* \"#utility.yul\":5684:5749   */\n      tag_166\n        /* \"#utility.yul\":5742:5748   */\n      dup2\n        /* \"#utility.yul\":5737:5740   */\n      dup6\n        /* \"#utility.yul\":5730:5734   */\n      0x20\n        /* \"#utility.yul\":5723:5728   */\n      dup7\n        /* \"#utility.yul\":5719:5735   */\n      add\n        /* \"#utility.yul\":5684:5749   */\n      tag_70\n      jump\t// in\n    tag_166:\n        /* \"#utility.yul\":5774:5803   */\n      tag_167\n        /* \"#utility.yul\":5796:5802   */\n      dup2\n        /* \"#utility.yul\":5774:5803   */\n      tag_71\n      jump\t// in\n    tag_167:\n        /* \"#utility.yul\":5769:5772   */\n      dup5\n        /* \"#utility.yul\":5765:5804   */\n      add\n        /* \"#utility.yul\":5758:5804   */\n      swap2\n      pop\n        /* \"#utility.yul\":5525:5810   */\n      pop\n        /* \"#utility.yul\":5433:5810   */\n      swap3\n      swap2\n      pop\n      pop\n      jump\t// out\n        /* \"#utility.yul\":5816:6129   */\n    tag_18:\n        /* \"#utility.yul\":5929:5933   */\n      0x00\n        /* \"#utility.yul\":5967:5969   */\n      0x20\n        /* \"#utility.yul\":5956:5965   */\n      dup3\n        /* \"#utility.yul\":5952:5970   */\n      add\n        /* \"#utility.yul\":5944:5970   */\n      swap1\n      pop\n        /* \"#utility.yul\":6016:6025   */\n      dup2\n        /* \"#utility.yul\":6010:6014   */\n      dup2\n        /* \"#utility.yul\":6006:6026   */\n      sub\n        /* \"#utility.yul\":6002:6003   */\n      0x00\n        /* \"#utility.yul\":5991:6000   */\n      dup4\n        /* \"#utility.yul\":5987:6004   */\n      add\n        /* \"#utility.yul\":5980:6027   */\n      mstore\n        /* \"#utility.yul\":6044:6122   */\n      tag_169\n        /* \"#utility.yul\":6117:6121   */\n      dup2\n        /* \"#utility.yul\":6108:6114   */\n      dup5\n        /* \"#utility.yul\":6044:6122   */\n      tag_80\n      jump\t// in\n    tag_169:\n        /* \"#utility.yul\":6036:6122   */\n      swap1\n      pop\n        /* \"#utility.yul\":5816:6129   */\n      swap3\n      swap2\n      pop\n      pop\n      jump\t// out\n        /* \"#utility.yul\":6135:6252   */\n    tag_81:\n        /* \"#utility.yul\":6244:6245   */\n      0x00\n        /* \"#utility.yul\":6241:6242   */\n      dup1\n        /* \"#utility.yul\":6234:6246   */\n      revert\n        /* \"#utility.yul\":6258:6375   */\n    tag_82:\n        /* \"#utility.yul\":6367:6368   */\n      0x00\n        /* \"#utility.yul\":6364:6365   */\n      dup1\n        /* \"#utility.yul\":6357:6369   */\n      revert\n        /* \"#utility.yul\":6381:6561   */\n    tag_83:\n        /* \"#utility.yul\":6429:6506   */\n      0x4e487b7100000000000000000000000000000000000000000000000000000000\n        /* \"#utility.yul\":6426:6427   */\n      0x00\n        /* \"#utility.yul\":6419:6507   */\n      mstore\n        /* \"#utility.yul\":6526:6530   */\n      0x41\n        /* \"#utility.yul\":6523:6524   */\n      0x04\n        /* \"#utility.yul\":6516:6531   */\n      mstore\n        /* \"#utility.yul\":6550:6554   */\n      0x24\n        /* \"#utility.yul\":6547:6548   */\n      0x00\n        /* \"#utility.yul\":6540:6555   */\n      revert\n        /* \"#utility.yul\":6567:6848   */\n    tag_84:\n        /* \"#utility.yul\":6650:6677   */\n      tag_174\n        /* \"#utility.yul\":6672:6676   */\n      dup3\n        /* \"#utility.yul\":6650:6677   */\n      tag_71\n      jump\t// in\n    tag_174:\n        /* \"#utility.yul\":6642:6648   */\n      dup2\n        /* \"#utility.yul\":6638:6678   */\n      add\n        /* \"#utility.yul\":6780:6786   */\n      dup2\n        /* \"#utility.yul\":6768:6778   */\n      dup2\n        /* \"#utility.yul\":6765:6787   */\n      lt\n        /* \"#utility.yul\":6744:6762   */\n      0xffffffffffffffff\n        /* \"#utility.yul\":6732:6742   */\n      dup3\n        /* \"#utility.yul\":6729:6763   */\n      gt\n        /* \"#utility.yul\":6726:6788   */\n      or\n        /* \"#utility.yul\":6723:6811   */\n      iszero\n      tag_175\n      jumpi\n        /* \"#utility.yul\":6791:6809   */\n      tag_176\n      tag_83\n      jump\t// in\n    tag_176:\n        /* \"#utility.yul\":6723:6811   */\n    tag_175:\n        /* \"#utility.yul\":6831:6841   */\n      dup1\n        /* \"#utility.yul\":6827:6829   */\n      0x40\n        /* \"#utility.yul\":6820:6842   */\n      mstore\n        /* \"#utility.yul\":6610:6848   */\n      pop\n        /* \"#utility.yul\":6567:6848   */\n      pop\n      pop\n      jump\t// out\n        /* \"#utility.yul\":6854:6983   */\n    tag_85:\n        /* \"#utility.yul\":6888:6894   */\n      0x00\n        /* \"#utility.yul\":6915:6935   */\n      tag_178\n      tag_58\n      jump\t// in\n    tag_178:\n        /* \"#utility.yul\":6905:6935   */\n      swap1\n      pop\n        /* \"#utility.yul\":6944:6977   */\n      tag_179\n        /* \"#utility.yul\":6972:6976   */\n      dup3\n        /* \"#utility.yul\":6964:6970   */\n      dup3\n        /* \"#utility.yul\":6944:6977   */\n      tag_84\n      jump\t// in\n    tag_179:\n        /* \"#utility.yul\":6854:6983   */\n      swap2\n      swap1\n      pop\n      jump\t// out\n        /* \"#utility.yul\":6989:7297   */\n    tag_86:\n        /* \"#utility.yul\":7051:7055   */\n      0x00\n        /* \"#utility.yul\":7141:7159   */\n      0xffffffffffffffff\n        /* \"#utility.yul\":7133:7139   */\n      dup3\n        /* \"#utility.yul\":7130:7160   */\n      gt\n        /* \"#utility.yul\":7127:7183   */\n      iszero\n      tag_181\n      jumpi\n        /* \"#utility.yul\":7163:7181   */\n      tag_182\n      tag_83\n      jump\t// in\n    tag_182:\n        /* \"#utility.yul\":7127:7183   */\n    tag_181:\n        /* \"#utility.yul\":7201:7230   */\n      tag_183\n        /* \"#utility.yul\":7223:7229   */\n      dup3\n        /* \"#utility.yul\":7201:7230   */\n      tag_71\n      jump\t// in\n    tag_183:\n        /* \"#utility.yul\":7193:7230   */\n      swap1\n      pop\n        /* \"#utility.yul\":7285:7289   */\n      0x20\n        /* \"#utility.yul\":7279:7283   */\n      dup2\n        /* \"#utility.yul\":7275:7290   */\n      add\n        /* \"#utility.yul\":7267:7290   */\n      swap1\n      pop\n        /* \"#utility.yul\":6989:7297   */\n      swap2\n      swap1\n      pop\n      jump\t// out\n        /* \"#utility.yul\":7303:7449   */\n    tag_87:\n        /* \"#utility.yul\":7400:7406   */\n      dup3\n        /* \"#utility.yul\":7395:7398   */\n      dup2\n        /* \"#utility.yul\":7390:7393   */\n      dup4\n        /* \"#utility.yul\":7377:7407   */\n      calldatacopy\n        /* \"#utility.yul\":7441:7442   */\n      0x00\n        /* \"#utility.yul\":7432:7438   */\n      dup4\n        /* \"#utility.yul\":7427:7430   */\n      dup4\n        /* \"#utility.yul\":7423:7439   */\n      add\n        /* \"#utility.yul\":7416:7443   */\n      mstore\n        /* \"#utility.yul\":7303:7449   */\n      pop\n      pop\n      pop\n      jump\t// out\n        /* \"#utility.yul\":7455:7880   */\n    tag_88:\n        /* \"#utility.yul\":7533:7538   */\n      0x00\n        /* \"#utility.yul\":7558:7624   */\n      tag_186\n        /* \"#utility.yul\":7574:7623   */\n      tag_187\n        /* \"#utility.yul\":7616:7622   */\n      dup5\n        /* \"#utility.yul\":7574:7623   */\n      tag_86\n      jump\t// in\n    tag_187:\n        /* \"#utility.yul\":7558:7624   */\n      tag_85\n      jump\t// in\n    tag_186:\n        /* \"#utility.yul\":7549:7624   */\n      swap1\n      pop\n        /* \"#utility.yul\":7647:7653   */\n      dup3\n        /* \"#utility.yul\":7640:7645   */\n      dup2\n        /* \"#utility.yul\":7633:7654   */\n      mstore\n        /* \"#utility.yul\":7685:7689   */\n      0x20\n        /* \"#utility.yul\":7678:7683   */\n      dup2\n        /* \"#utility.yul\":7674:7690   */\n      add\n        /* \"#utility.yul\":7723:7726   */\n      dup5\n        /* \"#utility.yul\":7714:7720   */\n      dup5\n        /* \"#utility.yul\":7709:7712   */\n      dup5\n        /* \"#utility.yul\":7705:7721   */\n      add\n        /* \"#utility.yul\":7702:7727   */\n      gt\n        /* \"#utility.yul\":7699:7811   */\n      iszero\n      tag_188\n      jumpi\n        /* \"#utility.yul\":7730:7809   */\n      tag_189\n      tag_82\n      jump\t// in\n    tag_189:\n        /* \"#utility.yul\":7699:7811   */\n    tag_188:\n        /* \"#utility.yul\":7820:7874   */\n      tag_190\n        /* \"#utility.yul\":7867:7873   */\n      dup5\n        /* \"#utility.yul\":7862:7865   */\n      dup3\n        /* \"#utility.yul\":7857:7860   */\n      dup6\n        /* \"#utility.yul\":7820:7874   */\n      tag_87\n      jump\t// in\n    tag_190:\n        /* \"#utility.yul\":7539:7880   */\n      pop\n        /* \"#utility.yul\":7455:7880   */\n      swap4\n      swap3\n      pop\n      pop\n      pop\n      jump\t// out\n        /* \"#utility.yul\":7900:8240   */\n    tag_89:\n        /* \"#utility.yul\":7956:7961   */\n      0x00\n        /* \"#utility.yul\":8005:8008   */\n      dup3\n        /* \"#utility.yul\":7998:8002   */\n      0x1f\n        /* \"#utility.yul\":7990:7996   */\n      dup4\n        /* \"#utility.yul\":7986:8003   */\n      add\n        /* \"#utility.yul\":7982:8009   */\n      slt\n        /* \"#utility.yul\":7972:8094   */\n      tag_192\n      jumpi\n        /* \"#utility.yul\":8013:8092   */\n      tag_193\n      tag_81\n      jump\t// in\n    tag_193:\n        /* \"#utility.yul\":7972:8094   */\n    tag_192:\n        /* \"#utility.yul\":8130:8136   */\n      dup2\n        /* \"#utility.yul\":8117:8137   */\n      calldataload\n        /* \"#utility.yul\":8155:8234   */\n      tag_194\n        /* \"#utility.yul\":8230:8233   */\n      dup5\n        /* \"#utility.yul\":8222:8228   */\n      dup3\n        /* \"#utility.yul\":8215:8219   */\n      0x20\n        /* \"#utility.yul\":8207:8213   */\n      dup7\n        /* \"#utility.yul\":8203:8220   */\n      add\n        /* \"#utility.yul\":8155:8234   */\n      tag_88\n      jump\t// in\n    tag_194:\n        /* \"#utility.yul\":8146:8234   */\n      swap2\n      pop\n        /* \"#utility.yul\":7962:8240   */\n      pop\n        /* \"#utility.yul\":7900:8240   */\n      swap3\n      swap2\n      pop\n      pop\n      jump\t// out\n        /* \"#utility.yul\":8246:8755   */\n    tag_21:\n        /* \"#utility.yul\":8315:8321   */\n      0x00\n        /* \"#utility.yul\":8364:8366   */\n      0x20\n        /* \"#utility.yul\":8352:8361   */\n      dup3\n        /* \"#utility.yul\":8343:8350   */\n      dup5\n        /* \"#utility.yul\":8339:8362   */\n      sub\n        /* \"#utility.yul\":8335:8367   */\n      slt\n        /* \"#utility.yul\":8332:8451   */\n      iszero\n      tag_196\n      jumpi\n        /* \"#utility.yul\":8370:8449   */\n      tag_197\n      tag_59\n      jump\t// in\n    tag_197:\n        /* \"#utility.yul\":8332:8451   */\n    tag_196:\n        /* \"#utility.yul\":8518:8519   */\n      0x00\n        /* \"#utility.yul\":8507:8516   */\n      dup3\n        /* \"#utility.yul\":8503:8520   */\n      add\n        /* \"#utility.yul\":8490:8521   */\n      calldataload\n        /* \"#utility.yul\":8548:8566   */\n      0xffffffffffffffff\n        /* \"#utility.yul\":8540:8546   */\n      dup2\n        /* \"#utility.yul\":8537:8567   */\n      gt\n        /* \"#utility.yul\":8534:8651   */\n      iszero\n      tag_198\n      jumpi\n        /* \"#utility.yul\":8570:8649   */\n      tag_199\n      tag_60\n      jump\t// in\n    tag_199:\n        /* \"#utility.yul\":8534:8651   */\n    tag_198:\n        /* \"#utility.yul\":8675:8738   */\n      tag_200\n        /* \"#utility.yul\":8730:8737   */\n      dup5\n        /* \"#utility.yul\":8721:8727   */\n      dup3\n        /* \"#utility.yul\":8710:8719   */\n      dup6\n        /* \"#utility.yul\":8706:8728   */\n      add\n        /* \"#utility.yul\":8675:8738   */\n      tag_89\n      jump\t// in\n    tag_200:\n        /* \"#utility.yul\":8665:8738   */\n      swap2\n      pop\n        /* \"#utility.yul\":8461:8748   */\n      pop\n        /* \"#utility.yul\":8246:8755   */\n      swap3\n      swap2\n      pop\n      pop\n      jump\t// out\n        /* \"#utility.yul\":8761:8941   */\n    tag_90:\n        /* \"#utility.yul\":8809:8886   */\n      0x4e487b7100000000000000000000000000000000000000000000000000000000\n        /* \"#utility.yul\":8806:8807   */\n      0x00\n        /* \"#utility.yul\":8799:8887   */\n      mstore\n        /* \"#utility.yul\":8906:8910   */\n      0x22\n        /* \"#utility.yul\":8903:8904   */\n      0x04\n        /* \"#utility.yul\":8896:8911   */\n      mstore\n        /* \"#utility.yul\":8930:8934   */\n      0x24\n        /* \"#utility.yul\":8927:8928   */\n      0x00\n        /* \"#utility.yul\":8920:8935   */\n      revert\n        /* \"#utility.yul\":8947:9267   */\n    tag_32:\n        /* \"#utility.yul\":8991:8997   */\n      0x00\n        /* \"#utility.yul\":9028:9029   */\n      0x02\n        /* \"#utility.yul\":9022:9026   */\n      dup3\n        /* \"#utility.yul\":9018:9030   */\n      div\n        /* \"#utility.yul\":9008:9030   */\n      swap1\n      pop\n        /* \"#utility.yul\":9075:9076   */\n      0x01\n        /* \"#utility.yul\":9069:9073   */\n      dup3\n        /* \"#utility.yul\":9065:9077   */\n      and\n        /* \"#utility.yul\":9096:9114   */\n      dup1\n        /* \"#utility.yul\":9086:9167   */\n      tag_203\n      jumpi\n        /* \"#utility.yul\":9152:9156   */\n      0x7f\n        /* \"#utility.yul\":9144:9150   */\n      dup3\n        /* \"#utility.yul\":9140:9157   */\n      and\n        /* \"#utility.yul\":9130:9157   */\n      swap2\n      pop\n        /* \"#utility.yul\":9086:9167   */\n    tag_203:\n        /* \"#utility.yul\":9214:9216   */\n      0x20\n        /* \"#utility.yul\":9206:9212   */\n      dup3\n        /* \"#utility.yul\":9203:9217   */\n      lt\n        /* \"#utility.yul\":9183:9201   */\n      dup2\n        /* \"#utility.yul\":9180:9218   */\n      sub\n        /* \"#utility.yul\":9177:9261   */\n      tag_204\n      jumpi\n        /* \"#utility.yul\":9233:9251   */\n      tag_205\n      tag_90\n      jump\t// in\n    tag_205:\n        /* \"#utility.yul\":9177:9261   */\n    tag_204:\n        /* \"#utility.yul\":8998:9267   */\n      pop\n        /* \"#utility.yul\":8947:9267   */\n      swap2\n      swap1\n      pop\n      jump\t// out\n        /* \"#utility.yul\":9273:9414   */\n    tag_91:\n        /* \"#utility.yul\":9322:9326   */\n      0x00\n        /* \"#utility.yul\":9345:9348   */\n      dup2\n        /* \"#utility.yul\":9337:9348   */\n      swap1\n      pop\n        /* \"#utility.yul\":9368:9371   */\n      dup2\n        /* \"#utility.yul\":9365:9366   */\n      0x00\n        /* \"#utility.yul\":9358:9372   */\n      mstore\n        /* \"#utility.yul\":9402:9406   */\n      0x20\n        /* \"#utility.yul\":9399:9400   */\n      0x00\n        /* \"#utility.yul\":9389:9407   */\n      keccak256\n        /* \"#utility.yul\":9381:9407   */\n      swap1\n      pop\n        /* \"#utility.yul\":9273:9414   */\n      swap2\n      swap1\n      pop\n      jump\t// out\n        /* \"#utility.yul\":9420:9513   */\n    tag_92:\n        /* \"#utility.yul\":9457:9463   */\n      0x00\n        /* \"#utility.yul\":9504:9506   */\n      0x20\n        /* \"#utility.yul\":9499:9501   */\n      0x1f\n        /* \"#utility.yul\":9492:9497   */\n      dup4\n        /* \"#utility.yul\":9488:9502   */\n      add\n        /* \"#utility.yul\":9484:9507   */\n      div\n        /* \"#utility.yul\":9474:9507   */\n      swap1\n      pop\n        /* \"#utility.yul\":9420:9513   */\n      swap2\n      swap1\n      pop\n      jump\t// out\n        /* \"#utility.yul\":9519:9626   */\n    tag_93:\n        /* \"#utility.yul\":9563:9571   */\n      0x00\n        /* \"#utility.yul\":9613:9618   */\n      dup3\n        /* \"#utility.yul\":9607:9611   */\n      dup3\n        /* \"#utility.yul\":9603:9619   */\n      shl\n        /* \"#utility.yul\":9582:9619   */\n      swap1\n      pop\n        /* \"#utility.yul\":9519:9626   */\n      swap3\n      swap2\n      pop\n      pop\n      jump\t// out\n        /* \"#utility.yul\":9632:10025   */\n    tag_94:\n        /* \"#utility.yul\":9701:9707   */\n      0x00\n        /* \"#utility.yul\":9751:9752   */\n      0x08\n        /* \"#utility.yul\":9739:9749   */\n      dup4\n        /* \"#utility.yul\":9735:9753   */\n      mul\n        /* \"#utility.yul\":9774:9871   */\n      tag_210\n        /* \"#utility.yul\":9804:9870   */\n      0xffffffffffffffffffffffffffffffffffffffffffffffffffffffffffffffff\n        /* \"#utility.yul\":9793:9802   */\n      dup3\n        /* \"#utility.yul\":9774:9871   */\n      tag_93\n      jump\t// in\n    tag_210:\n        /* \"#utility.yul\":9892:9931   */\n      tag_211\n        /* \"#utility.yul\":9922:9930   */\n      dup7\n        /* \"#utility.yul\":9911:9920   */\n      dup4\n        /* \"#utility.yul\":9892:9931   */\n      tag_93\n      jump\t// in\n    tag_211:\n        /* \"#utility.yul\":9880:9931   */\n      swap6\n      pop\n        /* \"#utility.yul\":9964:9968   */\n      dup1\n        /* \"#utility.yul\":9960:9969   */\n      not\n        /* \"#utility.yul\":9953:9958   */\n      dup5\n        /* \"#utility.yul\":9949:9970   */\n      and\n        /* \"#utility.yul\":9940:9970   */\n      swap4\n      pop\n        /* \"#utility.yul\":10013:10017   */\n      dup1\n        /* \"#utility.yul\":10003:10011   */\n      dup7\n        /* \"#utility.yul\":9999:10018   */\n      and\n        /* \"#utility.yul\":9992:9997   */\n      dup5\n        /* \"#utility.yul\":9989:10019   */\n      or\n        /* \"#utility.yul\":9979:10019   */\n      swap3\n      pop\n        /* \"#utility.yul\":9708:10025   */\n      pop\n      pop\n        /* \"#utility.yul\":9632:10025   */\n      swap4\n      swap3\n      pop\n      pop\n      pop\n      jump\t// out\n        /* \"#utility.yul\":10031:10091   */\n    tag_95:\n        /* \"#utility.yul\":10059:10062   */\n      0x00\n        /* \"#utility.yul\":10080:10085   */\n      dup2\n        /* \"#utility.yul\":10073:10085   */\n      swap1\n      pop\n        /* \"#utility.yul\":10031:10091   */\n      swap2\n      swap1\n      pop\n      jump\t// out\n        /* \"#utility.yul\":10097:10239   */\n    tag_96:\n        /* \"#utility.yul\":10147:10156   */\n      0x00\n        /* \"#utility.yul\":10180:10233   */\n      tag_214\n        /* \"#utility.yul\":10198:10232   */\n      tag_215\n        /* \"#utility.yul\":10207:10231   */\n      tag_216\n        /* \"#utility.yul\":10225:10230   */\n      dup5\n        /* \"#utility.yul\":10207:10231   */\n      tag_76\n      jump\t// in\n    tag_216:\n        /* \"#utility.yul\":10198:10232   */\n      tag_95\n      jump\t// in\n    tag_215:\n        /* \"#utility.yul\":10180:10233   */\n      tag_76\n      jump\t// in\n    tag_214:\n        /* \"#utility.yul\":10167:10233   */\n      swap1\n      pop\n        /* \"#utility.yul\":10097:10239   */\n      swap2\n      swap1\n      pop\n      jump\t// out\n        /* \"#utility.yul\":10245:10320   */\n    tag_97:\n        /* \"#utility.yul\":10288:10291   */\n      0x00\n        /* \"#utility.yul\":10309:10314   */\n      dup2\n        /* \"#utility.yul\":10302:10314   */\n      swap1\n      pop\n        /* \"#utility.yul\":10245:10320   */\n      swap2\n      swap1\n      pop\n      jump\t// out\n        /* \"#utility.yul\":10326:10595   */\n    tag_98:\n        /* \"#utility.yul\":10436:10475   */\n      tag_219\n        /* \"#utility.yul\":10467:10474   */\n      dup4\n        /* \"#utility.yul\":10436:10475   */\n      tag_96\n      jump\t// in\n    tag_219:\n        /* \"#utility.yul\":10497:10588   */\n      tag_220\n        /* \"#utility.yul\":10546:10587   */\n      tag_221\n        /* \"#utility.yul\":10570:10586   */\n      dup3\n        /* \"#utility.yul\":10546:10587   */\n      tag_97\n      jump\t// in\n    tag_221:\n        /* \"#utility.yul\":10538:10544   */\n      dup5\n        /* \"#utility.yul\":10531:10535   */\n      dup5\n        /* \"#utility.yul\":10525:10536   */\n      sload\n        /* \"#utility.yul\":10497:10588   */\n      tag_94\n      jump\t// in\n    tag_220:\n        /* \"#utility.yul\":10491:10495   */\n      dup3\n        /* \"#utility.yul\":10484:10589   */\n      sstore\n        /* \"#utility.yul\":10402:10595   */\n      pop\n        /* \"#utility.yul\":10326:10595   */\n      pop\n      pop\n      pop\n      jump\t// out\n        /* \"#utility.yul\":10601:10674   */\n    tag_99:\n        /* \"#utility.yul\":10646:10649   */\n      0x00\n        /* \"#utility.yul\":10601:10674   */\n      swap1\n      jump\t// out\n        /* \"#utility.yul\":10680:10869   */\n    tag_100:\n        /* \"#utility.yul\":10757:10789   */\n      tag_224\n      tag_99\n      jump\t// in\n    tag_224:\n        /* \"#utility.yul\":10798:10863   */\n      tag_225\n        /* \"#utility.yul\":10856:10862   */\n      dup2\n        /* \"#utility.yul\":10848:10854   */\n      dup5\n        /* \"#utility.yul\":10842:10846   */\n      dup5\n        /* \"#utility.yul\":10798:10863   */\n      tag_98\n      jump\t// in\n    tag_225:\n        /* \"#utility.yul\":10733:10869   */\n      pop\n        /* \"#utility.yul\":10680:10869   */\n      pop\n      pop\n      jump\t// out\n        /* \"#utility.yul\":10875:11061   */\n    tag_101:\n        /* \"#utility.yul\":10935:11055   */\n    tag_227:\n        /* \"#utility.yul\":10952:10955   */\n      dup2\n        /* \"#utility.yul\":10945:10950   */\n      dup2\n        /* \"#utility.yul\":10942:10956   */\n      lt\n        /* \"#utility.yul\":10935:11055   */\n      iszero\n      tag_229\n      jumpi\n        /* \"#utility.yul\":11006:11045   */\n      tag_230\n        /* \"#utility.yul\":11043:11044   */\n      0x00\n        /* \"#utility.yul\":11036:11041   */\n      dup3\n        /* \"#utility.yul\":11006:11045   */\n      tag_100\n      jump\t// in\n    tag_230:\n        /* \"#utility.yul\":10979:10980   */\n      0x01\n        /* \"#utility.yul\":10972:10977   */\n      dup2\n        /* \"#utility.yul\":10968:10981   */\n      add\n        /* \"#utility.yul\":10959:10981   */\n      swap1\n      pop\n        /* \"#utility.yul\":10935:11055   */\n      jump(tag_227)\n    tag_229:\n        /* \"#utility.yul\":10875:11061   */\n      pop\n      pop\n      jump\t// out\n        /* \"#utility.yul\":11067:11610   */\n    tag_102:\n        /* \"#utility.yul\":11168:11170   */\n      0x1f\n        /* \"#utility.yul\":11163:11166   */\n      dup3\n        /* \"#utility.yul\":11160:11171   */\n      gt\n        /* \"#utility.yul\":11157:11603   */\n      iszero\n      tag_232\n      jumpi\n        /* \"#utility.yul\":11202:11240   */\n      tag_233\n        /* \"#utility.yul\":11234:11239   */\n      dup2\n        /* \"#utility.yul\":11202:11240   */\n      tag_91\n      jump\t// in\n    tag_233:\n        /* \"#utility.yul\":11286:11315   */\n      tag_234\n        /* \"#utility.yul\":11304:11314   */\n      dup5\n        /* \"#utility.yul\":11286:11315   */\n      tag_92\n      jump\t// in\n    tag_234:\n        /* \"#utility.yul\":11276:11284   */\n      dup2\n        /* \"#utility.yul\":11272:11316   */\n      add\n        /* \"#utility.yul\":11469:11471   */\n      0x20\n        /* \"#utility.yul\":11457:11467   */\n      dup6\n        /* \"#utility.yul\":11454:11472   */\n      lt\n        /* \"#utility.yul\":11451:11500   */\n      iszero\n      tag_235\n      jumpi\n        /* \"#utility.yul\":11490:11498   */\n      dup2\n        /* \"#utility.yul\":11475:11498   */\n      swap1\n      pop\n        /* \"#utility.yul\":11451:11500   */\n    tag_235:\n        /* \"#utility.yul\":11513:11593   */\n      tag_236\n        /* \"#utility.yul\":11569:11591   */\n      tag_237\n        /* \"#utility.yul\":11587:11590   */\n      dup6\n        /* \"#utility.yul\":11569:11591   */\n      tag_92\n      jump\t// in\n    tag_237:\n        /* \"#utility.yul\":11559:11567   */\n      dup4\n        /* \"#utility.yul\":11555:11592   */\n      add\n        /* \"#utility.yul\":11542:11553   */\n      dup3\n        /* \"#utility.yul\":11513:11593   */\n      tag_101\n      jump\t// in\n    tag_236:\n        /* \"#utility.yul\":11172:11603   */\n      pop\n      pop\n        /* \"#utility.yul\":11157:11603   */\n    tag_232:\n        /* \"#utility.yul\":11067:11610   */\n      pop\n      pop\n      pop\n      jump\t// out\n        /* \"#utility.yul\":11616:11733   */\n    tag_103:\n        /* \"#utility.yul\":11670:11678   */\n      0x00\n        /* \"#utility.yul\":11720:11725   */\n      dup3\n        /* \"#utility.yul\":11714:11718   */\n      dup3\n        /* \"#utility.yul\":11710:11726   */\n      shr\n        /* \"#utility.yul\":11689:11726   */\n      swap1\n      pop\n        /* \"#utility.yul\":11616:11733   */\n      swap3\n      swap2\n      pop\n      pop\n      jump\t// out\n        /* \"#utility.yul\":11739:11908   */\n    tag_104:\n        /* \"#utility.yul\":11783:11789   */\n      0x00\n        /* \"#utility.yul\":11816:11867   */\n      tag_240\n        /* \"#utility.yul\":11864:11865   */\n      0x00\n        /* \"#utility.yul\":11860:11866   */\n      not\n        /* \"#utility.yul\":11852:11857   */\n      dup5\n        /* \"#utility.yul\":11849:11850   */\n      0x08\n        /* \"#utility.yul\":11845:11858   */\n      mul\n        /* \"#utility.yul\":11816:11867   */\n      tag_103\n      jump\t// in\n    tag_240:\n        /* \"#utility.yul\":11812:11868   */\n      not\n        /* \"#utility.yul\":11897:11901   */\n      dup1\n        /* \"#utility.yul\":11891:11895   */\n      dup4\n        /* \"#utility.yul\":11887:11902   */\n      and\n        /* \"#utility.yul\":11877:11902   */\n      swap2\n      pop\n        /* \"#utility.yul\":11790:11908   */\n      pop\n        /* \"#utility.yul\":11739:11908   */\n      swap3\n      swap2\n      pop\n      pop\n      jump\t// out\n        /* \"#utility.yul\":11913:12208   */\n    tag_105:\n        /* \"#utility.yul\":11989:11993   */\n      0x00\n        /* \"#utility.yul\":12135:12164   */\n      tag_242\n        /* \"#utility.yul\":12160:12163   */\n      dup4\n        /* \"#utility.yul\":12154:12158   */\n      dup4\n        /* \"#utility.yul\":12135:12164   */\n      tag_104\n      jump\t// in\n    tag_242:\n        /* \"#utility.yul\":12127:12164   */\n      swap2\n      pop\n        /* \"#utility.yul\":12197:12200   */\n      dup3\n        /* \"#utility.yul\":12194:12195   */\n      0x02\n        /* \"#utility.yul\":12190:12201   */\n      mul\n        /* \"#utility.yul\":12184:12188   */\n      dup3\n        /* \"#utility.yul\":12181:12202   */\n      or\n        /* \"#utility.yul\":12173:12202   */\n      swap1\n      pop\n        /* \"#utility.yul\":11913:12208   */\n      swap3\n      swap2\n      pop\n      pop\n      jump\t// out\n        /* \"#utility.yul\":12213:13608   */\n    tag_47:\n        /* \"#utility.yul\":12330:12367   */\n      tag_244\n        /* \"#utility.yul\":12363:12366   */\n      dup3\n        /* \"#utility.yul\":12330:12367   */\n      tag_68\n      jump\t// in\n    tag_244:\n        /* \"#utility.yul\":12432:12450   */\n      0xffffffffffffffff\n        /* \"#utility.yul\":12424:12430   */\n      dup2\n        /* \"#utility.yul\":12421:12451   */\n      gt\n        /* \"#utility.yul\":12418:12474   */\n      iszero\n      tag_245\n      jumpi\n        /* \"#utility.yul\":12454:12472   */\n      tag_246\n      tag_83\n      jump\t// in\n    tag_246:\n        /* \"#utility.yul\":12418:12474   */\n    tag_245:\n        /* \"#utility.yul\":12498:12536   */\n      tag_247\n        /* \"#utility.yul\":12530:12534   */\n      dup3\n        /* \"#utility.yul\":12524:12535   */\n      sload\n        /* \"#utility.yul\":12498:12536   */\n      tag_32\n      jump\t// in\n    tag_247:\n        /* \"#utility.yul\":12583:12650   */\n      tag_248\n        /* \"#utility.yul\":12643:12649   */\n      dup3\n        /* \"#utility.yul\":12635:12641   */\n      dup3\n        /* \"#utility.yul\":12629:12633   */\n      dup6\n        /* \"#utility.yul\":12583:12650   */\n      tag_102\n      jump\t// in\n    tag_248:\n        /* \"#utility.yul\":12677:12678   */\n      0x00\n        /* \"#utility.yul\":12701:12705   */\n      0x20\n        /* \"#utility.yul\":12688:12705   */\n      swap1\n      pop\n        /* \"#utility.yul\":12733:12735   */\n      0x1f\n        /* \"#utility.yul\":12725:12731   */\n      dup4\n        /* \"#utility.yul\":12722:12736   */\n      gt\n        /* \"#utility.yul\":12750:12751   */\n      0x01\n        /* \"#utility.yul\":12745:13363   */\n      dup2\n      eq\n      tag_250\n      jumpi\n        /* \"#utility.yul\":13407:13408   */\n      0x00\n        /* \"#utility.yul\":13424:13430   */\n      dup5\n        /* \"#utility.yul\":13421:13498   */\n      iszero\n      tag_251\n      jumpi\n        /* \"#utility.yul\":13473:13482   */\n      dup3\n        /* \"#utility.yul\":13468:13471   */\n      dup8\n        /* \"#utility.yul\":13464:13483   */\n      add\n        /* \"#utility.yul\":13458:13484   */\n      mload\n        /* \"#utility.yul\":13449:13484   */\n      swap1\n      pop\n        /* \"#utility.yul\":13421:13498   */\n    tag_251:\n        /* \"#utility.yul\":13524:13591   */\n      tag_252\n        /* \"#utility.yul\":13584:13590   */\n      dup6\n        /* \"#utility.yul\":13577:13582   */\n      dup3\n        /* \"#utility.yul\":13524:13591   */\n      tag_105\n      jump\t// in\n    tag_252:\n        /* \"#utility.yul\":13518:13522   */\n      dup7\n        /* \"#utility.yul\":13511:13592   */\n      sstore\n        /* \"#utility.yul\":13380:13602   */\n      pop\n        /* \"#utility.yul\":12715:13602   */\n      jump(tag_249)\n        /* \"#utility.yul\":12745:13363   */\n    tag_250:\n        /* \"#utility.yul\":12797:12801   */\n      0x1f\n        /* \"#utility.yul\":12793:12802   */\n      not\n        /* \"#utility.yul\":12785:12791   */\n      dup5\n        /* \"#utility.yul\":12781:12803   */\n      and\n        /* \"#utility.yul\":12831:12868   */\n      tag_253\n        /* \"#utility.yul\":12863:12867   */\n      dup7\n        /* \"#utility.yul\":12831:12868   */\n      tag_91\n      jump\t// in\n    tag_253:\n        /* \"#utility.yul\":12890:12891   */\n      0x00\n        /* \"#utility.yul\":12904:13112   */\n    tag_254:\n        /* \"#utility.yul\":12918:12925   */\n      dup3\n        /* \"#utility.yul\":12915:12916   */\n      dup2\n        /* \"#utility.yul\":12912:12926   */\n      lt\n        /* \"#utility.yul\":12904:13112   */\n      iszero\n      tag_256\n      jumpi\n        /* \"#utility.yul\":12997:13006   */\n      dup5\n        /* \"#utility.yul\":12992:12995   */\n      dup10\n        /* \"#utility.yul\":12988:13007   */\n      add\n        /* \"#utility.yul\":12982:13008   */\n      mload\n        /* \"#utility.yul\":12974:12980   */\n      dup3\n        /* \"#utility.yul\":12967:13009   */\n      sstore\n        /* \"#utility.yul\":13048:13049   */\n      0x01\n        /* \"#utility.yul\":13040:13046   */\n      dup3\n        /* \"#utility.yul\":13036:13050   */\n      add\n        /* \"#utility.yul\":13026:13050   */\n      swap2\n      pop\n        /* \"#utility.yul\":13095:13097   */\n      0x20\n        /* \"#utility.yul\":13084:13093   */\n      dup6\n        /* \"#utility.yul\":13080:13098   */\n      add\n        /* \"#utility.yul\":13067:13098   */\n      swap5\n      pop\n        /* \"#utility.yul\":12941:12945   */\n      0x20\n        /* \"#utility.yul\":12938:12939   */\n      dup2\n        /* \"#utility.yul\":12934:12946   */\n      add\n        /* \"#utility.yul\":12929:12946   */\n      swap1\n      pop\n        /* \"#utility.yul\":12904:13112   */\n      jump(tag_254)\n    tag_256:\n        /* \"#utility.yul\":13140:13146   */\n      dup7\n        /* \"#utility.yul\":13131:13138   */\n      dup4\n        /* \"#utility.yul\":13128:13147   */\n      lt\n        /* \"#utility.yul\":13125:13304   */\n      iszero\n      tag_257\n      jumpi\n        /* \"#utility.yul\":13198:13207   */\n      dup5\n        /* \"#utility.yul\":13193:13196   */\n      dup10\n        /* \"#utility.yul\":13189:13208   */\n      add\n        /* \"#utility.yul\":13183:13209   */\n      mload\n        /* \"#utility.yul\":13241:13289   */\n      tag_258\n        /* \"#utility.yul\":13283:13287   */\n      0x1f\n        /* \"#utility.yul\":13275:13281   */\n      dup10\n        /* \"#utility.yul\":13271:13288   */\n      and\n        /* \"#utility.yul\":13260:13269   */\n      dup3\n        /* \"#utility.yul\":13241:13289   */\n      tag_104\n      jump\t// in\n    tag_258:\n        /* \"#utility.yul\":13233:13239   */\n      dup4\n        /* \"#utility.yul\":13226:13290   */\n      sstore\n        /* \"#utility.yul\":13148:13304   */\n      pop\n        /* \"#utility.yul\":13125:13304   */\n    tag_257:\n        /* \"#utility.yul\":13350:13351   */\n      0x01\n        /* \"#utility.yul\":13346:13347   */\n      0x02\n        /* \"#utility.yul\":13338:13344   */\n      dup9\n        /* \"#utility.yul\":13334:13348   */\n      mul\n        /* \"#utility.yul\":13330:13352   */\n      add\n        /* \"#utility.yul\":13324:13328   */\n      dup9\n        /* \"#utility.yul\":13317:13353   */\n      sstore\n        /* \"#utility.yul\":12752:13363   */\n      pop\n      pop\n      pop\n        /* \"#utility.yul\":12715:13602   */\n    tag_249:\n      pop\n        /* \"#utility.yul\":12305:13608   */\n      pop\n      pop\n      pop\n        /* \"#utility.yul\":12213:13608   */\n      pop\n      pop\n      jump\t// out\n        /* \"#utility.yul\":13614:13794   */\n    tag_51:\n        /* \"#utility.yul\":13662:13739   */\n      0x4e487b7100000000000000000000000000000000000000000000000000000000\n        /* \"#utility.yul\":13659:13660   */\n      0x00\n        /* \"#utility.yul\":13652:13740   */\n      mstore\n        /* \"#utility.yul\":13759:13763   */\n      0x32\n        /* \"#utility.yul\":13756:13757   */\n      0x04\n        /* \"#utility.yul\":13749:13764   */\n      mstore\n        /* \"#utility.yul\":13783:13787   */\n      0x24\n        /* \"#utility.yul\":13780:13781   */\n      0x00\n        /* \"#utility.yul\":13773:13788   */\n      revert\n\n    auxdata: 0xa264697066735822122024e6f6c728c280ed24fb5bfcdb5a870005a1edac464aad2e222ba40518d01f6e64736f6c63430008160033\n}\n",
				"bytecode": {
					"linkReferences": {},
					"object": "608060405234801561000f575f80fd5b50610b838061001d5f395ff3fe608060405234801561000f575f80fd5b506004361061004a575f3560e01c8063015b8c451461004e57806305a1b4a91461007e5780631b3f3bec146100ae57806337f36a4c146100ca575b5f80fd5b6100686004803603810190610063919061047b565b6100fa565b60405161007591906105eb565b60405180910390f35b6100986004803603810190610093919061063e565b61020a565b6040516100a591906106c4565b60405180910390f35b6100c860048036038101906100c39190610810565b6102ba565b005b6100e460048036038101906100df919061063e565b610329565b6040516100f191906106c4565b60405180910390f35b60605f808373ffffffffffffffffffffffffffffffffffffffff1673ffffffffffffffffffffffffffffffffffffffff1681526020019081526020015f20805480602002602001604051908101604052809291908181526020015f905b828210156101ff578382905f5260205f2001805461017490610884565b80601f01602080910402602001604051908101604052809291908181526020018280546101a090610884565b80156101eb5780601f106101c2576101008083540402835291602001916101eb565b820191905f5260205f20905b8154815290600101906020018083116101ce57829003601f168201915b505050505081526020019060010190610157565b505050509050919050565b5f602052815f5260405f208181548110610222575f80fd5b905f5260205f20015f9150915050805461023b90610884565b80601f016020809104026020016040519081016040528092919081815260200182805461026790610884565b80156102b25780601f10610289576101008083540402835291602001916102b2565b820191905f5260205f20905b81548152906001019060200180831161029557829003601f168201915b505050505081565b5f803373ffffffffffffffffffffffffffffffffffffffff1673ffffffffffffffffffffffffffffffffffffffff1681526020019081526020015f2081908060018154018082558091505060019003905f5260205f20015f9091909190915090816103259190610a51565b5050565b60605f808473ffffffffffffffffffffffffffffffffffffffff1673ffffffffffffffffffffffffffffffffffffffff1681526020019081526020015f20828154811061037957610378610b20565b5b905f5260205f2001805461038c90610884565b80601f01602080910402602001604051908101604052809291908181526020018280546103b890610884565b80156104035780601f106103da57610100808354040283529160200191610403565b820191905f5260205f20905b8154815290600101906020018083116103e657829003601f168201915b5050505050905092915050565b5f604051905090565b5f80fd5b5f80fd5b5f73ffffffffffffffffffffffffffffffffffffffff82169050919050565b5f61044a82610421565b9050919050565b61045a81610440565b8114610464575f80fd5b50565b5f8135905061047581610451565b92915050565b5f602082840312156104905761048f610419565b5b5f61049d84828501610467565b91505092915050565b5f81519050919050565b5f82825260208201905092915050565b5f819050602082019050919050565b5f81519050919050565b5f82825260208201905092915050565b5f5b838110156105065780820151818401526020810190506104eb565b5f8484015250505050565b5f601f19601f8301169050919050565b5f61052b826104cf565b61053581856104d9565b93506105458185602086016104e9565b61054e81610511565b840191505092915050565b5f6105648383610521565b905092915050565b5f602082019050919050565b5f610582826104a6565b61058c81856104b0565b93508360208202850161059e856104c0565b805f5b858110156105d957848403895281516105ba8582610559565b94506105c58361056c565b925060208a019950506001810190506105a1565b50829750879550505050505092915050565b5f6020820190508181035f8301526106038184610578565b905092915050565b5f819050919050565b61061d8161060b565b8114610627575f80fd5b50565b5f8135905061063881610614565b92915050565b5f806040838503121561065457610653610419565b5b5f61066185828601610467565b92505060206106728582860161062a565b9150509250929050565b5f82825260208201905092915050565b5f610696826104cf565b6106a0818561067c565b93506106b08185602086016104e9565b6106b981610511565b840191505092915050565b5f6020820190508181035f8301526106dc818461068c565b905092915050565b5f80fd5b5f80fd5b7f4e487b71000000000000000000000000000000000000000000000000000000005f52604160045260245ffd5b61072282610511565b810181811067ffffffffffffffff82111715610741576107406106ec565b5b80604052505050565b5f610753610410565b905061075f8282610719565b919050565b5f67ffffffffffffffff82111561077e5761077d6106ec565b5b61078782610511565b9050602081019050919050565b828183375f83830152505050565b5f6107b46107af84610764565b61074a565b9050828152602081018484840111156107d0576107cf6106e8565b5b6107db848285610794565b509392505050565b5f82601f8301126107f7576107f66106e4565b5b81356108078482602086016107a2565b91505092915050565b5f6020828403121561082557610824610419565b5b5f82013567ffffffffffffffff8111156108425761084161041d565b5b61084e848285016107e3565b91505092915050565b7f4e487b71000000000000000000000000000000000000000000000000000000005f52602260045260245ffd5b5f600282049050600182168061089b57607f821691505b6020821081036108ae576108ad610857565b5b50919050565b5f819050815f5260205f209050919050565b5f6020601f8301049050919050565b5f82821b905092915050565b5f600883026109107fffffffffffffffffffffffffffffffffffffffffffffffffffffffffffffffff826108d5565b61091a86836108d5565b95508019841693508086168417925050509392505050565b5f819050919050565b5f61095561095061094b8461060b565b610932565b61060b565b9050919050565b5f819050919050565b61096e8361093b565b61098261097a8261095c565b8484546108e1565b825550505050565b5f90565b61099661098a565b6109a1818484610965565b505050565b5b818110156109c4576109b95f8261098e565b6001810190506109a7565b5050565b601f821115610a09576109da816108b4565b6109e3846108c6565b810160208510156109f2578190505b610a066109fe856108c6565b8301826109a6565b50505b505050565b5f82821c905092915050565b5f610a295f1984600802610a0e565b1980831691505092915050565b5f610a418383610a1a565b9150826002028217905092915050565b610a5a826104cf565b67ffffffffffffffff811115610a7357610a726106ec565b5b610a7d8254610884565b610a888282856109c8565b5f60209050601f831160018114610ab9575f8415610aa7578287015190505b610ab18582610a36565b865550610b18565b601f198416610ac7866108b4565b5f5b82811015610aee57848901518255600182019150602085019450602081019050610ac9565b86831015610b0b5784890151610b07601f891682610a1a565b8355505b6001600288020188555050505b505050505050565b7f4e487b71000000000000000000000000000000000000000000000000000000005f52603260045260245ffdfea264697066735822122024e6f6c728c280ed24fb5bfcdb5a870005a1edac464aad2e222ba40518d01f6e64736f6c63430008160033",
					"opcodes": "PUSH1 0x80 PUSH1 0x40 MSTORE CALLVALUE DUP1 ISZERO PUSH2 0xF JUMPI PUSH0 DUP1 REVERT JUMPDEST POP PUSH2 0xB83 DUP1 PUSH2 0x1D PUSH0 CODECOPY PUSH0 RETURN INVALID PUSH1 0x80 PUSH1 0x40 MSTORE CALLVALUE DUP1 ISZERO PUSH2 0xF JUMPI PUSH0 DUP1 REVERT JUMPDEST POP PUSH1 0x4 CALLDATASIZE LT PUSH2 0x4A JUMPI PUSH0 CALLDATALOAD PUSH1 0xE0 SHR DUP1 PUSH4 0x15B8C45 EQ PUSH2 0x4E JUMPI DUP1 PUSH4 0x5A1B4A9 EQ PUSH2 0x7E JUMPI DUP1 PUSH4 0x1B3F3BEC EQ PUSH2 0xAE JUMPI DUP1 PUSH4 0x37F36A4C EQ PUSH2 0xCA JUMPI JUMPDEST PUSH0 DUP1 REVERT JUMPDEST PUSH2 0x68 PUSH1 0x4 DUP1 CALLDATASIZE SUB DUP2 ADD SWAP1 PUSH2 0x63 SWAP2 SWAP1 PUSH2 0x47B JUMP JUMPDEST PUSH2 0xFA JUMP JUMPDEST PUSH1 0x40 MLOAD PUSH2 0x75 SWAP2 SWAP1 PUSH2 0x5EB JUMP JUMPDEST PUSH1 0x40 MLOAD DUP1 SWAP2 SUB SWAP1 RETURN JUMPDEST PUSH2 0x98 PUSH1 0x4 DUP1 CALLDATASIZE SUB DUP2 ADD SWAP1 PUSH2 0x93 SWAP2 SWAP1 PUSH2 0x63E JUMP JUMPDEST PUSH2 0x20A JUMP JUMPDEST PUSH1 0x40 MLOAD PUSH2 0xA5 SWAP2 SWAP1 PUSH2 0x6C4 JUMP JUMPDEST PUSH1 0x40 MLOAD DUP1 SWAP2 SUB SWAP1 RETURN JUMPDEST PUSH2 0xC8 PUSH1 0x4 DUP1 CALLDATASIZE SUB DUP2 ADD SWAP1 PUSH2 0xC3 SWAP2 SWAP1 PUSH2 0x810 JUMP JUMPDEST PUSH2 0x2BA JUMP JUMPDEST STOP JUMPDEST PUSH2 0xE4 PUSH1 0x4 DUP1 CALLDATASIZE SUB DUP2 ADD SWAP1 PUSH2 0xDF SWAP2 SWAP1 PUSH2 0x63E JUMP JUMPDEST PUSH2 0x329 JUMP JUMPDEST PUSH1 0x40 MLOAD PUSH2 0xF1 SWAP2 SWAP1 PUSH2 0x6C4 JUMP JUMPDEST PUSH1 0x40 MLOAD DUP1 SWAP2 SUB SWAP1 RETURN JUMPDEST PUSH1 0x60 PUSH0 DUP1 DUP4 PUSH20 0xFFFFFFFFFFFFFFFFFFFFFFFFFFFFFFFFFFFFFFFF AND PUSH20 0xFFFFFFFFFFFFFFFFFFFFFFFFFFFFFFFFFFFFFFFF AND DUP2 MSTORE PUSH1 0x20 ADD SWAP1 DUP2 MSTORE PUSH1 0x20 ADD PUSH0 KECCAK256 DUP1 SLOAD DUP1 PUSH1 0x20 MUL PUSH1 0x20 ADD PUSH1 0x40 MLOAD SWAP1 DUP2 ADD PUSH1 0x40 MSTORE DUP1 SWAP3 SWAP2 SWAP1 DUP2 DUP2 MSTORE PUSH1 0x20 ADD PUSH0 SWAP1 JUMPDEST DUP3 DUP3 LT ISZERO PUSH2 0x1FF JUMPI DUP4 DUP3 SWAP1 PUSH0 MSTORE PUSH1 0x20 PUSH0 KECCAK256 ADD DUP1 SLOAD PUSH2 0x174 SWAP1 PUSH2 0x884 JUMP JUMPDEST DUP1 PUSH1 0x1F ADD PUSH1 0x20 DUP1 SWAP2 DIV MUL PUSH1 0x20 ADD PUSH1 0x40 MLOAD SWAP1 DUP2 ADD PUSH1 0x40 MSTORE DUP1 SWAP3 SWAP2 SWAP1 DUP2 DUP2 MSTORE PUSH1 0x20 ADD DUP3 DUP1 SLOAD PUSH2 0x1A0 SWAP1 PUSH2 0x884 JUMP JUMPDEST DUP1 ISZERO PUSH2 0x1EB JUMPI DUP1 PUSH1 0x1F LT PUSH2 0x1C2 JUMPI PUSH2 0x100 DUP1 DUP4 SLOAD DIV MUL DUP4 MSTORE SWAP2 PUSH1 0x20 ADD SWAP2 PUSH2 0x1EB JUMP JUMPDEST DUP3 ADD SWAP2 SWAP1 PUSH0 MSTORE PUSH1 0x20 PUSH0 KECCAK256 SWAP1 JUMPDEST DUP2 SLOAD DUP2 MSTORE SWAP1 PUSH1 0x1 ADD SWAP1 PUSH1 0x20 ADD DUP1 DUP4 GT PUSH2 0x1CE JUMPI DUP3 SWAP1 SUB PUSH1 0x1F AND DUP3 ADD SWAP2 JUMPDEST POP POP POP POP POP DUP2 MSTORE PUSH1 0x20 ADD SWAP1 PUSH1 0x1 ADD SWAP1 PUSH2 0x157 JUMP JUMPDEST POP POP POP POP SWAP1 POP SWAP2 SWAP1 POP JUMP JUMPDEST PUSH0 PUSH1 0x20 MSTORE DUP2 PUSH0 MSTORE PUSH1 0x40 PUSH0 KECCAK256 DUP2 DUP2 SLOAD DUP2 LT PUSH2 0x222 JUMPI PUSH0 DUP1 REVERT JUMPDEST SWAP1 PUSH0 MSTORE PUSH1 0x20 PUSH0 KECCAK256 ADD PUSH0 SWAP2 POP SWAP2 POP POP DUP1 SLOAD PUSH2 0x23B SWAP1 PUSH2 0x884 JUMP JUMPDEST DUP1 PUSH1 0x1F ADD PUSH1 0x20 DUP1 SWAP2 DIV MUL PUSH1 0x20 ADD PUSH1 0x40 MLOAD SWAP1 DUP2 ADD PUSH1 0x40 MSTORE DUP1 SWAP3 SWAP2 SWAP1 DUP2 DUP2 MSTORE PUSH1 0x20 ADD DUP3 DUP1 SLOAD PUSH2 0x267 SWAP1 PUSH2 0x884 JUMP JUMPDEST DUP1 ISZERO PUSH2 0x2B2 JUMPI DUP1 PUSH1 0x1F LT PUSH2 0x289 JUMPI PUSH2 0x100 DUP1 DUP4 SLOAD DIV MUL DUP4 MSTORE SWAP2 PUSH1 0x20 ADD SWAP2 PUSH2 0x2B2 JUMP JUMPDEST DUP3 ADD SWAP2 SWAP1 PUSH0 MSTORE PUSH1 0x20 PUSH0 KECCAK256 SWAP1 JUMPDEST DUP2 SLOAD DUP2 MSTORE SWAP1 PUSH1 0x1 ADD SWAP1 PUSH1 0x20 ADD DUP1 DUP4 GT PUSH2 0x295 JUMPI DUP3 SWAP1 SUB PUSH1 0x1F AND DUP3 ADD SWAP2 JUMPDEST POP POP POP POP POP DUP2 JUMP JUMPDEST PUSH0 DUP1 CALLER PUSH20 0xFFFFFFFFFFFFFFFFFFFFFFFFFFFFFFFFFFFFFFFF AND PUSH20 0xFFFFFFFFFFFFFFFFFFFFFFFFFFFFFFFFFFFFFFFF AND DUP2 MSTORE PUSH1 0x20 ADD SWAP1 DUP2 MSTORE PUSH1 0x20 ADD PUSH0 KECCAK256 DUP2 SWAP1 DUP1 PUSH1 0x1 DUP2 SLOAD ADD DUP1 DUP3 SSTORE DUP1 SWAP2 POP POP PUSH1 0x1 SWAP1 SUB SWAP1 PUSH0 MSTORE PUSH1 0x20 PUSH0 KECCAK256 ADD PUSH0 SWAP1 SWAP2 SWAP1 SWAP2 SWAP1 SWAP2 POP SWAP1 DUP2 PUSH2 0x325 SWAP2 SWAP1 PUSH2 0xA51 JUMP JUMPDEST POP POP JUMP JUMPDEST PUSH1 0x60 PUSH0 DUP1 DUP5 PUSH20 0xFFFFFFFFFFFFFFFFFFFFFFFFFFFFFFFFFFFFFFFF AND PUSH20 0xFFFFFFFFFFFFFFFFFFFFFFFFFFFFFFFFFFFFFFFF AND DUP2 MSTORE PUSH1 0x20 ADD SWAP1 DUP2 MSTORE PUSH1 0x20 ADD PUSH0 KECCAK256 DUP3 DUP2 SLOAD DUP2 LT PUSH2 0x379 JUMPI PUSH2 0x378 PUSH2 0xB20 JUMP JUMPDEST JUMPDEST SWAP1 PUSH0 MSTORE PUSH1 0x20 PUSH0 KECCAK256 ADD DUP1 SLOAD PUSH2 0x38C SWAP1 PUSH2 0x884 JUMP JUMPDEST DUP1 PUSH1 0x1F ADD PUSH1 0x20 DUP1 SWAP2 DIV MUL PUSH1 0x20 ADD PUSH1 0x40 MLOAD SWAP1 DUP2 ADD PUSH1 0x40 MSTORE DUP1 SWAP3 SWAP2 SWAP1 DUP2 DUP2 MSTORE PUSH1 0x20 ADD DUP3 DUP1 SLOAD PUSH2 0x3B8 SWAP1 PUSH2 0x884 JUMP JUMPDEST DUP1 ISZERO PUSH2 0x403 JUMPI DUP1 PUSH1 0x1F LT PUSH2 0x3DA JUMPI PUSH2 0x100 DUP1 DUP4 SLOAD DIV MUL DUP4 MSTORE SWAP2 PUSH1 0x20 ADD SWAP2 PUSH2 0x403 JUMP JUMPDEST DUP3 ADD SWAP2 SWAP1 PUSH0 MSTORE PUSH1 0x20 PUSH0 KECCAK256 SWAP1 JUMPDEST DUP2 SLOAD DUP2 MSTORE SWAP1 PUSH1 0x1 ADD SWAP1 PUSH1 0x20 ADD DUP1 DUP4 GT PUSH2 0x3E6 JUMPI DUP3 SWAP1 SUB PUSH1 0x1F AND DUP3 ADD SWAP2 JUMPDEST POP POP POP POP POP SWAP1 POP SWAP3 SWAP2 POP POP JUMP JUMPDEST PUSH0 PUSH1 0x40 MLOAD SWAP1 POP SWAP1 JUMP JUMPDEST PUSH0 DUP1 REVERT JUMPDEST PUSH0 DUP1 REVERT JUMPDEST PUSH0 PUSH20 0xFFFFFFFFFFFFFFFFFFFFFFFFFFFFFFFFFFFFFFFF DUP3 AND SWAP1 POP SWAP2 SWAP1 POP JUMP JUMPDEST PUSH0 PUSH2 0x44A DUP3 PUSH2 0x421 JUMP JUMPDEST SWAP1 POP SWAP2 SWAP1 POP JUMP JUMPDEST PUSH2 0x45A DUP2 PUSH2 0x440 JUMP JUMPDEST DUP2 EQ PUSH2 0x464 JUMPI PUSH0 DUP1 REVERT JUMPDEST POP JUMP JUMPDEST PUSH0 DUP2 CALLDATALOAD SWAP1 POP PUSH2 0x475 DUP2 PUSH2 0x451 JUMP JUMPDEST SWAP3 SWAP2 POP POP JUMP JUMPDEST PUSH0 PUSH1 0x20 DUP3 DUP5 SUB SLT ISZERO PUSH2 0x490 JUMPI PUSH2 0x48F PUSH2 0x419 JUMP JUMPDEST JUMPDEST PUSH0 PUSH2 0x49D DUP5 DUP3 DUP6 ADD PUSH2 0x467 JUMP JUMPDEST SWAP2 POP POP SWAP3 SWAP2 POP POP JUMP JUMPDEST PUSH0 DUP2 MLOAD SWAP1 POP SWAP2 SWAP1 POP JUMP JUMPDEST PUSH0 DUP3 DUP3 MSTORE PUSH1 0x20 DUP3 ADD SWAP1 POP SWAP3 SWAP2 POP POP JUMP JUMPDEST PUSH0 DUP2 SWAP1 POP PUSH1 0x20 DUP3 ADD SWAP1 POP SWAP2 SWAP1 POP JUMP JUMPDEST PUSH0 DUP2 MLOAD SWAP1 POP SWAP2 SWAP1 POP JUMP JUMPDEST PUSH0 DUP3 DUP3 MSTORE PUSH1 0x20 DUP3 ADD SWAP1 POP SWAP3 SWAP2 POP POP JUMP JUMPDEST PUSH0 JUMPDEST DUP4 DUP2 LT ISZERO PUSH2 0x506 JUMPI DUP1 DUP3 ADD MLOAD DUP2 DUP5 ADD MSTORE PUSH1 0x20 DUP2 ADD SWAP1 POP PUSH2 0x4EB JUMP JUMPDEST PUSH0 DUP5 DUP5 ADD MSTORE POP POP POP POP JUMP JUMPDEST PUSH0 PUSH1 0x1F NOT PUSH1 0x1F DUP4 ADD AND SWAP1 POP SWAP2 SWAP1 POP JUMP JUMPDEST PUSH0 PUSH2 0x52B DUP3 PUSH2 0x4CF JUMP JUMPDEST PUSH2 0x535 DUP2 DUP6 PUSH2 0x4D9 JUMP JUMPDEST SWAP4 POP PUSH2 0x545 DUP2 DUP6 PUSH1 0x20 DUP7 ADD PUSH2 0x4E9 JUMP JUMPDEST PUSH2 0x54E DUP2 PUSH2 0x511 JUMP JUMPDEST DUP5 ADD SWAP2 POP POP SWAP3 SWAP2 POP POP JUMP JUMPDEST PUSH0 PUSH2 0x564 DUP4 DUP4 PUSH2 0x521 JUMP JUMPDEST SWAP1 POP SWAP3 SWAP2 POP POP JUMP JUMPDEST PUSH0 PUSH1 0x20 DUP3 ADD SWAP1 POP SWAP2 SWAP1 POP JUMP JUMPDEST PUSH0 PUSH2 0x582 DUP3 PUSH2 0x4A6 JUMP JUMPDEST PUSH2 0x58C DUP2 DUP6 PUSH2 0x4B0 JUMP JUMPDEST SWAP4 POP DUP4 PUSH1 0x20 DUP3 MUL DUP6 ADD PUSH2 0x59E DUP6 PUSH2 0x4C0 JUMP JUMPDEST DUP1 PUSH0 JUMPDEST DUP6 DUP2 LT ISZERO PUSH2 0x5D9 JUMPI DUP5 DUP5 SUB DUP10 MSTORE DUP2 MLOAD PUSH2 0x5BA DUP6 DUP3 PUSH2 0x559 JUMP JUMPDEST SWAP5 POP PUSH2 0x5C5 DUP4 PUSH2 0x56C JUMP JUMPDEST SWAP3 POP PUSH1 0x20 DUP11 ADD SWAP10 POP POP PUSH1 0x1 DUP2 ADD SWAP1 POP PUSH2 0x5A1 JUMP JUMPDEST POP DUP3 SWAP8 POP DUP8 SWAP6 POP POP POP POP POP POP SWAP3 SWAP2 POP POP JUMP JUMPDEST PUSH0 PUSH1 0x20 DUP3 ADD SWAP1 POP DUP2 DUP2 SUB PUSH0 DUP4 ADD MSTORE PUSH2 0x603 DUP2 DUP5 PUSH2 0x578 JUMP JUMPDEST SWAP1 POP SWAP3 SWAP2 POP POP JUMP JUMPDEST PUSH0 DUP2 SWAP1 POP SWAP2 SWAP1 POP JUMP JUMPDEST PUSH2 0x61D DUP2 PUSH2 0x60B JUMP JUMPDEST DUP2 EQ PUSH2 0x627 JUMPI PUSH0 DUP1 REVERT JUMPDEST POP JUMP JUMPDEST PUSH0 DUP2 CALLDATALOAD SWAP1 POP PUSH2 0x638 DUP2 PUSH2 0x614 JUMP JUMPDEST SWAP3 SWAP2 POP POP JUMP JUMPDEST PUSH0 DUP1 PUSH1 0x40 DUP4 DUP6 SUB SLT ISZERO PUSH2 0x654 JUMPI PUSH2 0x653 PUSH2 0x419 JUMP JUMPDEST JUMPDEST PUSH0 PUSH2 0x661 DUP6 DUP3 DUP7 ADD PUSH2 0x467 JUMP JUMPDEST SWAP3 POP POP PUSH1 0x20 PUSH2 0x672 DUP6 DUP3 DUP7 ADD PUSH2 0x62A JUMP JUMPDEST SWAP2 POP POP SWAP3 POP SWAP3 SWAP1 POP JUMP JUMPDEST PUSH0 DUP3 DUP3 MSTORE PUSH1 0x20 DUP3 ADD SWAP1 POP SWAP3 SWAP2 POP POP JUMP JUMPDEST PUSH0 PUSH2 0x696 DUP3 PUSH2 0x4CF JUMP JUMPDEST PUSH2 0x6A0 DUP2 DUP6 PUSH2 0x67C JUMP JUMPDEST SWAP4 POP PUSH2 0x6B0 DUP2 DUP6 PUSH1 0x20 DUP7 ADD PUSH2 0x4E9 JUMP JUMPDEST PUSH2 0x6B9 DUP2 PUSH2 0x511 JUMP JUMPDEST DUP5 ADD SWAP2 POP POP SWAP3 SWAP2 POP POP JUMP JUMPDEST PUSH0 PUSH1 0x20 DUP3 ADD SWAP1 POP DUP2 DUP2 SUB PUSH0 DUP4 ADD MSTORE PUSH2 0x6DC DUP2 DUP5 PUSH2 0x68C JUMP JUMPDEST SWAP1 POP SWAP3 SWAP2 POP POP JUMP JUMPDEST PUSH0 DUP1 REVERT JUMPDEST PUSH0 DUP1 REVERT JUMPDEST PUSH32 0x4E487B7100000000000000000000000000000000000000000000000000000000 PUSH0 MSTORE PUSH1 0x41 PUSH1 0x4 MSTORE PUSH1 0x24 PUSH0 REVERT JUMPDEST PUSH2 0x722 DUP3 PUSH2 0x511 JUMP JUMPDEST DUP2 ADD DUP2 DUP2 LT PUSH8 0xFFFFFFFFFFFFFFFF DUP3 GT OR ISZERO PUSH2 0x741 JUMPI PUSH2 0x740 PUSH2 0x6EC JUMP JUMPDEST JUMPDEST DUP1 PUSH1 0x40 MSTORE POP POP POP JUMP JUMPDEST PUSH0 PUSH2 0x753 PUSH2 0x410 JUMP JUMPDEST SWAP1 POP PUSH2 0x75F DUP3 DUP3 PUSH2 0x719 JUMP JUMPDEST SWAP2 SWAP1 POP JUMP JUMPDEST PUSH0 PUSH8 0xFFFFFFFFFFFFFFFF DUP3 GT ISZERO PUSH2 0x77E JUMPI PUSH2 0x77D PUSH2 0x6EC JUMP JUMPDEST JUMPDEST PUSH2 0x787 DUP3 PUSH2 0x511 JUMP JUMPDEST SWAP1 POP PUSH1 0x20 DUP2 ADD SWAP1 POP SWAP2 SWAP1 POP JUMP JUMPDEST DUP3 DUP2 DUP4 CALLDATACOPY PUSH0 DUP4 DUP4 ADD MSTORE POP POP POP JUMP JUMPDEST PUSH0 PUSH2 0x7B4 PUSH2 0x7AF DUP5 PUSH2 0x764 JUMP JUMPDEST PUSH2 0x74A JUMP JUMPDEST SWAP1 POP DUP3 DUP2 MSTORE PUSH1 0x20 DUP2 ADD DUP5 DUP5 DUP5 ADD GT ISZERO PUSH2 0x7D0 JUMPI PUSH2 0x7CF PUSH2 0x6E8 JUMP JUMPDEST JUMPDEST PUSH2 0x7DB DUP5 DUP3 DUP6 PUSH2 0x794 JUMP JUMPDEST POP SWAP4 SWAP3 POP POP POP JUMP JUMPDEST PUSH0 DUP3 PUSH1 0x1F DUP4 ADD SLT PUSH2 0x7F7 JUMPI PUSH2 0x7F6 PUSH2 0x6E4 JUMP JUMPDEST JUMPDEST DUP2 CALLDATALOAD PUSH2 0x807 DUP5 DUP3 PUSH1 0x20 DUP7 ADD PUSH2 0x7A2 JUMP JUMPDEST SWAP2 POP POP SWAP3 SWAP2 POP POP JUMP JUMPDEST PUSH0 PUSH1 0x20 DUP3 DUP5 SUB SLT ISZERO PUSH2 0x825 JUMPI PUSH2 0x824 PUSH2 0x419 JUMP JUMPDEST JUMPDEST PUSH0 DUP3 ADD CALLDATALOAD PUSH8 0xFFFFFFFFFFFFFFFF DUP2 GT ISZERO PUSH2 0x842 JUMPI PUSH2 0x841 PUSH2 0x41D JUMP JUMPDEST JUMPDEST PUSH2 0x84E DUP5 DUP3 DUP6 ADD PUSH2 0x7E3 JUMP JUMPDEST SWAP2 POP POP SWAP3 SWAP2 POP POP JUMP JUMPDEST PUSH32 0x4E487B7100000000000000000000000000000000000000000000000000000000 PUSH0 MSTORE PUSH1 0x22 PUSH1 0x4 MSTORE PUSH1 0x24 PUSH0 REVERT JUMPDEST PUSH0 PUSH1 0x2 DUP3 DIV SWAP1 POP PUSH1 0x1 DUP3 AND DUP1 PUSH2 0x89B JUMPI PUSH1 0x7F DUP3 AND SWAP2 POP JUMPDEST PUSH1 0x20 DUP3 LT DUP2 SUB PUSH2 0x8AE JUMPI PUSH2 0x8AD PUSH2 0x857 JUMP JUMPDEST JUMPDEST POP SWAP2 SWAP1 POP JUMP JUMPDEST PUSH0 DUP2 SWAP1 POP DUP2 PUSH0 MSTORE PUSH1 0x20 PUSH0 KECCAK256 SWAP1 POP SWAP2 SWAP1 POP JUMP JUMPDEST PUSH0 PUSH1 0x20 PUSH1 0x1F DUP4 ADD DIV SWAP1 POP SWAP2 SWAP1 POP JUMP JUMPDEST PUSH0 DUP3 DUP3 SHL SWAP1 POP SWAP3 SWAP2 POP POP JUMP JUMPDEST PUSH0 PUSH1 0x8 DUP4 MUL PUSH2 0x910 PUSH32 0xFFFFFFFFFFFFFFFFFFFFFFFFFFFFFFFFFFFFFFFFFFFFFFFFFFFFFFFFFFFFFFFF DUP3 PUSH2 0x8D5 JUMP JUMPDEST PUSH2 0x91A DUP7 DUP4 PUSH2 0x8D5 JUMP JUMPDEST SWAP6 POP DUP1 NOT DUP5 AND SWAP4 POP DUP1 DUP7 AND DUP5 OR SWAP3 POP POP POP SWAP4 SWAP3 POP POP POP JUMP JUMPDEST PUSH0 DUP2 SWAP1 POP SWAP2 SWAP1 POP JUMP JUMPDEST PUSH0 PUSH2 0x955 PUSH2 0x950 PUSH2 0x94B DUP5 PUSH2 0x60B JUMP JUMPDEST PUSH2 0x932 JUMP JUMPDEST PUSH2 0x60B JUMP JUMPDEST SWAP1 POP SWAP2 SWAP1 POP JUMP JUMPDEST PUSH0 DUP2 SWAP1 POP SWAP2 SWAP1 POP JUMP JUMPDEST PUSH2 0x96E DUP4 PUSH2 0x93B JUMP JUMPDEST PUSH2 0x982 PUSH2 0x97A DUP3 PUSH2 0x95C JUMP JUMPDEST DUP5 DUP5 SLOAD PUSH2 0x8E1 JUMP JUMPDEST DUP3 SSTORE POP POP POP POP JUMP JUMPDEST PUSH0 SWAP1 JUMP JUMPDEST PUSH2 0x996 PUSH2 0x98A JUMP JUMPDEST PUSH2 0x9A1 DUP2 DUP5 DUP5 PUSH2 0x965 JUMP JUMPDEST POP POP POP JUMP JUMPDEST JUMPDEST DUP2 DUP2 LT ISZERO PUSH2 0x9C4 JUMPI PUSH2 0x9B9 PUSH0 DUP3 PUSH2 0x98E JUMP JUMPDEST PUSH1 0x1 DUP2 ADD SWAP1 POP PUSH2 0x9A7 JUMP JUMPDEST POP POP JUMP JUMPDEST PUSH1 0x1F DUP3 GT ISZERO PUSH2 0xA09 JUMPI PUSH2 0x9DA DUP2 PUSH2 0x8B4 JUMP JUMPDEST PUSH2 0x9E3 DUP5 PUSH2 0x8C6 JUMP JUMPDEST DUP2 ADD PUSH1 0x20 DUP6 LT ISZERO PUSH2 0x9F2 JUMPI DUP2 SWAP1 POP JUMPDEST PUSH2 0xA06 PUSH2 0x9FE DUP6 PUSH2 0x8C6 JUMP JUMPDEST DUP4 ADD DUP3 PUSH2 0x9A6 JUMP JUMPDEST POP POP JUMPDEST POP POP POP JUMP JUMPDEST PUSH0 DUP3 DUP3 SHR SWAP1 POP SWAP3 SWAP2 POP POP JUMP JUMPDEST PUSH0 PUSH2 0xA29 PUSH0 NOT DUP5 PUSH1 0x8 MUL PUSH2 0xA0E JUMP JUMPDEST NOT DUP1 DUP4 AND SWAP2 POP POP SWAP3 SWAP2 POP POP JUMP JUMPDEST PUSH0 PUSH2 0xA41 DUP4 DUP4 PUSH2 0xA1A JUMP JUMPDEST SWAP2 POP DUP3 PUSH1 0x2 MUL DUP3 OR SWAP1 POP SWAP3 SWAP2 POP POP JUMP JUMPDEST PUSH2 0xA5A DUP3 PUSH2 0x4CF JUMP JUMPDEST PUSH8 0xFFFFFFFFFFFFFFFF DUP2 GT ISZERO PUSH2 0xA73 JUMPI PUSH2 0xA72 PUSH2 0x6EC JUMP JUMPDEST JUMPDEST PUSH2 0xA7D DUP3 SLOAD PUSH2 0x884 JUMP JUMPDEST PUSH2 0xA88 DUP3 DUP3 DUP6 PUSH2 0x9C8 JUMP JUMPDEST PUSH0 PUSH1 0x20 SWAP1 POP PUSH1 0x1F DUP4 GT PUSH1 0x1 DUP2 EQ PUSH2 0xAB9 JUMPI PUSH0 DUP5 ISZERO PUSH2 0xAA7 JUMPI DUP3 DUP8 ADD MLOAD SWAP1 POP JUMPDEST PUSH2 0xAB1 DUP6 DUP3 PUSH2 0xA36 JUMP JUMPDEST DUP7 SSTORE POP PUSH2 0xB18 JUMP JUMPDEST PUSH1 0x1F NOT DUP5 AND PUSH2 0xAC7 DUP7 PUSH2 0x8B4 JUMP JUMPDEST PUSH0 JUMPDEST DUP3 DUP2 LT ISZERO PUSH2 0xAEE JUMPI DUP5 DUP10 ADD MLOAD DUP3 SSTORE PUSH1 0x1 DUP3 ADD SWAP2 POP PUSH1 0x20 DUP6 ADD SWAP5 POP PUSH1 0x20 DUP2 ADD SWAP1 POP PUSH2 0xAC9 JUMP JUMPDEST DUP7 DUP4 LT ISZERO PUSH2 0xB0B JUMPI DUP5 DUP10 ADD MLOAD PUSH2 0xB07 PUSH1 0x1F DUP10 AND DUP3 PUSH2 0xA1A JUMP JUMPDEST DUP4 SSTORE POP JUMPDEST PUSH1 0x1 PUSH1 0x2 DUP9 MUL ADD DUP9 SSTORE POP POP POP JUMPDEST POP POP POP POP POP POP JUMP JUMPDEST PUSH32 0x4E487B7100000000000000000000000000000000000000000000000000000000 PUSH0 MSTORE PUSH1 0x32 PUSH1 0x4 MSTORE PUSH1 0x24 PUSH0 REVERT INVALID LOG2 PUSH5 0x6970667358 0x22 SLT KECCAK256 0x24 0xE6 0xF6 0xC7 0x28 0xC2 DUP1 0xED 0x24 0xFB JUMPDEST 0xFC 0xDB GAS DUP8 STOP SDIV LOG1 0xED 0xAC CHAINID 0x4A 0xAD 0x2E 0x22 0x2B LOG4 SDIV XOR 0xD0 0x1F PUSH15 0x64736F6C6343000816003300000000 "
				},
				"gasEstimates": {
					"creation": {
						"codeDepositCost": "589400",
						"executionCost": "623",
						"totalCost": "590023"
					},
					"external": {
						"CreateTweets(string)": "infinite",
						"GetAllTweets(address)": "infinite",
						"GetTweet(address,uint256)": "infinite",
						"tweets(address,uint256)": "infinite"
					}
				},
				"methodIdentifiers": {
					"CreateTweets(string)": "1b3f3bec",
					"GetAllTweets(address)": "015b8c45",
					"GetTweet(address,uint256)": "37f36a4c",
					"tweets(address,uint256)": "05a1b4a9"
				}
			},
			"storageLayout": {
				"storage": [
					{
						"astId": 6,
						"contract": "contracts/tweetArray.sol:TweetOfArray",
						"label": "tweets",
						"offset": 0,
						"slot": "0",
						"type": "t_mapping(t_address,t_array(t_string_storage)dyn_storage)"
					}
				],
				"types": {
					"t_address": {
						"encoding": "inplace",
						"label": "address",
						"numberOfBytes": "20"
					},
					"t_array(t_string_storage)dyn_storage": {
						"base": "t_string_storage",
						"encoding": "dynamic_array",
						"label": "string[]",
						"numberOfBytes": "32"
					},
					"t_mapping(t_address,t_array(t_string_storage)dyn_storage)": {
						"encoding": "mapping",
						"key": "t_address",
						"label": "mapping(address => string[])",
						"numberOfBytes": "32",
						"value": "t_array(t_string_storage)dyn_storage"
					},
					"t_string_storage": {
						"encoding": "bytes",
						"label": "string",
						"numberOfBytes": "32"
					}
				}
			},
			"userdoc": {
				"kind": "user",
				"methods": {},
				"version": 1
			}
		}
	}
}