{
	"contracts/Twitter_required.sol": {
		"Twitter": {
			"abi": [
				{
					"inputs": [
						{
							"internalType": "string",
							"name": "_tweet",
							"type": "string"
						}
					],
					"name": "CreateTweet",
					"outputs": [],
					"stateMutability": "nonpayable",
					"type": "function"
				},
				{
					"inputs": [
						{
							"internalType": "address",
							"name": "",
							"type": "address"
						},
						{
							"internalType": "uint256",
							"name": "",
							"type": "uint256"
						}
					],
					"name": "tweets",
					"outputs": [
						{
							"internalType": "address",
							"name": "author",
							"type": "address"
						},
						{
							"internalType": "string",
							"name": "content",
							"type": "string"
						},
						{
							"internalType": "uint256",
							"name": "timestamp",
							"type": "uint256"
						},
						{
							"internalType": "uint256",
							"name": "likes",
							"type": "uint256"
						}
					],
					"stateMutability": "view",
					"type": "function"
				}
			],
			"devdoc": {
				"kind": "dev",
				"methods": {},
				"version": 1
			},
			"evm": {
				"assembly": "    /* \"contracts/Twitter_required.sol\":136:965  contract Twitter ... */\n  mstore(0x40, 0x80)\n  callvalue\n  dup1\n  iszero\n  tag_1\n  jumpi\n  0x00\n  dup1\n  revert\ntag_1:\n  pop\n  dataSize(sub_0)\n  dup1\n  dataOffset(sub_0)\n  0x00\n  codecopy\n  0x00\n  return\nstop\n\nsub_0: assembly {\n        /* \"contracts/Twitter_required.sol\":136:965  contract Twitter ... */\n      mstore(0x40, 0x80)\n      callvalue\n      dup1\n      iszero\n      tag_1\n      jumpi\n      0x00\n      dup1\n      revert\n    tag_1:\n      pop\n      jumpi(tag_2, lt(calldatasize, 0x04))\n      shr(0xe0, calldataload(0x00))\n      dup1\n      0x05a1b4a9\n      eq\n      tag_3\n      jumpi\n      dup1\n      0x2a1f1d06\n      eq\n      tag_4\n      jumpi\n    tag_2:\n      0x00\n      dup1\n      revert\n        /* \"contracts/Twitter_required.sol\":344:384  mapping (address=>Tweet[]) public tweets */\n    tag_3:\n      tag_5\n      0x04\n      dup1\n      calldatasize\n      sub\n      dup2\n      add\n      swap1\n      tag_6\n      swap2\n      swap1\n      tag_7\n      jump\t// in\n    tag_6:\n      tag_8\n      jump\t// in\n    tag_5:\n      mload(0x40)\n      tag_9\n      swap5\n      swap4\n      swap3\n      swap2\n      swap1\n      tag_10\n      jump\t// in\n    tag_9:\n      mload(0x40)\n      dup1\n      swap2\n      sub\n      swap1\n      return\n        /* \"contracts/Twitter_required.sol\":393:962  function CreateTweet(string memory _tweet) public ... */\n    tag_4:\n      tag_11\n      0x04\n      dup1\n      calldatasize\n      sub\n      dup2\n      add\n      swap1\n      tag_12\n      swap2\n      swap1\n      tag_13\n      jump\t// in\n    tag_12:\n      tag_14\n      jump\t// in\n    tag_11:\n      stop\n        /* \"contracts/Twitter_required.sol\":344:384  mapping (address=>Tweet[]) public tweets */\n    tag_8:\n      mstore(0x20, 0x00)\n      dup2\n      0x00\n      mstore\n      keccak256(0x00, 0x40)\n      dup2\n      dup2\n      sload\n      dup2\n      lt\n      tag_15\n      jumpi\n      0x00\n      dup1\n      revert\n    tag_15:\n      swap1\n      0x00\n      mstore\n      keccak256(0x00, 0x20)\n      swap1\n      0x04\n      mul\n      add\n      0x00\n      swap2\n      pop\n      swap2\n      pop\n      pop\n      dup1\n      0x00\n      add\n      0x00\n      swap1\n      sload\n      swap1\n      0x0100\n      exp\n      swap1\n      div\n      0xffffffffffffffffffffffffffffffffffffffff\n      and\n      swap1\n      dup1\n      0x01\n      add\n      dup1\n      sload\n      tag_17\n      swap1\n      tag_18\n      jump\t// in\n    tag_17:\n      dup1\n      0x1f\n      add\n      0x20\n      dup1\n      swap2\n      div\n      mul\n      0x20\n      add\n      mload(0x40)\n      swap1\n      dup2\n      add\n      0x40\n      mstore\n      dup1\n      swap3\n      swap2\n      swap1\n      dup2\n      dup2\n      mstore\n      0x20\n      add\n      dup3\n      dup1\n      sload\n      tag_19\n      swap1\n      tag_18\n      jump\t// in\n    tag_19:\n      dup1\n      iszero\n      tag_20\n      jumpi\n      dup1\n      0x1f\n      lt\n      tag_21\n      jumpi\n      0x0100\n      dup1\n      dup4\n      sload\n      div\n      mul\n      dup4\n      mstore\n      swap2\n      0x20\n      add\n      swap2\n      jump(tag_20)\n    tag_21:\n      dup3\n      add\n      swap2\n      swap1\n      0x00\n      mstore\n      keccak256(0x00, 0x20)\n      swap1\n    tag_22:\n      dup2\n      sload\n      dup2\n      mstore\n      swap1\n      0x01\n      add\n      swap1\n      0x20\n      add\n      dup1\n      dup4\n      gt\n      tag_22\n      jumpi\n      dup3\n      swap1\n      sub\n      0x1f\n      and\n      dup3\n      add\n      swap2\n    tag_20:\n      pop\n      pop\n      pop\n      pop\n      pop\n      swap1\n      dup1\n      0x02\n      add\n      sload\n      swap1\n      dup1\n      0x03\n      add\n      sload\n      swap1\n      pop\n      dup5\n      jump\t// out\n        /* \"contracts/Twitter_required.sol\":393:962  function CreateTweet(string memory _tweet) public ... */\n    tag_14:\n        /* \"contracts/Twitter_required.sol\":332:335  240 */\n      0xf0\n        /* \"contracts/Twitter_required.sol\":468:508  bytes(_tweet).length <= MAX_TWEET_LENGTH */\n      0xff\n      and\n        /* \"contracts/Twitter_required.sol\":474:480  _tweet */\n      dup2\n        /* \"contracts/Twitter_required.sol\":468:488  bytes(_tweet).length */\n      mload\n        /* \"contracts/Twitter_required.sol\":468:508  bytes(_tweet).length <= MAX_TWEET_LENGTH */\n      gt\n      iszero\n        /* \"contracts/Twitter_required.sol\":460:530  require(bytes(_tweet).length <= MAX_TWEET_LENGTH, \"Tweet is too long\") */\n      tag_24\n      jumpi\n      mload(0x40)\n      0x08c379a000000000000000000000000000000000000000000000000000000000\n      dup2\n      mstore\n      0x04\n      add\n      tag_25\n      swap1\n      tag_26\n      jump\t// in\n    tag_25:\n      mload(0x40)\n      dup1\n      swap2\n      sub\n      swap1\n      revert\n    tag_24:\n        /* \"contracts/Twitter_required.sol\":702:723  Tweet memory newTweet */\n      0x00\n        /* \"contracts/Twitter_required.sol\":726:906  Tweet(... */\n      mload(0x40)\n      dup1\n      0x80\n      add\n      0x40\n      mstore\n      dup1\n        /* \"contracts/Twitter_required.sol\":773:783  msg.sender */\n      caller\n        /* \"contracts/Twitter_required.sol\":726:906  Tweet(... */\n      0xffffffffffffffffffffffffffffffffffffffff\n      and\n      dup2\n      mstore\n      0x20\n      add\n        /* \"contracts/Twitter_required.sol\":811:817  _tweet */\n      dup4\n        /* \"contracts/Twitter_required.sol\":726:906  Tweet(... */\n      dup2\n      mstore\n      0x20\n      add\n        /* \"contracts/Twitter_required.sol\":848:863  block.timestamp */\n      timestamp\n        /* \"contracts/Twitter_required.sol\":726:906  Tweet(... */\n      dup2\n      mstore\n      0x20\n      add\n        /* \"contracts/Twitter_required.sol\":889:890  1 */\n      0x01\n        /* \"contracts/Twitter_required.sol\":726:906  Tweet(... */\n      dup2\n      mstore\n      pop\n        /* \"contracts/Twitter_required.sol\":702:906  Tweet memory newTweet = Tweet(... */\n      swap1\n      pop\n        /* \"contracts/Twitter_required.sol\":921:927  tweets */\n      0x00\n        /* \"contracts/Twitter_required.sol\":921:939  tweets[msg.sender] */\n      dup1\n        /* \"contracts/Twitter_required.sol\":928:938  msg.sender */\n      caller\n        /* \"contracts/Twitter_required.sol\":921:939  tweets[msg.sender] */\n      0xffffffffffffffffffffffffffffffffffffffff\n      and\n      0xffffffffffffffffffffffffffffffffffffffff\n      and\n      dup2\n      mstore\n      0x20\n      add\n      swap1\n      dup2\n      mstore\n      0x20\n      add\n      0x00\n      keccak256\n        /* \"contracts/Twitter_required.sol\":945:953  newTweet */\n      dup2\n        /* \"contracts/Twitter_required.sol\":921:954  tweets[msg.sender].push(newTweet) */\n      swap1\n      dup1\n      0x01\n      dup2\n      sload\n      add\n      dup1\n      dup3\n      sstore\n      dup1\n      swap2\n      pop\n      pop\n      0x01\n      swap1\n      sub\n      swap1\n      0x00\n      mstore\n      keccak256(0x00, 0x20)\n      swap1\n      0x04\n      mul\n      add\n      0x00\n      swap1\n      swap2\n      swap1\n      swap2\n      swap1\n      swap2\n      pop\n      0x00\n      dup3\n      add\n      mload\n      dup2\n      0x00\n      add\n      exp(0x0100, 0x00)\n      dup2\n      sload\n      dup2\n      0xffffffffffffffffffffffffffffffffffffffff\n      mul\n      not\n      and\n      swap1\n      dup4\n      0xffffffffffffffffffffffffffffffffffffffff\n      and\n      mul\n      or\n      swap1\n      sstore\n      pop\n      0x20\n      dup3\n      add\n      mload\n      dup2\n      0x01\n      add\n      swap1\n      dup2\n      tag_28\n      swap2\n      swap1\n      tag_29\n      jump\t// in\n    tag_28:\n      pop\n      0x40\n      dup3\n      add\n      mload\n      dup2\n      0x02\n      add\n      sstore\n      0x60\n      dup3\n      add\n      mload\n      dup2\n      0x03\n      add\n      sstore\n      pop\n      pop\n        /* \"contracts/Twitter_required.sol\":449:962  {... */\n      pop\n        /* \"contracts/Twitter_required.sol\":393:962  function CreateTweet(string memory _tweet) public ... */\n      pop\n      jump\t// out\n        /* \"#utility.yul\":7:82   */\n    tag_30:\n        /* \"#utility.yul\":40:46   */\n      0x00\n        /* \"#utility.yul\":73:75   */\n      0x40\n        /* \"#utility.yul\":67:76   */\n      mload\n        /* \"#utility.yul\":57:76   */\n      swap1\n      pop\n        /* \"#utility.yul\":7:82   */\n      swap1\n      jump\t// out\n        /* \"#utility.yul\":88:205   */\n    tag_31:\n        /* \"#utility.yul\":197:198   */\n      0x00\n        /* \"#utility.yul\":194:195   */\n      dup1\n        /* \"#utility.yul\":187:199   */\n      revert\n        /* \"#utility.yul\":211:328   */\n    tag_32:\n        /* \"#utility.yul\":320:321   */\n      0x00\n        /* \"#utility.yul\":317:318   */\n      dup1\n        /* \"#utility.yul\":310:322   */\n      revert\n        /* \"#utility.yul\":334:460   */\n    tag_33:\n        /* \"#utility.yul\":371:378   */\n      0x00\n        /* \"#utility.yul\":411:453   */\n      0xffffffffffffffffffffffffffffffffffffffff\n        /* \"#utility.yul\":404:409   */\n      dup3\n        /* \"#utility.yul\":400:454   */\n      and\n        /* \"#utility.yul\":389:454   */\n      swap1\n      pop\n        /* \"#utility.yul\":334:460   */\n      swap2\n      swap1\n      pop\n      jump\t// out\n        /* \"#utility.yul\":466:562   */\n    tag_34:\n        /* \"#utility.yul\":503:510   */\n      0x00\n        /* \"#utility.yul\":532:556   */\n      tag_80\n        /* \"#utility.yul\":550:555   */\n      dup3\n        /* \"#utility.yul\":532:556   */\n      tag_33\n      jump\t// in\n    tag_80:\n        /* \"#utility.yul\":521:556   */\n      swap1\n      pop\n        /* \"#utility.yul\":466:562   */\n      swap2\n      swap1\n      pop\n      jump\t// out\n        /* \"#utility.yul\":568:690   */\n    tag_35:\n        /* \"#utility.yul\":641:665   */\n      tag_82\n        /* \"#utility.yul\":659:664   */\n      dup2\n        /* \"#utility.yul\":641:665   */\n      tag_34\n      jump\t// in\n    tag_82:\n        /* \"#utility.yul\":634:639   */\n      dup2\n        /* \"#utility.yul\":631:666   */\n      eq\n        /* \"#utility.yul\":621:684   */\n      tag_83\n      jumpi\n        /* \"#utility.yul\":680:681   */\n      0x00\n        /* \"#utility.yul\":677:678   */\n      dup1\n        /* \"#utility.yul\":670:682   */\n      revert\n        /* \"#utility.yul\":621:684   */\n    tag_83:\n        /* \"#utility.yul\":568:690   */\n      pop\n      jump\t// out\n        /* \"#utility.yul\":696:835   */\n    tag_36:\n        /* \"#utility.yul\":742:747   */\n      0x00\n        /* \"#utility.yul\":780:786   */\n      dup2\n        /* \"#utility.yul\":767:787   */\n      calldataload\n        /* \"#utility.yul\":758:787   */\n      swap1\n      pop\n        /* \"#utility.yul\":796:829   */\n      tag_85\n        /* \"#utility.yul\":823:828   */\n      dup2\n        /* \"#utility.yul\":796:829   */\n      tag_35\n      jump\t// in\n    tag_85:\n        /* \"#utility.yul\":696:835   */\n      swap3\n      swap2\n      pop\n      pop\n      jump\t// out\n        /* \"#utility.yul\":841:918   */\n    tag_37:\n        /* \"#utility.yul\":878:885   */\n      0x00\n        /* \"#utility.yul\":907:912   */\n      dup2\n        /* \"#utility.yul\":896:912   */\n      swap1\n      pop\n        /* \"#utility.yul\":841:918   */\n      swap2\n      swap1\n      pop\n      jump\t// out\n        /* \"#utility.yul\":924:1046   */\n    tag_38:\n        /* \"#utility.yul\":997:1021   */\n      tag_88\n        /* \"#utility.yul\":1015:1020   */\n      dup2\n        /* \"#utility.yul\":997:1021   */\n      tag_37\n      jump\t// in\n    tag_88:\n        /* \"#utility.yul\":990:995   */\n      dup2\n        /* \"#utility.yul\":987:1022   */\n      eq\n        /* \"#utility.yul\":977:1040   */\n      tag_89\n      jumpi\n        /* \"#utility.yul\":1036:1037   */\n      0x00\n        /* \"#utility.yul\":1033:1034   */\n      dup1\n        /* \"#utility.yul\":1026:1038   */\n      revert\n        /* \"#utility.yul\":977:1040   */\n    tag_89:\n        /* \"#utility.yul\":924:1046   */\n      pop\n      jump\t// out\n        /* \"#utility.yul\":1052:1191   */\n    tag_39:\n        /* \"#utility.yul\":1098:1103   */\n      0x00\n        /* \"#utility.yul\":1136:1142   */\n      dup2\n        /* \"#utility.yul\":1123:1143   */\n      calldataload\n        /* \"#utility.yul\":1114:1143   */\n      swap1\n      pop\n        /* \"#utility.yul\":1152:1185   */\n      tag_91\n        /* \"#utility.yul\":1179:1184   */\n      dup2\n        /* \"#utility.yul\":1152:1185   */\n      tag_38\n      jump\t// in\n    tag_91:\n        /* \"#utility.yul\":1052:1191   */\n      swap3\n      swap2\n      pop\n      pop\n      jump\t// out\n        /* \"#utility.yul\":1197:1671   */\n    tag_7:\n        /* \"#utility.yul\":1265:1271   */\n      0x00\n        /* \"#utility.yul\":1273:1279   */\n      dup1\n        /* \"#utility.yul\":1322:1324   */\n      0x40\n        /* \"#utility.yul\":1310:1319   */\n      dup4\n        /* \"#utility.yul\":1301:1308   */\n      dup6\n        /* \"#utility.yul\":1297:1320   */\n      sub\n        /* \"#utility.yul\":1293:1325   */\n      slt\n        /* \"#utility.yul\":1290:1409   */\n      iszero\n      tag_93\n      jumpi\n        /* \"#utility.yul\":1328:1407   */\n      tag_94\n      tag_31\n      jump\t// in\n    tag_94:\n        /* \"#utility.yul\":1290:1409   */\n    tag_93:\n        /* \"#utility.yul\":1448:1449   */\n      0x00\n        /* \"#utility.yul\":1473:1526   */\n      tag_95\n        /* \"#utility.yul\":1518:1525   */\n      dup6\n        /* \"#utility.yul\":1509:1515   */\n      dup3\n        /* \"#utility.yul\":1498:1507   */\n      dup7\n        /* \"#utility.yul\":1494:1516   */\n      add\n        /* \"#utility.yul\":1473:1526   */\n      tag_36\n      jump\t// in\n    tag_95:\n        /* \"#utility.yul\":1463:1526   */\n      swap3\n      pop\n        /* \"#utility.yul\":1419:1536   */\n      pop\n        /* \"#utility.yul\":1575:1577   */\n      0x20\n        /* \"#utility.yul\":1601:1654   */\n      tag_96\n        /* \"#utility.yul\":1646:1653   */\n      dup6\n        /* \"#utility.yul\":1637:1643   */\n      dup3\n        /* \"#utility.yul\":1626:1635   */\n      dup7\n        /* \"#utility.yul\":1622:1644   */\n      add\n        /* \"#utility.yul\":1601:1654   */\n      tag_39\n      jump\t// in\n    tag_96:\n        /* \"#utility.yul\":1591:1654   */\n      swap2\n      pop\n        /* \"#utility.yul\":1546:1664   */\n      pop\n        /* \"#utility.yul\":1197:1671   */\n      swap3\n      pop\n      swap3\n      swap1\n      pop\n      jump\t// out\n        /* \"#utility.yul\":1677:1795   */\n    tag_40:\n        /* \"#utility.yul\":1764:1788   */\n      tag_98\n        /* \"#utility.yul\":1782:1787   */\n      dup2\n        /* \"#utility.yul\":1764:1788   */\n      tag_34\n      jump\t// in\n    tag_98:\n        /* \"#utility.yul\":1759:1762   */\n      dup3\n        /* \"#utility.yul\":1752:1789   */\n      mstore\n        /* \"#utility.yul\":1677:1795   */\n      pop\n      pop\n      jump\t// out\n        /* \"#utility.yul\":1801:1900   */\n    tag_41:\n        /* \"#utility.yul\":1853:1859   */\n      0x00\n        /* \"#utility.yul\":1887:1892   */\n      dup2\n        /* \"#utility.yul\":1881:1893   */\n      mload\n        /* \"#utility.yul\":1871:1893   */\n      swap1\n      pop\n        /* \"#utility.yul\":1801:1900   */\n      swap2\n      swap1\n      pop\n      jump\t// out\n        /* \"#utility.yul\":1906:2075   */\n    tag_42:\n        /* \"#utility.yul\":1990:2001   */\n      0x00\n        /* \"#utility.yul\":2024:2030   */\n      dup3\n        /* \"#utility.yul\":2019:2022   */\n      dup3\n        /* \"#utility.yul\":2012:2031   */\n      mstore\n        /* \"#utility.yul\":2064:2068   */\n      0x20\n        /* \"#utility.yul\":2059:2062   */\n      dup3\n        /* \"#utility.yul\":2055:2069   */\n      add\n        /* \"#utility.yul\":2040:2069   */\n      swap1\n      pop\n        /* \"#utility.yul\":1906:2075   */\n      swap3\n      swap2\n      pop\n      pop\n      jump\t// out\n        /* \"#utility.yul\":2081:2327   */\n    tag_43:\n        /* \"#utility.yul\":2162:2163   */\n      0x00\n        /* \"#utility.yul\":2172:2285   */\n    tag_102:\n        /* \"#utility.yul\":2186:2192   */\n      dup4\n        /* \"#utility.yul\":2183:2184   */\n      dup2\n        /* \"#utility.yul\":2180:2193   */\n      lt\n        /* \"#utility.yul\":2172:2285   */\n      iszero\n      tag_104\n      jumpi\n        /* \"#utility.yul\":2271:2272   */\n      dup1\n        /* \"#utility.yul\":2266:2269   */\n      dup3\n        /* \"#utility.yul\":2262:2273   */\n      add\n        /* \"#utility.yul\":2256:2274   */\n      mload\n        /* \"#utility.yul\":2252:2253   */\n      dup2\n        /* \"#utility.yul\":2247:2250   */\n      dup5\n        /* \"#utility.yul\":2243:2254   */\n      add\n        /* \"#utility.yul\":2236:2275   */\n      mstore\n        /* \"#utility.yul\":2208:2210   */\n      0x20\n        /* \"#utility.yul\":2205:2206   */\n      dup2\n        /* \"#utility.yul\":2201:2211   */\n      add\n        /* \"#utility.yul\":2196:2211   */\n      swap1\n      pop\n        /* \"#utility.yul\":2172:2285   */\n      jump(tag_102)\n    tag_104:\n        /* \"#utility.yul\":2319:2320   */\n      0x00\n        /* \"#utility.yul\":2310:2316   */\n      dup5\n        /* \"#utility.yul\":2305:2308   */\n      dup5\n        /* \"#utility.yul\":2301:2317   */\n      add\n        /* \"#utility.yul\":2294:2321   */\n      mstore\n        /* \"#utility.yul\":2143:2327   */\n      pop\n        /* \"#utility.yul\":2081:2327   */\n      pop\n      pop\n      pop\n      jump\t// out\n        /* \"#utility.yul\":2333:2435   */\n    tag_44:\n        /* \"#utility.yul\":2374:2380   */\n      0x00\n        /* \"#utility.yul\":2425:2427   */\n      0x1f\n        /* \"#utility.yul\":2421:2428   */\n      not\n        /* \"#utility.yul\":2416:2418   */\n      0x1f\n        /* \"#utility.yul\":2409:2414   */\n      dup4\n        /* \"#utility.yul\":2405:2419   */\n      add\n        /* \"#utility.yul\":2401:2429   */\n      and\n        /* \"#utility.yul\":2391:2429   */\n      swap1\n      pop\n        /* \"#utility.yul\":2333:2435   */\n      swap2\n      swap1\n      pop\n      jump\t// out\n        /* \"#utility.yul\":2441:2818   */\n    tag_45:\n        /* \"#utility.yul\":2529:2532   */\n      0x00\n        /* \"#utility.yul\":2557:2596   */\n      tag_107\n        /* \"#utility.yul\":2590:2595   */\n      dup3\n        /* \"#utility.yul\":2557:2596   */\n      tag_41\n      jump\t// in\n    tag_107:\n        /* \"#utility.yul\":2612:2683   */\n      tag_108\n        /* \"#utility.yul\":2676:2682   */\n      dup2\n        /* \"#utility.yul\":2671:2674   */\n      dup6\n        /* \"#utility.yul\":2612:2683   */\n      tag_42\n      jump\t// in\n    tag_108:\n        /* \"#utility.yul\":2605:2683   */\n      swap4\n      pop\n        /* \"#utility.yul\":2692:2757   */\n      tag_109\n        /* \"#utility.yul\":2750:2756   */\n      dup2\n        /* \"#utility.yul\":2745:2748   */\n      dup6\n        /* \"#utility.yul\":2738:2742   */\n      0x20\n        /* \"#utility.yul\":2731:2736   */\n      dup7\n        /* \"#utility.yul\":2727:2743   */\n      add\n        /* \"#utility.yul\":2692:2757   */\n      tag_43\n      jump\t// in\n    tag_109:\n        /* \"#utility.yul\":2782:2811   */\n      tag_110\n        /* \"#utility.yul\":2804:2810   */\n      dup2\n        /* \"#utility.yul\":2782:2811   */\n      tag_44\n      jump\t// in\n    tag_110:\n        /* \"#utility.yul\":2777:2780   */\n      dup5\n        /* \"#utility.yul\":2773:2812   */\n      add\n        /* \"#utility.yul\":2766:2812   */\n      swap2\n      pop\n        /* \"#utility.yul\":2533:2818   */\n      pop\n        /* \"#utility.yul\":2441:2818   */\n      swap3\n      swap2\n      pop\n      pop\n      jump\t// out\n        /* \"#utility.yul\":2824:2942   */\n    tag_46:\n        /* \"#utility.yul\":2911:2935   */\n      tag_112\n        /* \"#utility.yul\":2929:2934   */\n      dup2\n        /* \"#utility.yul\":2911:2935   */\n      tag_37\n      jump\t// in\n    tag_112:\n        /* \"#utility.yul\":2906:2909   */\n      dup3\n        /* \"#utility.yul\":2899:2936   */\n      mstore\n        /* \"#utility.yul\":2824:2942   */\n      pop\n      pop\n      jump\t// out\n        /* \"#utility.yul\":2948:3592   */\n    tag_10:\n        /* \"#utility.yul\":3145:3149   */\n      0x00\n        /* \"#utility.yul\":3183:3186   */\n      0x80\n        /* \"#utility.yul\":3172:3181   */\n      dup3\n        /* \"#utility.yul\":3168:3187   */\n      add\n        /* \"#utility.yul\":3160:3187   */\n      swap1\n      pop\n        /* \"#utility.yul\":3197:3268   */\n      tag_114\n        /* \"#utility.yul\":3265:3266   */\n      0x00\n        /* \"#utility.yul\":3254:3263   */\n      dup4\n        /* \"#utility.yul\":3250:3267   */\n      add\n        /* \"#utility.yul\":3241:3247   */\n      dup8\n        /* \"#utility.yul\":3197:3268   */\n      tag_40\n      jump\t// in\n    tag_114:\n        /* \"#utility.yul\":3315:3324   */\n      dup2\n        /* \"#utility.yul\":3309:3313   */\n      dup2\n        /* \"#utility.yul\":3305:3325   */\n      sub\n        /* \"#utility.yul\":3300:3302   */\n      0x20\n        /* \"#utility.yul\":3289:3298   */\n      dup4\n        /* \"#utility.yul\":3285:3303   */\n      add\n        /* \"#utility.yul\":3278:3326   */\n      mstore\n        /* \"#utility.yul\":3343:3421   */\n      tag_115\n        /* \"#utility.yul\":3416:3420   */\n      dup2\n        /* \"#utility.yul\":3407:3413   */\n      dup7\n        /* \"#utility.yul\":3343:3421   */\n      tag_45\n      jump\t// in\n    tag_115:\n        /* \"#utility.yul\":3335:3421   */\n      swap1\n      pop\n        /* \"#utility.yul\":3431:3503   */\n      tag_116\n        /* \"#utility.yul\":3499:3501   */\n      0x40\n        /* \"#utility.yul\":3488:3497   */\n      dup4\n        /* \"#utility.yul\":3484:3502   */\n      add\n        /* \"#utility.yul\":3475:3481   */\n      dup6\n        /* \"#utility.yul\":3431:3503   */\n      tag_46\n      jump\t// in\n    tag_116:\n        /* \"#utility.yul\":3513:3585   */\n      tag_117\n        /* \"#utility.yul\":3581:3583   */\n      0x60\n        /* \"#utility.yul\":3570:3579   */\n      dup4\n        /* \"#utility.yul\":3566:3584   */\n      add\n        /* \"#utility.yul\":3557:3563   */\n      dup5\n        /* \"#utility.yul\":3513:3585   */\n      tag_46\n      jump\t// in\n    tag_117:\n        /* \"#utility.yul\":2948:3592   */\n      swap6\n      swap5\n      pop\n      pop\n      pop\n      pop\n      pop\n      jump\t// out\n        /* \"#utility.yul\":3598:3715   */\n    tag_47:\n        /* \"#utility.yul\":3707:3708   */\n      0x00\n        /* \"#utility.yul\":3704:3705   */\n      dup1\n        /* \"#utility.yul\":3697:3709   */\n      revert\n        /* \"#utility.yul\":3721:3838   */\n    tag_48:\n        /* \"#utility.yul\":3830:3831   */\n      0x00\n        /* \"#utility.yul\":3827:3828   */\n      dup1\n        /* \"#utility.yul\":3820:3832   */\n      revert\n        /* \"#utility.yul\":3844:4024   */\n    tag_49:\n        /* \"#utility.yul\":3892:3969   */\n      0x4e487b7100000000000000000000000000000000000000000000000000000000\n        /* \"#utility.yul\":3889:3890   */\n      0x00\n        /* \"#utility.yul\":3882:3970   */\n      mstore\n        /* \"#utility.yul\":3989:3993   */\n      0x41\n        /* \"#utility.yul\":3986:3987   */\n      0x04\n        /* \"#utility.yul\":3979:3994   */\n      mstore\n        /* \"#utility.yul\":4013:4017   */\n      0x24\n        /* \"#utility.yul\":4010:4011   */\n      0x00\n        /* \"#utility.yul\":4003:4018   */\n      revert\n        /* \"#utility.yul\":4030:4311   */\n    tag_50:\n        /* \"#utility.yul\":4113:4140   */\n      tag_122\n        /* \"#utility.yul\":4135:4139   */\n      dup3\n        /* \"#utility.yul\":4113:4140   */\n      tag_44\n      jump\t// in\n    tag_122:\n        /* \"#utility.yul\":4105:4111   */\n      dup2\n        /* \"#utility.yul\":4101:4141   */\n      add\n        /* \"#utility.yul\":4243:4249   */\n      dup2\n        /* \"#utility.yul\":4231:4241   */\n      dup2\n        /* \"#utility.yul\":4228:4250   */\n      lt\n        /* \"#utility.yul\":4207:4225   */\n      0xffffffffffffffff\n        /* \"#utility.yul\":4195:4205   */\n      dup3\n        /* \"#utility.yul\":4192:4226   */\n      gt\n        /* \"#utility.yul\":4189:4251   */\n      or\n        /* \"#utility.yul\":4186:4274   */\n      iszero\n      tag_123\n      jumpi\n        /* \"#utility.yul\":4254:4272   */\n      tag_124\n      tag_49\n      jump\t// in\n    tag_124:\n        /* \"#utility.yul\":4186:4274   */\n    tag_123:\n        /* \"#utility.yul\":4294:4304   */\n      dup1\n        /* \"#utility.yul\":4290:4292   */\n      0x40\n        /* \"#utility.yul\":4283:4305   */\n      mstore\n        /* \"#utility.yul\":4073:4311   */\n      pop\n        /* \"#utility.yul\":4030:4311   */\n      pop\n      pop\n      jump\t// out\n        /* \"#utility.yul\":4317:4446   */\n    tag_51:\n        /* \"#utility.yul\":4351:4357   */\n      0x00\n        /* \"#utility.yul\":4378:4398   */\n      tag_126\n      tag_30\n      jump\t// in\n    tag_126:\n        /* \"#utility.yul\":4368:4398   */\n      swap1\n      pop\n        /* \"#utility.yul\":4407:4440   */\n      tag_127\n        /* \"#utility.yul\":4435:4439   */\n      dup3\n        /* \"#utility.yul\":4427:4433   */\n      dup3\n        /* \"#utility.yul\":4407:4440   */\n      tag_50\n      jump\t// in\n    tag_127:\n        /* \"#utility.yul\":4317:4446   */\n      swap2\n      swap1\n      pop\n      jump\t// out\n        /* \"#utility.yul\":4452:4760   */\n    tag_52:\n        /* \"#utility.yul\":4514:4518   */\n      0x00\n        /* \"#utility.yul\":4604:4622   */\n      0xffffffffffffffff\n        /* \"#utility.yul\":4596:4602   */\n      dup3\n        /* \"#utility.yul\":4593:4623   */\n      gt\n        /* \"#utility.yul\":4590:4646   */\n      iszero\n      tag_129\n      jumpi\n        /* \"#utility.yul\":4626:4644   */\n      tag_130\n      tag_49\n      jump\t// in\n    tag_130:\n        /* \"#utility.yul\":4590:4646   */\n    tag_129:\n        /* \"#utility.yul\":4664:4693   */\n      tag_131\n        /* \"#utility.yul\":4686:4692   */\n      dup3\n        /* \"#utility.yul\":4664:4693   */\n      tag_44\n      jump\t// in\n    tag_131:\n        /* \"#utility.yul\":4656:4693   */\n      swap1\n      pop\n        /* \"#utility.yul\":4748:4752   */\n      0x20\n        /* \"#utility.yul\":4742:4746   */\n      dup2\n        /* \"#utility.yul\":4738:4753   */\n      add\n        /* \"#utility.yul\":4730:4753   */\n      swap1\n      pop\n        /* \"#utility.yul\":4452:4760   */\n      swap2\n      swap1\n      pop\n      jump\t// out\n        /* \"#utility.yul\":4766:4912   */\n    tag_53:\n        /* \"#utility.yul\":4863:4869   */\n      dup3\n        /* \"#utility.yul\":4858:4861   */\n      dup2\n        /* \"#utility.yul\":4853:4856   */\n      dup4\n        /* \"#utility.yul\":4840:4870   */\n      calldatacopy\n        /* \"#utility.yul\":4904:4905   */\n      0x00\n        /* \"#utility.yul\":4895:4901   */\n      dup4\n        /* \"#utility.yul\":4890:4893   */\n      dup4\n        /* \"#utility.yul\":4886:4902   */\n      add\n        /* \"#utility.yul\":4879:4906   */\n      mstore\n        /* \"#utility.yul\":4766:4912   */\n      pop\n      pop\n      pop\n      jump\t// out\n        /* \"#utility.yul\":4918:5343   */\n    tag_54:\n        /* \"#utility.yul\":4996:5001   */\n      0x00\n        /* \"#utility.yul\":5021:5087   */\n      tag_134\n        /* \"#utility.yul\":5037:5086   */\n      tag_135\n        /* \"#utility.yul\":5079:5085   */\n      dup5\n        /* \"#utility.yul\":5037:5086   */\n      tag_52\n      jump\t// in\n    tag_135:\n        /* \"#utility.yul\":5021:5087   */\n      tag_51\n      jump\t// in\n    tag_134:\n        /* \"#utility.yul\":5012:5087   */\n      swap1\n      pop\n        /* \"#utility.yul\":5110:5116   */\n      dup3\n        /* \"#utility.yul\":5103:5108   */\n      dup2\n        /* \"#utility.yul\":5096:5117   */\n      mstore\n        /* \"#utility.yul\":5148:5152   */\n      0x20\n        /* \"#utility.yul\":5141:5146   */\n      dup2\n        /* \"#utility.yul\":5137:5153   */\n      add\n        /* \"#utility.yul\":5186:5189   */\n      dup5\n        /* \"#utility.yul\":5177:5183   */\n      dup5\n        /* \"#utility.yul\":5172:5175   */\n      dup5\n        /* \"#utility.yul\":5168:5184   */\n      add\n        /* \"#utility.yul\":5165:5190   */\n      gt\n        /* \"#utility.yul\":5162:5274   */\n      iszero\n      tag_136\n      jumpi\n        /* \"#utility.yul\":5193:5272   */\n      tag_137\n      tag_48\n      jump\t// in\n    tag_137:\n        /* \"#utility.yul\":5162:5274   */\n    tag_136:\n        /* \"#utility.yul\":5283:5337   */\n      tag_138\n        /* \"#utility.yul\":5330:5336   */\n      dup5\n        /* \"#utility.yul\":5325:5328   */\n      dup3\n        /* \"#utility.yul\":5320:5323   */\n      dup6\n        /* \"#utility.yul\":5283:5337   */\n      tag_53\n      jump\t// in\n    tag_138:\n        /* \"#utility.yul\":5002:5343   */\n      pop\n        /* \"#utility.yul\":4918:5343   */\n      swap4\n      swap3\n      pop\n      pop\n      pop\n      jump\t// out\n        /* \"#utility.yul\":5363:5703   */\n    tag_55:\n        /* \"#utility.yul\":5419:5424   */\n      0x00\n        /* \"#utility.yul\":5468:5471   */\n      dup3\n        /* \"#utility.yul\":5461:5465   */\n      0x1f\n        /* \"#utility.yul\":5453:5459   */\n      dup4\n        /* \"#utility.yul\":5449:5466   */\n      add\n        /* \"#utility.yul\":5445:5472   */\n      slt\n        /* \"#utility.yul\":5435:5557   */\n      tag_140\n      jumpi\n        /* \"#utility.yul\":5476:5555   */\n      tag_141\n      tag_47\n      jump\t// in\n    tag_141:\n        /* \"#utility.yul\":5435:5557   */\n    tag_140:\n        /* \"#utility.yul\":5593:5599   */\n      dup2\n        /* \"#utility.yul\":5580:5600   */\n      calldataload\n        /* \"#utility.yul\":5618:5697   */\n      tag_142\n        /* \"#utility.yul\":5693:5696   */\n      dup5\n        /* \"#utility.yul\":5685:5691   */\n      dup3\n        /* \"#utility.yul\":5678:5682   */\n      0x20\n        /* \"#utility.yul\":5670:5676   */\n      dup7\n        /* \"#utility.yul\":5666:5683   */\n      add\n        /* \"#utility.yul\":5618:5697   */\n      tag_54\n      jump\t// in\n    tag_142:\n        /* \"#utility.yul\":5609:5697   */\n      swap2\n      pop\n        /* \"#utility.yul\":5425:5703   */\n      pop\n        /* \"#utility.yul\":5363:5703   */\n      swap3\n      swap2\n      pop\n      pop\n      jump\t// out\n        /* \"#utility.yul\":5709:6218   */\n    tag_13:\n        /* \"#utility.yul\":5778:5784   */\n      0x00\n        /* \"#utility.yul\":5827:5829   */\n      0x20\n        /* \"#utility.yul\":5815:5824   */\n      dup3\n        /* \"#utility.yul\":5806:5813   */\n      dup5\n        /* \"#utility.yul\":5802:5825   */\n      sub\n        /* \"#utility.yul\":5798:5830   */\n      slt\n        /* \"#utility.yul\":5795:5914   */\n      iszero\n      tag_144\n      jumpi\n        /* \"#utility.yul\":5833:5912   */\n      tag_145\n      tag_31\n      jump\t// in\n    tag_145:\n        /* \"#utility.yul\":5795:5914   */\n    tag_144:\n        /* \"#utility.yul\":5981:5982   */\n      0x00\n        /* \"#utility.yul\":5970:5979   */\n      dup3\n        /* \"#utility.yul\":5966:5983   */\n      add\n        /* \"#utility.yul\":5953:5984   */\n      calldataload\n        /* \"#utility.yul\":6011:6029   */\n      0xffffffffffffffff\n        /* \"#utility.yul\":6003:6009   */\n      dup2\n        /* \"#utility.yul\":6000:6030   */\n      gt\n        /* \"#utility.yul\":5997:6114   */\n      iszero\n      tag_146\n      jumpi\n        /* \"#utility.yul\":6033:6112   */\n      tag_147\n      tag_32\n      jump\t// in\n    tag_147:\n        /* \"#utility.yul\":5997:6114   */\n    tag_146:\n        /* \"#utility.yul\":6138:6201   */\n      tag_148\n        /* \"#utility.yul\":6193:6200   */\n      dup5\n        /* \"#utility.yul\":6184:6190   */\n      dup3\n        /* \"#utility.yul\":6173:6182   */\n      dup6\n        /* \"#utility.yul\":6169:6191   */\n      add\n        /* \"#utility.yul\":6138:6201   */\n      tag_55\n      jump\t// in\n    tag_148:\n        /* \"#utility.yul\":6128:6201   */\n      swap2\n      pop\n        /* \"#utility.yul\":5924:6211   */\n      pop\n        /* \"#utility.yul\":5709:6218   */\n      swap3\n      swap2\n      pop\n      pop\n      jump\t// out\n        /* \"#utility.yul\":6224:6404   */\n    tag_56:\n        /* \"#utility.yul\":6272:6349   */\n      0x4e487b7100000000000000000000000000000000000000000000000000000000\n        /* \"#utility.yul\":6269:6270   */\n      0x00\n        /* \"#utility.yul\":6262:6350   */\n      mstore\n        /* \"#utility.yul\":6369:6373   */\n      0x22\n        /* \"#utility.yul\":6366:6367   */\n      0x04\n        /* \"#utility.yul\":6359:6374   */\n      mstore\n        /* \"#utility.yul\":6393:6397   */\n      0x24\n        /* \"#utility.yul\":6390:6391   */\n      0x00\n        /* \"#utility.yul\":6383:6398   */\n      revert\n        /* \"#utility.yul\":6410:6730   */\n    tag_18:\n        /* \"#utility.yul\":6454:6460   */\n      0x00\n        /* \"#utility.yul\":6491:6492   */\n      0x02\n        /* \"#utility.yul\":6485:6489   */\n      dup3\n        /* \"#utility.yul\":6481:6493   */\n      div\n        /* \"#utility.yul\":6471:6493   */\n      swap1\n      pop\n        /* \"#utility.yul\":6538:6539   */\n      0x01\n        /* \"#utility.yul\":6532:6536   */\n      dup3\n        /* \"#utility.yul\":6528:6540   */\n      and\n        /* \"#utility.yul\":6559:6577   */\n      dup1\n        /* \"#utility.yul\":6549:6630   */\n      tag_151\n      jumpi\n        /* \"#utility.yul\":6615:6619   */\n      0x7f\n        /* \"#utility.yul\":6607:6613   */\n      dup3\n        /* \"#utility.yul\":6603:6620   */\n      and\n        /* \"#utility.yul\":6593:6620   */\n      swap2\n      pop\n        /* \"#utility.yul\":6549:6630   */\n    tag_151:\n        /* \"#utility.yul\":6677:6679   */\n      0x20\n        /* \"#utility.yul\":6669:6675   */\n      dup3\n        /* \"#utility.yul\":6666:6680   */\n      lt\n        /* \"#utility.yul\":6646:6664   */\n      dup2\n        /* \"#utility.yul\":6643:6681   */\n      sub\n        /* \"#utility.yul\":6640:6724   */\n      tag_152\n      jumpi\n        /* \"#utility.yul\":6696:6714   */\n      tag_153\n      tag_56\n      jump\t// in\n    tag_153:\n        /* \"#utility.yul\":6640:6724   */\n    tag_152:\n        /* \"#utility.yul\":6461:6730   */\n      pop\n        /* \"#utility.yul\":6410:6730   */\n      swap2\n      swap1\n      pop\n      jump\t// out\n        /* \"#utility.yul\":6736:6903   */\n    tag_57:\n        /* \"#utility.yul\":6876:6895   */\n      0x547765657420697320746f6f206c6f6e67000000000000000000000000000000\n        /* \"#utility.yul\":6872:6873   */\n      0x00\n        /* \"#utility.yul\":6864:6870   */\n      dup3\n        /* \"#utility.yul\":6860:6874   */\n      add\n        /* \"#utility.yul\":6853:6896   */\n      mstore\n        /* \"#utility.yul\":6736:6903   */\n      pop\n      jump\t// out\n        /* \"#utility.yul\":6909:7275   */\n    tag_58:\n        /* \"#utility.yul\":7051:7054   */\n      0x00\n        /* \"#utility.yul\":7072:7139   */\n      tag_156\n        /* \"#utility.yul\":7136:7138   */\n      0x11\n        /* \"#utility.yul\":7131:7134   */\n      dup4\n        /* \"#utility.yul\":7072:7139   */\n      tag_42\n      jump\t// in\n    tag_156:\n        /* \"#utility.yul\":7065:7139   */\n      swap2\n      pop\n        /* \"#utility.yul\":7148:7241   */\n      tag_157\n        /* \"#utility.yul\":7237:7240   */\n      dup3\n        /* \"#utility.yul\":7148:7241   */\n      tag_57\n      jump\t// in\n    tag_157:\n        /* \"#utility.yul\":7266:7268   */\n      0x20\n        /* \"#utility.yul\":7261:7264   */\n      dup3\n        /* \"#utility.yul\":7257:7269   */\n      add\n        /* \"#utility.yul\":7250:7269   */\n      swap1\n      pop\n        /* \"#utility.yul\":6909:7275   */\n      swap2\n      swap1\n      pop\n      jump\t// out\n        /* \"#utility.yul\":7281:7700   */\n    tag_26:\n        /* \"#utility.yul\":7447:7451   */\n      0x00\n        /* \"#utility.yul\":7485:7487   */\n      0x20\n        /* \"#utility.yul\":7474:7483   */\n      dup3\n        /* \"#utility.yul\":7470:7488   */\n      add\n        /* \"#utility.yul\":7462:7488   */\n      swap1\n      pop\n        /* \"#utility.yul\":7534:7543   */\n      dup2\n        /* \"#utility.yul\":7528:7532   */\n      dup2\n        /* \"#utility.yul\":7524:7544   */\n      sub\n        /* \"#utility.yul\":7520:7521   */\n      0x00\n        /* \"#utility.yul\":7509:7518   */\n      dup4\n        /* \"#utility.yul\":7505:7522   */\n      add\n        /* \"#utility.yul\":7498:7545   */\n      mstore\n        /* \"#utility.yul\":7562:7693   */\n      tag_159\n        /* \"#utility.yul\":7688:7692   */\n      dup2\n        /* \"#utility.yul\":7562:7693   */\n      tag_58\n      jump\t// in\n    tag_159:\n        /* \"#utility.yul\":7554:7693   */\n      swap1\n      pop\n        /* \"#utility.yul\":7281:7700   */\n      swap2\n      swap1\n      pop\n      jump\t// out\n        /* \"#utility.yul\":7706:7847   */\n    tag_59:\n        /* \"#utility.yul\":7755:7759   */\n      0x00\n        /* \"#utility.yul\":7778:7781   */\n      dup2\n        /* \"#utility.yul\":7770:7781   */\n      swap1\n      pop\n        /* \"#utility.yul\":7801:7804   */\n      dup2\n        /* \"#utility.yul\":7798:7799   */\n      0x00\n        /* \"#utility.yul\":7791:7805   */\n      mstore\n        /* \"#utility.yul\":7835:7839   */\n      0x20\n        /* \"#utility.yul\":7832:7833   */\n      0x00\n        /* \"#utility.yul\":7822:7840   */\n      keccak256\n        /* \"#utility.yul\":7814:7840   */\n      swap1\n      pop\n        /* \"#utility.yul\":7706:7847   */\n      swap2\n      swap1\n      pop\n      jump\t// out\n        /* \"#utility.yul\":7853:7946   */\n    tag_60:\n        /* \"#utility.yul\":7890:7896   */\n      0x00\n        /* \"#utility.yul\":7937:7939   */\n      0x20\n        /* \"#utility.yul\":7932:7934   */\n      0x1f\n        /* \"#utility.yul\":7925:7930   */\n      dup4\n        /* \"#utility.yul\":7921:7935   */\n      add\n        /* \"#utility.yul\":7917:7940   */\n      div\n        /* \"#utility.yul\":7907:7940   */\n      swap1\n      pop\n        /* \"#utility.yul\":7853:7946   */\n      swap2\n      swap1\n      pop\n      jump\t// out\n        /* \"#utility.yul\":7952:8059   */\n    tag_61:\n        /* \"#utility.yul\":7996:8004   */\n      0x00\n        /* \"#utility.yul\":8046:8051   */\n      dup3\n        /* \"#utility.yul\":8040:8044   */\n      dup3\n        /* \"#utility.yul\":8036:8052   */\n      shl\n        /* \"#utility.yul\":8015:8052   */\n      swap1\n      pop\n        /* \"#utility.yul\":7952:8059   */\n      swap3\n      swap2\n      pop\n      pop\n      jump\t// out\n        /* \"#utility.yul\":8065:8458   */\n    tag_62:\n        /* \"#utility.yul\":8134:8140   */\n      0x00\n        /* \"#utility.yul\":8184:8185   */\n      0x08\n        /* \"#utility.yul\":8172:8182   */\n      dup4\n        /* \"#utility.yul\":8168:8186   */\n      mul\n        /* \"#utility.yul\":8207:8304   */\n      tag_164\n        /* \"#utility.yul\":8237:8303   */\n      0xffffffffffffffffffffffffffffffffffffffffffffffffffffffffffffffff\n        /* \"#utility.yul\":8226:8235   */\n      dup3\n        /* \"#utility.yul\":8207:8304   */\n      tag_61\n      jump\t// in\n    tag_164:\n        /* \"#utility.yul\":8325:8364   */\n      tag_165\n        /* \"#utility.yul\":8355:8363   */\n      dup7\n        /* \"#utility.yul\":8344:8353   */\n      dup4\n        /* \"#utility.yul\":8325:8364   */\n      tag_61\n      jump\t// in\n    tag_165:\n        /* \"#utility.yul\":8313:8364   */\n      swap6\n      pop\n        /* \"#utility.yul\":8397:8401   */\n      dup1\n        /* \"#utility.yul\":8393:8402   */\n      not\n        /* \"#utility.yul\":8386:8391   */\n      dup5\n        /* \"#utility.yul\":8382:8403   */\n      and\n        /* \"#utility.yul\":8373:8403   */\n      swap4\n      pop\n        /* \"#utility.yul\":8446:8450   */\n      dup1\n        /* \"#utility.yul\":8436:8444   */\n      dup7\n        /* \"#utility.yul\":8432:8451   */\n      and\n        /* \"#utility.yul\":8425:8430   */\n      dup5\n        /* \"#utility.yul\":8422:8452   */\n      or\n        /* \"#utility.yul\":8412:8452   */\n      swap3\n      pop\n        /* \"#utility.yul\":8141:8458   */\n      pop\n      pop\n        /* \"#utility.yul\":8065:8458   */\n      swap4\n      swap3\n      pop\n      pop\n      pop\n      jump\t// out\n        /* \"#utility.yul\":8464:8524   */\n    tag_63:\n        /* \"#utility.yul\":8492:8495   */\n      0x00\n        /* \"#utility.yul\":8513:8518   */\n      dup2\n        /* \"#utility.yul\":8506:8518   */\n      swap1\n      pop\n        /* \"#utility.yul\":8464:8524   */\n      swap2\n      swap1\n      pop\n      jump\t// out\n        /* \"#utility.yul\":8530:8672   */\n    tag_64:\n        /* \"#utility.yul\":8580:8589   */\n      0x00\n        /* \"#utility.yul\":8613:8666   */\n      tag_168\n        /* \"#utility.yul\":8631:8665   */\n      tag_169\n        /* \"#utility.yul\":8640:8664   */\n      tag_170\n        /* \"#utility.yul\":8658:8663   */\n      dup5\n        /* \"#utility.yul\":8640:8664   */\n      tag_37\n      jump\t// in\n    tag_170:\n        /* \"#utility.yul\":8631:8665   */\n      tag_63\n      jump\t// in\n    tag_169:\n        /* \"#utility.yul\":8613:8666   */\n      tag_37\n      jump\t// in\n    tag_168:\n        /* \"#utility.yul\":8600:8666   */\n      swap1\n      pop\n        /* \"#utility.yul\":8530:8672   */\n      swap2\n      swap1\n      pop\n      jump\t// out\n        /* \"#utility.yul\":8678:8753   */\n    tag_65:\n        /* \"#utility.yul\":8721:8724   */\n      0x00\n        /* \"#utility.yul\":8742:8747   */\n      dup2\n        /* \"#utility.yul\":8735:8747   */\n      swap1\n      pop\n        /* \"#utility.yul\":8678:8753   */\n      swap2\n      swap1\n      pop\n      jump\t// out\n        /* \"#utility.yul\":8759:9028   */\n    tag_66:\n        /* \"#utility.yul\":8869:8908   */\n      tag_173\n        /* \"#utility.yul\":8900:8907   */\n      dup4\n        /* \"#utility.yul\":8869:8908   */\n      tag_64\n      jump\t// in\n    tag_173:\n        /* \"#utility.yul\":8930:9021   */\n      tag_174\n        /* \"#utility.yul\":8979:9020   */\n      tag_175\n        /* \"#utility.yul\":9003:9019   */\n      dup3\n        /* \"#utility.yul\":8979:9020   */\n      tag_65\n      jump\t// in\n    tag_175:\n        /* \"#utility.yul\":8971:8977   */\n      dup5\n        /* \"#utility.yul\":8964:8968   */\n      dup5\n        /* \"#utility.yul\":8958:8969   */\n      sload\n        /* \"#utility.yul\":8930:9021   */\n      tag_62\n      jump\t// in\n    tag_174:\n        /* \"#utility.yul\":8924:8928   */\n      dup3\n        /* \"#utility.yul\":8917:9022   */\n      sstore\n        /* \"#utility.yul\":8835:9028   */\n      pop\n        /* \"#utility.yul\":8759:9028   */\n      pop\n      pop\n      pop\n      jump\t// out\n        /* \"#utility.yul\":9034:9107   */\n    tag_67:\n        /* \"#utility.yul\":9079:9082   */\n      0x00\n        /* \"#utility.yul\":9034:9107   */\n      swap1\n      jump\t// out\n        /* \"#utility.yul\":9113:9302   */\n    tag_68:\n        /* \"#utility.yul\":9190:9222   */\n      tag_178\n      tag_67\n      jump\t// in\n    tag_178:\n        /* \"#utility.yul\":9231:9296   */\n      tag_179\n        /* \"#utility.yul\":9289:9295   */\n      dup2\n        /* \"#utility.yul\":9281:9287   */\n      dup5\n        /* \"#utility.yul\":9275:9279   */\n      dup5\n        /* \"#utility.yul\":9231:9296   */\n      tag_66\n      jump\t// in\n    tag_179:\n        /* \"#utility.yul\":9166:9302   */\n      pop\n        /* \"#utility.yul\":9113:9302   */\n      pop\n      pop\n      jump\t// out\n        /* \"#utility.yul\":9308:9494   */\n    tag_69:\n        /* \"#utility.yul\":9368:9488   */\n    tag_181:\n        /* \"#utility.yul\":9385:9388   */\n      dup2\n        /* \"#utility.yul\":9378:9383   */\n      dup2\n        /* \"#utility.yul\":9375:9389   */\n      lt\n        /* \"#utility.yul\":9368:9488   */\n      iszero\n      tag_183\n      jumpi\n        /* \"#utility.yul\":9439:9478   */\n      tag_184\n        /* \"#utility.yul\":9476:9477   */\n      0x00\n        /* \"#utility.yul\":9469:9474   */\n      dup3\n        /* \"#utility.yul\":9439:9478   */\n      tag_68\n      jump\t// in\n    tag_184:\n        /* \"#utility.yul\":9412:9413   */\n      0x01\n        /* \"#utility.yul\":9405:9410   */\n      dup2\n        /* \"#utility.yul\":9401:9414   */\n      add\n        /* \"#utility.yul\":9392:9414   */\n      swap1\n      pop\n        /* \"#utility.yul\":9368:9488   */\n      jump(tag_181)\n    tag_183:\n        /* \"#utility.yul\":9308:9494   */\n      pop\n      pop\n      jump\t// out\n        /* \"#utility.yul\":9500:10043   */\n    tag_70:\n        /* \"#utility.yul\":9601:9603   */\n      0x1f\n        /* \"#utility.yul\":9596:9599   */\n      dup3\n        /* \"#utility.yul\":9593:9604   */\n      gt\n        /* \"#utility.yul\":9590:10036   */\n      iszero\n      tag_186\n      jumpi\n        /* \"#utility.yul\":9635:9673   */\n      tag_187\n        /* \"#utility.yul\":9667:9672   */\n      dup2\n        /* \"#utility.yul\":9635:9673   */\n      tag_59\n      jump\t// in\n    tag_187:\n        /* \"#utility.yul\":9719:9748   */\n      tag_188\n        /* \"#utility.yul\":9737:9747   */\n      dup5\n        /* \"#utility.yul\":9719:9748   */\n      tag_60\n      jump\t// in\n    tag_188:\n        /* \"#utility.yul\":9709:9717   */\n      dup2\n        /* \"#utility.yul\":9705:9749   */\n      add\n        /* \"#utility.yul\":9902:9904   */\n      0x20\n        /* \"#utility.yul\":9890:9900   */\n      dup6\n        /* \"#utility.yul\":9887:9905   */\n      lt\n        /* \"#utility.yul\":9884:9933   */\n      iszero\n      tag_189\n      jumpi\n        /* \"#utility.yul\":9923:9931   */\n      dup2\n        /* \"#utility.yul\":9908:9931   */\n      swap1\n      pop\n        /* \"#utility.yul\":9884:9933   */\n    tag_189:\n        /* \"#utility.yul\":9946:10026   */\n      tag_190\n        /* \"#utility.yul\":10002:10024   */\n      tag_191\n        /* \"#utility.yul\":10020:10023   */\n      dup6\n        /* \"#utility.yul\":10002:10024   */\n      tag_60\n      jump\t// in\n    tag_191:\n        /* \"#utility.yul\":9992:10000   */\n      dup4\n        /* \"#utility.yul\":9988:10025   */\n      add\n        /* \"#utility.yul\":9975:9986   */\n      dup3\n        /* \"#utility.yul\":9946:10026   */\n      tag_69\n      jump\t// in\n    tag_190:\n        /* \"#utility.yul\":9605:10036   */\n      pop\n      pop\n        /* \"#utility.yul\":9590:10036   */\n    tag_186:\n        /* \"#utility.yul\":9500:10043   */\n      pop\n      pop\n      pop\n      jump\t// out\n        /* \"#utility.yul\":10049:10166   */\n    tag_71:\n        /* \"#utility.yul\":10103:10111   */\n      0x00\n        /* \"#utility.yul\":10153:10158   */\n      dup3\n        /* \"#utility.yul\":10147:10151   */\n      dup3\n        /* \"#utility.yul\":10143:10159   */\n      shr\n        /* \"#utility.yul\":10122:10159   */\n      swap1\n      pop\n        /* \"#utility.yul\":10049:10166   */\n      swap3\n      swap2\n      pop\n      pop\n      jump\t// out\n        /* \"#utility.yul\":10172:10341   */\n    tag_72:\n        /* \"#utility.yul\":10216:10222   */\n      0x00\n        /* \"#utility.yul\":10249:10300   */\n      tag_194\n        /* \"#utility.yul\":10297:10298   */\n      0x00\n        /* \"#utility.yul\":10293:10299   */\n      not\n        /* \"#utility.yul\":10285:10290   */\n      dup5\n        /* \"#utility.yul\":10282:10283   */\n      0x08\n        /* \"#utility.yul\":10278:10291   */\n      mul\n        /* \"#utility.yul\":10249:10300   */\n      tag_71\n      jump\t// in\n    tag_194:\n        /* \"#utility.yul\":10245:10301   */\n      not\n        /* \"#utility.yul\":10330:10334   */\n      dup1\n        /* \"#utility.yul\":10324:10328   */\n      dup4\n        /* \"#utility.yul\":10320:10335   */\n      and\n        /* \"#utility.yul\":10310:10335   */\n      swap2\n      pop\n        /* \"#utility.yul\":10223:10341   */\n      pop\n        /* \"#utility.yul\":10172:10341   */\n      swap3\n      swap2\n      pop\n      pop\n      jump\t// out\n        /* \"#utility.yul\":10346:10641   */\n    tag_73:\n        /* \"#utility.yul\":10422:10426   */\n      0x00\n        /* \"#utility.yul\":10568:10597   */\n      tag_196\n        /* \"#utility.yul\":10593:10596   */\n      dup4\n        /* \"#utility.yul\":10587:10591   */\n      dup4\n        /* \"#utility.yul\":10568:10597   */\n      tag_72\n      jump\t// in\n    tag_196:\n        /* \"#utility.yul\":10560:10597   */\n      swap2\n      pop\n        /* \"#utility.yul\":10630:10633   */\n      dup3\n        /* \"#utility.yul\":10627:10628   */\n      0x02\n        /* \"#utility.yul\":10623:10634   */\n      mul\n        /* \"#utility.yul\":10617:10621   */\n      dup3\n        /* \"#utility.yul\":10614:10635   */\n      or\n        /* \"#utility.yul\":10606:10635   */\n      swap1\n      pop\n        /* \"#utility.yul\":10346:10641   */\n      swap3\n      swap2\n      pop\n      pop\n      jump\t// out\n        /* \"#utility.yul\":10646:12041   */\n    tag_29:\n        /* \"#utility.yul\":10763:10800   */\n      tag_198\n        /* \"#utility.yul\":10796:10799   */\n      dup3\n        /* \"#utility.yul\":10763:10800   */\n      tag_41\n      jump\t// in\n    tag_198:\n        /* \"#utility.yul\":10865:10883   */\n      0xffffffffffffffff\n        /* \"#utility.yul\":10857:10863   */\n      dup2\n        /* \"#utility.yul\":10854:10884   */\n      gt\n        /* \"#utility.yul\":10851:10907   */\n      iszero\n      tag_199\n      jumpi\n        /* \"#utility.yul\":10887:10905   */\n      tag_200\n      tag_49\n      jump\t// in\n    tag_200:\n        /* \"#utility.yul\":10851:10907   */\n    tag_199:\n        /* \"#utility.yul\":10931:10969   */\n      tag_201\n        /* \"#utility.yul\":10963:10967   */\n      dup3\n        /* \"#utility.yul\":10957:10968   */\n      sload\n        /* \"#utility.yul\":10931:10969   */\n      tag_18\n      jump\t// in\n    tag_201:\n        /* \"#utility.yul\":11016:11083   */\n      tag_202\n        /* \"#utility.yul\":11076:11082   */\n      dup3\n        /* \"#utility.yul\":11068:11074   */\n      dup3\n        /* \"#utility.yul\":11062:11066   */\n      dup6\n        /* \"#utility.yul\":11016:11083   */\n      tag_70\n      jump\t// in\n    tag_202:\n        /* \"#utility.yul\":11110:11111   */\n      0x00\n        /* \"#utility.yul\":11134:11138   */\n      0x20\n        /* \"#utility.yul\":11121:11138   */\n      swap1\n      pop\n        /* \"#utility.yul\":11166:11168   */\n      0x1f\n        /* \"#utility.yul\":11158:11164   */\n      dup4\n        /* \"#utility.yul\":11155:11169   */\n      gt\n        /* \"#utility.yul\":11183:11184   */\n      0x01\n        /* \"#utility.yul\":11178:11796   */\n      dup2\n      eq\n      tag_204\n      jumpi\n        /* \"#utility.yul\":11840:11841   */\n      0x00\n        /* \"#utility.yul\":11857:11863   */\n      dup5\n        /* \"#utility.yul\":11854:11931   */\n      iszero\n      tag_205\n      jumpi\n        /* \"#utility.yul\":11906:11915   */\n      dup3\n        /* \"#utility.yul\":11901:11904   */\n      dup8\n        /* \"#utility.yul\":11897:11916   */\n      add\n        /* \"#utility.yul\":11891:11917   */\n      mload\n        /* \"#utility.yul\":11882:11917   */\n      swap1\n      pop\n        /* \"#utility.yul\":11854:11931   */\n    tag_205:\n        /* \"#utility.yul\":11957:12024   */\n      tag_206\n        /* \"#utility.yul\":12017:12023   */\n      dup6\n        /* \"#utility.yul\":12010:12015   */\n      dup3\n        /* \"#utility.yul\":11957:12024   */\n      tag_73\n      jump\t// in\n    tag_206:\n        /* \"#utility.yul\":11951:11955   */\n      dup7\n        /* \"#utility.yul\":11944:12025   */\n      sstore\n        /* \"#utility.yul\":11813:12035   */\n      pop\n        /* \"#utility.yul\":11148:12035   */\n      jump(tag_203)\n        /* \"#utility.yul\":11178:11796   */\n    tag_204:\n        /* \"#utility.yul\":11230:11234   */\n      0x1f\n        /* \"#utility.yul\":11226:11235   */\n      not\n        /* \"#utility.yul\":11218:11224   */\n      dup5\n        /* \"#utility.yul\":11214:11236   */\n      and\n        /* \"#utility.yul\":11264:11301   */\n      tag_207\n        /* \"#utility.yul\":11296:11300   */\n      dup7\n        /* \"#utility.yul\":11264:11301   */\n      tag_59\n      jump\t// in\n    tag_207:\n        /* \"#utility.yul\":11323:11324   */\n      0x00\n        /* \"#utility.yul\":11337:11545   */\n    tag_208:\n        /* \"#utility.yul\":11351:11358   */\n      dup3\n        /* \"#utility.yul\":11348:11349   */\n      dup2\n        /* \"#utility.yul\":11345:11359   */\n      lt\n        /* \"#utility.yul\":11337:11545   */\n      iszero\n      tag_210\n      jumpi\n        /* \"#utility.yul\":11430:11439   */\n      dup5\n        /* \"#utility.yul\":11425:11428   */\n      dup10\n        /* \"#utility.yul\":11421:11440   */\n      add\n        /* \"#utility.yul\":11415:11441   */\n      mload\n        /* \"#utility.yul\":11407:11413   */\n      dup3\n        /* \"#utility.yul\":11400:11442   */\n      sstore\n        /* \"#utility.yul\":11481:11482   */\n      0x01\n        /* \"#utility.yul\":11473:11479   */\n      dup3\n        /* \"#utility.yul\":11469:11483   */\n      add\n        /* \"#utility.yul\":11459:11483   */\n      swap2\n      pop\n        /* \"#utility.yul\":11528:11530   */\n      0x20\n        /* \"#utility.yul\":11517:11526   */\n      dup6\n        /* \"#utility.yul\":11513:11531   */\n      add\n        /* \"#utility.yul\":11500:11531   */\n      swap5\n      pop\n        /* \"#utility.yul\":11374:11378   */\n      0x20\n        /* \"#utility.yul\":11371:11372   */\n      dup2\n        /* \"#utility.yul\":11367:11379   */\n      add\n        /* \"#utility.yul\":11362:11379   */\n      swap1\n      pop\n        /* \"#utility.yul\":11337:11545   */\n      jump(tag_208)\n    tag_210:\n        /* \"#utility.yul\":11573:11579   */\n      dup7\n        /* \"#utility.yul\":11564:11571   */\n      dup4\n        /* \"#utility.yul\":11561:11580   */\n      lt\n        /* \"#utility.yul\":11558:11737   */\n      iszero\n      tag_211\n      jumpi\n        /* \"#utility.yul\":11631:11640   */\n      dup5\n        /* \"#utility.yul\":11626:11629   */\n      dup10\n        /* \"#utility.yul\":11622:11641   */\n      add\n        /* \"#utility.yul\":11616:11642   */\n      mload\n        /* \"#utility.yul\":11674:11722   */\n      tag_212\n        /* \"#utility.yul\":11716:11720   */\n      0x1f\n        /* \"#utility.yul\":11708:11714   */\n      dup10\n        /* \"#utility.yul\":11704:11721   */\n      and\n        /* \"#utility.yul\":11693:11702   */\n      dup3\n        /* \"#utility.yul\":11674:11722   */\n      tag_72\n      jump\t// in\n    tag_212:\n        /* \"#utility.yul\":11666:11672   */\n      dup4\n        /* \"#utility.yul\":11659:11723   */\n      sstore\n        /* \"#utility.yul\":11581:11737   */\n      pop\n        /* \"#utility.yul\":11558:11737   */\n    tag_211:\n        /* \"#utility.yul\":11783:11784   */\n      0x01\n        /* \"#utility.yul\":11779:11780   */\n      0x02\n        /* \"#utility.yul\":11771:11777   */\n      dup9\n        /* \"#utility.yul\":11767:11781   */\n      mul\n        /* \"#utility.yul\":11763:11785   */\n      add\n        /* \"#utility.yul\":11757:11761   */\n      dup9\n        /* \"#utility.yul\":11750:11786   */\n      sstore\n        /* \"#utility.yul\":11185:11796   */\n      pop\n      pop\n      pop\n        /* \"#utility.yul\":11148:12035   */\n    tag_203:\n      pop\n        /* \"#utility.yul\":10738:12041   */\n      pop\n      pop\n      pop\n        /* \"#utility.yul\":10646:12041   */\n      pop\n      pop\n      jump\t// out\n\n    auxdata: 0xa26469706673582212200ad4be8f8dd045c27a018154754167a15d69a479c5db9693c6cdd4472d3fedbe64736f6c63430008160033\n}\n",
				"bytecode": {
					"linkReferences": {},
					"object": "608060405234801561000f575f80fd5b506109738061001d5f395ff3fe608060405234801561000f575f80fd5b5060043610610034575f3560e01c806305a1b4a9146100385780632a1f1d061461006b575b5f80fd5b610052600480360381019061004d9190610369565b610087565b604051610062949392919061044f565b60405180910390f35b610085600480360381019061008091906105c5565b610171565b005b5f602052815f5260405f20818154811061009f575f80fd5b905f5260205f2090600402015f9150915050805f015f9054906101000a900473ffffffffffffffffffffffffffffffffffffffff16908060010180546100e490610639565b80601f016020809104026020016040519081016040528092919081815260200182805461011090610639565b801561015b5780601f106101325761010080835404028352916020019161015b565b820191905f5260205f20905b81548152906001019060200180831161013e57829003601f168201915b5050505050908060020154908060030154905084565b60f060ff16815111156101b9576040517f08c379a00000000000000000000000000000000000000000000000000000000081526004016101b0906106b3565b60405180910390fd5b5f60405180608001604052803373ffffffffffffffffffffffffffffffffffffffff168152602001838152602001428152602001600181525090505f803373ffffffffffffffffffffffffffffffffffffffff1673ffffffffffffffffffffffffffffffffffffffff1681526020019081526020015f2081908060018154018082558091505060019003905f5260205f2090600402015f909190919091505f820151815f015f6101000a81548173ffffffffffffffffffffffffffffffffffffffff021916908373ffffffffffffffffffffffffffffffffffffffff16021790555060208201518160010190816102b0919061086e565b50604082015181600201556060820151816003015550505050565b5f604051905090565b5f80fd5b5f80fd5b5f73ffffffffffffffffffffffffffffffffffffffff82169050919050565b5f610305826102dc565b9050919050565b610315816102fb565b811461031f575f80fd5b50565b5f813590506103308161030c565b92915050565b5f819050919050565b61034881610336565b8114610352575f80fd5b50565b5f813590506103638161033f565b92915050565b5f806040838503121561037f5761037e6102d4565b5b5f61038c85828601610322565b925050602061039d85828601610355565b9150509250929050565b6103b0816102fb565b82525050565b5f81519050919050565b5f82825260208201905092915050565b5f5b838110156103ed5780820151818401526020810190506103d2565b5f8484015250505050565b5f601f19601f8301169050919050565b5f610412826103b6565b61041c81856103c0565b935061042c8185602086016103d0565b610435816103f8565b840191505092915050565b61044981610336565b82525050565b5f6080820190506104625f8301876103a7565b81810360208301526104748186610408565b90506104836040830185610440565b6104906060830184610440565b95945050505050565b5f80fd5b5f80fd5b7f4e487b71000000000000000000000000000000000000000000000000000000005f52604160045260245ffd5b6104d7826103f8565b810181811067ffffffffffffffff821117156104f6576104f56104a1565b5b80604052505050565b5f6105086102cb565b905061051482826104ce565b919050565b5f67ffffffffffffffff821115610533576105326104a1565b5b61053c826103f8565b9050602081019050919050565b828183375f83830152505050565b5f61056961056484610519565b6104ff565b9050828152602081018484840111156105855761058461049d565b5b610590848285610549565b509392505050565b5f82601f8301126105ac576105ab610499565b5b81356105bc848260208601610557565b91505092915050565b5f602082840312156105da576105d96102d4565b5b5f82013567ffffffffffffffff8111156105f7576105f66102d8565b5b61060384828501610598565b91505092915050565b7f4e487b71000000000000000000000000000000000000000000000000000000005f52602260045260245ffd5b5f600282049050600182168061065057607f821691505b6020821081036106635761066261060c565b5b50919050565b7f547765657420697320746f6f206c6f6e670000000000000000000000000000005f82015250565b5f61069d6011836103c0565b91506106a882610669565b602082019050919050565b5f6020820190508181035f8301526106ca81610691565b9050919050565b5f819050815f5260205f209050919050565b5f6020601f8301049050919050565b5f82821b905092915050565b5f6008830261072d7fffffffffffffffffffffffffffffffffffffffffffffffffffffffffffffffff826106f2565b61073786836106f2565b95508019841693508086168417925050509392505050565b5f819050919050565b5f61077261076d61076884610336565b61074f565b610336565b9050919050565b5f819050919050565b61078b83610758565b61079f61079782610779565b8484546106fe565b825550505050565b5f90565b6107b36107a7565b6107be818484610782565b505050565b5b818110156107e1576107d65f826107ab565b6001810190506107c4565b5050565b601f821115610826576107f7816106d1565b610800846106e3565b8101602085101561080f578190505b61082361081b856106e3565b8301826107c3565b50505b505050565b5f82821c905092915050565b5f6108465f198460080261082b565b1980831691505092915050565b5f61085e8383610837565b9150826002028217905092915050565b610877826103b6565b67ffffffffffffffff8111156108905761088f6104a1565b5b61089a8254610639565b6108a58282856107e5565b5f60209050601f8311600181146108d6575f84156108c4578287015190505b6108ce8582610853565b865550610935565b601f1984166108e4866106d1565b5f5b8281101561090b578489015182556001820191506020850194506020810190506108e6565b868310156109285784890151610924601f891682610837565b8355505b6001600288020188555050505b50505050505056fea26469706673582212200ad4be8f8dd045c27a018154754167a15d69a479c5db9693c6cdd4472d3fedbe64736f6c63430008160033",
					"opcodes": "PUSH1 0x80 PUSH1 0x40 MSTORE CALLVALUE DUP1 ISZERO PUSH2 0xF JUMPI PUSH0 DUP1 REVERT JUMPDEST POP PUSH2 0x973 DUP1 PUSH2 0x1D PUSH0 CODECOPY PUSH0 RETURN INVALID PUSH1 0x80 PUSH1 0x40 MSTORE CALLVALUE DUP1 ISZERO PUSH2 0xF JUMPI PUSH0 DUP1 REVERT JUMPDEST POP PUSH1 0x4 CALLDATASIZE LT PUSH2 0x34 JUMPI PUSH0 CALLDATALOAD PUSH1 0xE0 SHR DUP1 PUSH4 0x5A1B4A9 EQ PUSH2 0x38 JUMPI DUP1 PUSH4 0x2A1F1D06 EQ PUSH2 0x6B JUMPI JUMPDEST PUSH0 DUP1 REVERT JUMPDEST PUSH2 0x52 PUSH1 0x4 DUP1 CALLDATASIZE SUB DUP2 ADD SWAP1 PUSH2 0x4D SWAP2 SWAP1 PUSH2 0x369 JUMP JUMPDEST PUSH2 0x87 JUMP JUMPDEST PUSH1 0x40 MLOAD PUSH2 0x62 SWAP5 SWAP4 SWAP3 SWAP2 SWAP1 PUSH2 0x44F JUMP JUMPDEST PUSH1 0x40 MLOAD DUP1 SWAP2 SUB SWAP1 RETURN JUMPDEST PUSH2 0x85 PUSH1 0x4 DUP1 CALLDATASIZE SUB DUP2 ADD SWAP1 PUSH2 0x80 SWAP2 SWAP1 PUSH2 0x5C5 JUMP JUMPDEST PUSH2 0x171 JUMP JUMPDEST STOP JUMPDEST PUSH0 PUSH1 0x20 MSTORE DUP2 PUSH0 MSTORE PUSH1 0x40 PUSH0 KECCAK256 DUP2 DUP2 SLOAD DUP2 LT PUSH2 0x9F JUMPI PUSH0 DUP1 REVERT JUMPDEST SWAP1 PUSH0 MSTORE PUSH1 0x20 PUSH0 KECCAK256 SWAP1 PUSH1 0x4 MUL ADD PUSH0 SWAP2 POP SWAP2 POP POP DUP1 PUSH0 ADD PUSH0 SWAP1 SLOAD SWAP1 PUSH2 0x100 EXP SWAP1 DIV PUSH20 0xFFFFFFFFFFFFFFFFFFFFFFFFFFFFFFFFFFFFFFFF AND SWAP1 DUP1 PUSH1 0x1 ADD DUP1 SLOAD PUSH2 0xE4 SWAP1 PUSH2 0x639 JUMP JUMPDEST DUP1 PUSH1 0x1F ADD PUSH1 0x20 DUP1 SWAP2 DIV MUL PUSH1 0x20 ADD PUSH1 0x40 MLOAD SWAP1 DUP2 ADD PUSH1 0x40 MSTORE DUP1 SWAP3 SWAP2 SWAP1 DUP2 DUP2 MSTORE PUSH1 0x20 ADD DUP3 DUP1 SLOAD PUSH2 0x110 SWAP1 PUSH2 0x639 JUMP JUMPDEST DUP1 ISZERO PUSH2 0x15B JUMPI DUP1 PUSH1 0x1F LT PUSH2 0x132 JUMPI PUSH2 0x100 DUP1 DUP4 SLOAD DIV MUL DUP4 MSTORE SWAP2 PUSH1 0x20 ADD SWAP2 PUSH2 0x15B JUMP JUMPDEST DUP3 ADD SWAP2 SWAP1 PUSH0 MSTORE PUSH1 0x20 PUSH0 KECCAK256 SWAP1 JUMPDEST DUP2 SLOAD DUP2 MSTORE SWAP1 PUSH1 0x1 ADD SWAP1 PUSH1 0x20 ADD DUP1 DUP4 GT PUSH2 0x13E JUMPI DUP3 SWAP1 SUB PUSH1 0x1F AND DUP3 ADD SWAP2 JUMPDEST POP POP POP POP POP SWAP1 DUP1 PUSH1 0x2 ADD SLOAD SWAP1 DUP1 PUSH1 0x3 ADD SLOAD SWAP1 POP DUP5 JUMP JUMPDEST PUSH1 0xF0 PUSH1 0xFF AND DUP2 MLOAD GT ISZERO PUSH2 0x1B9 JUMPI PUSH1 0x40 MLOAD PUSH32 0x8C379A000000000000000000000000000000000000000000000000000000000 DUP2 MSTORE PUSH1 0x4 ADD PUSH2 0x1B0 SWAP1 PUSH2 0x6B3 JUMP JUMPDEST PUSH1 0x40 MLOAD DUP1 SWAP2 SUB SWAP1 REVERT JUMPDEST PUSH0 PUSH1 0x40 MLOAD DUP1 PUSH1 0x80 ADD PUSH1 0x40 MSTORE DUP1 CALLER PUSH20 0xFFFFFFFFFFFFFFFFFFFFFFFFFFFFFFFFFFFFFFFF AND DUP2 MSTORE PUSH1 0x20 ADD DUP4 DUP2 MSTORE PUSH1 0x20 ADD TIMESTAMP DUP2 MSTORE PUSH1 0x20 ADD PUSH1 0x1 DUP2 MSTORE POP SWAP1 POP PUSH0 DUP1 CALLER PUSH20 0xFFFFFFFFFFFFFFFFFFFFFFFFFFFFFFFFFFFFFFFF AND PUSH20 0xFFFFFFFFFFFFFFFFFFFFFFFFFFFFFFFFFFFFFFFF AND DUP2 MSTORE PUSH1 0x20 ADD SWAP1 DUP2 MSTORE PUSH1 0x20 ADD PUSH0 KECCAK256 DUP2 SWAP1 DUP1 PUSH1 0x1 DUP2 SLOAD ADD DUP1 DUP3 SSTORE DUP1 SWAP2 POP POP PUSH1 0x1 SWAP1 SUB SWAP1 PUSH0 MSTORE PUSH1 0x20 PUSH0 KECCAK256 SWAP1 PUSH1 0x4 MUL ADD PUSH0 SWAP1 SWAP2 SWAP1 SWAP2 SWAP1 SWAP2 POP PUSH0 DUP3 ADD MLOAD DUP2 PUSH0 ADD PUSH0 PUSH2 0x100 EXP DUP2 SLOAD DUP2 PUSH20 0xFFFFFFFFFFFFFFFFFFFFFFFFFFFFFFFFFFFFFFFF MUL NOT AND SWAP1 DUP4 PUSH20 0xFFFFFFFFFFFFFFFFFFFFFFFFFFFFFFFFFFFFFFFF AND MUL OR SWAP1 SSTORE POP PUSH1 0x20 DUP3 ADD MLOAD DUP2 PUSH1 0x1 ADD SWAP1 DUP2 PUSH2 0x2B0 SWAP2 SWAP1 PUSH2 0x86E JUMP JUMPDEST POP PUSH1 0x40 DUP3 ADD MLOAD DUP2 PUSH1 0x2 ADD SSTORE PUSH1 0x60 DUP3 ADD MLOAD DUP2 PUSH1 0x3 ADD SSTORE POP POP POP POP JUMP JUMPDEST PUSH0 PUSH1 0x40 MLOAD SWAP1 POP SWAP1 JUMP JUMPDEST PUSH0 DUP1 REVERT JUMPDEST PUSH0 DUP1 REVERT JUMPDEST PUSH0 PUSH20 0xFFFFFFFFFFFFFFFFFFFFFFFFFFFFFFFFFFFFFFFF DUP3 AND SWAP1 POP SWAP2 SWAP1 POP JUMP JUMPDEST PUSH0 PUSH2 0x305 DUP3 PUSH2 0x2DC JUMP JUMPDEST SWAP1 POP SWAP2 SWAP1 POP JUMP JUMPDEST PUSH2 0x315 DUP2 PUSH2 0x2FB JUMP JUMPDEST DUP2 EQ PUSH2 0x31F JUMPI PUSH0 DUP1 REVERT JUMPDEST POP JUMP JUMPDEST PUSH0 DUP2 CALLDATALOAD SWAP1 POP PUSH2 0x330 DUP2 PUSH2 0x30C JUMP JUMPDEST SWAP3 SWAP2 POP POP JUMP JUMPDEST PUSH0 DUP2 SWAP1 POP SWAP2 SWAP1 POP JUMP JUMPDEST PUSH2 0x348 DUP2 PUSH2 0x336 JUMP JUMPDEST DUP2 EQ PUSH2 0x352 JUMPI PUSH0 DUP1 REVERT JUMPDEST POP JUMP JUMPDEST PUSH0 DUP2 CALLDATALOAD SWAP1 POP PUSH2 0x363 DUP2 PUSH2 0x33F JUMP JUMPDEST SWAP3 SWAP2 POP POP JUMP JUMPDEST PUSH0 DUP1 PUSH1 0x40 DUP4 DUP6 SUB SLT ISZERO PUSH2 0x37F JUMPI PUSH2 0x37E PUSH2 0x2D4 JUMP JUMPDEST JUMPDEST PUSH0 PUSH2 0x38C DUP6 DUP3 DUP7 ADD PUSH2 0x322 JUMP JUMPDEST SWAP3 POP POP PUSH1 0x20 PUSH2 0x39D DUP6 DUP3 DUP7 ADD PUSH2 0x355 JUMP JUMPDEST SWAP2 POP POP SWAP3 POP SWAP3 SWAP1 POP JUMP JUMPDEST PUSH2 0x3B0 DUP2 PUSH2 0x2FB JUMP JUMPDEST DUP3 MSTORE POP POP JUMP JUMPDEST PUSH0 DUP2 MLOAD SWAP1 POP SWAP2 SWAP1 POP JUMP JUMPDEST PUSH0 DUP3 DUP3 MSTORE PUSH1 0x20 DUP3 ADD SWAP1 POP SWAP3 SWAP2 POP POP JUMP JUMPDEST PUSH0 JUMPDEST DUP4 DUP2 LT ISZERO PUSH2 0x3ED JUMPI DUP1 DUP3 ADD MLOAD DUP2 DUP5 ADD MSTORE PUSH1 0x20 DUP2 ADD SWAP1 POP PUSH2 0x3D2 JUMP JUMPDEST PUSH0 DUP5 DUP5 ADD MSTORE POP POP POP POP JUMP JUMPDEST PUSH0 PUSH1 0x1F NOT PUSH1 0x1F DUP4 ADD AND SWAP1 POP SWAP2 SWAP1 POP JUMP JUMPDEST PUSH0 PUSH2 0x412 DUP3 PUSH2 0x3B6 JUMP JUMPDEST PUSH2 0x41C DUP2 DUP6 PUSH2 0x3C0 JUMP JUMPDEST SWAP4 POP PUSH2 0x42C DUP2 DUP6 PUSH1 0x20 DUP7 ADD PUSH2 0x3D0 JUMP JUMPDEST PUSH2 0x435 DUP2 PUSH2 0x3F8 JUMP JUMPDEST DUP5 ADD SWAP2 POP POP SWAP3 SWAP2 POP POP JUMP JUMPDEST PUSH2 0x449 DUP2 PUSH2 0x336 JUMP JUMPDEST DUP3 MSTORE POP POP JUMP JUMPDEST PUSH0 PUSH1 0x80 DUP3 ADD SWAP1 POP PUSH2 0x462 PUSH0 DUP4 ADD DUP8 PUSH2 0x3A7 JUMP JUMPDEST DUP2 DUP2 SUB PUSH1 0x20 DUP4 ADD MSTORE PUSH2 0x474 DUP2 DUP7 PUSH2 0x408 JUMP JUMPDEST SWAP1 POP PUSH2 0x483 PUSH1 0x40 DUP4 ADD DUP6 PUSH2 0x440 JUMP JUMPDEST PUSH2 0x490 PUSH1 0x60 DUP4 ADD DUP5 PUSH2 0x440 JUMP JUMPDEST SWAP6 SWAP5 POP POP POP POP POP JUMP JUMPDEST PUSH0 DUP1 REVERT JUMPDEST PUSH0 DUP1 REVERT JUMPDEST PUSH32 0x4E487B7100000000000000000000000000000000000000000000000000000000 PUSH0 MSTORE PUSH1 0x41 PUSH1 0x4 MSTORE PUSH1 0x24 PUSH0 REVERT JUMPDEST PUSH2 0x4D7 DUP3 PUSH2 0x3F8 JUMP JUMPDEST DUP2 ADD DUP2 DUP2 LT PUSH8 0xFFFFFFFFFFFFFFFF DUP3 GT OR ISZERO PUSH2 0x4F6 JUMPI PUSH2 0x4F5 PUSH2 0x4A1 JUMP JUMPDEST JUMPDEST DUP1 PUSH1 0x40 MSTORE POP POP POP JUMP JUMPDEST PUSH0 PUSH2 0x508 PUSH2 0x2CB JUMP JUMPDEST SWAP1 POP PUSH2 0x514 DUP3 DUP3 PUSH2 0x4CE JUMP JUMPDEST SWAP2 SWAP1 POP JUMP JUMPDEST PUSH0 PUSH8 0xFFFFFFFFFFFFFFFF DUP3 GT ISZERO PUSH2 0x533 JUMPI PUSH2 0x532 PUSH2 0x4A1 JUMP JUMPDEST JUMPDEST PUSH2 0x53C DUP3 PUSH2 0x3F8 JUMP JUMPDEST SWAP1 POP PUSH1 0x20 DUP2 ADD SWAP1 POP SWAP2 SWAP1 POP JUMP JUMPDEST DUP3 DUP2 DUP4 CALLDATACOPY PUSH0 DUP4 DUP4 ADD MSTORE POP POP POP JUMP JUMPDEST PUSH0 PUSH2 0x569 PUSH2 0x564 DUP5 PUSH2 0x519 JUMP JUMPDEST PUSH2 0x4FF JUMP JUMPDEST SWAP1 POP DUP3 DUP2 MSTORE PUSH1 0x20 DUP2 ADD DUP5 DUP5 DUP5 ADD GT ISZERO PUSH2 0x585 JUMPI PUSH2 0x584 PUSH2 0x49D JUMP JUMPDEST JUMPDEST PUSH2 0x590 DUP5 DUP3 DUP6 PUSH2 0x549 JUMP JUMPDEST POP SWAP4 SWAP3 POP POP POP JUMP JUMPDEST PUSH0 DUP3 PUSH1 0x1F DUP4 ADD SLT PUSH2 0x5AC JUMPI PUSH2 0x5AB PUSH2 0x499 JUMP JUMPDEST JUMPDEST DUP2 CALLDATALOAD PUSH2 0x5BC DUP5 DUP3 PUSH1 0x20 DUP7 ADD PUSH2 0x557 JUMP JUMPDEST SWAP2 POP POP SWAP3 SWAP2 POP POP JUMP JUMPDEST PUSH0 PUSH1 0x20 DUP3 DUP5 SUB SLT ISZERO PUSH2 0x5DA JUMPI PUSH2 0x5D9 PUSH2 0x2D4 JUMP JUMPDEST JUMPDEST PUSH0 DUP3 ADD CALLDATALOAD PUSH8 0xFFFFFFFFFFFFFFFF DUP2 GT ISZERO PUSH2 0x5F7 JUMPI PUSH2 0x5F6 PUSH2 0x2D8 JUMP JUMPDEST JUMPDEST PUSH2 0x603 DUP5 DUP3 DUP6 ADD PUSH2 0x598 JUMP JUMPDEST SWAP2 POP POP SWAP3 SWAP2 POP POP JUMP JUMPDEST PUSH32 0x4E487B7100000000000000000000000000000000000000000000000000000000 PUSH0 MSTORE PUSH1 0x22 PUSH1 0x4 MSTORE PUSH1 0x24 PUSH0 REVERT JUMPDEST PUSH0 PUSH1 0x2 DUP3 DIV SWAP1 POP PUSH1 0x1 DUP3 AND DUP1 PUSH2 0x650 JUMPI PUSH1 0x7F DUP3 AND SWAP2 POP JUMPDEST PUSH1 0x20 DUP3 LT DUP2 SUB PUSH2 0x663 JUMPI PUSH2 0x662 PUSH2 0x60C JUMP JUMPDEST JUMPDEST POP SWAP2 SWAP1 POP JUMP JUMPDEST PUSH32 0x547765657420697320746F6F206C6F6E67000000000000000000000000000000 PUSH0 DUP3 ADD MSTORE POP JUMP JUMPDEST PUSH0 PUSH2 0x69D PUSH1 0x11 DUP4 PUSH2 0x3C0 JUMP JUMPDEST SWAP2 POP PUSH2 0x6A8 DUP3 PUSH2 0x669 JUMP JUMPDEST PUSH1 0x20 DUP3 ADD SWAP1 POP SWAP2 SWAP1 POP JUMP JUMPDEST PUSH0 PUSH1 0x20 DUP3 ADD SWAP1 POP DUP2 DUP2 SUB PUSH0 DUP4 ADD MSTORE PUSH2 0x6CA DUP2 PUSH2 0x691 JUMP JUMPDEST SWAP1 POP SWAP2 SWAP1 POP JUMP JUMPDEST PUSH0 DUP2 SWAP1 POP DUP2 PUSH0 MSTORE PUSH1 0x20 PUSH0 KECCAK256 SWAP1 POP SWAP2 SWAP1 POP JUMP JUMPDEST PUSH0 PUSH1 0x20 PUSH1 0x1F DUP4 ADD DIV SWAP1 POP SWAP2 SWAP1 POP JUMP JUMPDEST PUSH0 DUP3 DUP3 SHL SWAP1 POP SWAP3 SWAP2 POP POP JUMP JUMPDEST PUSH0 PUSH1 0x8 DUP4 MUL PUSH2 0x72D PUSH32 0xFFFFFFFFFFFFFFFFFFFFFFFFFFFFFFFFFFFFFFFFFFFFFFFFFFFFFFFFFFFFFFFF DUP3 PUSH2 0x6F2 JUMP JUMPDEST PUSH2 0x737 DUP7 DUP4 PUSH2 0x6F2 JUMP JUMPDEST SWAP6 POP DUP1 NOT DUP5 AND SWAP4 POP DUP1 DUP7 AND DUP5 OR SWAP3 POP POP POP SWAP4 SWAP3 POP POP POP JUMP JUMPDEST PUSH0 DUP2 SWAP1 POP SWAP2 SWAP1 POP JUMP JUMPDEST PUSH0 PUSH2 0x772 PUSH2 0x76D PUSH2 0x768 DUP5 PUSH2 0x336 JUMP JUMPDEST PUSH2 0x74F JUMP JUMPDEST PUSH2 0x336 JUMP JUMPDEST SWAP1 POP SWAP2 SWAP1 POP JUMP JUMPDEST PUSH0 DUP2 SWAP1 POP SWAP2 SWAP1 POP JUMP JUMPDEST PUSH2 0x78B DUP4 PUSH2 0x758 JUMP JUMPDEST PUSH2 0x79F PUSH2 0x797 DUP3 PUSH2 0x779 JUMP JUMPDEST DUP5 DUP5 SLOAD PUSH2 0x6FE JUMP JUMPDEST DUP3 SSTORE POP POP POP POP JUMP JUMPDEST PUSH0 SWAP1 JUMP JUMPDEST PUSH2 0x7B3 PUSH2 0x7A7 JUMP JUMPDEST PUSH2 0x7BE DUP2 DUP5 DUP5 PUSH2 0x782 JUMP JUMPDEST POP POP POP JUMP JUMPDEST JUMPDEST DUP2 DUP2 LT ISZERO PUSH2 0x7E1 JUMPI PUSH2 0x7D6 PUSH0 DUP3 PUSH2 0x7AB JUMP JUMPDEST PUSH1 0x1 DUP2 ADD SWAP1 POP PUSH2 0x7C4 JUMP JUMPDEST POP POP JUMP JUMPDEST PUSH1 0x1F DUP3 GT ISZERO PUSH2 0x826 JUMPI PUSH2 0x7F7 DUP2 PUSH2 0x6D1 JUMP JUMPDEST PUSH2 0x800 DUP5 PUSH2 0x6E3 JUMP JUMPDEST DUP2 ADD PUSH1 0x20 DUP6 LT ISZERO PUSH2 0x80F JUMPI DUP2 SWAP1 POP JUMPDEST PUSH2 0x823 PUSH2 0x81B DUP6 PUSH2 0x6E3 JUMP JUMPDEST DUP4 ADD DUP3 PUSH2 0x7C3 JUMP JUMPDEST POP POP JUMPDEST POP POP POP JUMP JUMPDEST PUSH0 DUP3 DUP3 SHR SWAP1 POP SWAP3 SWAP2 POP POP JUMP JUMPDEST PUSH0 PUSH2 0x846 PUSH0 NOT DUP5 PUSH1 0x8 MUL PUSH2 0x82B JUMP JUMPDEST NOT DUP1 DUP4 AND SWAP2 POP POP SWAP3 SWAP2 POP POP JUMP JUMPDEST PUSH0 PUSH2 0x85E DUP4 DUP4 PUSH2 0x837 JUMP JUMPDEST SWAP2 POP DUP3 PUSH1 0x2 MUL DUP3 OR SWAP1 POP SWAP3 SWAP2 POP POP JUMP JUMPDEST PUSH2 0x877 DUP3 PUSH2 0x3B6 JUMP JUMPDEST PUSH8 0xFFFFFFFFFFFFFFFF DUP2 GT ISZERO PUSH2 0x890 JUMPI PUSH2 0x88F PUSH2 0x4A1 JUMP JUMPDEST JUMPDEST PUSH2 0x89A DUP3 SLOAD PUSH2 0x639 JUMP JUMPDEST PUSH2 0x8A5 DUP3 DUP3 DUP6 PUSH2 0x7E5 JUMP JUMPDEST PUSH0 PUSH1 0x20 SWAP1 POP PUSH1 0x1F DUP4 GT PUSH1 0x1 DUP2 EQ PUSH2 0x8D6 JUMPI PUSH0 DUP5 ISZERO PUSH2 0x8C4 JUMPI DUP3 DUP8 ADD MLOAD SWAP1 POP JUMPDEST PUSH2 0x8CE DUP6 DUP3 PUSH2 0x853 JUMP JUMPDEST DUP7 SSTORE POP PUSH2 0x935 JUMP JUMPDEST PUSH1 0x1F NOT DUP5 AND PUSH2 0x8E4 DUP7 PUSH2 0x6D1 JUMP JUMPDEST PUSH0 JUMPDEST DUP3 DUP2 LT ISZERO PUSH2 0x90B JUMPI DUP5 DUP10 ADD MLOAD DUP3 SSTORE PUSH1 0x1 DUP3 ADD SWAP2 POP PUSH1 0x20 DUP6 ADD SWAP5 POP PUSH1 0x20 DUP2 ADD SWAP1 POP PUSH2 0x8E6 JUMP JUMPDEST DUP7 DUP4 LT ISZERO PUSH2 0x928 JUMPI DUP5 DUP10 ADD MLOAD PUSH2 0x924 PUSH1 0x1F DUP10 AND DUP3 PUSH2 0x837 JUMP JUMPDEST DUP4 SSTORE POP JUMPDEST PUSH1 0x1 PUSH1 0x2 DUP9 MUL ADD DUP9 SSTORE POP POP POP JUMPDEST POP POP POP POP POP POP JUMP INVALID LOG2 PUSH5 0x6970667358 0x22 SLT KECCAK256 EXP 0xD4 0xBE DUP16 DUP14 0xD0 GASLIMIT 0xC2 PUSH27 0x18154754167A15D69A479C5DB9693C6CDD4472D3FEDBE64736F6C PUSH4 0x43000816 STOP CALLER "
				},
				"gasEstimates": {
					"creation": {
						"codeDepositCost": "483800",
						"executionCost": "516",
						"totalCost": "484316"
					},
					"external": {
						"CreateTweet(string)": "infinite",
						"tweets(address,uint256)": "infinite"
					}
				},
				"methodIdentifiers": {
					"CreateTweet(string)": "2a1f1d06",
					"tweets(address,uint256)": "05a1b4a9"
				}
			},
			"storageLayout": {
				"storage": [
					{
						"astId": 19,
						"contract": "contracts/Twitter_required.sol:Twitter",
						"label": "tweets",
						"offset": 0,
						"slot": "0",
						"type": "t_mapping(t_address,t_array(t_struct(Tweet)10_storage)dyn_storage)"
					}
				],
				"types": {
					"t_address": {
						"encoding": "inplace",
						"label": "address",
						"numberOfBytes": "20"
					},
					"t_array(t_struct(Tweet)10_storage)dyn_storage": {
						"base": "t_struct(Tweet)10_storage",
						"encoding": "dynamic_array",
						"label": "struct Twitter.Tweet[]",
						"numberOfBytes": "32"
					},
					"t_mapping(t_address,t_array(t_struct(Tweet)10_storage)dyn_storage)": {
						"encoding": "mapping",
						"key": "t_address",
						"label": "mapping(address => struct Twitter.Tweet[])",
						"numberOfBytes": "32",
						"value": "t_array(t_struct(Tweet)10_storage)dyn_storage"
					},
					"t_string_storage": {
						"encoding": "bytes",
						"label": "string",
						"numberOfBytes": "32"
					},
					"t_struct(Tweet)10_storage": {
						"encoding": "inplace",
						"label": "struct Twitter.Tweet",
						"members": [
							{
								"astId": 3,
								"contract": "contracts/Twitter_required.sol:Twitter",
								"label": "author",
								"offset": 0,
								"slot": "0",
								"type": "t_address"
							},
							{
								"astId": 5,
								"contract": "contracts/Twitter_required.sol:Twitter",
								"label": "content",
								"offset": 0,
								"slot": "1",
								"type": "t_string_storage"
							},
							{
								"astId": 7,
								"contract": "contracts/Twitter_required.sol:Twitter",
								"label": "timestamp",
								"offset": 0,
								"slot": "2",
								"type": "t_uint256"
							},
							{
								"astId": 9,
								"contract": "contracts/Twitter_required.sol:Twitter",
								"label": "likes",
								"offset": 0,
								"slot": "3",
								"type": "t_uint256"
							}
						],
						"numberOfBytes": "128"
					},
					"t_uint256": {
						"encoding": "inplace",
						"label": "uint256",
						"numberOfBytes": "32"
					}
				}
			},
			"userdoc": {
				"kind": "user",
				"methods": {},
				"version": 1
			}
		}
	}
}