{
	"contracts/artifacts/twitter.sol": {
		"Twitter": {
			"abi": [
				{
					"inputs": [
						{
							"internalType": "address",
							"name": "_addr",
							"type": "address"
						}
					],
					"name": "GetTweet",
					"outputs": [
						{
							"internalType": "string",
							"name": "",
							"type": "string"
						}
					],
					"stateMutability": "view",
					"type": "function"
				},
				{
					"inputs": [
						{
							"internalType": "address",
							"name": "_addr",
							"type": "address"
						}
					],
					"name": "RemoveTweet",
					"outputs": [],
					"stateMutability": "nonpayable",
					"type": "function"
				},
				{
					"inputs": [
						{
							"internalType": "address",
							"name": "_addr",
							"type": "address"
						},
						{
							"internalType": "string",
							"name": "_tweet",
							"type": "string"
						}
					],
					"name": "SetTweet",
					"outputs": [],
					"stateMutability": "nonpayable",
					"type": "function"
				},
				{
					"inputs": [
						{
							"internalType": "string",
							"name": "_tweet",
							"type": "string"
						}
					],
					"name": "createTweet",
					"outputs": [],
					"stateMutability": "nonpayable",
					"type": "function"
				},
				{
					"inputs": [
						{
							"internalType": "address",
							"name": "",
							"type": "address"
						}
					],
					"name": "tweets",
					"outputs": [
						{
							"internalType": "string",
							"name": "",
							"type": "string"
						}
					],
					"stateMutability": "view",
					"type": "function"
				}
			],
			"devdoc": {
				"kind": "dev",
				"methods": {},
				"version": 1
			},
			"evm": {
				"assembly": "    /* \"contracts/artifacts/twitter.sol\":243:725  contract Twitter... */\n  mstore(0x40, 0x80)\n  callvalue\n  dup1\n  iszero\n  tag_1\n  jumpi\n  0x00\n  dup1\n  revert\ntag_1:\n  pop\n  dataSize(sub_0)\n  dup1\n  dataOffset(sub_0)\n  0x00\n  codecopy\n  0x00\n  return\nstop\n\nsub_0: assembly {\n        /* \"contracts/artifacts/twitter.sol\":243:725  contract Twitter... */\n      mstore(0x40, 0x80)\n      callvalue\n      dup1\n      iszero\n      tag_1\n      jumpi\n      0x00\n      dup1\n      revert\n    tag_1:\n      pop\n      jumpi(tag_2, lt(calldatasize, 0x04))\n      shr(0xe0, calldataload(0x00))\n      dup1\n      0x2ac9ee41\n      eq\n      tag_3\n      jumpi\n      dup1\n      0x5eaf48b4\n      eq\n      tag_4\n      jumpi\n      dup1\n      0x68021199\n      eq\n      tag_5\n      jumpi\n      dup1\n      0x7c9cd2bc\n      eq\n      tag_6\n      jumpi\n      dup1\n      0x7da34e84\n      eq\n      tag_7\n      jumpi\n    tag_2:\n      0x00\n      dup1\n      revert\n        /* \"contracts/artifacts/twitter.sol\":415:522  function GetTweet(address _addr) public view returns (string memory){... */\n    tag_3:\n      tag_8\n      0x04\n      dup1\n      calldatasize\n      sub\n      dup2\n      add\n      swap1\n      tag_9\n      swap2\n      swap1\n      tag_10\n      jump\t// in\n    tag_9:\n      tag_11\n      jump\t// in\n    tag_8:\n      mload(0x40)\n      tag_12\n      swap2\n      swap1\n      tag_13\n      jump\t// in\n    tag_12:\n      mload(0x40)\n      dup1\n      swap2\n      sub\n      swap1\n      return\n        /* \"contracts/artifacts/twitter.sol\":268:306  mapping(address=>string) public tweets */\n    tag_4:\n      tag_14\n      0x04\n      dup1\n      calldatasize\n      sub\n      dup2\n      add\n      swap1\n      tag_15\n      swap2\n      swap1\n      tag_10\n      jump\t// in\n    tag_15:\n      tag_16\n      jump\t// in\n    tag_14:\n      mload(0x40)\n      tag_17\n      swap2\n      swap1\n      tag_13\n      jump\t// in\n    tag_17:\n      mload(0x40)\n      dup1\n      swap2\n      sub\n      swap1\n      return\n        /* \"contracts/artifacts/twitter.sol\":639:722  function RemoveTweet (address _addr) public {... */\n    tag_5:\n      tag_18\n      0x04\n      dup1\n      calldatasize\n      sub\n      dup2\n      add\n      swap1\n      tag_19\n      swap2\n      swap1\n      tag_10\n      jump\t// in\n    tag_19:\n      tag_20\n      jump\t// in\n    tag_18:\n      stop\n        /* \"contracts/artifacts/twitter.sol\":313:409  function createTweet(string memory _tweet) public {... */\n    tag_6:\n      tag_21\n      0x04\n      dup1\n      calldatasize\n      sub\n      dup2\n      add\n      swap1\n      tag_22\n      swap2\n      swap1\n      tag_23\n      jump\t// in\n    tag_22:\n      tag_24\n      jump\t// in\n    tag_21:\n      stop\n        /* \"contracts/artifacts/twitter.sol\":528:633  function SetTweet (address _addr, string memory _tweet) public  {... */\n    tag_7:\n      tag_25\n      0x04\n      dup1\n      calldatasize\n      sub\n      dup2\n      add\n      swap1\n      tag_26\n      swap2\n      swap1\n      tag_27\n      jump\t// in\n    tag_26:\n      tag_28\n      jump\t// in\n    tag_25:\n      stop\n        /* \"contracts/artifacts/twitter.sol\":415:522  function GetTweet(address _addr) public view returns (string memory){... */\n    tag_11:\n        /* \"contracts/artifacts/twitter.sol\":469:482  string memory */\n      0x60\n        /* \"contracts/artifacts/twitter.sol\":501:507  tweets */\n      0x00\n        /* \"contracts/artifacts/twitter.sol\":501:514  tweets[_addr] */\n      dup1\n        /* \"contracts/artifacts/twitter.sol\":508:513  _addr */\n      dup4\n        /* \"contracts/artifacts/twitter.sol\":501:514  tweets[_addr] */\n      0xffffffffffffffffffffffffffffffffffffffff\n      and\n      0xffffffffffffffffffffffffffffffffffffffff\n      and\n      dup2\n      mstore\n      0x20\n      add\n      swap1\n      dup2\n      mstore\n      0x20\n      add\n      0x00\n      keccak256\n        /* \"contracts/artifacts/twitter.sol\":494:514  return tweets[_addr] */\n      dup1\n      sload\n      tag_30\n      swap1\n      tag_31\n      jump\t// in\n    tag_30:\n      dup1\n      0x1f\n      add\n      0x20\n      dup1\n      swap2\n      div\n      mul\n      0x20\n      add\n      mload(0x40)\n      swap1\n      dup2\n      add\n      0x40\n      mstore\n      dup1\n      swap3\n      swap2\n      swap1\n      dup2\n      dup2\n      mstore\n      0x20\n      add\n      dup3\n      dup1\n      sload\n      tag_32\n      swap1\n      tag_31\n      jump\t// in\n    tag_32:\n      dup1\n      iszero\n      tag_33\n      jumpi\n      dup1\n      0x1f\n      lt\n      tag_34\n      jumpi\n      0x0100\n      dup1\n      dup4\n      sload\n      div\n      mul\n      dup4\n      mstore\n      swap2\n      0x20\n      add\n      swap2\n      jump(tag_33)\n    tag_34:\n      dup3\n      add\n      swap2\n      swap1\n      0x00\n      mstore\n      keccak256(0x00, 0x20)\n      swap1\n    tag_35:\n      dup2\n      sload\n      dup2\n      mstore\n      swap1\n      0x01\n      add\n      swap1\n      0x20\n      add\n      dup1\n      dup4\n      gt\n      tag_35\n      jumpi\n      dup3\n      swap1\n      sub\n      0x1f\n      and\n      dup3\n      add\n      swap2\n    tag_33:\n      pop\n      pop\n      pop\n      pop\n      pop\n      swap1\n      pop\n        /* \"contracts/artifacts/twitter.sol\":415:522  function GetTweet(address _addr) public view returns (string memory){... */\n      swap2\n      swap1\n      pop\n      jump\t// out\n        /* \"contracts/artifacts/twitter.sol\":268:306  mapping(address=>string) public tweets */\n    tag_16:\n      mstore(0x20, 0x00)\n      dup1\n      0x00\n      mstore\n      keccak256(0x00, 0x40)\n      0x00\n      swap2\n      pop\n      swap1\n      pop\n      dup1\n      sload\n      tag_36\n      swap1\n      tag_31\n      jump\t// in\n    tag_36:\n      dup1\n      0x1f\n      add\n      0x20\n      dup1\n      swap2\n      div\n      mul\n      0x20\n      add\n      mload(0x40)\n      swap1\n      dup2\n      add\n      0x40\n      mstore\n      dup1\n      swap3\n      swap2\n      swap1\n      dup2\n      dup2\n      mstore\n      0x20\n      add\n      dup3\n      dup1\n      sload\n      tag_37\n      swap1\n      tag_31\n      jump\t// in\n    tag_37:\n      dup1\n      iszero\n      tag_38\n      jumpi\n      dup1\n      0x1f\n      lt\n      tag_39\n      jumpi\n      0x0100\n      dup1\n      dup4\n      sload\n      div\n      mul\n      dup4\n      mstore\n      swap2\n      0x20\n      add\n      swap2\n      jump(tag_38)\n    tag_39:\n      dup3\n      add\n      swap2\n      swap1\n      0x00\n      mstore\n      keccak256(0x00, 0x20)\n      swap1\n    tag_40:\n      dup2\n      sload\n      dup2\n      mstore\n      swap1\n      0x01\n      add\n      swap1\n      0x20\n      add\n      dup1\n      dup4\n      gt\n      tag_40\n      jumpi\n      dup3\n      swap1\n      sub\n      0x1f\n      and\n      dup3\n      add\n      swap2\n    tag_38:\n      pop\n      pop\n      pop\n      pop\n      pop\n      dup2\n      jump\t// out\n        /* \"contracts/artifacts/twitter.sol\":639:722  function RemoveTweet (address _addr) public {... */\n    tag_20:\n        /* \"contracts/artifacts/twitter.sol\":701:707  tweets */\n      0x00\n        /* \"contracts/artifacts/twitter.sol\":701:714  tweets[_addr] */\n      dup1\n        /* \"contracts/artifacts/twitter.sol\":708:713  _addr */\n      dup3\n        /* \"contracts/artifacts/twitter.sol\":701:714  tweets[_addr] */\n      0xffffffffffffffffffffffffffffffffffffffff\n      and\n      0xffffffffffffffffffffffffffffffffffffffff\n      and\n      dup2\n      mstore\n      0x20\n      add\n      swap1\n      dup2\n      mstore\n      0x20\n      add\n      0x00\n      keccak256\n      0x00\n        /* \"contracts/artifacts/twitter.sol\":694:714  delete tweets[_addr] */\n      tag_42\n      swap2\n      swap1\n      tag_43\n      jump\t// in\n    tag_42:\n        /* \"contracts/artifacts/twitter.sol\":639:722  function RemoveTweet (address _addr) public {... */\n      pop\n      jump\t// out\n        /* \"contracts/artifacts/twitter.sol\":313:409  function createTweet(string memory _tweet) public {... */\n    tag_24:\n        /* \"contracts/artifacts/twitter.sol\":395:401  _tweet */\n      dup1\n        /* \"contracts/artifacts/twitter.sol\":374:380  tweets */\n      0x00\n        /* \"contracts/artifacts/twitter.sol\":374:392  tweets[msg.sender] */\n      dup1\n        /* \"contracts/artifacts/twitter.sol\":381:391  msg.sender */\n      caller\n        /* \"contracts/artifacts/twitter.sol\":374:392  tweets[msg.sender] */\n      0xffffffffffffffffffffffffffffffffffffffff\n      and\n      0xffffffffffffffffffffffffffffffffffffffff\n      and\n      dup2\n      mstore\n      0x20\n      add\n      swap1\n      dup2\n      mstore\n      0x20\n      add\n      0x00\n      keccak256\n        /* \"contracts/artifacts/twitter.sol\":374:401  tweets[msg.sender] = _tweet */\n      swap1\n      dup2\n      tag_45\n      swap2\n      swap1\n      tag_46\n      jump\t// in\n    tag_45:\n      pop\n        /* \"contracts/artifacts/twitter.sol\":313:409  function createTweet(string memory _tweet) public {... */\n      pop\n      jump\t// out\n        /* \"contracts/artifacts/twitter.sol\":528:633  function SetTweet (address _addr, string memory _tweet) public  {... */\n    tag_28:\n        /* \"contracts/artifacts/twitter.sol\":619:625  _tweet */\n      dup1\n        /* \"contracts/artifacts/twitter.sol\":603:609  tweets */\n      0x00\n        /* \"contracts/artifacts/twitter.sol\":603:616  tweets[_addr] */\n      dup1\n        /* \"contracts/artifacts/twitter.sol\":610:615  _addr */\n      dup5\n        /* \"contracts/artifacts/twitter.sol\":603:616  tweets[_addr] */\n      0xffffffffffffffffffffffffffffffffffffffff\n      and\n      0xffffffffffffffffffffffffffffffffffffffff\n      and\n      dup2\n      mstore\n      0x20\n      add\n      swap1\n      dup2\n      mstore\n      0x20\n      add\n      0x00\n      keccak256\n        /* \"contracts/artifacts/twitter.sol\":603:625  tweets[_addr] = _tweet */\n      swap1\n      dup2\n      tag_48\n      swap2\n      swap1\n      tag_46\n      jump\t// in\n    tag_48:\n      pop\n        /* \"contracts/artifacts/twitter.sol\":528:633  function SetTweet (address _addr, string memory _tweet) public  {... */\n      pop\n      pop\n      jump\t// out\n    tag_43:\n      pop\n      dup1\n      sload\n      tag_49\n      swap1\n      tag_31\n      jump\t// in\n    tag_49:\n      0x00\n      dup3\n      sstore\n      dup1\n      0x1f\n      lt\n      tag_51\n      jumpi\n      pop\n      jump(tag_50)\n    tag_51:\n      0x1f\n      add\n      0x20\n      swap1\n      div\n      swap1\n      0x00\n      mstore\n      keccak256(0x00, 0x20)\n      swap1\n      dup2\n      add\n      swap1\n      tag_52\n      swap2\n      swap1\n      tag_53\n      jump\t// in\n    tag_52:\n    tag_50:\n      pop\n      jump\t// out\n    tag_53:\n    tag_54:\n      dup1\n      dup3\n      gt\n      iszero\n      tag_55\n      jumpi\n      0x00\n      dup2\n      0x00\n      swap1\n      sstore\n      pop\n      0x01\n      add\n      jump(tag_54)\n    tag_55:\n      pop\n      swap1\n      jump\t// out\n        /* \"#utility.yul\":7:82   */\n    tag_56:\n        /* \"#utility.yul\":40:46   */\n      0x00\n        /* \"#utility.yul\":73:75   */\n      0x40\n        /* \"#utility.yul\":67:76   */\n      mload\n        /* \"#utility.yul\":57:76   */\n      swap1\n      pop\n        /* \"#utility.yul\":7:82   */\n      swap1\n      jump\t// out\n        /* \"#utility.yul\":88:205   */\n    tag_57:\n        /* \"#utility.yul\":197:198   */\n      0x00\n        /* \"#utility.yul\":194:195   */\n      dup1\n        /* \"#utility.yul\":187:199   */\n      revert\n        /* \"#utility.yul\":211:328   */\n    tag_58:\n        /* \"#utility.yul\":320:321   */\n      0x00\n        /* \"#utility.yul\":317:318   */\n      dup1\n        /* \"#utility.yul\":310:322   */\n      revert\n        /* \"#utility.yul\":334:460   */\n    tag_59:\n        /* \"#utility.yul\":371:378   */\n      0x00\n        /* \"#utility.yul\":411:453   */\n      0xffffffffffffffffffffffffffffffffffffffff\n        /* \"#utility.yul\":404:409   */\n      dup3\n        /* \"#utility.yul\":400:454   */\n      and\n        /* \"#utility.yul\":389:454   */\n      swap1\n      pop\n        /* \"#utility.yul\":334:460   */\n      swap2\n      swap1\n      pop\n      jump\t// out\n        /* \"#utility.yul\":466:562   */\n    tag_60:\n        /* \"#utility.yul\":503:510   */\n      0x00\n        /* \"#utility.yul\":532:556   */\n      tag_100\n        /* \"#utility.yul\":550:555   */\n      dup3\n        /* \"#utility.yul\":532:556   */\n      tag_59\n      jump\t// in\n    tag_100:\n        /* \"#utility.yul\":521:556   */\n      swap1\n      pop\n        /* \"#utility.yul\":466:562   */\n      swap2\n      swap1\n      pop\n      jump\t// out\n        /* \"#utility.yul\":568:690   */\n    tag_61:\n        /* \"#utility.yul\":641:665   */\n      tag_102\n        /* \"#utility.yul\":659:664   */\n      dup2\n        /* \"#utility.yul\":641:665   */\n      tag_60\n      jump\t// in\n    tag_102:\n        /* \"#utility.yul\":634:639   */\n      dup2\n        /* \"#utility.yul\":631:666   */\n      eq\n        /* \"#utility.yul\":621:684   */\n      tag_103\n      jumpi\n        /* \"#utility.yul\":680:681   */\n      0x00\n        /* \"#utility.yul\":677:678   */\n      dup1\n        /* \"#utility.yul\":670:682   */\n      revert\n        /* \"#utility.yul\":621:684   */\n    tag_103:\n        /* \"#utility.yul\":568:690   */\n      pop\n      jump\t// out\n        /* \"#utility.yul\":696:835   */\n    tag_62:\n        /* \"#utility.yul\":742:747   */\n      0x00\n        /* \"#utility.yul\":780:786   */\n      dup2\n        /* \"#utility.yul\":767:787   */\n      calldataload\n        /* \"#utility.yul\":758:787   */\n      swap1\n      pop\n        /* \"#utility.yul\":796:829   */\n      tag_105\n        /* \"#utility.yul\":823:828   */\n      dup2\n        /* \"#utility.yul\":796:829   */\n      tag_61\n      jump\t// in\n    tag_105:\n        /* \"#utility.yul\":696:835   */\n      swap3\n      swap2\n      pop\n      pop\n      jump\t// out\n        /* \"#utility.yul\":841:1170   */\n    tag_10:\n        /* \"#utility.yul\":900:906   */\n      0x00\n        /* \"#utility.yul\":949:951   */\n      0x20\n        /* \"#utility.yul\":937:946   */\n      dup3\n        /* \"#utility.yul\":928:935   */\n      dup5\n        /* \"#utility.yul\":924:947   */\n      sub\n        /* \"#utility.yul\":920:952   */\n      slt\n        /* \"#utility.yul\":917:1036   */\n      iszero\n      tag_107\n      jumpi\n        /* \"#utility.yul\":955:1034   */\n      tag_108\n      tag_57\n      jump\t// in\n    tag_108:\n        /* \"#utility.yul\":917:1036   */\n    tag_107:\n        /* \"#utility.yul\":1075:1076   */\n      0x00\n        /* \"#utility.yul\":1100:1153   */\n      tag_109\n        /* \"#utility.yul\":1145:1152   */\n      dup5\n        /* \"#utility.yul\":1136:1142   */\n      dup3\n        /* \"#utility.yul\":1125:1134   */\n      dup6\n        /* \"#utility.yul\":1121:1143   */\n      add\n        /* \"#utility.yul\":1100:1153   */\n      tag_62\n      jump\t// in\n    tag_109:\n        /* \"#utility.yul\":1090:1153   */\n      swap2\n      pop\n        /* \"#utility.yul\":1046:1163   */\n      pop\n        /* \"#utility.yul\":841:1170   */\n      swap3\n      swap2\n      pop\n      pop\n      jump\t// out\n        /* \"#utility.yul\":1176:1275   */\n    tag_63:\n        /* \"#utility.yul\":1228:1234   */\n      0x00\n        /* \"#utility.yul\":1262:1267   */\n      dup2\n        /* \"#utility.yul\":1256:1268   */\n      mload\n        /* \"#utility.yul\":1246:1268   */\n      swap1\n      pop\n        /* \"#utility.yul\":1176:1275   */\n      swap2\n      swap1\n      pop\n      jump\t// out\n        /* \"#utility.yul\":1281:1450   */\n    tag_64:\n        /* \"#utility.yul\":1365:1376   */\n      0x00\n        /* \"#utility.yul\":1399:1405   */\n      dup3\n        /* \"#utility.yul\":1394:1397   */\n      dup3\n        /* \"#utility.yul\":1387:1406   */\n      mstore\n        /* \"#utility.yul\":1439:1443   */\n      0x20\n        /* \"#utility.yul\":1434:1437   */\n      dup3\n        /* \"#utility.yul\":1430:1444   */\n      add\n        /* \"#utility.yul\":1415:1444   */\n      swap1\n      pop\n        /* \"#utility.yul\":1281:1450   */\n      swap3\n      swap2\n      pop\n      pop\n      jump\t// out\n        /* \"#utility.yul\":1456:1702   */\n    tag_65:\n        /* \"#utility.yul\":1537:1538   */\n      0x00\n        /* \"#utility.yul\":1547:1660   */\n    tag_113:\n        /* \"#utility.yul\":1561:1567   */\n      dup4\n        /* \"#utility.yul\":1558:1559   */\n      dup2\n        /* \"#utility.yul\":1555:1568   */\n      lt\n        /* \"#utility.yul\":1547:1660   */\n      iszero\n      tag_115\n      jumpi\n        /* \"#utility.yul\":1646:1647   */\n      dup1\n        /* \"#utility.yul\":1641:1644   */\n      dup3\n        /* \"#utility.yul\":1637:1648   */\n      add\n        /* \"#utility.yul\":1631:1649   */\n      mload\n        /* \"#utility.yul\":1627:1628   */\n      dup2\n        /* \"#utility.yul\":1622:1625   */\n      dup5\n        /* \"#utility.yul\":1618:1629   */\n      add\n        /* \"#utility.yul\":1611:1650   */\n      mstore\n        /* \"#utility.yul\":1583:1585   */\n      0x20\n        /* \"#utility.yul\":1580:1581   */\n      dup2\n        /* \"#utility.yul\":1576:1586   */\n      add\n        /* \"#utility.yul\":1571:1586   */\n      swap1\n      pop\n        /* \"#utility.yul\":1547:1660   */\n      jump(tag_113)\n    tag_115:\n        /* \"#utility.yul\":1694:1695   */\n      0x00\n        /* \"#utility.yul\":1685:1691   */\n      dup5\n        /* \"#utility.yul\":1680:1683   */\n      dup5\n        /* \"#utility.yul\":1676:1692   */\n      add\n        /* \"#utility.yul\":1669:1696   */\n      mstore\n        /* \"#utility.yul\":1518:1702   */\n      pop\n        /* \"#utility.yul\":1456:1702   */\n      pop\n      pop\n      pop\n      jump\t// out\n        /* \"#utility.yul\":1708:1810   */\n    tag_66:\n        /* \"#utility.yul\":1749:1755   */\n      0x00\n        /* \"#utility.yul\":1800:1802   */\n      0x1f\n        /* \"#utility.yul\":1796:1803   */\n      not\n        /* \"#utility.yul\":1791:1793   */\n      0x1f\n        /* \"#utility.yul\":1784:1789   */\n      dup4\n        /* \"#utility.yul\":1780:1794   */\n      add\n        /* \"#utility.yul\":1776:1804   */\n      and\n        /* \"#utility.yul\":1766:1804   */\n      swap1\n      pop\n        /* \"#utility.yul\":1708:1810   */\n      swap2\n      swap1\n      pop\n      jump\t// out\n        /* \"#utility.yul\":1816:2193   */\n    tag_67:\n        /* \"#utility.yul\":1904:1907   */\n      0x00\n        /* \"#utility.yul\":1932:1971   */\n      tag_118\n        /* \"#utility.yul\":1965:1970   */\n      dup3\n        /* \"#utility.yul\":1932:1971   */\n      tag_63\n      jump\t// in\n    tag_118:\n        /* \"#utility.yul\":1987:2058   */\n      tag_119\n        /* \"#utility.yul\":2051:2057   */\n      dup2\n        /* \"#utility.yul\":2046:2049   */\n      dup6\n        /* \"#utility.yul\":1987:2058   */\n      tag_64\n      jump\t// in\n    tag_119:\n        /* \"#utility.yul\":1980:2058   */\n      swap4\n      pop\n        /* \"#utility.yul\":2067:2132   */\n      tag_120\n        /* \"#utility.yul\":2125:2131   */\n      dup2\n        /* \"#utility.yul\":2120:2123   */\n      dup6\n        /* \"#utility.yul\":2113:2117   */\n      0x20\n        /* \"#utility.yul\":2106:2111   */\n      dup7\n        /* \"#utility.yul\":2102:2118   */\n      add\n        /* \"#utility.yul\":2067:2132   */\n      tag_65\n      jump\t// in\n    tag_120:\n        /* \"#utility.yul\":2157:2186   */\n      tag_121\n        /* \"#utility.yul\":2179:2185   */\n      dup2\n        /* \"#utility.yul\":2157:2186   */\n      tag_66\n      jump\t// in\n    tag_121:\n        /* \"#utility.yul\":2152:2155   */\n      dup5\n        /* \"#utility.yul\":2148:2187   */\n      add\n        /* \"#utility.yul\":2141:2187   */\n      swap2\n      pop\n        /* \"#utility.yul\":1908:2193   */\n      pop\n        /* \"#utility.yul\":1816:2193   */\n      swap3\n      swap2\n      pop\n      pop\n      jump\t// out\n        /* \"#utility.yul\":2199:2512   */\n    tag_13:\n        /* \"#utility.yul\":2312:2316   */\n      0x00\n        /* \"#utility.yul\":2350:2352   */\n      0x20\n        /* \"#utility.yul\":2339:2348   */\n      dup3\n        /* \"#utility.yul\":2335:2353   */\n      add\n        /* \"#utility.yul\":2327:2353   */\n      swap1\n      pop\n        /* \"#utility.yul\":2399:2408   */\n      dup2\n        /* \"#utility.yul\":2393:2397   */\n      dup2\n        /* \"#utility.yul\":2389:2409   */\n      sub\n        /* \"#utility.yul\":2385:2386   */\n      0x00\n        /* \"#utility.yul\":2374:2383   */\n      dup4\n        /* \"#utility.yul\":2370:2387   */\n      add\n        /* \"#utility.yul\":2363:2410   */\n      mstore\n        /* \"#utility.yul\":2427:2505   */\n      tag_123\n        /* \"#utility.yul\":2500:2504   */\n      dup2\n        /* \"#utility.yul\":2491:2497   */\n      dup5\n        /* \"#utility.yul\":2427:2505   */\n      tag_67\n      jump\t// in\n    tag_123:\n        /* \"#utility.yul\":2419:2505   */\n      swap1\n      pop\n        /* \"#utility.yul\":2199:2512   */\n      swap3\n      swap2\n      pop\n      pop\n      jump\t// out\n        /* \"#utility.yul\":2518:2635   */\n    tag_68:\n        /* \"#utility.yul\":2627:2628   */\n      0x00\n        /* \"#utility.yul\":2624:2625   */\n      dup1\n        /* \"#utility.yul\":2617:2629   */\n      revert\n        /* \"#utility.yul\":2641:2758   */\n    tag_69:\n        /* \"#utility.yul\":2750:2751   */\n      0x00\n        /* \"#utility.yul\":2747:2748   */\n      dup1\n        /* \"#utility.yul\":2740:2752   */\n      revert\n        /* \"#utility.yul\":2764:2944   */\n    tag_70:\n        /* \"#utility.yul\":2812:2889   */\n      0x4e487b7100000000000000000000000000000000000000000000000000000000\n        /* \"#utility.yul\":2809:2810   */\n      0x00\n        /* \"#utility.yul\":2802:2890   */\n      mstore\n        /* \"#utility.yul\":2909:2913   */\n      0x41\n        /* \"#utility.yul\":2906:2907   */\n      0x04\n        /* \"#utility.yul\":2899:2914   */\n      mstore\n        /* \"#utility.yul\":2933:2937   */\n      0x24\n        /* \"#utility.yul\":2930:2931   */\n      0x00\n        /* \"#utility.yul\":2923:2938   */\n      revert\n        /* \"#utility.yul\":2950:3231   */\n    tag_71:\n        /* \"#utility.yul\":3033:3060   */\n      tag_128\n        /* \"#utility.yul\":3055:3059   */\n      dup3\n        /* \"#utility.yul\":3033:3060   */\n      tag_66\n      jump\t// in\n    tag_128:\n        /* \"#utility.yul\":3025:3031   */\n      dup2\n        /* \"#utility.yul\":3021:3061   */\n      add\n        /* \"#utility.yul\":3163:3169   */\n      dup2\n        /* \"#utility.yul\":3151:3161   */\n      dup2\n        /* \"#utility.yul\":3148:3170   */\n      lt\n        /* \"#utility.yul\":3127:3145   */\n      0xffffffffffffffff\n        /* \"#utility.yul\":3115:3125   */\n      dup3\n        /* \"#utility.yul\":3112:3146   */\n      gt\n        /* \"#utility.yul\":3109:3171   */\n      or\n        /* \"#utility.yul\":3106:3194   */\n      iszero\n      tag_129\n      jumpi\n        /* \"#utility.yul\":3174:3192   */\n      tag_130\n      tag_70\n      jump\t// in\n    tag_130:\n        /* \"#utility.yul\":3106:3194   */\n    tag_129:\n        /* \"#utility.yul\":3214:3224   */\n      dup1\n        /* \"#utility.yul\":3210:3212   */\n      0x40\n        /* \"#utility.yul\":3203:3225   */\n      mstore\n        /* \"#utility.yul\":2993:3231   */\n      pop\n        /* \"#utility.yul\":2950:3231   */\n      pop\n      pop\n      jump\t// out\n        /* \"#utility.yul\":3237:3366   */\n    tag_72:\n        /* \"#utility.yul\":3271:3277   */\n      0x00\n        /* \"#utility.yul\":3298:3318   */\n      tag_132\n      tag_56\n      jump\t// in\n    tag_132:\n        /* \"#utility.yul\":3288:3318   */\n      swap1\n      pop\n        /* \"#utility.yul\":3327:3360   */\n      tag_133\n        /* \"#utility.yul\":3355:3359   */\n      dup3\n        /* \"#utility.yul\":3347:3353   */\n      dup3\n        /* \"#utility.yul\":3327:3360   */\n      tag_71\n      jump\t// in\n    tag_133:\n        /* \"#utility.yul\":3237:3366   */\n      swap2\n      swap1\n      pop\n      jump\t// out\n        /* \"#utility.yul\":3372:3680   */\n    tag_73:\n        /* \"#utility.yul\":3434:3438   */\n      0x00\n        /* \"#utility.yul\":3524:3542   */\n      0xffffffffffffffff\n        /* \"#utility.yul\":3516:3522   */\n      dup3\n        /* \"#utility.yul\":3513:3543   */\n      gt\n        /* \"#utility.yul\":3510:3566   */\n      iszero\n      tag_135\n      jumpi\n        /* \"#utility.yul\":3546:3564   */\n      tag_136\n      tag_70\n      jump\t// in\n    tag_136:\n        /* \"#utility.yul\":3510:3566   */\n    tag_135:\n        /* \"#utility.yul\":3584:3613   */\n      tag_137\n        /* \"#utility.yul\":3606:3612   */\n      dup3\n        /* \"#utility.yul\":3584:3613   */\n      tag_66\n      jump\t// in\n    tag_137:\n        /* \"#utility.yul\":3576:3613   */\n      swap1\n      pop\n        /* \"#utility.yul\":3668:3672   */\n      0x20\n        /* \"#utility.yul\":3662:3666   */\n      dup2\n        /* \"#utility.yul\":3658:3673   */\n      add\n        /* \"#utility.yul\":3650:3673   */\n      swap1\n      pop\n        /* \"#utility.yul\":3372:3680   */\n      swap2\n      swap1\n      pop\n      jump\t// out\n        /* \"#utility.yul\":3686:3832   */\n    tag_74:\n        /* \"#utility.yul\":3783:3789   */\n      dup3\n        /* \"#utility.yul\":3778:3781   */\n      dup2\n        /* \"#utility.yul\":3773:3776   */\n      dup4\n        /* \"#utility.yul\":3760:3790   */\n      calldatacopy\n        /* \"#utility.yul\":3824:3825   */\n      0x00\n        /* \"#utility.yul\":3815:3821   */\n      dup4\n        /* \"#utility.yul\":3810:3813   */\n      dup4\n        /* \"#utility.yul\":3806:3822   */\n      add\n        /* \"#utility.yul\":3799:3826   */\n      mstore\n        /* \"#utility.yul\":3686:3832   */\n      pop\n      pop\n      pop\n      jump\t// out\n        /* \"#utility.yul\":3838:4263   */\n    tag_75:\n        /* \"#utility.yul\":3916:3921   */\n      0x00\n        /* \"#utility.yul\":3941:4007   */\n      tag_140\n        /* \"#utility.yul\":3957:4006   */\n      tag_141\n        /* \"#utility.yul\":3999:4005   */\n      dup5\n        /* \"#utility.yul\":3957:4006   */\n      tag_73\n      jump\t// in\n    tag_141:\n        /* \"#utility.yul\":3941:4007   */\n      tag_72\n      jump\t// in\n    tag_140:\n        /* \"#utility.yul\":3932:4007   */\n      swap1\n      pop\n        /* \"#utility.yul\":4030:4036   */\n      dup3\n        /* \"#utility.yul\":4023:4028   */\n      dup2\n        /* \"#utility.yul\":4016:4037   */\n      mstore\n        /* \"#utility.yul\":4068:4072   */\n      0x20\n        /* \"#utility.yul\":4061:4066   */\n      dup2\n        /* \"#utility.yul\":4057:4073   */\n      add\n        /* \"#utility.yul\":4106:4109   */\n      dup5\n        /* \"#utility.yul\":4097:4103   */\n      dup5\n        /* \"#utility.yul\":4092:4095   */\n      dup5\n        /* \"#utility.yul\":4088:4104   */\n      add\n        /* \"#utility.yul\":4085:4110   */\n      gt\n        /* \"#utility.yul\":4082:4194   */\n      iszero\n      tag_142\n      jumpi\n        /* \"#utility.yul\":4113:4192   */\n      tag_143\n      tag_69\n      jump\t// in\n    tag_143:\n        /* \"#utility.yul\":4082:4194   */\n    tag_142:\n        /* \"#utility.yul\":4203:4257   */\n      tag_144\n        /* \"#utility.yul\":4250:4256   */\n      dup5\n        /* \"#utility.yul\":4245:4248   */\n      dup3\n        /* \"#utility.yul\":4240:4243   */\n      dup6\n        /* \"#utility.yul\":4203:4257   */\n      tag_74\n      jump\t// in\n    tag_144:\n        /* \"#utility.yul\":3922:4263   */\n      pop\n        /* \"#utility.yul\":3838:4263   */\n      swap4\n      swap3\n      pop\n      pop\n      pop\n      jump\t// out\n        /* \"#utility.yul\":4283:4623   */\n    tag_76:\n        /* \"#utility.yul\":4339:4344   */\n      0x00\n        /* \"#utility.yul\":4388:4391   */\n      dup3\n        /* \"#utility.yul\":4381:4385   */\n      0x1f\n        /* \"#utility.yul\":4373:4379   */\n      dup4\n        /* \"#utility.yul\":4369:4386   */\n      add\n        /* \"#utility.yul\":4365:4392   */\n      slt\n        /* \"#utility.yul\":4355:4477   */\n      tag_146\n      jumpi\n        /* \"#utility.yul\":4396:4475   */\n      tag_147\n      tag_68\n      jump\t// in\n    tag_147:\n        /* \"#utility.yul\":4355:4477   */\n    tag_146:\n        /* \"#utility.yul\":4513:4519   */\n      dup2\n        /* \"#utility.yul\":4500:4520   */\n      calldataload\n        /* \"#utility.yul\":4538:4617   */\n      tag_148\n        /* \"#utility.yul\":4613:4616   */\n      dup5\n        /* \"#utility.yul\":4605:4611   */\n      dup3\n        /* \"#utility.yul\":4598:4602   */\n      0x20\n        /* \"#utility.yul\":4590:4596   */\n      dup7\n        /* \"#utility.yul\":4586:4603   */\n      add\n        /* \"#utility.yul\":4538:4617   */\n      tag_75\n      jump\t// in\n    tag_148:\n        /* \"#utility.yul\":4529:4617   */\n      swap2\n      pop\n        /* \"#utility.yul\":4345:4623   */\n      pop\n        /* \"#utility.yul\":4283:4623   */\n      swap3\n      swap2\n      pop\n      pop\n      jump\t// out\n        /* \"#utility.yul\":4629:5138   */\n    tag_23:\n        /* \"#utility.yul\":4698:4704   */\n      0x00\n        /* \"#utility.yul\":4747:4749   */\n      0x20\n        /* \"#utility.yul\":4735:4744   */\n      dup3\n        /* \"#utility.yul\":4726:4733   */\n      dup5\n        /* \"#utility.yul\":4722:4745   */\n      sub\n        /* \"#utility.yul\":4718:4750   */\n      slt\n        /* \"#utility.yul\":4715:4834   */\n      iszero\n      tag_150\n      jumpi\n        /* \"#utility.yul\":4753:4832   */\n      tag_151\n      tag_57\n      jump\t// in\n    tag_151:\n        /* \"#utility.yul\":4715:4834   */\n    tag_150:\n        /* \"#utility.yul\":4901:4902   */\n      0x00\n        /* \"#utility.yul\":4890:4899   */\n      dup3\n        /* \"#utility.yul\":4886:4903   */\n      add\n        /* \"#utility.yul\":4873:4904   */\n      calldataload\n        /* \"#utility.yul\":4931:4949   */\n      0xffffffffffffffff\n        /* \"#utility.yul\":4923:4929   */\n      dup2\n        /* \"#utility.yul\":4920:4950   */\n      gt\n        /* \"#utility.yul\":4917:5034   */\n      iszero\n      tag_152\n      jumpi\n        /* \"#utility.yul\":4953:5032   */\n      tag_153\n      tag_58\n      jump\t// in\n    tag_153:\n        /* \"#utility.yul\":4917:5034   */\n    tag_152:\n        /* \"#utility.yul\":5058:5121   */\n      tag_154\n        /* \"#utility.yul\":5113:5120   */\n      dup5\n        /* \"#utility.yul\":5104:5110   */\n      dup3\n        /* \"#utility.yul\":5093:5102   */\n      dup6\n        /* \"#utility.yul\":5089:5111   */\n      add\n        /* \"#utility.yul\":5058:5121   */\n      tag_76\n      jump\t// in\n    tag_154:\n        /* \"#utility.yul\":5048:5121   */\n      swap2\n      pop\n        /* \"#utility.yul\":4844:5131   */\n      pop\n        /* \"#utility.yul\":4629:5138   */\n      swap3\n      swap2\n      pop\n      pop\n      jump\t// out\n        /* \"#utility.yul\":5144:5798   */\n    tag_27:\n        /* \"#utility.yul\":5222:5228   */\n      0x00\n        /* \"#utility.yul\":5230:5236   */\n      dup1\n        /* \"#utility.yul\":5279:5281   */\n      0x40\n        /* \"#utility.yul\":5267:5276   */\n      dup4\n        /* \"#utility.yul\":5258:5265   */\n      dup6\n        /* \"#utility.yul\":5254:5277   */\n      sub\n        /* \"#utility.yul\":5250:5282   */\n      slt\n        /* \"#utility.yul\":5247:5366   */\n      iszero\n      tag_156\n      jumpi\n        /* \"#utility.yul\":5285:5364   */\n      tag_157\n      tag_57\n      jump\t// in\n    tag_157:\n        /* \"#utility.yul\":5247:5366   */\n    tag_156:\n        /* \"#utility.yul\":5405:5406   */\n      0x00\n        /* \"#utility.yul\":5430:5483   */\n      tag_158\n        /* \"#utility.yul\":5475:5482   */\n      dup6\n        /* \"#utility.yul\":5466:5472   */\n      dup3\n        /* \"#utility.yul\":5455:5464   */\n      dup7\n        /* \"#utility.yul\":5451:5473   */\n      add\n        /* \"#utility.yul\":5430:5483   */\n      tag_62\n      jump\t// in\n    tag_158:\n        /* \"#utility.yul\":5420:5483   */\n      swap3\n      pop\n        /* \"#utility.yul\":5376:5493   */\n      pop\n        /* \"#utility.yul\":5560:5562   */\n      0x20\n        /* \"#utility.yul\":5549:5558   */\n      dup4\n        /* \"#utility.yul\":5545:5563   */\n      add\n        /* \"#utility.yul\":5532:5564   */\n      calldataload\n        /* \"#utility.yul\":5591:5609   */\n      0xffffffffffffffff\n        /* \"#utility.yul\":5583:5589   */\n      dup2\n        /* \"#utility.yul\":5580:5610   */\n      gt\n        /* \"#utility.yul\":5577:5694   */\n      iszero\n      tag_159\n      jumpi\n        /* \"#utility.yul\":5613:5692   */\n      tag_160\n      tag_58\n      jump\t// in\n    tag_160:\n        /* \"#utility.yul\":5577:5694   */\n    tag_159:\n        /* \"#utility.yul\":5718:5781   */\n      tag_161\n        /* \"#utility.yul\":5773:5780   */\n      dup6\n        /* \"#utility.yul\":5764:5770   */\n      dup3\n        /* \"#utility.yul\":5753:5762   */\n      dup7\n        /* \"#utility.yul\":5749:5771   */\n      add\n        /* \"#utility.yul\":5718:5781   */\n      tag_76\n      jump\t// in\n    tag_161:\n        /* \"#utility.yul\":5708:5781   */\n      swap2\n      pop\n        /* \"#utility.yul\":5503:5791   */\n      pop\n        /* \"#utility.yul\":5144:5798   */\n      swap3\n      pop\n      swap3\n      swap1\n      pop\n      jump\t// out\n        /* \"#utility.yul\":5804:5984   */\n    tag_77:\n        /* \"#utility.yul\":5852:5929   */\n      0x4e487b7100000000000000000000000000000000000000000000000000000000\n        /* \"#utility.yul\":5849:5850   */\n      0x00\n        /* \"#utility.yul\":5842:5930   */\n      mstore\n        /* \"#utility.yul\":5949:5953   */\n      0x22\n        /* \"#utility.yul\":5946:5947   */\n      0x04\n        /* \"#utility.yul\":5939:5954   */\n      mstore\n        /* \"#utility.yul\":5973:5977   */\n      0x24\n        /* \"#utility.yul\":5970:5971   */\n      0x00\n        /* \"#utility.yul\":5963:5978   */\n      revert\n        /* \"#utility.yul\":5990:6310   */\n    tag_31:\n        /* \"#utility.yul\":6034:6040   */\n      0x00\n        /* \"#utility.yul\":6071:6072   */\n      0x02\n        /* \"#utility.yul\":6065:6069   */\n      dup3\n        /* \"#utility.yul\":6061:6073   */\n      div\n        /* \"#utility.yul\":6051:6073   */\n      swap1\n      pop\n        /* \"#utility.yul\":6118:6119   */\n      0x01\n        /* \"#utility.yul\":6112:6116   */\n      dup3\n        /* \"#utility.yul\":6108:6120   */\n      and\n        /* \"#utility.yul\":6139:6157   */\n      dup1\n        /* \"#utility.yul\":6129:6210   */\n      tag_164\n      jumpi\n        /* \"#utility.yul\":6195:6199   */\n      0x7f\n        /* \"#utility.yul\":6187:6193   */\n      dup3\n        /* \"#utility.yul\":6183:6200   */\n      and\n        /* \"#utility.yul\":6173:6200   */\n      swap2\n      pop\n        /* \"#utility.yul\":6129:6210   */\n    tag_164:\n        /* \"#utility.yul\":6257:6259   */\n      0x20\n        /* \"#utility.yul\":6249:6255   */\n      dup3\n        /* \"#utility.yul\":6246:6260   */\n      lt\n        /* \"#utility.yul\":6226:6244   */\n      dup2\n        /* \"#utility.yul\":6223:6261   */\n      sub\n        /* \"#utility.yul\":6220:6304   */\n      tag_165\n      jumpi\n        /* \"#utility.yul\":6276:6294   */\n      tag_166\n      tag_77\n      jump\t// in\n    tag_166:\n        /* \"#utility.yul\":6220:6304   */\n    tag_165:\n        /* \"#utility.yul\":6041:6310   */\n      pop\n        /* \"#utility.yul\":5990:6310   */\n      swap2\n      swap1\n      pop\n      jump\t// out\n        /* \"#utility.yul\":6316:6457   */\n    tag_78:\n        /* \"#utility.yul\":6365:6369   */\n      0x00\n        /* \"#utility.yul\":6388:6391   */\n      dup2\n        /* \"#utility.yul\":6380:6391   */\n      swap1\n      pop\n        /* \"#utility.yul\":6411:6414   */\n      dup2\n        /* \"#utility.yul\":6408:6409   */\n      0x00\n        /* \"#utility.yul\":6401:6415   */\n      mstore\n        /* \"#utility.yul\":6445:6449   */\n      0x20\n        /* \"#utility.yul\":6442:6443   */\n      0x00\n        /* \"#utility.yul\":6432:6450   */\n      keccak256\n        /* \"#utility.yul\":6424:6450   */\n      swap1\n      pop\n        /* \"#utility.yul\":6316:6457   */\n      swap2\n      swap1\n      pop\n      jump\t// out\n        /* \"#utility.yul\":6463:6556   */\n    tag_79:\n        /* \"#utility.yul\":6500:6506   */\n      0x00\n        /* \"#utility.yul\":6547:6549   */\n      0x20\n        /* \"#utility.yul\":6542:6544   */\n      0x1f\n        /* \"#utility.yul\":6535:6540   */\n      dup4\n        /* \"#utility.yul\":6531:6545   */\n      add\n        /* \"#utility.yul\":6527:6550   */\n      div\n        /* \"#utility.yul\":6517:6550   */\n      swap1\n      pop\n        /* \"#utility.yul\":6463:6556   */\n      swap2\n      swap1\n      pop\n      jump\t// out\n        /* \"#utility.yul\":6562:6669   */\n    tag_80:\n        /* \"#utility.yul\":6606:6614   */\n      0x00\n        /* \"#utility.yul\":6656:6661   */\n      dup3\n        /* \"#utility.yul\":6650:6654   */\n      dup3\n        /* \"#utility.yul\":6646:6662   */\n      shl\n        /* \"#utility.yul\":6625:6662   */\n      swap1\n      pop\n        /* \"#utility.yul\":6562:6669   */\n      swap3\n      swap2\n      pop\n      pop\n      jump\t// out\n        /* \"#utility.yul\":6675:7068   */\n    tag_81:\n        /* \"#utility.yul\":6744:6750   */\n      0x00\n        /* \"#utility.yul\":6794:6795   */\n      0x08\n        /* \"#utility.yul\":6782:6792   */\n      dup4\n        /* \"#utility.yul\":6778:6796   */\n      mul\n        /* \"#utility.yul\":6817:6914   */\n      tag_171\n        /* \"#utility.yul\":6847:6913   */\n      0xffffffffffffffffffffffffffffffffffffffffffffffffffffffffffffffff\n        /* \"#utility.yul\":6836:6845   */\n      dup3\n        /* \"#utility.yul\":6817:6914   */\n      tag_80\n      jump\t// in\n    tag_171:\n        /* \"#utility.yul\":6935:6974   */\n      tag_172\n        /* \"#utility.yul\":6965:6973   */\n      dup7\n        /* \"#utility.yul\":6954:6963   */\n      dup4\n        /* \"#utility.yul\":6935:6974   */\n      tag_80\n      jump\t// in\n    tag_172:\n        /* \"#utility.yul\":6923:6974   */\n      swap6\n      pop\n        /* \"#utility.yul\":7007:7011   */\n      dup1\n        /* \"#utility.yul\":7003:7012   */\n      not\n        /* \"#utility.yul\":6996:7001   */\n      dup5\n        /* \"#utility.yul\":6992:7013   */\n      and\n        /* \"#utility.yul\":6983:7013   */\n      swap4\n      pop\n        /* \"#utility.yul\":7056:7060   */\n      dup1\n        /* \"#utility.yul\":7046:7054   */\n      dup7\n        /* \"#utility.yul\":7042:7061   */\n      and\n        /* \"#utility.yul\":7035:7040   */\n      dup5\n        /* \"#utility.yul\":7032:7062   */\n      or\n        /* \"#utility.yul\":7022:7062   */\n      swap3\n      pop\n        /* \"#utility.yul\":6751:7068   */\n      pop\n      pop\n        /* \"#utility.yul\":6675:7068   */\n      swap4\n      swap3\n      pop\n      pop\n      pop\n      jump\t// out\n        /* \"#utility.yul\":7074:7151   */\n    tag_82:\n        /* \"#utility.yul\":7111:7118   */\n      0x00\n        /* \"#utility.yul\":7140:7145   */\n      dup2\n        /* \"#utility.yul\":7129:7145   */\n      swap1\n      pop\n        /* \"#utility.yul\":7074:7151   */\n      swap2\n      swap1\n      pop\n      jump\t// out\n        /* \"#utility.yul\":7157:7217   */\n    tag_83:\n        /* \"#utility.yul\":7185:7188   */\n      0x00\n        /* \"#utility.yul\":7206:7211   */\n      dup2\n        /* \"#utility.yul\":7199:7211   */\n      swap1\n      pop\n        /* \"#utility.yul\":7157:7217   */\n      swap2\n      swap1\n      pop\n      jump\t// out\n        /* \"#utility.yul\":7223:7365   */\n    tag_84:\n        /* \"#utility.yul\":7273:7282   */\n      0x00\n        /* \"#utility.yul\":7306:7359   */\n      tag_176\n        /* \"#utility.yul\":7324:7358   */\n      tag_177\n        /* \"#utility.yul\":7333:7357   */\n      tag_178\n        /* \"#utility.yul\":7351:7356   */\n      dup5\n        /* \"#utility.yul\":7333:7357   */\n      tag_82\n      jump\t// in\n    tag_178:\n        /* \"#utility.yul\":7324:7358   */\n      tag_83\n      jump\t// in\n    tag_177:\n        /* \"#utility.yul\":7306:7359   */\n      tag_82\n      jump\t// in\n    tag_176:\n        /* \"#utility.yul\":7293:7359   */\n      swap1\n      pop\n        /* \"#utility.yul\":7223:7365   */\n      swap2\n      swap1\n      pop\n      jump\t// out\n        /* \"#utility.yul\":7371:7446   */\n    tag_85:\n        /* \"#utility.yul\":7414:7417   */\n      0x00\n        /* \"#utility.yul\":7435:7440   */\n      dup2\n        /* \"#utility.yul\":7428:7440   */\n      swap1\n      pop\n        /* \"#utility.yul\":7371:7446   */\n      swap2\n      swap1\n      pop\n      jump\t// out\n        /* \"#utility.yul\":7452:7721   */\n    tag_86:\n        /* \"#utility.yul\":7562:7601   */\n      tag_181\n        /* \"#utility.yul\":7593:7600   */\n      dup4\n        /* \"#utility.yul\":7562:7601   */\n      tag_84\n      jump\t// in\n    tag_181:\n        /* \"#utility.yul\":7623:7714   */\n      tag_182\n        /* \"#utility.yul\":7672:7713   */\n      tag_183\n        /* \"#utility.yul\":7696:7712   */\n      dup3\n        /* \"#utility.yul\":7672:7713   */\n      tag_85\n      jump\t// in\n    tag_183:\n        /* \"#utility.yul\":7664:7670   */\n      dup5\n        /* \"#utility.yul\":7657:7661   */\n      dup5\n        /* \"#utility.yul\":7651:7662   */\n      sload\n        /* \"#utility.yul\":7623:7714   */\n      tag_81\n      jump\t// in\n    tag_182:\n        /* \"#utility.yul\":7617:7621   */\n      dup3\n        /* \"#utility.yul\":7610:7715   */\n      sstore\n        /* \"#utility.yul\":7528:7721   */\n      pop\n        /* \"#utility.yul\":7452:7721   */\n      pop\n      pop\n      pop\n      jump\t// out\n        /* \"#utility.yul\":7727:7800   */\n    tag_87:\n        /* \"#utility.yul\":7772:7775   */\n      0x00\n        /* \"#utility.yul\":7727:7800   */\n      swap1\n      jump\t// out\n        /* \"#utility.yul\":7806:7995   */\n    tag_88:\n        /* \"#utility.yul\":7883:7915   */\n      tag_186\n      tag_87\n      jump\t// in\n    tag_186:\n        /* \"#utility.yul\":7924:7989   */\n      tag_187\n        /* \"#utility.yul\":7982:7988   */\n      dup2\n        /* \"#utility.yul\":7974:7980   */\n      dup5\n        /* \"#utility.yul\":7968:7972   */\n      dup5\n        /* \"#utility.yul\":7924:7989   */\n      tag_86\n      jump\t// in\n    tag_187:\n        /* \"#utility.yul\":7859:7995   */\n      pop\n        /* \"#utility.yul\":7806:7995   */\n      pop\n      pop\n      jump\t// out\n        /* \"#utility.yul\":8001:8187   */\n    tag_89:\n        /* \"#utility.yul\":8061:8181   */\n    tag_189:\n        /* \"#utility.yul\":8078:8081   */\n      dup2\n        /* \"#utility.yul\":8071:8076   */\n      dup2\n        /* \"#utility.yul\":8068:8082   */\n      lt\n        /* \"#utility.yul\":8061:8181   */\n      iszero\n      tag_191\n      jumpi\n        /* \"#utility.yul\":8132:8171   */\n      tag_192\n        /* \"#utility.yul\":8169:8170   */\n      0x00\n        /* \"#utility.yul\":8162:8167   */\n      dup3\n        /* \"#utility.yul\":8132:8171   */\n      tag_88\n      jump\t// in\n    tag_192:\n        /* \"#utility.yul\":8105:8106   */\n      0x01\n        /* \"#utility.yul\":8098:8103   */\n      dup2\n        /* \"#utility.yul\":8094:8107   */\n      add\n        /* \"#utility.yul\":8085:8107   */\n      swap1\n      pop\n        /* \"#utility.yul\":8061:8181   */\n      jump(tag_189)\n    tag_191:\n        /* \"#utility.yul\":8001:8187   */\n      pop\n      pop\n      jump\t// out\n        /* \"#utility.yul\":8193:8736   */\n    tag_90:\n        /* \"#utility.yul\":8294:8296   */\n      0x1f\n        /* \"#utility.yul\":8289:8292   */\n      dup3\n        /* \"#utility.yul\":8286:8297   */\n      gt\n        /* \"#utility.yul\":8283:8729   */\n      iszero\n      tag_194\n      jumpi\n        /* \"#utility.yul\":8328:8366   */\n      tag_195\n        /* \"#utility.yul\":8360:8365   */\n      dup2\n        /* \"#utility.yul\":8328:8366   */\n      tag_78\n      jump\t// in\n    tag_195:\n        /* \"#utility.yul\":8412:8441   */\n      tag_196\n        /* \"#utility.yul\":8430:8440   */\n      dup5\n        /* \"#utility.yul\":8412:8441   */\n      tag_79\n      jump\t// in\n    tag_196:\n        /* \"#utility.yul\":8402:8410   */\n      dup2\n        /* \"#utility.yul\":8398:8442   */\n      add\n        /* \"#utility.yul\":8595:8597   */\n      0x20\n        /* \"#utility.yul\":8583:8593   */\n      dup6\n        /* \"#utility.yul\":8580:8598   */\n      lt\n        /* \"#utility.yul\":8577:8626   */\n      iszero\n      tag_197\n      jumpi\n        /* \"#utility.yul\":8616:8624   */\n      dup2\n        /* \"#utility.yul\":8601:8624   */\n      swap1\n      pop\n        /* \"#utility.yul\":8577:8626   */\n    tag_197:\n        /* \"#utility.yul\":8639:8719   */\n      tag_198\n        /* \"#utility.yul\":8695:8717   */\n      tag_199\n        /* \"#utility.yul\":8713:8716   */\n      dup6\n        /* \"#utility.yul\":8695:8717   */\n      tag_79\n      jump\t// in\n    tag_199:\n        /* \"#utility.yul\":8685:8693   */\n      dup4\n        /* \"#utility.yul\":8681:8718   */\n      add\n        /* \"#utility.yul\":8668:8679   */\n      dup3\n        /* \"#utility.yul\":8639:8719   */\n      tag_89\n      jump\t// in\n    tag_198:\n        /* \"#utility.yul\":8298:8729   */\n      pop\n      pop\n        /* \"#utility.yul\":8283:8729   */\n    tag_194:\n        /* \"#utility.yul\":8193:8736   */\n      pop\n      pop\n      pop\n      jump\t// out\n        /* \"#utility.yul\":8742:8859   */\n    tag_91:\n        /* \"#utility.yul\":8796:8804   */\n      0x00\n        /* \"#utility.yul\":8846:8851   */\n      dup3\n        /* \"#utility.yul\":8840:8844   */\n      dup3\n        /* \"#utility.yul\":8836:8852   */\n      shr\n        /* \"#utility.yul\":8815:8852   */\n      swap1\n      pop\n        /* \"#utility.yul\":8742:8859   */\n      swap3\n      swap2\n      pop\n      pop\n      jump\t// out\n        /* \"#utility.yul\":8865:9034   */\n    tag_92:\n        /* \"#utility.yul\":8909:8915   */\n      0x00\n        /* \"#utility.yul\":8942:8993   */\n      tag_202\n        /* \"#utility.yul\":8990:8991   */\n      0x00\n        /* \"#utility.yul\":8986:8992   */\n      not\n        /* \"#utility.yul\":8978:8983   */\n      dup5\n        /* \"#utility.yul\":8975:8976   */\n      0x08\n        /* \"#utility.yul\":8971:8984   */\n      mul\n        /* \"#utility.yul\":8942:8993   */\n      tag_91\n      jump\t// in\n    tag_202:\n        /* \"#utility.yul\":8938:8994   */\n      not\n        /* \"#utility.yul\":9023:9027   */\n      dup1\n        /* \"#utility.yul\":9017:9021   */\n      dup4\n        /* \"#utility.yul\":9013:9028   */\n      and\n        /* \"#utility.yul\":9003:9028   */\n      swap2\n      pop\n        /* \"#utility.yul\":8916:9034   */\n      pop\n        /* \"#utility.yul\":8865:9034   */\n      swap3\n      swap2\n      pop\n      pop\n      jump\t// out\n        /* \"#utility.yul\":9039:9334   */\n    tag_93:\n        /* \"#utility.yul\":9115:9119   */\n      0x00\n        /* \"#utility.yul\":9261:9290   */\n      tag_204\n        /* \"#utility.yul\":9286:9289   */\n      dup4\n        /* \"#utility.yul\":9280:9284   */\n      dup4\n        /* \"#utility.yul\":9261:9290   */\n      tag_92\n      jump\t// in\n    tag_204:\n        /* \"#utility.yul\":9253:9290   */\n      swap2\n      pop\n        /* \"#utility.yul\":9323:9326   */\n      dup3\n        /* \"#utility.yul\":9320:9321   */\n      0x02\n        /* \"#utility.yul\":9316:9327   */\n      mul\n        /* \"#utility.yul\":9310:9314   */\n      dup3\n        /* \"#utility.yul\":9307:9328   */\n      or\n        /* \"#utility.yul\":9299:9328   */\n      swap1\n      pop\n        /* \"#utility.yul\":9039:9334   */\n      swap3\n      swap2\n      pop\n      pop\n      jump\t// out\n        /* \"#utility.yul\":9339:10734   */\n    tag_46:\n        /* \"#utility.yul\":9456:9493   */\n      tag_206\n        /* \"#utility.yul\":9489:9492   */\n      dup3\n        /* \"#utility.yul\":9456:9493   */\n      tag_63\n      jump\t// in\n    tag_206:\n        /* \"#utility.yul\":9558:9576   */\n      0xffffffffffffffff\n        /* \"#utility.yul\":9550:9556   */\n      dup2\n        /* \"#utility.yul\":9547:9577   */\n      gt\n        /* \"#utility.yul\":9544:9600   */\n      iszero\n      tag_207\n      jumpi\n        /* \"#utility.yul\":9580:9598   */\n      tag_208\n      tag_70\n      jump\t// in\n    tag_208:\n        /* \"#utility.yul\":9544:9600   */\n    tag_207:\n        /* \"#utility.yul\":9624:9662   */\n      tag_209\n        /* \"#utility.yul\":9656:9660   */\n      dup3\n        /* \"#utility.yul\":9650:9661   */\n      sload\n        /* \"#utility.yul\":9624:9662   */\n      tag_31\n      jump\t// in\n    tag_209:\n        /* \"#utility.yul\":9709:9776   */\n      tag_210\n        /* \"#utility.yul\":9769:9775   */\n      dup3\n        /* \"#utility.yul\":9761:9767   */\n      dup3\n        /* \"#utility.yul\":9755:9759   */\n      dup6\n        /* \"#utility.yul\":9709:9776   */\n      tag_90\n      jump\t// in\n    tag_210:\n        /* \"#utility.yul\":9803:9804   */\n      0x00\n        /* \"#utility.yul\":9827:9831   */\n      0x20\n        /* \"#utility.yul\":9814:9831   */\n      swap1\n      pop\n        /* \"#utility.yul\":9859:9861   */\n      0x1f\n        /* \"#utility.yul\":9851:9857   */\n      dup4\n        /* \"#utility.yul\":9848:9862   */\n      gt\n        /* \"#utility.yul\":9876:9877   */\n      0x01\n        /* \"#utility.yul\":9871:10489   */\n      dup2\n      eq\n      tag_212\n      jumpi\n        /* \"#utility.yul\":10533:10534   */\n      0x00\n        /* \"#utility.yul\":10550:10556   */\n      dup5\n        /* \"#utility.yul\":10547:10624   */\n      iszero\n      tag_213\n      jumpi\n        /* \"#utility.yul\":10599:10608   */\n      dup3\n        /* \"#utility.yul\":10594:10597   */\n      dup8\n        /* \"#utility.yul\":10590:10609   */\n      add\n        /* \"#utility.yul\":10584:10610   */\n      mload\n        /* \"#utility.yul\":10575:10610   */\n      swap1\n      pop\n        /* \"#utility.yul\":10547:10624   */\n    tag_213:\n        /* \"#utility.yul\":10650:10717   */\n      tag_214\n        /* \"#utility.yul\":10710:10716   */\n      dup6\n        /* \"#utility.yul\":10703:10708   */\n      dup3\n        /* \"#utility.yul\":10650:10717   */\n      tag_93\n      jump\t// in\n    tag_214:\n        /* \"#utility.yul\":10644:10648   */\n      dup7\n        /* \"#utility.yul\":10637:10718   */\n      sstore\n        /* \"#utility.yul\":10506:10728   */\n      pop\n        /* \"#utility.yul\":9841:10728   */\n      jump(tag_211)\n        /* \"#utility.yul\":9871:10489   */\n    tag_212:\n        /* \"#utility.yul\":9923:9927   */\n      0x1f\n        /* \"#utility.yul\":9919:9928   */\n      not\n        /* \"#utility.yul\":9911:9917   */\n      dup5\n        /* \"#utility.yul\":9907:9929   */\n      and\n        /* \"#utility.yul\":9957:9994   */\n      tag_215\n        /* \"#utility.yul\":9989:9993   */\n      dup7\n        /* \"#utility.yul\":9957:9994   */\n      tag_78\n      jump\t// in\n    tag_215:\n        /* \"#utility.yul\":10016:10017   */\n      0x00\n        /* \"#utility.yul\":10030:10238   */\n    tag_216:\n        /* \"#utility.yul\":10044:10051   */\n      dup3\n        /* \"#utility.yul\":10041:10042   */\n      dup2\n        /* \"#utility.yul\":10038:10052   */\n      lt\n        /* \"#utility.yul\":10030:10238   */\n      iszero\n      tag_218\n      jumpi\n        /* \"#utility.yul\":10123:10132   */\n      dup5\n        /* \"#utility.yul\":10118:10121   */\n      dup10\n        /* \"#utility.yul\":10114:10133   */\n      add\n        /* \"#utility.yul\":10108:10134   */\n      mload\n        /* \"#utility.yul\":10100:10106   */\n      dup3\n        /* \"#utility.yul\":10093:10135   */\n      sstore\n        /* \"#utility.yul\":10174:10175   */\n      0x01\n        /* \"#utility.yul\":10166:10172   */\n      dup3\n        /* \"#utility.yul\":10162:10176   */\n      add\n        /* \"#utility.yul\":10152:10176   */\n      swap2\n      pop\n        /* \"#utility.yul\":10221:10223   */\n      0x20\n        /* \"#utility.yul\":10210:10219   */\n      dup6\n        /* \"#utility.yul\":10206:10224   */\n      add\n        /* \"#utility.yul\":10193:10224   */\n      swap5\n      pop\n        /* \"#utility.yul\":10067:10071   */\n      0x20\n        /* \"#utility.yul\":10064:10065   */\n      dup2\n        /* \"#utility.yul\":10060:10072   */\n      add\n        /* \"#utility.yul\":10055:10072   */\n      swap1\n      pop\n        /* \"#utility.yul\":10030:10238   */\n      jump(tag_216)\n    tag_218:\n        /* \"#utility.yul\":10266:10272   */\n      dup7\n        /* \"#utility.yul\":10257:10264   */\n      dup4\n        /* \"#utility.yul\":10254:10273   */\n      lt\n        /* \"#utility.yul\":10251:10430   */\n      iszero\n      tag_219\n      jumpi\n        /* \"#utility.yul\":10324:10333   */\n      dup5\n        /* \"#utility.yul\":10319:10322   */\n      dup10\n        /* \"#utility.yul\":10315:10334   */\n      add\n        /* \"#utility.yul\":10309:10335   */\n      mload\n        /* \"#utility.yul\":10367:10415   */\n      tag_220\n        /* \"#utility.yul\":10409:10413   */\n      0x1f\n        /* \"#utility.yul\":10401:10407   */\n      dup10\n        /* \"#utility.yul\":10397:10414   */\n      and\n        /* \"#utility.yul\":10386:10395   */\n      dup3\n        /* \"#utility.yul\":10367:10415   */\n      tag_92\n      jump\t// in\n    tag_220:\n        /* \"#utility.yul\":10359:10365   */\n      dup4\n        /* \"#utility.yul\":10352:10416   */\n      sstore\n        /* \"#utility.yul\":10274:10430   */\n      pop\n        /* \"#utility.yul\":10251:10430   */\n    tag_219:\n        /* \"#utility.yul\":10476:10477   */\n      0x01\n        /* \"#utility.yul\":10472:10473   */\n      0x02\n        /* \"#utility.yul\":10464:10470   */\n      dup9\n        /* \"#utility.yul\":10460:10474   */\n      mul\n        /* \"#utility.yul\":10456:10478   */\n      add\n        /* \"#utility.yul\":10450:10454   */\n      dup9\n        /* \"#utility.yul\":10443:10479   */\n      sstore\n        /* \"#utility.yul\":9878:10489   */\n      pop\n      pop\n      pop\n        /* \"#utility.yul\":9841:10728   */\n    tag_211:\n      pop\n        /* \"#utility.yul\":9431:10734   */\n      pop\n      pop\n      pop\n        /* \"#utility.yul\":9339:10734   */\n      pop\n      pop\n      jump\t// out\n\n    auxdata: 0xa2646970667358221220439a326554863e47907b45131114ade0ffa968d42a293e9b41fba48a7a8ad25e64736f6c63430008160033\n}\n",
				"bytecode": {
					"linkReferences": {},
					"object": "608060405234801561000f575f80fd5b506109c58061001d5f395ff3fe608060405234801561000f575f80fd5b5060043610610055575f3560e01c80632ac9ee41146100595780635eaf48b41461008957806368021199146100b95780637c9cd2bc146100d55780637da34e84146100f1575b5f80fd5b610073600480360381019061006e919061041b565b61010d565b60405161008091906104d0565b60405180910390f35b6100a3600480360381019061009e919061041b565b6101d9565b6040516100b091906104d0565b60405180910390f35b6100d360048036038101906100ce919061041b565b610273565b005b6100ef60048036038101906100ea919061061c565b6102bd565b005b61010b60048036038101906101069190610663565b61030a565b005b60605f808373ffffffffffffffffffffffffffffffffffffffff1673ffffffffffffffffffffffffffffffffffffffff1681526020019081526020015f208054610156906106ea565b80601f0160208091040260200160405190810160405280929190818152602001828054610182906106ea565b80156101cd5780601f106101a4576101008083540402835291602001916101cd565b820191905f5260205f20905b8154815290600101906020018083116101b057829003601f168201915b50505050509050919050565b5f602052805f5260405f205f9150905080546101f4906106ea565b80601f0160208091040260200160405190810160405280929190818152602001828054610220906106ea565b801561026b5780601f106102425761010080835404028352916020019161026b565b820191905f5260205f20905b81548152906001019060200180831161024e57829003601f168201915b505050505081565b5f808273ffffffffffffffffffffffffffffffffffffffff1673ffffffffffffffffffffffffffffffffffffffff1681526020019081526020015f205f6102ba9190610358565b50565b805f803373ffffffffffffffffffffffffffffffffffffffff1673ffffffffffffffffffffffffffffffffffffffff1681526020019081526020015f20908161030691906108c0565b5050565b805f808473ffffffffffffffffffffffffffffffffffffffff1673ffffffffffffffffffffffffffffffffffffffff1681526020019081526020015f20908161035391906108c0565b505050565b508054610364906106ea565b5f825580601f106103755750610392565b601f0160209004905f5260205f20908101906103919190610395565b5b50565b5b808211156103ac575f815f905550600101610396565b5090565b5f604051905090565b5f80fd5b5f80fd5b5f73ffffffffffffffffffffffffffffffffffffffff82169050919050565b5f6103ea826103c1565b9050919050565b6103fa816103e0565b8114610404575f80fd5b50565b5f81359050610415816103f1565b92915050565b5f602082840312156104305761042f6103b9565b5b5f61043d84828501610407565b91505092915050565b5f81519050919050565b5f82825260208201905092915050565b5f5b8381101561047d578082015181840152602081019050610462565b5f8484015250505050565b5f601f19601f8301169050919050565b5f6104a282610446565b6104ac8185610450565b93506104bc818560208601610460565b6104c581610488565b840191505092915050565b5f6020820190508181035f8301526104e88184610498565b905092915050565b5f80fd5b5f80fd5b7f4e487b71000000000000000000000000000000000000000000000000000000005f52604160045260245ffd5b61052e82610488565b810181811067ffffffffffffffff8211171561054d5761054c6104f8565b5b80604052505050565b5f61055f6103b0565b905061056b8282610525565b919050565b5f67ffffffffffffffff82111561058a576105896104f8565b5b61059382610488565b9050602081019050919050565b828183375f83830152505050565b5f6105c06105bb84610570565b610556565b9050828152602081018484840111156105dc576105db6104f4565b5b6105e78482856105a0565b509392505050565b5f82601f830112610603576106026104f0565b5b81356106138482602086016105ae565b91505092915050565b5f60208284031215610631576106306103b9565b5b5f82013567ffffffffffffffff81111561064e5761064d6103bd565b5b61065a848285016105ef565b91505092915050565b5f8060408385031215610679576106786103b9565b5b5f61068685828601610407565b925050602083013567ffffffffffffffff8111156106a7576106a66103bd565b5b6106b3858286016105ef565b9150509250929050565b7f4e487b71000000000000000000000000000000000000000000000000000000005f52602260045260245ffd5b5f600282049050600182168061070157607f821691505b602082108103610714576107136106bd565b5b50919050565b5f819050815f5260205f209050919050565b5f6020601f8301049050919050565b5f82821b905092915050565b5f600883026107767fffffffffffffffffffffffffffffffffffffffffffffffffffffffffffffffff8261073b565b610780868361073b565b95508019841693508086168417925050509392505050565b5f819050919050565b5f819050919050565b5f6107c46107bf6107ba84610798565b6107a1565b610798565b9050919050565b5f819050919050565b6107dd836107aa565b6107f16107e9826107cb565b848454610747565b825550505050565b5f90565b6108056107f9565b6108108184846107d4565b505050565b5b81811015610833576108285f826107fd565b600181019050610816565b5050565b601f821115610878576108498161071a565b6108528461072c565b81016020851015610861578190505b61087561086d8561072c565b830182610815565b50505b505050565b5f82821c905092915050565b5f6108985f198460080261087d565b1980831691505092915050565b5f6108b08383610889565b9150826002028217905092915050565b6108c982610446565b67ffffffffffffffff8111156108e2576108e16104f8565b5b6108ec82546106ea565b6108f7828285610837565b5f60209050601f831160018114610928575f8415610916578287015190505b61092085826108a5565b865550610987565b601f1984166109368661071a565b5f5b8281101561095d57848901518255600182019150602085019450602081019050610938565b8683101561097a5784890151610976601f891682610889565b8355505b6001600288020188555050505b50505050505056fea2646970667358221220439a326554863e47907b45131114ade0ffa968d42a293e9b41fba48a7a8ad25e64736f6c63430008160033",
					"opcodes": "PUSH1 0x80 PUSH1 0x40 MSTORE CALLVALUE DUP1 ISZERO PUSH2 0xF JUMPI PUSH0 DUP1 REVERT JUMPDEST POP PUSH2 0x9C5 DUP1 PUSH2 0x1D PUSH0 CODECOPY PUSH0 RETURN INVALID PUSH1 0x80 PUSH1 0x40 MSTORE CALLVALUE DUP1 ISZERO PUSH2 0xF JUMPI PUSH0 DUP1 REVERT JUMPDEST POP PUSH1 0x4 CALLDATASIZE LT PUSH2 0x55 JUMPI PUSH0 CALLDATALOAD PUSH1 0xE0 SHR DUP1 PUSH4 0x2AC9EE41 EQ PUSH2 0x59 JUMPI DUP1 PUSH4 0x5EAF48B4 EQ PUSH2 0x89 JUMPI DUP1 PUSH4 0x68021199 EQ PUSH2 0xB9 JUMPI DUP1 PUSH4 0x7C9CD2BC EQ PUSH2 0xD5 JUMPI DUP1 PUSH4 0x7DA34E84 EQ PUSH2 0xF1 JUMPI JUMPDEST PUSH0 DUP1 REVERT JUMPDEST PUSH2 0x73 PUSH1 0x4 DUP1 CALLDATASIZE SUB DUP2 ADD SWAP1 PUSH2 0x6E SWAP2 SWAP1 PUSH2 0x41B JUMP JUMPDEST PUSH2 0x10D JUMP JUMPDEST PUSH1 0x40 MLOAD PUSH2 0x80 SWAP2 SWAP1 PUSH2 0x4D0 JUMP JUMPDEST PUSH1 0x40 MLOAD DUP1 SWAP2 SUB SWAP1 RETURN JUMPDEST PUSH2 0xA3 PUSH1 0x4 DUP1 CALLDATASIZE SUB DUP2 ADD SWAP1 PUSH2 0x9E SWAP2 SWAP1 PUSH2 0x41B JUMP JUMPDEST PUSH2 0x1D9 JUMP JUMPDEST PUSH1 0x40 MLOAD PUSH2 0xB0 SWAP2 SWAP1 PUSH2 0x4D0 JUMP JUMPDEST PUSH1 0x40 MLOAD DUP1 SWAP2 SUB SWAP1 RETURN JUMPDEST PUSH2 0xD3 PUSH1 0x4 DUP1 CALLDATASIZE SUB DUP2 ADD SWAP1 PUSH2 0xCE SWAP2 SWAP1 PUSH2 0x41B JUMP JUMPDEST PUSH2 0x273 JUMP JUMPDEST STOP JUMPDEST PUSH2 0xEF PUSH1 0x4 DUP1 CALLDATASIZE SUB DUP2 ADD SWAP1 PUSH2 0xEA SWAP2 SWAP1 PUSH2 0x61C JUMP JUMPDEST PUSH2 0x2BD JUMP JUMPDEST STOP JUMPDEST PUSH2 0x10B PUSH1 0x4 DUP1 CALLDATASIZE SUB DUP2 ADD SWAP1 PUSH2 0x106 SWAP2 SWAP1 PUSH2 0x663 JUMP JUMPDEST PUSH2 0x30A JUMP JUMPDEST STOP JUMPDEST PUSH1 0x60 PUSH0 DUP1 DUP4 PUSH20 0xFFFFFFFFFFFFFFFFFFFFFFFFFFFFFFFFFFFFFFFF AND PUSH20 0xFFFFFFFFFFFFFFFFFFFFFFFFFFFFFFFFFFFFFFFF AND DUP2 MSTORE PUSH1 0x20 ADD SWAP1 DUP2 MSTORE PUSH1 0x20 ADD PUSH0 KECCAK256 DUP1 SLOAD PUSH2 0x156 SWAP1 PUSH2 0x6EA JUMP JUMPDEST DUP1 PUSH1 0x1F ADD PUSH1 0x20 DUP1 SWAP2 DIV MUL PUSH1 0x20 ADD PUSH1 0x40 MLOAD SWAP1 DUP2 ADD PUSH1 0x40 MSTORE DUP1 SWAP3 SWAP2 SWAP1 DUP2 DUP2 MSTORE PUSH1 0x20 ADD DUP3 DUP1 SLOAD PUSH2 0x182 SWAP1 PUSH2 0x6EA JUMP JUMPDEST DUP1 ISZERO PUSH2 0x1CD JUMPI DUP1 PUSH1 0x1F LT PUSH2 0x1A4 JUMPI PUSH2 0x100 DUP1 DUP4 SLOAD DIV MUL DUP4 MSTORE SWAP2 PUSH1 0x20 ADD SWAP2 PUSH2 0x1CD JUMP JUMPDEST DUP3 ADD SWAP2 SWAP1 PUSH0 MSTORE PUSH1 0x20 PUSH0 KECCAK256 SWAP1 JUMPDEST DUP2 SLOAD DUP2 MSTORE SWAP1 PUSH1 0x1 ADD SWAP1 PUSH1 0x20 ADD DUP1 DUP4 GT PUSH2 0x1B0 JUMPI DUP3 SWAP1 SUB PUSH1 0x1F AND DUP3 ADD SWAP2 JUMPDEST POP POP POP POP POP SWAP1 POP SWAP2 SWAP1 POP JUMP JUMPDEST PUSH0 PUSH1 0x20 MSTORE DUP1 PUSH0 MSTORE PUSH1 0x40 PUSH0 KECCAK256 PUSH0 SWAP2 POP SWAP1 POP DUP1 SLOAD PUSH2 0x1F4 SWAP1 PUSH2 0x6EA JUMP JUMPDEST DUP1 PUSH1 0x1F ADD PUSH1 0x20 DUP1 SWAP2 DIV MUL PUSH1 0x20 ADD PUSH1 0x40 MLOAD SWAP1 DUP2 ADD PUSH1 0x40 MSTORE DUP1 SWAP3 SWAP2 SWAP1 DUP2 DUP2 MSTORE PUSH1 0x20 ADD DUP3 DUP1 SLOAD PUSH2 0x220 SWAP1 PUSH2 0x6EA JUMP JUMPDEST DUP1 ISZERO PUSH2 0x26B JUMPI DUP1 PUSH1 0x1F LT PUSH2 0x242 JUMPI PUSH2 0x100 DUP1 DUP4 SLOAD DIV MUL DUP4 MSTORE SWAP2 PUSH1 0x20 ADD SWAP2 PUSH2 0x26B JUMP JUMPDEST DUP3 ADD SWAP2 SWAP1 PUSH0 MSTORE PUSH1 0x20 PUSH0 KECCAK256 SWAP1 JUMPDEST DUP2 SLOAD DUP2 MSTORE SWAP1 PUSH1 0x1 ADD SWAP1 PUSH1 0x20 ADD DUP1 DUP4 GT PUSH2 0x24E JUMPI DUP3 SWAP1 SUB PUSH1 0x1F AND DUP3 ADD SWAP2 JUMPDEST POP POP POP POP POP DUP2 JUMP JUMPDEST PUSH0 DUP1 DUP3 PUSH20 0xFFFFFFFFFFFFFFFFFFFFFFFFFFFFFFFFFFFFFFFF AND PUSH20 0xFFFFFFFFFFFFFFFFFFFFFFFFFFFFFFFFFFFFFFFF AND DUP2 MSTORE PUSH1 0x20 ADD SWAP1 DUP2 MSTORE PUSH1 0x20 ADD PUSH0 KECCAK256 PUSH0 PUSH2 0x2BA SWAP2 SWAP1 PUSH2 0x358 JUMP JUMPDEST POP JUMP JUMPDEST DUP1 PUSH0 DUP1 CALLER PUSH20 0xFFFFFFFFFFFFFFFFFFFFFFFFFFFFFFFFFFFFFFFF AND PUSH20 0xFFFFFFFFFFFFFFFFFFFFFFFFFFFFFFFFFFFFFFFF AND DUP2 MSTORE PUSH1 0x20 ADD SWAP1 DUP2 MSTORE PUSH1 0x20 ADD PUSH0 KECCAK256 SWAP1 DUP2 PUSH2 0x306 SWAP2 SWAP1 PUSH2 0x8C0 JUMP JUMPDEST POP POP JUMP JUMPDEST DUP1 PUSH0 DUP1 DUP5 PUSH20 0xFFFFFFFFFFFFFFFFFFFFFFFFFFFFFFFFFFFFFFFF AND PUSH20 0xFFFFFFFFFFFFFFFFFFFFFFFFFFFFFFFFFFFFFFFF AND DUP2 MSTORE PUSH1 0x20 ADD SWAP1 DUP2 MSTORE PUSH1 0x20 ADD PUSH0 KECCAK256 SWAP1 DUP2 PUSH2 0x353 SWAP2 SWAP1 PUSH2 0x8C0 JUMP JUMPDEST POP POP POP JUMP JUMPDEST POP DUP1 SLOAD PUSH2 0x364 SWAP1 PUSH2 0x6EA JUMP JUMPDEST PUSH0 DUP3 SSTORE DUP1 PUSH1 0x1F LT PUSH2 0x375 JUMPI POP PUSH2 0x392 JUMP JUMPDEST PUSH1 0x1F ADD PUSH1 0x20 SWAP1 DIV SWAP1 PUSH0 MSTORE PUSH1 0x20 PUSH0 KECCAK256 SWAP1 DUP2 ADD SWAP1 PUSH2 0x391 SWAP2 SWAP1 PUSH2 0x395 JUMP JUMPDEST JUMPDEST POP JUMP JUMPDEST JUMPDEST DUP1 DUP3 GT ISZERO PUSH2 0x3AC JUMPI PUSH0 DUP2 PUSH0 SWAP1 SSTORE POP PUSH1 0x1 ADD PUSH2 0x396 JUMP JUMPDEST POP SWAP1 JUMP JUMPDEST PUSH0 PUSH1 0x40 MLOAD SWAP1 POP SWAP1 JUMP JUMPDEST PUSH0 DUP1 REVERT JUMPDEST PUSH0 DUP1 REVERT JUMPDEST PUSH0 PUSH20 0xFFFFFFFFFFFFFFFFFFFFFFFFFFFFFFFFFFFFFFFF DUP3 AND SWAP1 POP SWAP2 SWAP1 POP JUMP JUMPDEST PUSH0 PUSH2 0x3EA DUP3 PUSH2 0x3C1 JUMP JUMPDEST SWAP1 POP SWAP2 SWAP1 POP JUMP JUMPDEST PUSH2 0x3FA DUP2 PUSH2 0x3E0 JUMP JUMPDEST DUP2 EQ PUSH2 0x404 JUMPI PUSH0 DUP1 REVERT JUMPDEST POP JUMP JUMPDEST PUSH0 DUP2 CALLDATALOAD SWAP1 POP PUSH2 0x415 DUP2 PUSH2 0x3F1 JUMP JUMPDEST SWAP3 SWAP2 POP POP JUMP JUMPDEST PUSH0 PUSH1 0x20 DUP3 DUP5 SUB SLT ISZERO PUSH2 0x430 JUMPI PUSH2 0x42F PUSH2 0x3B9 JUMP JUMPDEST JUMPDEST PUSH0 PUSH2 0x43D DUP5 DUP3 DUP6 ADD PUSH2 0x407 JUMP JUMPDEST SWAP2 POP POP SWAP3 SWAP2 POP POP JUMP JUMPDEST PUSH0 DUP2 MLOAD SWAP1 POP SWAP2 SWAP1 POP JUMP JUMPDEST PUSH0 DUP3 DUP3 MSTORE PUSH1 0x20 DUP3 ADD SWAP1 POP SWAP3 SWAP2 POP POP JUMP JUMPDEST PUSH0 JUMPDEST DUP4 DUP2 LT ISZERO PUSH2 0x47D JUMPI DUP1 DUP3 ADD MLOAD DUP2 DUP5 ADD MSTORE PUSH1 0x20 DUP2 ADD SWAP1 POP PUSH2 0x462 JUMP JUMPDEST PUSH0 DUP5 DUP5 ADD MSTORE POP POP POP POP JUMP JUMPDEST PUSH0 PUSH1 0x1F NOT PUSH1 0x1F DUP4 ADD AND SWAP1 POP SWAP2 SWAP1 POP JUMP JUMPDEST PUSH0 PUSH2 0x4A2 DUP3 PUSH2 0x446 JUMP JUMPDEST PUSH2 0x4AC DUP2 DUP6 PUSH2 0x450 JUMP JUMPDEST SWAP4 POP PUSH2 0x4BC DUP2 DUP6 PUSH1 0x20 DUP7 ADD PUSH2 0x460 JUMP JUMPDEST PUSH2 0x4C5 DUP2 PUSH2 0x488 JUMP JUMPDEST DUP5 ADD SWAP2 POP POP SWAP3 SWAP2 POP POP JUMP JUMPDEST PUSH0 PUSH1 0x20 DUP3 ADD SWAP1 POP DUP2 DUP2 SUB PUSH0 DUP4 ADD MSTORE PUSH2 0x4E8 DUP2 DUP5 PUSH2 0x498 JUMP JUMPDEST SWAP1 POP SWAP3 SWAP2 POP POP JUMP JUMPDEST PUSH0 DUP1 REVERT JUMPDEST PUSH0 DUP1 REVERT JUMPDEST PUSH32 0x4E487B7100000000000000000000000000000000000000000000000000000000 PUSH0 MSTORE PUSH1 0x41 PUSH1 0x4 MSTORE PUSH1 0x24 PUSH0 REVERT JUMPDEST PUSH2 0x52E DUP3 PUSH2 0x488 JUMP JUMPDEST DUP2 ADD DUP2 DUP2 LT PUSH8 0xFFFFFFFFFFFFFFFF DUP3 GT OR ISZERO PUSH2 0x54D JUMPI PUSH2 0x54C PUSH2 0x4F8 JUMP JUMPDEST JUMPDEST DUP1 PUSH1 0x40 MSTORE POP POP POP JUMP JUMPDEST PUSH0 PUSH2 0x55F PUSH2 0x3B0 JUMP JUMPDEST SWAP1 POP PUSH2 0x56B DUP3 DUP3 PUSH2 0x525 JUMP JUMPDEST SWAP2 SWAP1 POP JUMP JUMPDEST PUSH0 PUSH8 0xFFFFFFFFFFFFFFFF DUP3 GT ISZERO PUSH2 0x58A JUMPI PUSH2 0x589 PUSH2 0x4F8 JUMP JUMPDEST JUMPDEST PUSH2 0x593 DUP3 PUSH2 0x488 JUMP JUMPDEST SWAP1 POP PUSH1 0x20 DUP2 ADD SWAP1 POP SWAP2 SWAP1 POP JUMP JUMPDEST DUP3 DUP2 DUP4 CALLDATACOPY PUSH0 DUP4 DUP4 ADD MSTORE POP POP POP JUMP JUMPDEST PUSH0 PUSH2 0x5C0 PUSH2 0x5BB DUP5 PUSH2 0x570 JUMP JUMPDEST PUSH2 0x556 JUMP JUMPDEST SWAP1 POP DUP3 DUP2 MSTORE PUSH1 0x20 DUP2 ADD DUP5 DUP5 DUP5 ADD GT ISZERO PUSH2 0x5DC JUMPI PUSH2 0x5DB PUSH2 0x4F4 JUMP JUMPDEST JUMPDEST PUSH2 0x5E7 DUP5 DUP3 DUP6 PUSH2 0x5A0 JUMP JUMPDEST POP SWAP4 SWAP3 POP POP POP JUMP JUMPDEST PUSH0 DUP3 PUSH1 0x1F DUP4 ADD SLT PUSH2 0x603 JUMPI PUSH2 0x602 PUSH2 0x4F0 JUMP JUMPDEST JUMPDEST DUP2 CALLDATALOAD PUSH2 0x613 DUP5 DUP3 PUSH1 0x20 DUP7 ADD PUSH2 0x5AE JUMP JUMPDEST SWAP2 POP POP SWAP3 SWAP2 POP POP JUMP JUMPDEST PUSH0 PUSH1 0x20 DUP3 DUP5 SUB SLT ISZERO PUSH2 0x631 JUMPI PUSH2 0x630 PUSH2 0x3B9 JUMP JUMPDEST JUMPDEST PUSH0 DUP3 ADD CALLDATALOAD PUSH8 0xFFFFFFFFFFFFFFFF DUP2 GT ISZERO PUSH2 0x64E JUMPI PUSH2 0x64D PUSH2 0x3BD JUMP JUMPDEST JUMPDEST PUSH2 0x65A DUP5 DUP3 DUP6 ADD PUSH2 0x5EF JUMP JUMPDEST SWAP2 POP POP SWAP3 SWAP2 POP POP JUMP JUMPDEST PUSH0 DUP1 PUSH1 0x40 DUP4 DUP6 SUB SLT ISZERO PUSH2 0x679 JUMPI PUSH2 0x678 PUSH2 0x3B9 JUMP JUMPDEST JUMPDEST PUSH0 PUSH2 0x686 DUP6 DUP3 DUP7 ADD PUSH2 0x407 JUMP JUMPDEST SWAP3 POP POP PUSH1 0x20 DUP4 ADD CALLDATALOAD PUSH8 0xFFFFFFFFFFFFFFFF DUP2 GT ISZERO PUSH2 0x6A7 JUMPI PUSH2 0x6A6 PUSH2 0x3BD JUMP JUMPDEST JUMPDEST PUSH2 0x6B3 DUP6 DUP3 DUP7 ADD PUSH2 0x5EF JUMP JUMPDEST SWAP2 POP POP SWAP3 POP SWAP3 SWAP1 POP JUMP JUMPDEST PUSH32 0x4E487B7100000000000000000000000000000000000000000000000000000000 PUSH0 MSTORE PUSH1 0x22 PUSH1 0x4 MSTORE PUSH1 0x24 PUSH0 REVERT JUMPDEST PUSH0 PUSH1 0x2 DUP3 DIV SWAP1 POP PUSH1 0x1 DUP3 AND DUP1 PUSH2 0x701 JUMPI PUSH1 0x7F DUP3 AND SWAP2 POP JUMPDEST PUSH1 0x20 DUP3 LT DUP2 SUB PUSH2 0x714 JUMPI PUSH2 0x713 PUSH2 0x6BD JUMP JUMPDEST JUMPDEST POP SWAP2 SWAP1 POP JUMP JUMPDEST PUSH0 DUP2 SWAP1 POP DUP2 PUSH0 MSTORE PUSH1 0x20 PUSH0 KECCAK256 SWAP1 POP SWAP2 SWAP1 POP JUMP JUMPDEST PUSH0 PUSH1 0x20 PUSH1 0x1F DUP4 ADD DIV SWAP1 POP SWAP2 SWAP1 POP JUMP JUMPDEST PUSH0 DUP3 DUP3 SHL SWAP1 POP SWAP3 SWAP2 POP POP JUMP JUMPDEST PUSH0 PUSH1 0x8 DUP4 MUL PUSH2 0x776 PUSH32 0xFFFFFFFFFFFFFFFFFFFFFFFFFFFFFFFFFFFFFFFFFFFFFFFFFFFFFFFFFFFFFFFF DUP3 PUSH2 0x73B JUMP JUMPDEST PUSH2 0x780 DUP7 DUP4 PUSH2 0x73B JUMP JUMPDEST SWAP6 POP DUP1 NOT DUP5 AND SWAP4 POP DUP1 DUP7 AND DUP5 OR SWAP3 POP POP POP SWAP4 SWAP3 POP POP POP JUMP JUMPDEST PUSH0 DUP2 SWAP1 POP SWAP2 SWAP1 POP JUMP JUMPDEST PUSH0 DUP2 SWAP1 POP SWAP2 SWAP1 POP JUMP JUMPDEST PUSH0 PUSH2 0x7C4 PUSH2 0x7BF PUSH2 0x7BA DUP5 PUSH2 0x798 JUMP JUMPDEST PUSH2 0x7A1 JUMP JUMPDEST PUSH2 0x798 JUMP JUMPDEST SWAP1 POP SWAP2 SWAP1 POP JUMP JUMPDEST PUSH0 DUP2 SWAP1 POP SWAP2 SWAP1 POP JUMP JUMPDEST PUSH2 0x7DD DUP4 PUSH2 0x7AA JUMP JUMPDEST PUSH2 0x7F1 PUSH2 0x7E9 DUP3 PUSH2 0x7CB JUMP JUMPDEST DUP5 DUP5 SLOAD PUSH2 0x747 JUMP JUMPDEST DUP3 SSTORE POP POP POP POP JUMP JUMPDEST PUSH0 SWAP1 JUMP JUMPDEST PUSH2 0x805 PUSH2 0x7F9 JUMP JUMPDEST PUSH2 0x810 DUP2 DUP5 DUP5 PUSH2 0x7D4 JUMP JUMPDEST POP POP POP JUMP JUMPDEST JUMPDEST DUP2 DUP2 LT ISZERO PUSH2 0x833 JUMPI PUSH2 0x828 PUSH0 DUP3 PUSH2 0x7FD JUMP JUMPDEST PUSH1 0x1 DUP2 ADD SWAP1 POP PUSH2 0x816 JUMP JUMPDEST POP POP JUMP JUMPDEST PUSH1 0x1F DUP3 GT ISZERO PUSH2 0x878 JUMPI PUSH2 0x849 DUP2 PUSH2 0x71A JUMP JUMPDEST PUSH2 0x852 DUP5 PUSH2 0x72C JUMP JUMPDEST DUP2 ADD PUSH1 0x20 DUP6 LT ISZERO PUSH2 0x861 JUMPI DUP2 SWAP1 POP JUMPDEST PUSH2 0x875 PUSH2 0x86D DUP6 PUSH2 0x72C JUMP JUMPDEST DUP4 ADD DUP3 PUSH2 0x815 JUMP JUMPDEST POP POP JUMPDEST POP POP POP JUMP JUMPDEST PUSH0 DUP3 DUP3 SHR SWAP1 POP SWAP3 SWAP2 POP POP JUMP JUMPDEST PUSH0 PUSH2 0x898 PUSH0 NOT DUP5 PUSH1 0x8 MUL PUSH2 0x87D JUMP JUMPDEST NOT DUP1 DUP4 AND SWAP2 POP POP SWAP3 SWAP2 POP POP JUMP JUMPDEST PUSH0 PUSH2 0x8B0 DUP4 DUP4 PUSH2 0x889 JUMP JUMPDEST SWAP2 POP DUP3 PUSH1 0x2 MUL DUP3 OR SWAP1 POP SWAP3 SWAP2 POP POP JUMP JUMPDEST PUSH2 0x8C9 DUP3 PUSH2 0x446 JUMP JUMPDEST PUSH8 0xFFFFFFFFFFFFFFFF DUP2 GT ISZERO PUSH2 0x8E2 JUMPI PUSH2 0x8E1 PUSH2 0x4F8 JUMP JUMPDEST JUMPDEST PUSH2 0x8EC DUP3 SLOAD PUSH2 0x6EA JUMP JUMPDEST PUSH2 0x8F7 DUP3 DUP3 DUP6 PUSH2 0x837 JUMP JUMPDEST PUSH0 PUSH1 0x20 SWAP1 POP PUSH1 0x1F DUP4 GT PUSH1 0x1 DUP2 EQ PUSH2 0x928 JUMPI PUSH0 DUP5 ISZERO PUSH2 0x916 JUMPI DUP3 DUP8 ADD MLOAD SWAP1 POP JUMPDEST PUSH2 0x920 DUP6 DUP3 PUSH2 0x8A5 JUMP JUMPDEST DUP7 SSTORE POP PUSH2 0x987 JUMP JUMPDEST PUSH1 0x1F NOT DUP5 AND PUSH2 0x936 DUP7 PUSH2 0x71A JUMP JUMPDEST PUSH0 JUMPDEST DUP3 DUP2 LT ISZERO PUSH2 0x95D JUMPI DUP5 DUP10 ADD MLOAD DUP3 SSTORE PUSH1 0x1 DUP3 ADD SWAP2 POP PUSH1 0x20 DUP6 ADD SWAP5 POP PUSH1 0x20 DUP2 ADD SWAP1 POP PUSH2 0x938 JUMP JUMPDEST DUP7 DUP4 LT ISZERO PUSH2 0x97A JUMPI DUP5 DUP10 ADD MLOAD PUSH2 0x976 PUSH1 0x1F DUP10 AND DUP3 PUSH2 0x889 JUMP JUMPDEST DUP4 SSTORE POP JUMPDEST PUSH1 0x1 PUSH1 0x2 DUP9 MUL ADD DUP9 SSTORE POP POP POP JUMPDEST POP POP POP POP POP POP JUMP INVALID LOG2 PUSH5 0x6970667358 0x22 SLT KECCAK256 NUMBER SWAP11 ORIGIN PUSH6 0x54863E47907B GASLIMIT SGT GT EQ 0xAD 0xE0 SELFDESTRUCT 0xA9 PUSH9 0xD42A293E9B41FBA48A PUSH27 0x8AD25E64736F6C6343000816003300000000000000000000000000 "
				},
				"gasEstimates": {
					"creation": {
						"codeDepositCost": "500200",
						"executionCost": "535",
						"totalCost": "500735"
					},
					"external": {
						"GetTweet(address)": "infinite",
						"RemoveTweet(address)": "infinite",
						"SetTweet(address,string)": "infinite",
						"createTweet(string)": "infinite",
						"tweets(address)": "infinite"
					}
				},
				"methodIdentifiers": {
					"GetTweet(address)": "2ac9ee41",
					"RemoveTweet(address)": "68021199",
					"SetTweet(address,string)": "7da34e84",
					"createTweet(string)": "7c9cd2bc",
					"tweets(address)": "5eaf48b4"
				}
			},
			"storageLayout": {
				"storage": [
					{
						"astId": 5,
						"contract": "contracts/artifacts/twitter.sol:Twitter",
						"label": "tweets",
						"offset": 0,
						"slot": "0",
						"type": "t_mapping(t_address,t_string_storage)"
					}
				],
				"types": {
					"t_address": {
						"encoding": "inplace",
						"label": "address",
						"numberOfBytes": "20"
					},
					"t_mapping(t_address,t_string_storage)": {
						"encoding": "mapping",
						"key": "t_address",
						"label": "mapping(address => string)",
						"numberOfBytes": "32",
						"value": "t_string_storage"
					},
					"t_string_storage": {
						"encoding": "bytes",
						"label": "string",
						"numberOfBytes": "32"
					}
				}
			},
			"userdoc": {
				"kind": "user",
				"methods": {},
				"version": 1
			}
		}
	}
}